{
  "contractName": "Announcements",
  "abi": [
    {
      "inputs": [
        {
          "internalType": "address",
          "name": "_users",
          "type": "address"
        },
        {
          "internalType": "address",
          "name": "_forwarder",
          "type": "address"
        }
      ],
      "stateMutability": "nonpayable",
      "type": "constructor"
    },
    {
      "anonymous": false,
      "inputs": [
        {
          "indexed": false,
          "internalType": "uint256",
          "name": "_nonce",
          "type": "uint256"
        }
      ],
      "name": "AnnouncementAdded",
      "type": "event"
    },
    {
      "anonymous": false,
      "inputs": [
        {
          "indexed": false,
          "internalType": "uint256",
          "name": "_nonce",
          "type": "uint256"
        }
      ],
      "name": "AnnouncementPinned",
      "type": "event"
    },
    {
      "inputs": [],
      "name": "announcementNonce",
      "outputs": [
        {
          "internalType": "uint256",
          "name": "",
          "type": "uint256"
        }
      ],
      "stateMutability": "view",
      "type": "function",
      "constant": true
    },
    {
      "inputs": [
        {
          "internalType": "uint256",
          "name": "",
          "type": "uint256"
        }
      ],
      "name": "announcements",
      "outputs": [
        {
          "internalType": "string",
          "name": "title",
          "type": "string"
        },
        {
          "internalType": "string",
          "name": "body",
          "type": "string"
        },
        {
          "internalType": "uint256",
          "name": "timecode",
          "type": "uint256"
        }
      ],
      "stateMutability": "view",
      "type": "function",
      "constant": true
    },
    {
      "inputs": [],
      "name": "getTrustedForwarder",
      "outputs": [
        {
          "internalType": "address",
          "name": "",
          "type": "address"
        }
      ],
      "stateMutability": "view",
      "type": "function",
      "constant": true
    },
    {
      "inputs": [
        {
          "internalType": "address",
          "name": "forwarder",
          "type": "address"
        }
      ],
      "name": "isTrustedForwarder",
      "outputs": [
        {
          "internalType": "bool",
          "name": "",
          "type": "bool"
        }
      ],
      "stateMutability": "view",
      "type": "function",
      "constant": true
    },
    {
      "inputs": [],
      "name": "pinnedAnnouncement",
      "outputs": [
        {
          "internalType": "uint256",
          "name": "",
          "type": "uint256"
        }
      ],
      "stateMutability": "view",
      "type": "function",
      "constant": true
    },
    {
      "inputs": [],
      "name": "trustedForwarder",
      "outputs": [
        {
          "internalType": "address",
          "name": "",
          "type": "address"
        }
      ],
      "stateMutability": "view",
      "type": "function",
      "constant": true
    },
    {
      "inputs": [],
      "name": "versionRecipient",
      "outputs": [
        {
          "internalType": "string",
          "name": "",
          "type": "string"
        }
      ],
      "stateMutability": "view",
      "type": "function",
      "constant": true
    },
    {
      "inputs": [
        {
          "internalType": "uint256",
          "name": "_nonce",
          "type": "uint256"
        }
      ],
      "name": "pinAnnouncement",
      "outputs": [],
      "stateMutability": "nonpayable",
      "type": "function"
    },
    {
      "inputs": [
        {
          "internalType": "string",
          "name": "_title",
          "type": "string"
        },
        {
          "internalType": "string",
          "name": "_body",
          "type": "string"
        },
        {
          "internalType": "bool",
          "name": "_pin",
          "type": "bool"
        }
      ],
      "name": "addAnnouncement",
      "outputs": [
        {
          "internalType": "uint256",
          "name": "_nonce",
          "type": "uint256"
        }
      ],
      "stateMutability": "nonpayable",
      "type": "function"
    },
    {
      "inputs": [],
      "name": "getAnnouncements",
      "outputs": [
        {
          "internalType": "uint256",
          "name": "_nonce",
          "type": "uint256"
        },
        {
          "internalType": "string[]",
          "name": "_titles",
          "type": "string[]"
        },
        {
          "internalType": "string[]",
          "name": "_bodies",
          "type": "string[]"
        },
        {
          "internalType": "uint256[]",
          "name": "_timecodes",
          "type": "uint256[]"
        },
        {
          "internalType": "uint256",
          "name": "_pinned",
          "type": "uint256"
        }
      ],
      "stateMutability": "view",
      "type": "function",
      "constant": true
    }
  ],
  "bytecode": "0x60806040526040518060400160405280600581526020017f322e302e3000000000000000000000000000000000000000000000000000000081525060059080519060200190620000519291906200010e565b503480156200005f57600080fd5b50604051620017b7380380620017b78339818101604052810190620000859190620001d4565b81600160006101000a81548173ffffffffffffffffffffffffffffffffffffffff021916908373ffffffffffffffffffffffffffffffffffffffff160217905550806000806101000a81548173ffffffffffffffffffffffffffffffffffffffff021916908373ffffffffffffffffffffffffffffffffffffffff160217905550505062000263565b828054600181600116156101000203166002900490600052602060002090601f016020900481019282601f106200015157805160ff191683800117855562000182565b8280016001018555821562000182579182015b828111156200018157825182559160200191906001019062000164565b5b50905062000191919062000195565b5090565b620001ba91905b80821115620001b65760008160009055506001016200019c565b5090565b90565b600081519050620001ce8162000249565b92915050565b60008060408385031215620001e857600080fd5b6000620001f885828601620001bd565b92505060206200020b85828601620001bd565b9150509250929050565b6000620002228262000229565b9050919050565b600073ffffffffffffffffffffffffffffffffffffffff82169050919050565b620002548162000215565b81146200026057600080fd5b50565b61154480620002736000396000f3fe608060405234801561001057600080fd5b506004361061009e5760003560e01c80635ce214eb116100665780635ce214eb1461016357806379fa8a62146101935780637da0a877146101af5780637f4dde00146101cd578063ce1b815f146101eb5761009e565b80631bcfbe31146100a3578063486ff0cd146100d5578063536c0c77146100f357806355d2fc4d14610111578063572b6c0514610133575b600080fd5b6100bd60048036038101906100b89190610dc5565b610209565b6040516100cc939291906111b8565b60405180910390f35b6100dd610363565b6040516100ea9190611196565b60405180910390f35b6100fb610401565b604051610108919061127d565b60405180910390f35b610119610407565b60405161012a959493929190611298565b60405180910390f35b61014d60048036038101906101489190610d1d565b610716565b60405161015a919061117b565b60405180910390f35b61017d60048036038101906101789190610d46565b61076f565b60405161018a919061127d565b60405180910390f35b6101ad60048036038101906101a89190610dc5565b61092d565b005b6101b7610aeb565b6040516101c49190611145565b60405180910390f35b6101d5610b10565b6040516101e2919061127d565b60405180910390f35b6101f3610b16565b6040516102009190611145565b60405180910390f35b6004602052806000526040600020600091509050806000018054600181600116156101000203166002900480601f0160208091040260200160405190810160405280929190818152602001828054600181600116156101000203166002900480156102b55780601f1061028a576101008083540402835291602001916102b5565b820191906000526020600020905b81548152906001019060200180831161029857829003601f168201915b505050505090806001018054600181600116156101000203166002900480601f0160208091040260200160405190810160405280929190818152602001828054600181600116156101000203166002900480156103535780601f1061032857610100808354040283529160200191610353565b820191906000526020600020905b81548152906001019060200180831161033657829003601f168201915b5050505050908060020154905083565b60058054600181600116156101000203166002900480601f0160208091040260200160405190810160405280929190818152602001828054600181600116156101000203166002900480156103f95780601f106103ce576101008083540402835291602001916103f9565b820191906000526020600020905b8154815290600101906020018083116103dc57829003601f168201915b505050505081565b60035481565b600060608060606000600254945060035490508467ffffffffffffffff8111801561043157600080fd5b5060405190808252806020026020018201604052801561046557816020015b60608152602001906001900390816104505790505b5093508467ffffffffffffffff8111801561047f57600080fd5b506040519080825280602002602001820160405280156104b357816020015b606081526020019060019003908161049e5790505b5092508467ffffffffffffffff811180156104cd57600080fd5b506040519080825280602002602001820160405280156104fc5781602001602082028036833780820191505090505b50915060008090505b8581101561070e5760046000610525600184610b3f90919063ffffffff16565b81526020019081526020016000206000018054600181600116156101000203166002900480601f0160208091040260200160405190810160405280929190818152602001828054600181600116156101000203166002900480156105ca5780601f1061059f576101008083540402835291602001916105ca565b820191906000526020600020905b8154815290600101906020018083116105ad57829003601f168201915b50505050508582815181106105db57fe5b6020026020010181905250600460006105fe600184610b3f90919063ffffffff16565b81526020019081526020016000206001018054600181600116156101000203166002900480601f0160208091040260200160405190810160405280929190818152602001828054600181600116156101000203166002900480156106a35780601f10610678576101008083540402835291602001916106a3565b820191906000526020600020905b81548152906001019060200180831161068657829003601f168201915b50505050508482815181106106b457fe5b6020026020010181905250600460006106d7600184610b3f90919063ffffffff16565b8152602001908152602001600020600201548382815181106106f557fe5b6020026020010181815250508080600101915050610505565b509091929394565b60008060009054906101000a900473ffffffffffffffffffffffffffffffffffffffff1673ffffffffffffffffffffffffffffffffffffffff168273ffffffffffffffffffffffffffffffffffffffff16149050919050565b60006002600160009054906101000a900473ffffffffffffffffffffffffffffffffffffffff1673ffffffffffffffffffffffffffffffffffffffff1663d590f8c96107b9610b94565b6040518263ffffffff1660e01b81526004016107d59190611160565b60206040518083038186803b1580156107ed57600080fd5b505afa158015610801573d6000803e3d6000fd5b505050506040513d601f19601f820116820180604052508101906108259190610dee565b14610865576040517f08c379a000000000000000000000000000000000000000000000000000000000815260040161085c9061125d565b60405180910390fd5b61087b6001600254610b3f90919063ffffffff16565b60028190555060006004600060025481526020019081526020016000209050848160000190805190602001906108b2929190610bd0565b50838160010190805190602001906108cb929190610bd0565b504281600201819055507f8fe6937ee49ab43427ef1aa9103bd73e4d8e63cdb60177143fcb2327c416cfdc600254604051610906919061127d565b60405180910390a182156109205761091f60025461092d565b5b6002549150509392505050565b6002600160009054906101000a900473ffffffffffffffffffffffffffffffffffffffff1673ffffffffffffffffffffffffffffffffffffffff1663d590f8c9610975610b94565b6040518263ffffffff1660e01b81526004016109919190611160565b60206040518083038186803b1580156109a957600080fd5b505afa1580156109bd573d6000803e3d6000fd5b505050506040513d601f19601f820116820180604052508101906109e19190610dee565b14610a21576040517f08c379a0000000000000000000000000000000000000000000000000000000008152600401610a189061125d565b60405180910390fd5b6000811415610a65576040517f08c379a0000000000000000000000000000000000000000000000000000000008152600401610a5c906111fd565b60405180910390fd5b806003541415610aaa576040517f08c379a0000000000000000000000000000000000000000000000000000000008152600401610aa19061121d565b60405180910390fd5b806003819055507f9188c2447d939db94e4a533a4bc15c8dd96442e793cd2c95adc90f0d372d1c7981604051610ae0919061127d565b60405180910390a150565b6000809054906101000a900473ffffffffffffffffffffffffffffffffffffffff1681565b60025481565b60008060009054906101000a900473ffffffffffffffffffffffffffffffffffffffff16905090565b600080828401905083811015610b8a576040517f08c379a0000000000000000000000000000000000000000000000000000000008152600401610b819061123d565b60405180910390fd5b8091505092915050565b60006018600036905010158015610bb05750610baf33610716565b5b15610bc457601436033560601c9050610bcc565b339050610bcd565b5b90565b828054600181600116156101000203166002900490600052602060002090601f016020900481019282601f10610c1157805160ff1916838001178555610c3f565b82800160010185558215610c3f579182015b82811115610c3e578251825591602001919060010190610c23565b5b509050610c4c9190610c50565b5090565b610c7291905b80821115610c6e576000816000905550600101610c56565b5090565b90565b600081359050610c84816114c9565b92915050565b600081359050610c99816114e0565b92915050565b600082601f830112610cb057600080fd5b8135610cc3610cbe8261132d565b611300565b91508082526020830160208301858383011115610cdf57600080fd5b610cea838284611476565b50505092915050565b600081359050610d02816114f7565b92915050565b600081519050610d17816114f7565b92915050565b600060208284031215610d2f57600080fd5b6000610d3d84828501610c75565b91505092915050565b600080600060608486031215610d5b57600080fd5b600084013567ffffffffffffffff811115610d7557600080fd5b610d8186828701610c9f565b935050602084013567ffffffffffffffff811115610d9e57600080fd5b610daa86828701610c9f565b9250506040610dbb86828701610c8a565b9150509250925092565b600060208284031215610dd757600080fd5b6000610de584828501610cf3565b91505092915050565b600060208284031215610e0057600080fd5b6000610e0e84828501610d08565b91505092915050565b6000610e238383610f43565b905092915050565b6000610e378383611127565b60208301905092915050565b610e4c81611440565b82525050565b610e5b816113f8565b82525050565b6000610e6c82611379565b610e7681856113b4565b935083602082028501610e8885611359565b8060005b85811015610ec45784840389528151610ea58582610e17565b9450610eb08361139a565b925060208a01995050600181019050610e8c565b50829750879550505050505092915050565b6000610ee182611384565b610eeb81856113c5565b9350610ef683611369565b8060005b83811015610f27578151610f0e8882610e2b565b9750610f19836113a7565b925050600181019050610efa565b5085935050505092915050565b610f3d8161140a565b82525050565b6000610f4e8261138f565b610f5881856113d6565b9350610f68818560208601611485565b610f71816114b8565b840191505092915050565b6000610f878261138f565b610f9181856113e7565b9350610fa1818560208601611485565b610faa816114b8565b840191505092915050565b6000610fc26028836113e7565b91507f436f72653a2063616e6e6f7420736574206e6f2070696e6e656420616e6e6f7560008301527f6e63656d656e74210000000000000000000000000000000000000000000000006020830152604082019050919050565b60006110286022836113e7565b91507f436f72653a20416e6e6f756e63656d656e7420616c72656164792070696e6e6560008301527f64210000000000000000000000000000000000000000000000000000000000006020830152604082019050919050565b600061108e601b836113e7565b91507f536166654d6174683a206164646974696f6e206f766572666c6f7700000000006000830152602082019050919050565b60006110ce6029836113e7565b91507f41646472657373206e6f742061757468656e7469636174656420666f7220746860008301527f697320616374696f6e00000000000000000000000000000000000000000000006020830152604082019050919050565b61113081611436565b82525050565b61113f81611436565b82525050565b600060208201905061115a6000830184610e52565b92915050565b60006020820190506111756000830184610e43565b92915050565b60006020820190506111906000830184610f34565b92915050565b600060208201905081810360008301526111b08184610f7c565b905092915050565b600060608201905081810360008301526111d28186610f7c565b905081810360208301526111e68185610f7c565b90506111f56040830184611136565b949350505050565b6000602082019050818103600083015261121681610fb5565b9050919050565b600060208201905081810360008301526112368161101b565b9050919050565b6000602082019050818103600083015261125681611081565b9050919050565b60006020820190508181036000830152611276816110c1565b9050919050565b60006020820190506112926000830184611136565b92915050565b600060a0820190506112ad6000830188611136565b81810360208301526112bf8187610e61565b905081810360408301526112d38186610e61565b905081810360608301526112e78185610ed6565b90506112f66080830184611136565b9695505050505050565b6000604051905081810181811067ffffffffffffffff8211171561132357600080fd5b8060405250919050565b600067ffffffffffffffff82111561134457600080fd5b601f19601f8301169050602081019050919050565b6000819050602082019050919050565b6000819050602082019050919050565b600081519050919050565b600081519050919050565b600081519050919050565b6000602082019050919050565b6000602082019050919050565b600082825260208201905092915050565b600082825260208201905092915050565b600082825260208201905092915050565b600082825260208201905092915050565b600061140382611416565b9050919050565b60008115159050919050565b600073ffffffffffffffffffffffffffffffffffffffff82169050919050565b6000819050919050565b600061144b82611452565b9050919050565b600061145d82611464565b9050919050565b600061146f82611416565b9050919050565b82818337600083830152505050565b60005b838110156114a3578082015181840152602081019050611488565b838111156114b2576000848401525b50505050565b6000601f19601f8301169050919050565b6114d2816113f8565b81146114dd57600080fd5b50565b6114e98161140a565b81146114f457600080fd5b50565b61150081611436565b811461150b57600080fd5b5056fea26469706673582212201666b940ca31d0e6611d4e68922f1dd00b4f90f336870ffc52bb898473ec6cc964736f6c634300060a0033",
  "immutableReferences": {},
  "source": "//SPDX-License-Identifier: MIT\npragma solidity >=0.6.0 <0.8.0;\npragma experimental ABIEncoderV2;\n\nimport \"./interfaces/IAnnouncements.sol\";\n\ncontract Announcements is IAnnouncements {\n    //@param _users - the address of the deployed users contract\n    //@param _forwarder - the address of the gsn trusted forwarder\n    constructor(address _users, address _forwarder) public {\n        userContract = IUsers(_users);\n        trustedForwarder = _forwarder;\n    }\n\n    function pinAnnouncement(uint256 _nonce) public override onlyAdmin() {\n        require(_nonce != 0, \"Core: cannot set no pinned announcement!\");\n        require(\n            pinnedAnnouncement != _nonce,\n            \"Core: Announcement already pinned!\"\n        );\n        pinnedAnnouncement = _nonce;\n        emit AnnouncementPinned(_nonce);\n    }\n\n    function addAnnouncement(\n        string memory _title,\n        string memory _body,\n        bool _pin\n    ) public override onlyAdmin() returns (uint256 _nonce) {\n        announcementNonce = announcementNonce.add(1);\n        Announcement storage announcement = announcements[announcementNonce];\n        announcement.title = _title;\n        announcement.body = _body;\n        announcement.timecode = now;\n        emit AnnouncementAdded(announcementNonce);\n        if (_pin) pinAnnouncement(announcementNonce);\n        return announcementNonce;\n    }\n\n    function getAnnouncements()\n        public\n        view\n        override\n        returns (\n            uint256 _nonce,\n            string[] memory _titles,\n            string[] memory _bodies,\n            uint256[] memory _timecodes,\n            uint256 _pinned\n        )\n    {\n        _nonce = announcementNonce;\n        _pinned = pinnedAnnouncement;\n        _titles = new string[](_nonce);\n        _bodies = new string[](_nonce);\n        _timecodes = new uint256[](_nonce);\n        for (uint256 i = 0; i < _nonce; i++) {\n            _titles[i] = announcements[i.add(1)].title;\n            _bodies[i] = announcements[i.add(1)].body;\n            _timecodes[i] = announcements[i.add(1)].timecode;\n        }\n    }\n}\n",
  "sourcePath": "/home/jpag/orgtoken/contracts/contracts/Announcements.sol",
  "compiler": {
    "name": "solc",
    "version": "0.6.10+commit.00c0fcaf.Emscripten.clang"
  },
  "schemaVersion": "3.3.3",
  "updatedAt": "2021-01-17T00:27:45.447Z",
  "networkType": "ethereum",
  "devdoc": {
    "methods": {}
  },
  "userdoc": {
    "methods": {
      "getTrustedForwarder()": {
        "notice": "GSN Forwarder Call"
      }
    }
  }
}