{
  "contractName": "Announcements",
  "abi": [
    {
      "anonymous": false,
      "inputs": [
        {
          "indexed": false,
          "internalType": "uint256",
          "name": "_nonce",
          "type": "uint256"
        }
      ],
      "name": "AnnouncementAdded",
      "type": "event"
    },
    {
      "anonymous": false,
      "inputs": [
        {
          "indexed": false,
          "internalType": "uint256",
          "name": "_nonce",
          "type": "uint256"
        }
      ],
      "name": "AnnouncementPinned",
      "type": "event"
    },
    {
      "inputs": [],
      "name": "announcementNonce",
      "outputs": [
        {
          "internalType": "uint256",
          "name": "",
          "type": "uint256"
        }
      ],
      "stateMutability": "view",
      "type": "function",
      "constant": true
    },
    {
      "inputs": [],
      "name": "pinnedAnnouncement",
      "outputs": [
        {
          "internalType": "uint256",
          "name": "",
          "type": "uint256"
        }
      ],
      "stateMutability": "view",
      "type": "function",
      "constant": true
    },
    {
      "inputs": [
        {
          "internalType": "string",
          "name": "_title",
          "type": "string"
        },
        {
          "internalType": "string",
          "name": "_body",
          "type": "string"
        },
        {
          "internalType": "bool",
          "name": "_pin",
          "type": "bool"
        }
      ],
      "name": "addAnnouncement",
      "outputs": [
        {
          "internalType": "uint256",
          "name": "_nonce",
          "type": "uint256"
        }
      ],
      "stateMutability": "nonpayable",
      "type": "function"
    },
    {
      "inputs": [
        {
          "internalType": "uint256",
          "name": "_nonce",
          "type": "uint256"
        }
      ],
      "name": "pinAnnouncement",
      "outputs": [],
      "stateMutability": "nonpayable",
      "type": "function"
    },
    {
      "inputs": [
        {
          "internalType": "uint256",
          "name": "_nonce",
          "type": "uint256"
        }
      ],
      "name": "getAnnouncement",
      "outputs": [
        {
          "internalType": "string",
          "name": "_title",
          "type": "string"
        },
        {
          "internalType": "string",
          "name": "_body",
          "type": "string"
        },
        {
          "internalType": "uint256",
          "name": "_timecode",
          "type": "uint256"
        },
        {
          "internalType": "bool",
          "name": "_pinned",
          "type": "bool"
        }
      ],
      "stateMutability": "view",
      "type": "function",
      "constant": true
    },
    {
      "inputs": [],
      "name": "getAnnouncements",
      "outputs": [
        {
          "internalType": "uint256",
          "name": "_nonce",
          "type": "uint256"
        },
        {
          "internalType": "string[]",
          "name": "_titles",
          "type": "string[]"
        },
        {
          "internalType": "string[]",
          "name": "_bodies",
          "type": "string[]"
        },
        {
          "internalType": "uint256[]",
          "name": "_timecodes",
          "type": "uint256[]"
        },
        {
          "internalType": "uint256",
          "name": "_pinned",
          "type": "uint256"
        }
      ],
      "stateMutability": "view",
      "type": "function",
      "constant": true
    }
  ],
  "bytecode": "0x608060405234801561001057600080fd5b50610d6e806100206000396000f3fe608060405234801561001057600080fd5b50600436106100625760003560e01c8063536c0c771461006757806355d2fc4d146100855780635ce214eb146100a757806379fa8a62146100d75780637f4dde00146100f3578063d16cdae114610111575b600080fd5b61006f610144565b60405161007c9190610b1b565b60405180910390f35b61008d61014a565b60405161009e959493929190610b36565b60405180910390f35b6100c160048036036100bc9190810190610822565b6103da565b6040516100ce9190610b1b565b60405180910390f35b6100f160048036036100ec91908101906108a1565b6104a2565b005b6100fb6104e3565b6040516101089190610b1b565b60405180910390f35b61012b600480360361012691908101906108a1565b6104e9565b60405161013b9493929190610aa8565b60405180910390f35b60015481565b6000606080606060008054945060015490508460405190808252806020026020018201604052801561019057816020015b606081526020019060019003908161017b5790505b509350846040519080825280602002602001820160405280156101c757816020015b60608152602001906001900390816101b25790505b509250846040519080825280602002602001820160405280156101f95781602001602082028038833980820191505090505b50915060008090505b858110156103d257600260008281526020019081526020016000206000018054600181600116156101000203166002900480601f0160208091040260200160405190810160405280929190818152602001828054600181600116156101000203166002900480156102b45780601f10610289576101008083540402835291602001916102b4565b820191906000526020600020905b81548152906001019060200180831161029757829003601f168201915b50505050508582815181106102c557fe5b6020026020010181905250600260008281526020019081526020016000206001018054600181600116156101000203166002900480601f01602080910402602001604051908101604052809291908181526020018280546001816001161561010002031660029004801561037a5780601f1061034f5761010080835404028352916020019161037a565b820191906000526020600020905b81548152906001019060200180831161035d57829003601f168201915b505050505084828151811061038b57fe5b602002602001018190525060026000828152602001908152602001600020600201548382815181106103b957fe5b6020026020010181815250508080600101915050610202565b509091929394565b600080600260008054815260200190815260200160002090508481600001908051906020019061040b9291906106de565b50838160010190805190602001906104249291906106de565b504281600201819055507f8fe6937ee49ab43427ef1aa9103bd73e4d8e63cdb60177143fcb2327c416cfdc60005460405161045f9190610b1b565b60405180910390a18215610479576104786000546104a2565b5b61048f600160005461068990919063ffffffff16565b6000819055506000549150509392505050565b806001819055507f9188c2447d939db94e4a533a4bc15c8dd96442e793cd2c95adc90f0d372d1c79816040516104d89190610b1b565b60405180910390a150565b60005481565b6060806000806104f761075e565b60026000878152602001908152602001600020604051806060016040529081600082018054600181600116156101000203166002900480601f0160208091040260200160405190810160405280929190818152602001828054600181600116156101000203166002900480156105ae5780601f10610583576101008083540402835291602001916105ae565b820191906000526020600020905b81548152906001019060200180831161059157829003601f168201915b50505050508152602001600182018054600181600116156101000203166002900480601f0160208091040260200160405190810160405280929190818152602001828054600181600116156101000203166002900480156106505780601f1061062557610100808354040283529160200191610650565b820191906000526020600020905b81548152906001019060200180831161063357829003601f168201915b50505050508152602001600282015481525050905080600001519450806020015193508060400151925085600154149150509193509193565b6000808284019050838110156106d4576040517f08c379a00000000000000000000000000000000000000000000000000000000081526004016106cb90610afb565b60405180910390fd5b8091505092915050565b828054600181600116156101000203166002900490600052602060002090601f016020900481019282601f1061071f57805160ff191683800117855561074d565b8280016001018555821561074d579182015b8281111561074c578251825591602001919060010190610731565b5b50905061075a919061077f565b5090565b60405180606001604052806060815260200160608152602001600081525090565b6107a191905b8082111561079d576000816000905550600101610785565b5090565b90565b6000813590506107b381610d0a565b92915050565b600082601f8301126107ca57600080fd5b81356107dd6107d882610bcb565b610b9e565b915080825260208301602083018583830111156107f957600080fd5b610804838284610cb7565b50505092915050565b60008135905061081c81610d21565b92915050565b60008060006060848603121561083757600080fd5b600084013567ffffffffffffffff81111561085157600080fd5b61085d868287016107b9565b935050602084013567ffffffffffffffff81111561087a57600080fd5b610886868287016107b9565b9250506040610897868287016107a4565b9150509250925092565b6000602082840312156108b357600080fd5b60006108c18482850161080d565b91505092915050565b60006108d68383610a11565b905092915050565b60006108ea8383610a8a565b60208301905092915050565b600061090182610c17565b61090b8185610c5d565b93508360208202850161091d85610bf7565b8060005b85811015610959578484038952815161093a85826108ca565b945061094583610c43565b925060208a01995050600181019050610921565b50829750879550505050505092915050565b600061097682610c22565b6109808185610c6e565b935061098b83610c07565b8060005b838110156109bc5781516109a388826108de565b97506109ae83610c50565b92505060018101905061098f565b5085935050505092915050565b6109d281610ca1565b82525050565b60006109e382610c38565b6109ed8185610c90565b93506109fd818560208601610cc6565b610a0681610cf9565b840191505092915050565b6000610a1c82610c2d565b610a268185610c7f565b9350610a36818560208601610cc6565b610a3f81610cf9565b840191505092915050565b6000610a57601b83610c90565b91507f536166654d6174683a206164646974696f6e206f766572666c6f7700000000006000830152602082019050919050565b610a9381610cad565b82525050565b610aa281610cad565b82525050565b60006080820190508181036000830152610ac281876109d8565b90508181036020830152610ad681866109d8565b9050610ae56040830185610a99565b610af260608301846109c9565b95945050505050565b60006020820190508181036000830152610b1481610a4a565b9050919050565b6000602082019050610b306000830184610a99565b92915050565b600060a082019050610b4b6000830188610a99565b8181036020830152610b5d81876108f6565b90508181036040830152610b7181866108f6565b90508181036060830152610b85818561096b565b9050610b946080830184610a99565b9695505050505050565b6000604051905081810181811067ffffffffffffffff82111715610bc157600080fd5b8060405250919050565b600067ffffffffffffffff821115610be257600080fd5b601f19601f8301169050602081019050919050565b6000819050602082019050919050565b6000819050602082019050919050565b600081519050919050565b600081519050919050565b600081519050919050565b600081519050919050565b6000602082019050919050565b6000602082019050919050565b600082825260208201905092915050565b600082825260208201905092915050565b600082825260208201905092915050565b600082825260208201905092915050565b60008115159050919050565b6000819050919050565b82818337600083830152505050565b60005b83811015610ce4578082015181840152602081019050610cc9565b83811115610cf3576000848401525b50505050565b6000601f19601f8301169050919050565b610d1381610ca1565b8114610d1e57600080fd5b50565b610d2a81610cad565b8114610d3557600080fd5b5056fea26469706673582212207dde249ab83b6d442575f4ed99f6cc951b1ce27166aa745020a6d4b2ba9da81c64736f6c63430006010033",
  "source": "//SPDX-License-Identifier: UNLICENSED\npragma solidity >0.5.0 <0.8.0;\npragma experimental ABIEncoderV2;\n\nimport \"@openzeppelin/contracts/math/SafeMath.sol\";\n\ncontract Announcements {\n    struct Announcement {\n        string title;\n        string body;\n        uint256 timecode;\n    }\n    using SafeMath for uint256;\n    event AnnouncementAdded(uint256 _nonce);\n    event AnnouncementPinned(uint256 _nonce);\n\n    uint256 public announcementNonce;\n    uint256 public pinnedAnnouncement;\n    mapping(uint256 => Announcement) announcements;\n\n    /**\n     * Add a new announcement\n     * @dev modifier onlyAdmin\n     *\n     * @param _title - the title text of the announcement post\n     * @param _body - the body text of the announcement post\n     * @param _pin - true if post should is pinned to the top of the UI, false otherwise\n     * @return _nonce - the nonce of the announcement on-chain\n     */\n    function addAnnouncement(\n        string memory _title,\n        string memory _body,\n        bool _pin\n    ) public returns (uint256 _nonce) {\n        Announcement storage announcement = announcements[announcementNonce];\n        announcement.title = _title;\n        announcement.body = _body;\n        announcement.timecode = now;\n        emit AnnouncementAdded(announcementNonce);\n        if (_pin) pinAnnouncement(announcementNonce);\n        announcementNonce = announcementNonce.add(1);\n        return announcementNonce;\n    }\n\n    /**\n     * Pin a specific announcement to the top of the UI\n     * @dev modifier onlyAdmin\n     *\n     * @param _nonce - the index of the announcement to set as pinned within the contract\n     */\n    function pinAnnouncement(uint256 _nonce) public {\n        pinnedAnnouncement = _nonce;\n        emit AnnouncementPinned(_nonce);\n    }\n\n    /**\n     * Get all data regarding a specific announcement\n     *\n     * @param _nonce - the index of the announcement to query internally\n     * @return _title - the title text of the announcement post\n     * @return _body - the body text of the announcement post\n     * @return _timecode - UNIX timestamp on Ethereum when the announcement was committed\n     * @return _pinned - true if the announcement is pinned, false otherwise\n     */\n    function getAnnouncement(uint256 _nonce)\n        public\n        view\n        returns (\n            string memory _title,\n            string memory _body,\n            uint256 _timecode,\n            bool _pinned\n        )\n    {\n        Announcement memory announcement = announcements[_nonce];\n        _title = announcement.title;\n        _body = announcement.body;\n        _timecode = announcement.timecode;\n        _pinned = pinnedAnnouncement == _nonce;\n    }\n\n    /**\n     * Get every announcement added to the platform\n     *\n     * @return _nonce - the number of announcements returned\n     * @return _titles - array of all announcements' title text\n     * @return _bodies - array of all announcements' body text\n     * @return _timecodes - array of all announcements' UNIX timestamps\n     * @return _pinned - nonce of pinned announcement\n     */\n    function getAnnouncements()\n        public\n        view\n        returns (\n            uint256 _nonce,\n            string[] memory _titles,\n            string[] memory _bodies,\n            uint256[] memory _timecodes,\n            uint256 _pinned\n        )\n    {\n        _nonce = announcementNonce;\n        _pinned = pinnedAnnouncement;\n        _titles = new string[](_nonce);\n        _bodies = new string[](_nonce);\n        _timecodes = new uint256[](_nonce);\n        for (uint i = 0; i < _nonce; i++) {\n            _titles[i] = announcements[i].title;\n            _bodies[i] = announcements[i].body;\n            _timecodes[i] = announcements[i].timecode;\n        }\n    }\n}\n\n",
  "sourcePath": "/home/kiwi/Desktop/sandbox/gatsby-torus-direct-v3/blockchain/contracts/Announcements.sol",
  "compiler": {
    "name": "solc",
    "version": "0.6.1+commit.e6f7d5a4.Emscripten.clang"
  },
  "schemaVersion": "3.3.1",
  "updatedAt": "2020-12-30T21:17:34.469Z",
  "networkType": "ethereum",
  "devdoc": {
    "methods": {
      "addAnnouncement(string,string,bool)": {
        "details": "modifier onlyAdmin",
        "params": {
          "_body": "- the body text of the announcement post",
          "_pin": "- true if post should is pinned to the top of the UI, false otherwise",
          "_title": "- the title text of the announcement post"
        },
        "returns": {
          "_nonce": "- the nonce of the announcement on-chain"
        }
      },
      "getAnnouncement(uint256)": {
        "params": {
          "_nonce": "- the index of the announcement to query internally"
        },
        "returns": {
          "_body": "- the body text of the announcement post",
          "_pinned": "- true if the announcement is pinned, false otherwise",
          "_timecode": "- UNIX timestamp on Ethereum when the announcement was committed",
          "_title": "- the title text of the announcement post"
        }
      },
      "pinAnnouncement(uint256)": {
        "details": "modifier onlyAdmin",
        "params": {
          "_nonce": "- the index of the announcement to set as pinned within the contract"
        }
      }
    }
  },
  "userdoc": {
    "methods": {
      "addAnnouncement(string,string,bool)": {
        "notice": "Add a new announcement"
      },
      "getAnnouncement(uint256)": {
        "notice": "Get all data regarding a specific announcement"
      },
      "getAnnouncements()": {
        "notice": "Get every announcement added to the platform"
      },
      "pinAnnouncement(uint256)": {
        "notice": "Pin a specific announcement to the top of the UI"
      }
    }
  }
}