{
  "contractName": "Announcements",
  "abi": [
    {
      "inputs": [
        {
          "internalType": "address",
          "name": "_users",
          "type": "address"
        }
      ],
      "stateMutability": "nonpayable",
      "type": "constructor"
    },
    {
      "anonymous": false,
      "inputs": [
        {
          "indexed": false,
          "internalType": "uint256",
          "name": "_nonce",
          "type": "uint256"
        }
      ],
      "name": "AnnouncementAdded",
      "type": "event"
    },
    {
      "anonymous": false,
      "inputs": [
        {
          "indexed": false,
          "internalType": "uint256",
          "name": "_nonce",
          "type": "uint256"
        }
      ],
      "name": "AnnouncementPinned",
      "type": "event"
    },
    {
      "inputs": [],
      "name": "announcementNonce",
      "outputs": [
        {
          "internalType": "uint256",
          "name": "",
          "type": "uint256"
        }
      ],
      "stateMutability": "view",
      "type": "function",
      "constant": true
    },
    {
      "inputs": [
        {
          "internalType": "uint256",
          "name": "",
          "type": "uint256"
        }
      ],
      "name": "announcements",
      "outputs": [
        {
          "internalType": "string",
          "name": "title",
          "type": "string"
        },
        {
          "internalType": "string",
          "name": "body",
          "type": "string"
        },
        {
          "internalType": "uint256",
          "name": "timecode",
          "type": "uint256"
        }
      ],
      "stateMutability": "view",
      "type": "function",
      "constant": true
    },
    {
      "inputs": [],
      "name": "pinnedAnnouncement",
      "outputs": [
        {
          "internalType": "uint256",
          "name": "",
          "type": "uint256"
        }
      ],
      "stateMutability": "view",
      "type": "function",
      "constant": true
    },
    {
      "inputs": [
        {
          "internalType": "uint256",
          "name": "_nonce",
          "type": "uint256"
        }
      ],
      "name": "pinAnnouncement",
      "outputs": [],
      "stateMutability": "nonpayable",
      "type": "function"
    },
    {
      "inputs": [
        {
          "internalType": "string",
          "name": "_title",
          "type": "string"
        },
        {
          "internalType": "string",
          "name": "_body",
          "type": "string"
        },
        {
          "internalType": "bool",
          "name": "_pin",
          "type": "bool"
        }
      ],
      "name": "addAnnouncement",
      "outputs": [
        {
          "internalType": "uint256",
          "name": "_nonce",
          "type": "uint256"
        }
      ],
      "stateMutability": "nonpayable",
      "type": "function"
    },
    {
      "inputs": [],
      "name": "getAnnouncements",
      "outputs": [
        {
          "internalType": "uint256",
          "name": "_nonce",
          "type": "uint256"
        },
        {
          "internalType": "string[]",
          "name": "_titles",
          "type": "string[]"
        },
        {
          "internalType": "string[]",
          "name": "_bodies",
          "type": "string[]"
        },
        {
          "internalType": "uint256[]",
          "name": "_timecodes",
          "type": "uint256[]"
        },
        {
          "internalType": "uint256",
          "name": "_pinned",
          "type": "uint256"
        }
      ],
      "stateMutability": "view",
      "type": "function",
      "constant": true
    }
  ],
  "bytecode": "0x608060405234801561001057600080fd5b50604051610fbc380380610fbc8339818101604052610032919081019061008d565b806000806101000a81548173ffffffffffffffffffffffffffffffffffffffff021916908373ffffffffffffffffffffffffffffffffffffffff160217905550506100ff565b600081519050610087816100e8565b92915050565b60006020828403121561009f57600080fd5b60006100ad84828501610078565b91505092915050565b60006100c1826100c8565b9050919050565b600073ffffffffffffffffffffffffffffffffffffffff82169050919050565b6100f1816100b6565b81146100fc57600080fd5b50565b610eae8061010e6000396000f3fe608060405234801561001057600080fd5b50600436106100625760003560e01c80631bcfbe3114610067578063536c0c771461009957806355d2fc4d146100b75780635ce214eb146100d957806379fa8a62146101095780637f4dde0014610125575b600080fd5b610081600480360361007c91908101906108fd565b610143565b60405161009093929190610bc1565b60405180910390f35b6100a161029d565b6040516100ae9190610c66565b60405180910390f35b6100bf6102a3565b6040516100d0959493929190610c81565b60405180910390f35b6100f360048036036100ee919081019061087e565b61056d565b6040516101009190610c66565b60405180910390f35b610123600480360361011e91908101906108fd565b610636565b005b61012d610700565b60405161013a9190610c66565b60405180910390f35b6003602052806000526040600020600091509050806000018054600181600116156101000203166002900480601f0160208091040260200160405190810160405280929190818152602001828054600181600116156101000203166002900480156101ef5780601f106101c4576101008083540402835291602001916101ef565b820191906000526020600020905b8154815290600101906020018083116101d257829003601f168201915b505050505090806001018054600181600116156101000203166002900480601f01602080910402602001604051908101604052809291908181526020018280546001816001161561010002031660029004801561028d5780601f106102625761010080835404028352916020019161028d565b820191906000526020600020905b81548152906001019060200180831161027057829003601f168201915b5050505050908060020154905083565b60025481565b60006060806060600060015494506002549050846040519080825280602002602001820160405280156102ea57816020015b60608152602001906001900390816102d55790505b5093508460405190808252806020026020018201604052801561032157816020015b606081526020019060019003908161030c5790505b509250846040519080825280602002602001820160405280156103535781602001602082028038833980820191505090505b50915060008090505b85811015610565576003600061037c60018461070690919063ffffffff16565b81526020019081526020016000206000018054600181600116156101000203166002900480601f0160208091040260200160405190810160405280929190818152602001828054600181600116156101000203166002900480156104215780601f106103f657610100808354040283529160200191610421565b820191906000526020600020905b81548152906001019060200180831161040457829003601f168201915b505050505085828151811061043257fe5b60200260200101819052506003600061045560018461070690919063ffffffff16565b81526020019081526020016000206001018054600181600116156101000203166002900480601f0160208091040260200160405190810160405280929190818152602001828054600181600116156101000203166002900480156104fa5780601f106104cf576101008083540402835291602001916104fa565b820191906000526020600020905b8154815290600101906020018083116104dd57829003601f168201915b505050505084828151811061050b57fe5b60200260200101819052506003600061052e60018461070690919063ffffffff16565b81526020019081526020016000206002015483828151811061054c57fe5b602002602001018181525050808060010191505061035c565b509091929394565b60006105846001805461070690919063ffffffff16565b60018190555060006003600060015481526020019081526020016000209050848160000190805190602001906105bb92919061075b565b50838160010190805190602001906105d492919061075b565b504281600201819055507f8fe6937ee49ab43427ef1aa9103bd73e4d8e63cdb60177143fcb2327c416cfdc60015460405161060f9190610c66565b60405180910390a1821561062957610628600154610636565b5b6001549150509392505050565b600081141561067a576040517f08c379a000000000000000000000000000000000000000000000000000000000815260040161067190610c06565b60405180910390fd5b8060025414156106bf576040517f08c379a00000000000000000000000000000000000000000000000000000000081526004016106b690610c26565b60405180910390fd5b806002819055507f9188c2447d939db94e4a533a4bc15c8dd96442e793cd2c95adc90f0d372d1c79816040516106f59190610c66565b60405180910390a150565b60015481565b600080828401905083811015610751576040517f08c379a000000000000000000000000000000000000000000000000000000000815260040161074890610c46565b60405180910390fd5b8091505092915050565b828054600181600116156101000203166002900490600052602060002090601f016020900481019282601f1061079c57805160ff19168380011785556107ca565b828001600101855582156107ca579182015b828111156107c95782518255916020019190600101906107ae565b5b5090506107d791906107db565b5090565b6107fd91905b808211156107f95760008160009055506001016107e1565b5090565b90565b60008135905061080f81610e4a565b92915050565b600082601f83011261082657600080fd5b813561083961083482610d16565b610ce9565b9150808252602083016020830185838301111561085557600080fd5b610860838284610df7565b50505092915050565b60008135905061087881610e61565b92915050565b60008060006060848603121561089357600080fd5b600084013567ffffffffffffffff8111156108ad57600080fd5b6108b986828701610815565b935050602084013567ffffffffffffffff8111156108d657600080fd5b6108e286828701610815565b92505060406108f386828701610800565b9150509250925092565b60006020828403121561090f57600080fd5b600061091d84828501610869565b91505092915050565b60006109328383610a25565b905092915050565b60006109468383610ba3565b60208301905092915050565b600061095d82610d62565b6109678185610d9d565b93508360208202850161097985610d42565b8060005b858110156109b557848403895281516109968582610926565b94506109a183610d83565b925060208a0199505060018101905061097d565b50829750879550505050505092915050565b60006109d282610d6d565b6109dc8185610dae565b93506109e783610d52565b8060005b83811015610a185781516109ff888261093a565b9750610a0a83610d90565b9250506001810190506109eb565b5085935050505092915050565b6000610a3082610d78565b610a3a8185610dbf565b9350610a4a818560208601610e06565b610a5381610e39565b840191505092915050565b6000610a6982610d78565b610a738185610dd0565b9350610a83818560208601610e06565b610a8c81610e39565b840191505092915050565b6000610aa4602883610dd0565b91507f436f72653a2063616e6e6f7420736574206e6f2070696e6e656420616e6e6f7560008301527f6e63656d656e74210000000000000000000000000000000000000000000000006020830152604082019050919050565b6000610b0a602283610dd0565b91507f436f72653a20416e6e6f756e63656d656e7420616c72656164792070696e6e6560008301527f64210000000000000000000000000000000000000000000000000000000000006020830152604082019050919050565b6000610b70601b83610dd0565b91507f536166654d6174683a206164646974696f6e206f766572666c6f7700000000006000830152602082019050919050565b610bac81610ded565b82525050565b610bbb81610ded565b82525050565b60006060820190508181036000830152610bdb8186610a5e565b90508181036020830152610bef8185610a5e565b9050610bfe6040830184610bb2565b949350505050565b60006020820190508181036000830152610c1f81610a97565b9050919050565b60006020820190508181036000830152610c3f81610afd565b9050919050565b60006020820190508181036000830152610c5f81610b63565b9050919050565b6000602082019050610c7b6000830184610bb2565b92915050565b600060a082019050610c966000830188610bb2565b8181036020830152610ca88187610952565b90508181036040830152610cbc8186610952565b90508181036060830152610cd081856109c7565b9050610cdf6080830184610bb2565b9695505050505050565b6000604051905081810181811067ffffffffffffffff82111715610d0c57600080fd5b8060405250919050565b600067ffffffffffffffff821115610d2d57600080fd5b601f19601f8301169050602081019050919050565b6000819050602082019050919050565b6000819050602082019050919050565b600081519050919050565b600081519050919050565b600081519050919050565b6000602082019050919050565b6000602082019050919050565b600082825260208201905092915050565b600082825260208201905092915050565b600082825260208201905092915050565b600082825260208201905092915050565b60008115159050919050565b6000819050919050565b82818337600083830152505050565b60005b83811015610e24578082015181840152602081019050610e09565b83811115610e33576000848401525b50505050565b6000601f19601f8301169050919050565b610e5381610de1565b8114610e5e57600080fd5b50565b610e6a81610ded565b8114610e7557600080fd5b5056fea264697066735822122002490d70b1c398c8ee440347d1a1cc543c3808d06e6cea688cfbc8562858053a64736f6c63430006010033",
  "source": "//SPDX-License-Identifier: MIT\npragma solidity >=0.6.0 <0.8.0;\npragma experimental ABIEncoderV2;\n\nimport \"./interfaces/IAnnouncements.sol\";\n\ncontract Announcements is IAnnouncements {\n\n    //@param _users - the address of the deployed users contract\n    constructor(address _users) public {\n        userContract = IUsers(_users);\n    }\n\n    function pinAnnouncement(uint256 _nonce) public override {\n        require(_nonce != 0, \"Core: cannot set no pinned announcement!\");\n        require(\n            pinnedAnnouncement != _nonce,\n            \"Core: Announcement already pinned!\"\n        );\n        pinnedAnnouncement = _nonce;\n        emit AnnouncementPinned(_nonce);\n    }\n\n    function addAnnouncement(\n        string memory _title,\n        string memory _body,\n        bool _pin\n    ) public override returns (uint256 _nonce) {\n        announcementNonce = announcementNonce.add(1);\n        Announcement storage announcement = announcements[announcementNonce];\n        announcement.title = _title;\n        announcement.body = _body;\n        announcement.timecode = now;\n        emit AnnouncementAdded(announcementNonce);\n        if (_pin) pinAnnouncement(announcementNonce);\n        return announcementNonce;\n    }\n\n    function getAnnouncements()\n        public\n        override\n        view\n        returns (\n            uint256 _nonce,\n            string[] memory _titles,\n            string[] memory _bodies,\n            uint256[] memory _timecodes,\n            uint256 _pinned\n        )\n    {\n        _nonce = announcementNonce;\n        _pinned = pinnedAnnouncement;\n        _titles = new string[](_nonce);\n        _bodies = new string[](_nonce);\n        _timecodes = new uint256[](_nonce);\n        for (uint256 i = 0; i < _nonce; i++) {\n            _titles[i] = announcements[i.add(1)].title;\n            _bodies[i] = announcements[i.add(1)].body;\n            _timecodes[i] = announcements[i.add(1)].timecode;\n        }\n    }\n}",
  "sourcePath": "/home/kiwi/Desktop/sandbox/contracts/contracts/Announcements.sol",
  "compiler": {
    "name": "solc",
    "version": "0.6.1+commit.e6f7d5a4.Emscripten.clang"
  },
  "schemaVersion": "3.3.1",
  "updatedAt": "2021-01-11T22:20:38.274Z",
  "networkType": "ethereum",
  "devdoc": {
    "methods": {}
  },
  "userdoc": {
    "methods": {}
  }
}