{
  "contractName": "Announcements",
  "abi": [
    {
      "anonymous": false,
      "inputs": [
        {
          "indexed": false,
          "internalType": "uint256",
          "name": "_nonce",
          "type": "uint256"
        }
      ],
      "name": "AnnouncementAdded",
      "type": "event"
    },
    {
      "anonymous": false,
      "inputs": [
        {
          "indexed": false,
          "internalType": "uint256",
          "name": "_nonce",
          "type": "uint256"
        }
      ],
      "name": "AnnouncementPinned",
      "type": "event"
    },
    {
      "inputs": [],
      "name": "announcementNonce",
      "outputs": [
        {
          "internalType": "uint256",
          "name": "",
          "type": "uint256"
        }
      ],
      "stateMutability": "view",
      "type": "function",
      "constant": true
    },
    {
      "inputs": [],
      "name": "pinnedAnnouncement",
      "outputs": [
        {
          "internalType": "uint256",
          "name": "",
          "type": "uint256"
        }
      ],
      "stateMutability": "view",
      "type": "function",
      "constant": true
    },
    {
      "inputs": [
        {
          "internalType": "string",
          "name": "_title",
          "type": "string"
        },
        {
          "internalType": "string",
          "name": "_body",
          "type": "string"
        },
        {
          "internalType": "bool",
          "name": "_pin",
          "type": "bool"
        }
      ],
      "name": "addAnnouncement",
      "outputs": [
        {
          "internalType": "uint256",
          "name": "_nonce",
          "type": "uint256"
        }
      ],
      "stateMutability": "nonpayable",
      "type": "function"
    },
    {
      "inputs": [
        {
          "internalType": "uint256",
          "name": "_nonce",
          "type": "uint256"
        }
      ],
      "name": "pinAnnouncement",
      "outputs": [],
      "stateMutability": "nonpayable",
      "type": "function"
    },
    {
      "inputs": [
        {
          "internalType": "uint256",
          "name": "_nonce",
          "type": "uint256"
        }
      ],
      "name": "getAnnouncement",
      "outputs": [
        {
          "internalType": "string",
          "name": "_title",
          "type": "string"
        },
        {
          "internalType": "string",
          "name": "_body",
          "type": "string"
        },
        {
          "internalType": "uint256",
          "name": "_timecode",
          "type": "uint256"
        },
        {
          "internalType": "bool",
          "name": "_pinned",
          "type": "bool"
        }
      ],
      "stateMutability": "view",
      "type": "function",
      "constant": true
    },
    {
      "inputs": [],
      "name": "getAnnouncements",
      "outputs": [
        {
          "internalType": "uint256",
          "name": "_nonce",
          "type": "uint256"
        },
        {
          "internalType": "string[]",
          "name": "_titles",
          "type": "string[]"
        },
        {
          "internalType": "string[]",
          "name": "_bodies",
          "type": "string[]"
        },
        {
          "internalType": "uint256[]",
          "name": "_timecodes",
          "type": "uint256[]"
        },
        {
          "internalType": "uint256",
          "name": "_pinned",
          "type": "uint256"
        }
      ],
      "stateMutability": "view",
      "type": "function",
      "constant": true
    }
  ],
  "bytecode": "0x608060405234801561001057600080fd5b50610ccf806100206000396000f3fe608060405234801561001057600080fd5b50600436106100625760003560e01c8063536c0c771461006757806355d2fc4d146100855780635ce214eb146100a757806379fa8a62146100d75780637f4dde00146100f3578063d16cdae114610111575b600080fd5b61006f610144565b60405161007c9190610a7c565b60405180910390f35b61008d61014a565b60405161009e959493929190610a97565b60405180910390f35b6100c160048036036100bc9190810190610783565b61033a565b6040516100ce9190610a7c565b60405180910390f35b6100f160048036036100ec9190810190610802565b610403565b005b6100fb610444565b6040516101089190610a7c565b60405180910390f35b61012b60048036036101269190810190610802565b61044a565b60405161013b9493929190610a09565b60405180910390f35b60015481565b60006060806060600080549450600154905060008090505b8581101561033257600260008281526020019081526020016000206000018054600181600116156101000203166002900480601f0160208091040260200160405190810160405280929190818152602001828054600181600116156101000203166002900480156102145780601f106101e957610100808354040283529160200191610214565b820191906000526020600020905b8154815290600101906020018083116101f757829003601f168201915b505050505085828151811061022557fe5b6020026020010181905250600260008281526020019081526020016000206001018054600181600116156101000203166002900480601f0160208091040260200160405190810160405280929190818152602001828054600181600116156101000203166002900480156102da5780601f106102af576101008083540402835291602001916102da565b820191906000526020600020905b8154815290600101906020018083116102bd57829003601f168201915b50505050508482815181106102eb57fe5b6020026020010181905250600260008281526020019081526020016000206002015483828151811061031957fe5b6020026020010181815250508080600101915050610162565b509091929394565b600061035260016000546105ea90919063ffffffff16565b6000819055506000600260008054815260200190815260200160002090508481600001908051906020019061038892919061063f565b50838160010190805190602001906103a192919061063f565b504281600201819055507f8fe6937ee49ab43427ef1aa9103bd73e4d8e63cdb60177143fcb2327c416cfdc6000546040516103dc9190610a7c565b60405180910390a182156103f6576103f5600054610403565b5b6000549150509392505050565b806001819055507f9188c2447d939db94e4a533a4bc15c8dd96442e793cd2c95adc90f0d372d1c79816040516104399190610a7c565b60405180910390a150565b60005481565b6060806000806104586106bf565b60026000878152602001908152602001600020604051806060016040529081600082018054600181600116156101000203166002900480601f01602080910402602001604051908101604052809291908181526020018280546001816001161561010002031660029004801561050f5780601f106104e45761010080835404028352916020019161050f565b820191906000526020600020905b8154815290600101906020018083116104f257829003601f168201915b50505050508152602001600182018054600181600116156101000203166002900480601f0160208091040260200160405190810160405280929190818152602001828054600181600116156101000203166002900480156105b15780601f10610586576101008083540402835291602001916105b1565b820191906000526020600020905b81548152906001019060200180831161059457829003601f168201915b50505050508152602001600282015481525050905080600001519450806020015193508060400151925085600154149150509193509193565b600080828401905083811015610635576040517f08c379a000000000000000000000000000000000000000000000000000000000815260040161062c90610a5c565b60405180910390fd5b8091505092915050565b828054600181600116156101000203166002900490600052602060002090601f016020900481019282601f1061068057805160ff19168380011785556106ae565b828001600101855582156106ae579182015b828111156106ad578251825591602001919060010190610692565b5b5090506106bb91906106e0565b5090565b60405180606001604052806060815260200160608152602001600081525090565b61070291905b808211156106fe5760008160009055506001016106e6565b5090565b90565b60008135905061071481610c6b565b92915050565b600082601f83011261072b57600080fd5b813561073e61073982610b2c565b610aff565b9150808252602083016020830185838301111561075a57600080fd5b610765838284610c18565b50505092915050565b60008135905061077d81610c82565b92915050565b60008060006060848603121561079857600080fd5b600084013567ffffffffffffffff8111156107b257600080fd5b6107be8682870161071a565b935050602084013567ffffffffffffffff8111156107db57600080fd5b6107e78682870161071a565b92505060406107f886828701610705565b9150509250925092565b60006020828403121561081457600080fd5b60006108228482850161076e565b91505092915050565b60006108378383610972565b905092915050565b600061084b83836109eb565b60208301905092915050565b600061086282610b78565b61086c8185610bbe565b93508360208202850161087e85610b58565b8060005b858110156108ba578484038952815161089b858261082b565b94506108a683610ba4565b925060208a01995050600181019050610882565b50829750879550505050505092915050565b60006108d782610b83565b6108e18185610bcf565b93506108ec83610b68565b8060005b8381101561091d578151610904888261083f565b975061090f83610bb1565b9250506001810190506108f0565b5085935050505092915050565b61093381610c02565b82525050565b600061094482610b99565b61094e8185610bf1565b935061095e818560208601610c27565b61096781610c5a565b840191505092915050565b600061097d82610b8e565b6109878185610be0565b9350610997818560208601610c27565b6109a081610c5a565b840191505092915050565b60006109b8601b83610bf1565b91507f536166654d6174683a206164646974696f6e206f766572666c6f7700000000006000830152602082019050919050565b6109f481610c0e565b82525050565b610a0381610c0e565b82525050565b60006080820190508181036000830152610a238187610939565b90508181036020830152610a378186610939565b9050610a4660408301856109fa565b610a53606083018461092a565b95945050505050565b60006020820190508181036000830152610a75816109ab565b9050919050565b6000602082019050610a9160008301846109fa565b92915050565b600060a082019050610aac60008301886109fa565b8181036020830152610abe8187610857565b90508181036040830152610ad28186610857565b90508181036060830152610ae681856108cc565b9050610af560808301846109fa565b9695505050505050565b6000604051905081810181811067ffffffffffffffff82111715610b2257600080fd5b8060405250919050565b600067ffffffffffffffff821115610b4357600080fd5b601f19601f8301169050602081019050919050565b6000819050602082019050919050565b6000819050602082019050919050565b600081519050919050565b600081519050919050565b600081519050919050565b600081519050919050565b6000602082019050919050565b6000602082019050919050565b600082825260208201905092915050565b600082825260208201905092915050565b600082825260208201905092915050565b600082825260208201905092915050565b60008115159050919050565b6000819050919050565b82818337600083830152505050565b60005b83811015610c45578082015181840152602081019050610c2a565b83811115610c54576000848401525b50505050565b6000601f19601f8301169050919050565b610c7481610c02565b8114610c7f57600080fd5b50565b610c8b81610c0e565b8114610c9657600080fd5b5056fea2646970667358221220847b83d08ac2fd1d6634b2cb4381fd0e19a0886072f13c0c8234026f95be81a864736f6c63430006010033",
  "source": "//SPDX-License-Identifier: UNLICENSED\npragma solidity >=0.6.0 <0.8.0;\npragma experimental ABIEncoderV2;\n\nimport \"@openzeppelin/contracts/math/SafeMath.sol\";\n\ncontract Announcements {\n\n    using SafeMath for uint256;\n    event AnnouncementAdded(uint256 _nonce);\n    event AnnouncementPinned(uint256 _nonce);\n\n    uint256 public announcementNonce;\n    uint256 public pinnedAnnouncement;\n    mapping(uint256 => Announcement) announcements;\n\n    /**\n     * Add a new announcement\n     * @dev modifier onlyAdmin\n     *\n     * @param _title - the title text of the announcement post\n     * @param _body - the body text of the announcement post\n     * @param _pin - true if post should is pinned to the top of the UI, false otherwise\n     * @return _nonce - the nonce of the announcement on-chain\n     */\n    function addAnnouncement(\n        string memory _title,\n        string memory _body,\n        bool _pin\n    ) public returns (uint256 _nonce) {\n        announcementNonce = announcementNonce.add(1);\n        Announcement storage announcement = announcements[announcementNonce];\n        announcement.title = _title;\n        announcement.body = _body;\n        announcement.timecode = now;\n        emit AnnouncementAdded(announcementNonce);\n        if (_pin) pinAnnouncement(announcementNonce);\n        return announcementNonce;\n    }\n\n    /**\n     * Pin a specific announcement to the top of the UI\n     * @dev modifier onlyAdmin\n     *\n     * @param _nonce - the index of the announcement to set as pinned within the contract\n     */\n    function pinAnnouncement(uint256 _nonce) public {\n        pinnedAnnouncement = _nonce;\n        emit AnnouncementPinned(_nonce);\n    }\n\n    /**\n     * Get all data regarding a specific announcement\n     *\n     * @param _nonce - the index of the announcement to query internally\n     * @return _title - the title text of the announcement post\n     * @return _body - the body text of the announcement post\n     * @return _timecode - UNIX timestamp on Ethereum when the announcement was committed\n     * @return _pinned - true if the announcement is pinned, false otherwise\n     */\n    function getAnnouncement(uint256 _nonce)\n        public\n        view\n        returns (\n            string memory _title,\n            string memory _body,\n            uint256 _timecode,\n            bool _pinned\n        )\n    {\n        Announcement memory announcement = announcements[_nonce];\n        _title = announcement.title;\n        _body = announcement.body;\n        _timecode = announcement.timecode;\n        _pinned = pinnedAnnouncement == _nonce;\n    }\n\n    /**\n     * Get every announcement added to the platform\n     *\n     * @return _nonce - the number of announcements returned\n     * @return _titles - array of all announcements' title text\n     * @return _bodies - array of all announcements' body text\n     * @return _timecodes - array of all announcements' UNIX timestamps\n     * @return _pinned - nonce of pinned announcement\n     */\n    function getAnnouncements()\n        public\n        view\n        returns (\n            uint256 _nonce,\n            string[] memory _titles,\n            string[] memory _bodies,\n            uint256[] memory _timecodes,\n            uint256 _pinned\n        )\n    {\n        _nonce = announcementNonce;\n        _pinned = pinnedAnnouncement;\n        for (uint i = 0; i < _nonce; i++) {\n            _titles[i] = announcements[i].title;\n            _bodies[i] = announcements[i].body;\n            _timecodes[i] = announcements[i].timecode;\n        }\n    }\n}\n\nstruct Announcement {\n    string title;\n    string body;\n    uint256 timecode;\n}\n",
  "sourcePath": "/home/jpag/orgtoken/contracts/contracts/Announcements.sol",
  "compiler": {
    "name": "solc",
    "version": "0.6.1+commit.e6f7d5a4.Emscripten.clang"
  },
  "schemaVersion": "3.3.2",
  "updatedAt": "2020-12-26T22:43:58.978Z",
  "networkType": "ethereum",
  "devdoc": {
    "methods": {
      "addAnnouncement(string,string,bool)": {
        "details": "modifier onlyAdmin",
        "params": {
          "_body": "- the body text of the announcement post",
          "_pin": "- true if post should is pinned to the top of the UI, false otherwise",
          "_title": "- the title text of the announcement post"
        },
        "returns": {
          "_nonce": "- the nonce of the announcement on-chain"
        }
      },
      "getAnnouncement(uint256)": {
        "params": {
          "_nonce": "- the index of the announcement to query internally"
        },
        "returns": {
          "_body": "- the body text of the announcement post",
          "_pinned": "- true if the announcement is pinned, false otherwise",
          "_timecode": "- UNIX timestamp on Ethereum when the announcement was committed",
          "_title": "- the title text of the announcement post"
        }
      },
      "pinAnnouncement(uint256)": {
        "details": "modifier onlyAdmin",
        "params": {
          "_nonce": "- the index of the announcement to set as pinned within the contract"
        }
      }
    }
  },
  "userdoc": {
    "methods": {
      "addAnnouncement(string,string,bool)": {
        "notice": "Add a new announcement"
      },
      "getAnnouncement(uint256)": {
        "notice": "Get all data regarding a specific announcement"
      },
      "getAnnouncements()": {
        "notice": "Get every announcement added to the platform"
      },
      "pinAnnouncement(uint256)": {
        "notice": "Pin a specific announcement to the top of the UI"
      }
    }
  }
}