{
  "contractName": "Bounties",
  "abi": [
    {
      "inputs": [
        {
          "internalType": "address",
          "name": "_users",
          "type": "address"
        },
        {
          "internalType": "address",
          "name": "_forwarder",
          "type": "address"
        }
      ],
      "stateMutability": "nonpayable",
      "type": "constructor"
    },
    {
      "anonymous": false,
      "inputs": [
        {
          "indexed": false,
          "internalType": "uint256",
          "name": "_nonce",
          "type": "uint256"
        }
      ],
      "name": "BountyAdded",
      "type": "event"
    },
    {
      "anonymous": false,
      "inputs": [
        {
          "indexed": false,
          "internalType": "uint256",
          "name": "_nonce",
          "type": "uint256"
        },
        {
          "indexed": false,
          "internalType": "address",
          "name": "_by",
          "type": "address"
        },
        {
          "indexed": false,
          "internalType": "uint256",
          "name": "_requestNonce",
          "type": "uint256"
        }
      ],
      "name": "BountyApplication",
      "type": "event"
    },
    {
      "anonymous": false,
      "inputs": [
        {
          "indexed": false,
          "internalType": "uint256",
          "name": "_nonce",
          "type": "uint256"
        },
        {
          "indexed": false,
          "internalType": "address",
          "name": "_to",
          "type": "address"
        },
        {
          "indexed": false,
          "internalType": "uint256",
          "name": "_minted",
          "type": "uint256"
        }
      ],
      "name": "BountyAwarded",
      "type": "event"
    },
    {
      "anonymous": false,
      "inputs": [
        {
          "indexed": false,
          "internalType": "uint256",
          "name": "_nonce",
          "type": "uint256"
        }
      ],
      "name": "BountyDelisted",
      "type": "event"
    },
    {
      "anonymous": false,
      "inputs": [
        {
          "indexed": false,
          "internalType": "uint256",
          "name": "_nonce",
          "type": "uint256"
        },
        {
          "indexed": false,
          "internalType": "address",
          "name": "_to",
          "type": "address"
        }
      ],
      "name": "BountyRejected",
      "type": "event"
    },
    {
      "inputs": [
        {
          "internalType": "uint256",
          "name": "",
          "type": "uint256"
        }
      ],
      "name": "bounties",
      "outputs": [
        {
          "internalType": "string",
          "name": "name",
          "type": "string"
        },
        {
          "internalType": "string",
          "name": "description",
          "type": "string"
        },
        {
          "internalType": "string",
          "name": "imageUrl",
          "type": "string"
        },
        {
          "internalType": "uint256",
          "name": "award",
          "type": "uint256"
        },
        {
          "internalType": "bool",
          "name": "infinite",
          "type": "bool"
        },
        {
          "internalType": "uint256",
          "name": "quantity",
          "type": "uint256"
        },
        {
          "internalType": "bool",
          "name": "active",
          "type": "bool"
        },
        {
          "internalType": "enum Trigger",
          "name": "trigger",
          "type": "uint8"
        },
        {
          "internalType": "string",
          "name": "tweet",
          "type": "string"
        },
        {
          "internalType": "uint256",
          "name": "pendingIndex",
          "type": "uint256"
        }
      ],
      "stateMutability": "view",
      "type": "function",
      "constant": true
    },
    {
      "inputs": [],
      "name": "bountyNonce",
      "outputs": [
        {
          "internalType": "uint256",
          "name": "",
          "type": "uint256"
        }
      ],
      "stateMutability": "view",
      "type": "function",
      "constant": true
    },
    {
      "inputs": [],
      "name": "consumerContract",
      "outputs": [
        {
          "internalType": "address",
          "name": "",
          "type": "address"
        }
      ],
      "stateMutability": "view",
      "type": "function",
      "constant": true
    },
    {
      "inputs": [],
      "name": "getTrustedForwarder",
      "outputs": [
        {
          "internalType": "address",
          "name": "",
          "type": "address"
        }
      ],
      "stateMutability": "view",
      "type": "function",
      "constant": true
    },
    {
      "inputs": [
        {
          "internalType": "address",
          "name": "forwarder",
          "type": "address"
        }
      ],
      "name": "isTrustedForwarder",
      "outputs": [
        {
          "internalType": "bool",
          "name": "",
          "type": "bool"
        }
      ],
      "stateMutability": "view",
      "type": "function",
      "constant": true
    },
    {
      "inputs": [],
      "name": "requestNonce",
      "outputs": [
        {
          "internalType": "uint256",
          "name": "",
          "type": "uint256"
        }
      ],
      "stateMutability": "view",
      "type": "function",
      "constant": true
    },
    {
      "inputs": [
        {
          "internalType": "uint256",
          "name": "",
          "type": "uint256"
        }
      ],
      "name": "requests",
      "outputs": [
        {
          "internalType": "address",
          "name": "user",
          "type": "address"
        },
        {
          "internalType": "uint256",
          "name": "bounty",
          "type": "uint256"
        },
        {
          "internalType": "uint256",
          "name": "pendingIndex",
          "type": "uint256"
        },
        {
          "internalType": "bool",
          "name": "fulfilled",
          "type": "bool"
        }
      ],
      "stateMutability": "view",
      "type": "function",
      "constant": true
    },
    {
      "inputs": [],
      "name": "trustedForwarder",
      "outputs": [
        {
          "internalType": "address",
          "name": "",
          "type": "address"
        }
      ],
      "stateMutability": "view",
      "type": "function",
      "constant": true
    },
    {
      "inputs": [],
      "name": "versionRecipient",
      "outputs": [
        {
          "internalType": "string",
          "name": "",
          "type": "string"
        }
      ],
      "stateMutability": "view",
      "type": "function",
      "constant": true
    },
    {
      "inputs": [
        {
          "internalType": "address",
          "name": "_at",
          "type": "address"
        }
      ],
      "name": "setConsumer",
      "outputs": [],
      "stateMutability": "nonpayable",
      "type": "function"
    },
    {
      "inputs": [
        {
          "internalType": "string",
          "name": "_title",
          "type": "string"
        },
        {
          "internalType": "string",
          "name": "_description",
          "type": "string"
        },
        {
          "internalType": "string",
          "name": "_imageUrl",
          "type": "string"
        },
        {
          "internalType": "uint256",
          "name": "_award",
          "type": "uint256"
        },
        {
          "internalType": "bool",
          "name": "_infinite",
          "type": "bool"
        },
        {
          "internalType": "uint256",
          "name": "_quantity",
          "type": "uint256"
        },
        {
          "internalType": "bool",
          "name": "_manual",
          "type": "bool"
        },
        {
          "internalType": "string",
          "name": "_tweetId",
          "type": "string"
        }
      ],
      "name": "addBounty",
      "outputs": [
        {
          "internalType": "uint256",
          "name": "_nonce",
          "type": "uint256"
        }
      ],
      "stateMutability": "nonpayable",
      "type": "function"
    },
    {
      "inputs": [
        {
          "internalType": "uint256",
          "name": "_nonce",
          "type": "uint256"
        }
      ],
      "name": "applyForBounty",
      "outputs": [],
      "stateMutability": "nonpayable",
      "type": "function"
    },
    {
      "inputs": [
        {
          "internalType": "uint256",
          "name": "_trigger",
          "type": "uint256"
        },
        {
          "internalType": "uint256",
          "name": "_index",
          "type": "uint256"
        }
      ],
      "name": "approveBountyRequest",
      "outputs": [],
      "stateMutability": "nonpayable",
      "type": "function"
    },
    {
      "inputs": [
        {
          "internalType": "uint256",
          "name": "_trigger",
          "type": "uint256"
        },
        {
          "internalType": "uint256",
          "name": "_index",
          "type": "uint256"
        }
      ],
      "name": "rejectBountyRequest",
      "outputs": [],
      "stateMutability": "nonpayable",
      "type": "function"
    },
    {
      "inputs": [
        {
          "internalType": "uint256",
          "name": "_nonce",
          "type": "uint256"
        }
      ],
      "name": "delistBounty",
      "outputs": [],
      "stateMutability": "nonpayable",
      "type": "function"
    },
    {
      "inputs": [
        {
          "internalType": "bytes32",
          "name": "_requestId",
          "type": "bytes32"
        },
        {
          "internalType": "bool",
          "name": "_status",
          "type": "bool"
        }
      ],
      "name": "fulfillChainlinkRequest",
      "outputs": [],
      "stateMutability": "nonpayable",
      "type": "function"
    },
    {
      "inputs": [
        {
          "internalType": "uint256",
          "name": "_trigger",
          "type": "uint256"
        }
      ],
      "name": "pendingBountyRequests",
      "outputs": [
        {
          "internalType": "uint256",
          "name": "_nonce",
          "type": "uint256"
        },
        {
          "internalType": "address[]",
          "name": "_users",
          "type": "address[]"
        },
        {
          "internalType": "string[]",
          "name": "_userNames",
          "type": "string[]"
        },
        {
          "internalType": "uint256[]",
          "name": "_bounties",
          "type": "uint256[]"
        },
        {
          "internalType": "string[]",
          "name": "_bountyNames",
          "type": "string[]"
        },
        {
          "internalType": "uint256[]",
          "name": "_bountyAwards",
          "type": "uint256[]"
        },
        {
          "internalType": "uint256[]",
          "name": "_bountyQuantities",
          "type": "uint256[]"
        },
        {
          "internalType": "bool[]",
          "name": "_bountyInfinite",
          "type": "bool[]"
        }
      ],
      "stateMutability": "view",
      "type": "function",
      "constant": true
    },
    {
      "inputs": [],
      "name": "getBounties",
      "outputs": [
        {
          "internalType": "uint256",
          "name": "_bountyNonce",
          "type": "uint256"
        },
        {
          "internalType": "string[]",
          "name": "_titles",
          "type": "string[]"
        },
        {
          "internalType": "string[]",
          "name": "_descriptions",
          "type": "string[]"
        },
        {
          "internalType": "string[]",
          "name": "_imageUrls",
          "type": "string[]"
        },
        {
          "internalType": "uint256[]",
          "name": "_awards",
          "type": "uint256[]"
        },
        {
          "internalType": "bool[]",
          "name": "_infinites",
          "type": "bool[]"
        },
        {
          "internalType": "uint256[]",
          "name": "_quantities",
          "type": "uint256[]"
        },
        {
          "internalType": "bool[]",
          "name": "_actives",
          "type": "bool[]"
        },
        {
          "internalType": "bool[]",
          "name": "_manuals",
          "type": "bool[]"
        }
      ],
      "stateMutability": "view",
      "type": "function",
      "constant": true
    },
    {
      "inputs": [
        {
          "internalType": "uint256",
          "name": "_bountyNonce",
          "type": "uint256"
        },
        {
          "internalType": "address",
          "name": "_user",
          "type": "address"
        }
      ],
      "name": "hasBounty",
      "outputs": [
        {
          "internalType": "bool",
          "name": "",
          "type": "bool"
        }
      ],
      "stateMutability": "view",
      "type": "function",
      "constant": true
    },
    {
      "inputs": [
        {
          "internalType": "uint256",
          "name": "_nonce",
          "type": "uint256"
        }
      ],
      "name": "checkFulfillment",
      "outputs": [
        {
          "internalType": "bool",
          "name": "",
          "type": "bool"
        }
      ],
      "stateMutability": "view",
      "type": "function",
      "constant": true
    }
  ],
  "bytecode": "0x60806040526040518060400160405280600581526020017f322e302e30000000000000000000000000000000000000000000000000000000815250600e9080519060200190620000519291906200019f565b503480156200005f57600080fd5b506040516200405a3803806200405a833981810160405281019062000085919062000265565b81600160006101000a81548173ffffffffffffffffffffffffffffffffffffffff021916908373ffffffffffffffffffffffffffffffffffffffff160217905550600160009054906101000a900473ffffffffffffffffffffffffffffffffffffffff1673ffffffffffffffffffffffffffffffffffffffff1663bc300ed3306040518263ffffffff1660e01b8152600401620001239190620002b7565b600060405180830381600087803b1580156200013e57600080fd5b505af115801562000153573d6000803e3d6000fd5b50505050806000806101000a81548173ffffffffffffffffffffffffffffffffffffffff021916908373ffffffffffffffffffffffffffffffffffffffff160217905550505062000322565b828054600181600116156101000203166002900490600052602060002090601f016020900481019282601f10620001e257805160ff191683800117855562000213565b8280016001018555821562000213579182015b8281111562000212578251825591602001919060010190620001f5565b5b50905062000222919062000226565b5090565b6200024b91905b80821115620002475760008160009055506001016200022d565b5090565b90565b6000815190506200025f8162000308565b92915050565b600080604083850312156200027957600080fd5b600062000289858286016200024e565b92505060206200029c858286016200024e565b9150509250929050565b620002b181620002d4565b82525050565b6000602082019050620002ce6000830184620002a6565b92915050565b6000620002e182620002e8565b9050919050565b600073ffffffffffffffffffffffffffffffffffffffff82169050919050565b6200031381620002d4565b81146200031f57600080fd5b50565b613d2880620003326000396000f3fe608060405234801561001057600080fd5b506004361061012c5760003560e01c806363a579d5116100ad57806381d12c581161007157806381d12c5814610340578063ce1b815f14610373578063d37a06f714610391578063dc2f8744146103c1578063fd716a9c146103fa5761012c565b806363a579d5146102b057806378999d20146102cc57806379c0c568146102e85780637c1a0302146103045780637da0a877146103225761012c565b8063416dd084116100f4578063416dd084146101df578063486ff0cd146101fb578063572b6c05146102195780635d69cb7e14610249578063633fd2c9146102805761012c565b80630cf0ac1d146101315780630f1ca5a71461015757806322dbddb1146101755780632dfdad0b146101935780632f34b97d146101af575b600080fd5b610139610416565b60405161014e9998979695949392919061395a565b60405180910390f35b61015f610ace565b60405161016c91906137f9565b60405180910390f35b61017d610ad4565b60405161018a919061353b565b60405180910390f35b6101ad60048036038101906101a89190612f90565b610afa565b005b6101c960048036038101906101c49190612e7e565b610c80565b6040516101d691906137f9565b60405180910390f35b6101f960048036038101906101f4919061301e565b610de6565b005b61020361115f565b6040516102109190613608565b60405180910390f35b610233600480360381019061022e9190612daf565b6111fd565b60405161024091906135ed565b60405180910390f35b610263600480360381019061025e9190612f90565b611256565b6040516102779897969594939291906138ab565b60405180910390f35b61029a60048036038101906102959190612fe2565b61181e565b6040516102a791906135ed565b60405180910390f35b6102ca60048036038101906102c59190612daf565b611886565b005b6102e660048036038101906102e1919061301e565b611966565b005b61030260048036038101906102fd9190612e01565b611cf4565b005b61030c611d79565b60405161031991906137f9565b60405180910390f35b61032a611d7f565b604051610337919061353b565b60405180910390f35b61035a60048036038101906103559190612f90565b611da4565b60405161036a94939291906135a8565b60405180910390f35b61037b611e01565b604051610388919061353b565b60405180910390f35b6103ab60048036038101906103a69190612f90565b611e2a565b6040516103b891906135ed565b60405180910390f35b6103db60048036038101906103d69190612f90565b611e57565b6040516103f19a99989796959493929190613661565b60405180910390f35b610414600480360381019061040f9190612f90565b612132565b005b600060608060608060608060608060045498508867ffffffffffffffff8111801561044057600080fd5b5060405190808252806020026020018201604052801561047457816020015b606081526020019060019003908161045f5790505b5097508867ffffffffffffffff8111801561048e57600080fd5b506040519080825280602002602001820160405280156104c257816020015b60608152602001906001900390816104ad5790505b5096508867ffffffffffffffff811180156104dc57600080fd5b5060405190808252806020026020018201604052801561051057816020015b60608152602001906001900390816104fb5790505b5095508867ffffffffffffffff8111801561052a57600080fd5b506040519080825280602002602001820160405280156105595781602001602082028036833780820191505090505b5094508867ffffffffffffffff8111801561057357600080fd5b506040519080825280602002602001820160405280156105a25781602001602082028036833780820191505090505b5093508867ffffffffffffffff811180156105bc57600080fd5b506040519080825280602002602001820160405280156105eb5781602001602082028036833780820191505090505b5092508867ffffffffffffffff8111801561060557600080fd5b506040519080825280602002602001820160405280156106345781602001602082028036833780820191505090505b5091508867ffffffffffffffff8111801561064e57600080fd5b5060405190808252806020026020018201604052801561067d5781602001602082028036833780820191505090505b50905060008090505b89811015610ac257600660006106a66001846128e990919063ffffffff16565b81526020019081526020016000206000018054600181600116156101000203166002900480601f01602080910402602001604051908101604052809291908181526020018280546001816001161561010002031660029004801561074b5780601f106107205761010080835404028352916020019161074b565b820191906000526020600020905b81548152906001019060200180831161072e57829003601f168201915b505050505089828151811061075c57fe5b60200260200101819052506006600061077f6001846128e990919063ffffffff16565b81526020019081526020016000206001018054600181600116156101000203166002900480601f0160208091040260200160405190810160405280929190818152602001828054600181600116156101000203166002900480156108245780601f106107f957610100808354040283529160200191610824565b820191906000526020600020905b81548152906001019060200180831161080757829003601f168201915b505050505088828151811061083557fe5b6020026020010181905250600660006108586001846128e990919063ffffffff16565b81526020019081526020016000206002018054600181600116156101000203166002900480601f0160208091040260200160405190810160405280929190818152602001828054600181600116156101000203166002900480156108fd5780601f106108d2576101008083540402835291602001916108fd565b820191906000526020600020905b8154815290600101906020018083116108e057829003601f168201915b505050505087828151811061090e57fe5b6020026020010181905250600660006109316001846128e990919063ffffffff16565b81526020019081526020016000206003015486828151811061094f57fe5b602002602001018181525050600660006109736001846128e990919063ffffffff16565b815260200190815260200160002060040160009054906101000a900460ff1685828151811061099e57fe5b602002602001019015159081151581525050600660006109c86001846128e990919063ffffffff16565b8152602001908152602001600020600501548482815181106109e657fe5b60200260200101818152505060066000610a0a6001846128e990919063ffffffff16565b815260200190815260200160002060060160009054906101000a900460ff16838281518110610a3557fe5b60200260200101901515908115158152505060016002811115610a5457fe5b60066000610a6c6001856128e990919063ffffffff16565b815260200190815260200160002060060160019054906101000a900460ff166002811115610a9657fe5b14828281518110610aa357fe5b6020026020010190151590811515815250508080600101915050610686565b50909192939495969798565b60045481565b600360009054906101000a900473ffffffffffffffffffffffffffffffffffffffff1681565b60016002811115610b0757fe5b600280811115610b1357fe5b811480610bd157506002600160009054906101000a900473ffffffffffffffffffffffffffffffffffffffff1673ffffffffffffffffffffffffffffffffffffffff1663d590f8c9610b6361293e565b6040518263ffffffff1660e01b8152600401610b7f9190613556565b60206040518083038186803b158015610b9757600080fd5b505afa158015610bab573d6000803e3d6000fd5b505050506040513d601f19601f82011682018060405250810190610bcf9190612fb9565b145b610c10576040517f08c379a0000000000000000000000000000000000000000000000000000000008152600401610c07906137b9565b60405180910390fd5b600060066000848152602001908152602001600020905060008160060160006101000a81548160ff0219169083151502179055507f2d7b14f8a1fd1b1b7c237d5cf8c3b2c9a387db2aa8e5f03dbf74efa105673b0d83604051610c7391906137f9565b60405180910390a1505050565b6000610c9860016004546128e990919063ffffffff16565b60048190555060045490506000600660008381526020019081526020016000209050600084610cc8576002610ccb565b60015b90508a826000019080519060200190610ce5929190612ba4565b5089826001019080519060200190610cfe929190612ba4565b5088826002019080519060200190610d17929190612ba4565b50878260030181905550868260040160006101000a81548160ff021916908315150217905550858260050181905550808260060160016101000a81548160ff02191690836002811115610d6657fe5b021790555083826007019080519060200190610d83929190612ba4565b5060018260060160006101000a81548160ff0219169083151502179055507fa99eeb7ee15333d9449368ff1d1e52f206bab46c2bebd241bbe2632b80ad9a1483604051610dd091906137f9565b60405180910390a1505098975050505050505050565b6000600960008481526020019081526020016000206000838152602001908152602001600020549050610e17612c24565b600760008381526020019081526020016000206040518060800160405290816000820160009054906101000a900473ffffffffffffffffffffffffffffffffffffffff1673ffffffffffffffffffffffffffffffffffffffff1673ffffffffffffffffffffffffffffffffffffffff16815260200160018201548152602001600282015481526020016003820160009054906101000a900460ff16151515158152505090506000600660008360200151815260200190815260200160002090508060040160009054906101000a900460ff16610f2957610f056001826005015461297a90919063ffffffff16565b8160050181905550600081600501541415610f2857610f278260200151610afa565b5b5b6002816009016000846000015173ffffffffffffffffffffffffffffffffffffffff1673ffffffffffffffffffffffffffffffffffffffff16815260200190815260200160002060006101000a81548160ff02191690836002811115610f8b57fe5b021790555080600a0182600001519080600181540180825580915050600190039060005260206000200160009091909190916101000a81548173ffffffffffffffffffffffffffffffffffffffff021916908373ffffffffffffffffffffffffffffffffffffffff160217905550600160009054906101000a900473ffffffffffffffffffffffffffffffffffffffff1673ffffffffffffffffffffffffffffffffffffffff1663e43f3e788360000151846020015184600301546040518463ffffffff1660e01b815260040161106493929190613571565b600060405180830381600087803b15801561107e57600080fd5b505af1158015611092573d6000803e3d6000fd5b505050506001600c6000846020015181526020019081526020016000206000846000015173ffffffffffffffffffffffffffffffffffffffff1673ffffffffffffffffffffffffffffffffffffffff16815260200190815260200160002060006101000a81548160ff0219169083151502179055507f6afd625dfd10339cc4a7ba296f32817ab16fb8582d48761227a714a33af363c082602001518360000151836003015460405161114693929190613874565b60405180910390a161115885856129c4565b5050505050565b600e8054600181600116156101000203166002900480601f0160208091040260200160405190810160405280929190818152602001828054600181600116156101000203166002900480156111f55780601f106111ca576101008083540402835291602001916111f5565b820191906000526020600020905b8154815290600101906020018083116111d857829003601f168201915b505050505081565b60008060009054906101000a900473ffffffffffffffffffffffffffffffffffffffff1673ffffffffffffffffffffffffffffffffffffffff168273ffffffffffffffffffffffffffffffffffffffff16149050919050565b60006060806060806060806060600860008a81526020019081526020016000205497508767ffffffffffffffff8111801561129057600080fd5b506040519080825280602002602001820160405280156112bf5781602001602082028036833780820191505090505b5096508767ffffffffffffffff811180156112d957600080fd5b5060405190808252806020026020018201604052801561130d57816020015b60608152602001906001900390816112f85790505b5095508767ffffffffffffffff8111801561132757600080fd5b506040519080825280602002602001820160405280156113565781602001602082028036833780820191505090505b5094508767ffffffffffffffff8111801561137057600080fd5b506040519080825280602002602001820160405280156113a457816020015b606081526020019060019003908161138f5790505b5093508767ffffffffffffffff811180156113be57600080fd5b506040519080825280602002602001820160405280156113ed5781602001602082028036833780820191505090505b5092508767ffffffffffffffff8111801561140757600080fd5b506040519080825280602002602001820160405280156114365781602001602082028036833780820191505090505b5091508767ffffffffffffffff8111801561145057600080fd5b5060405190808252806020026020018201604052801561147f5781602001602082028036833780820191505090505b50905060008090505b88811015611812576000600960008c815260200190815260200160002060006114bb6001856128e990919063ffffffff16565b81526020019081526020016000205490506007600082815260200190815260200160002060000160009054906101000a900473ffffffffffffffffffffffffffffffffffffffff1689838151811061150f57fe5b602002602001019073ffffffffffffffffffffffffffffffffffffffff16908173ffffffffffffffffffffffffffffffffffffffff1681525050600160009054906101000a900473ffffffffffffffffffffffffffffffffffffffff1673ffffffffffffffffffffffffffffffffffffffff1663019848928a848151811061159357fe5b60200260200101516040518263ffffffff1660e01b81526004016115b7919061353b565b60006040518083038186803b1580156115cf57600080fd5b505afa1580156115e3573d6000803e3d6000fd5b505050506040513d6000823e3d601f19601f8201168201806040525081019061160c9190612e3d565b88838151811061161857fe5b6020026020010181905250600760008281526020019081526020016000206001015487838151811061164657fe5b6020026020010181815250506006600088848151811061166257fe5b602002602001015181526020019081526020016000206000018054600181600116156101000203166002900480601f01602080910402602001604051908101604052809291908181526020018280546001816001161561010002031660029004801561170f5780601f106116e45761010080835404028352916020019161170f565b820191906000526020600020905b8154815290600101906020018083116116f257829003601f168201915b505050505086838151811061172057fe5b60200260200101819052506006600088848151811061173b57fe5b602002602001015181526020019081526020016000206003015485838151811061176157fe5b6020026020010181815250506006600088848151811061177d57fe5b60200260200101518152602001908152602001600020600501548483815181106117a357fe5b602002602001018181525050600660008884815181106117bf57fe5b6020026020010151815260200190815260200160002060040160009054906101000a900460ff168383815181106117f257fe5b602002602001019015159081151581525050508080600101915050611488565b50919395975091939597565b6000600c600084815260200190815260200160002060008373ffffffffffffffffffffffffffffffffffffffff1673ffffffffffffffffffffffffffffffffffffffff16815260200190815260200160002060009054906101000a900460ff16905092915050565b600073ffffffffffffffffffffffffffffffffffffffff16600360009054906101000a900473ffffffffffffffffffffffffffffffffffffffff1673ffffffffffffffffffffffffffffffffffffffff16146118e157600080fd5b80600360006101000a81548173ffffffffffffffffffffffffffffffffffffffff021916908373ffffffffffffffffffffffffffffffffffffffff16021790555080600260006101000a81548173ffffffffffffffffffffffffffffffffffffffff021916908373ffffffffffffffffffffffffffffffffffffffff16021790555050565b60028081111561197257fe5b60028081111561197e57fe5b811480611a3c57506002600160009054906101000a900473ffffffffffffffffffffffffffffffffffffffff1673ffffffffffffffffffffffffffffffffffffffff1663d590f8c96119ce61293e565b6040518263ffffffff1660e01b81526004016119ea9190613556565b60206040518083038186803b158015611a0257600080fd5b505afa158015611a16573d6000803e3d6000fd5b505050506040513d601f19601f82011682018060405250810190611a3a9190612fb9565b145b611a7b576040517f08c379a0000000000000000000000000000000000000000000000000000000008152600401611a72906137b9565b60405180910390fd5b6000600960008581526020019081526020016000206000848152602001908152602001600020549050611aac612c24565b600760008381526020019081526020016000206040518060800160405290816000820160009054906101000a900473ffffffffffffffffffffffffffffffffffffffff1673ffffffffffffffffffffffffffffffffffffffff1673ffffffffffffffffffffffffffffffffffffffff16815260200160018201548152602001600282015481526020016003820160009054906101000a900460ff16151515158152505090506000600660008360200151815260200190815260200160002090506000816009016000846000015173ffffffffffffffffffffffffffffffffffffffff1673ffffffffffffffffffffffffffffffffffffffff16815260200190815260200160002060006101000a81548160ff02191690836002811115611bce57fe5b021790555042600a6000846020015181526020019081526020016000206000846000015173ffffffffffffffffffffffffffffffffffffffff1673ffffffffffffffffffffffffffffffffffffffff168152602001908152602001600020819055506000600c6000846020015181526020019081526020016000206000846000015173ffffffffffffffffffffffffffffffffffffffff1673ffffffffffffffffffffffffffffffffffffffff16815260200190815260200160002060006101000a81548160ff0219169083151502179055507f14bd13b4df7a34b48398ea3e7bb2d6daccb5c476bf3ef6066cf3a84e767521fa82602001518360000151604051611cda929190613814565b60405180910390a1611cec86866129c4565b505050505050565b6000600280811115611d0257fe5b9050600060076000600b600087815260200190815260200160002054815260200190815260200160002090508215611d4757611d42828260020154610de6565b611d56565b611d55828260020154611966565b5b60018160030160006101000a81548160ff02191690831515021790555050505050565b60055481565b6000809054906101000a900473ffffffffffffffffffffffffffffffffffffffff1681565b60076020528060005260406000206000915090508060000160009054906101000a900473ffffffffffffffffffffffffffffffffffffffff16908060010154908060020154908060030160009054906101000a900460ff16905084565b60008060009054906101000a900473ffffffffffffffffffffffffffffffffffffffff16905090565b60006007600083815260200190815260200160002060030160009054906101000a900460ff169050919050565b6006602052806000526040600020600091509050806000018054600181600116156101000203166002900480601f016020809104026020016040519081016040528092919081815260200182805460018160011615610100020316600290048015611f035780601f10611ed857610100808354040283529160200191611f03565b820191906000526020600020905b815481529060010190602001808311611ee657829003601f168201915b505050505090806001018054600181600116156101000203166002900480601f016020809104026020016040519081016040528092919081815260200182805460018160011615610100020316600290048015611fa15780601f10611f7657610100808354040283529160200191611fa1565b820191906000526020600020905b815481529060010190602001808311611f8457829003601f168201915b505050505090806002018054600181600116156101000203166002900480601f01602080910402602001604051908101604052809291908181526020018280546001816001161561010002031660029004801561203f5780601f106120145761010080835404028352916020019161203f565b820191906000526020600020905b81548152906001019060200180831161202257829003601f168201915b5050505050908060030154908060040160009054906101000a900460ff16908060050154908060060160009054906101000a900460ff16908060060160019054906101000a900460ff1690806007018054600181600116156101000203166002900480601f0160208091040260200160405190810160405280929190818152602001828054600181600116156101000203166002900480156121225780601f106120f757610100808354040283529160200191612122565b820191906000526020600020905b81548152906001019060200180831161210557829003601f168201915b505050505090806008015490508a565b806006600082815260200190815260200160002060040160009054906101000a900460ff1680612178575060006006600083815260200190815260200160002060050154115b6121b7576040517f08c379a00000000000000000000000000000000000000000000000000000000081526004016121ae906137d9565b60405180910390fd5b6006600082815260200190815260200160002060060160009054906101000a900460ff1661221a576040517f08c379a000000000000000000000000000000000000000000000000000000000815260040161221190613799565b60405180910390fd5b612230620151804261297a90919063ffffffff16565b600a6000838152602001908152602001600020600061224d61293e565b73ffffffffffffffffffffffffffffffffffffffff1673ffffffffffffffffffffffffffffffffffffffff16815260200190815260200160002054106122c8576040517f08c379a00000000000000000000000000000000000000000000000000000000081526004016122bf90613719565b60405180910390fd5b6002808111156122d457fe5b6006600083815260200190815260200160002060090160006122f461293e565b73ffffffffffffffffffffffffffffffffffffffff1673ffffffffffffffffffffffffffffffffffffffff16815260200190815260200160002060009054906101000a900460ff16600281111561234757fe5b1415612388576040517f08c379a000000000000000000000000000000000000000000000000000000000815260040161237f90613759565b60405180910390fd5b6001600281111561239557fe5b6006600083815260200190815260200160002060090160006123b561293e565b73ffffffffffffffffffffffffffffffffffffffff1673ffffffffffffffffffffffffffffffffffffffff16815260200190815260200160002060009054906101000a900460ff16600281111561240857fe5b1415612449576040517f08c379a000000000000000000000000000000000000000000000000000000000815260040161244090613739565b60405180910390fd5b600060066000848152602001908152602001600020905060008160060160019054906101000a900460ff16600281111561247f57fe5b905061249760016005546128e990919063ffffffff16565b6005819055506124c4600160086000848152602001908152602001600020546128e990919063ffffffff16565b600860008381526020019081526020016000208190555060055460096000838152602001908152602001600020600060086000858152602001908152602001600020548152602001908152602001600020819055506000600760006005548152602001908152602001600020905061253a61293e565b8160000160006101000a81548173ffffffffffffffffffffffffffffffffffffffff021916908373ffffffffffffffffffffffffffffffffffffffff1602179055508481600101819055506008600083815260200190815260200160002054816002018190555060018360090160006125b161293e565b73ffffffffffffffffffffffffffffffffffffffff1673ffffffffffffffffffffffffffffffffffffffff16815260200190815260200160002060006101000a81548160ff0219169083600281111561260657fe5b021790555060028081111561261757fe5b8360060160019054906101000a900460ff16600281111561263457fe5b141561289e576060600160009054906101000a900473ffffffffffffffffffffffffffffffffffffffff1673ffffffffffffffffffffffffffffffffffffffff16638b1a3bb18360000160009054906101000a900473ffffffffffffffffffffffffffffffffffffffff166040518263ffffffff1660e01b81526004016126bb919061353b565b60006040518083038186803b1580156126d357600080fd5b505afa1580156126e7573d6000803e3d6000fd5b505050506040513d6000823e3d601f19601f820116820180604052508101906127109190612e3d565b90506060846007018054600181600116156101000203166002900480601f0160208091040260200160405190810160405280929190818152602001828054600181600116156101000203166002900480156127ac5780601f10612781576101008083540402835291602001916127ac565b820191906000526020600020905b81548152906001019060200180831161278f57829003601f168201915b505050505090506000600260009054906101000a900473ffffffffffffffffffffffffffffffffffffffff1673ffffffffffffffffffffffffffffffffffffffff1663821bc7a484846040518363ffffffff1660e01b815260040161281292919061362a565b602060405180830381600087803b15801561282c57600080fd5b505af1158015612840573d6000803e3d6000fd5b505050506040513d601f19601f820116820180604052508101906128649190612dd8565b9050600554600b60008381526020019081526020016000208190555080600d60006005548152602001908152602001600020819055505050505b7f5bdc752c100bf36ba3271c08b26c15eed0fbbb0cd4d735cfc2ebcacdaa82b960856128c861293e565b6005546040516128da9392919061383d565b60405180910390a15050505050565b600080828401905083811015612934576040517f08c379a000000000000000000000000000000000000000000000000000000000815260040161292b90613779565b60405180910390fd5b8091505092915050565b6000601860003690501015801561295a5750612959336111fd565b5b1561296e57601436033560601c9050612976565b339050612977565b5b90565b60006129bc83836040518060400160405280601e81526020017f536166654d6174683a207375627472616374696f6e206f766572666c6f770000815250612b49565b905092915050565b60006008600084815260200190815260200160002054905060006009600085815260200190815260200160002060008381526020019081526020016000205490506000600760008381526020019081526020016000209050828414612ada57600060096000878152602001908152602001600020600086815260200190815260200160002054905060006007600083815260200190815260200160002090508260000160009054906101000a900473ffffffffffffffffffffffffffffffffffffffff168160000160006101000a81548173ffffffffffffffffffffffffffffffffffffffff021916908373ffffffffffffffffffffffffffffffffffffffff1602179055508260010154816001018190555050505b600060096000878152602001908152602001600020600085815260200190815260200160002081905550612b2b6001600860008881526020019081526020016000205461297a90919063ffffffff16565b60086000878152602001908152602001600020819055505050505050565b6000838311158290612b91576040517f08c379a0000000000000000000000000000000000000000000000000000000008152600401612b889190613608565b60405180910390fd5b5060008385039050809150509392505050565b828054600181600116156101000203166002900490600052602060002090601f016020900481019282601f10612be557805160ff1916838001178555612c13565b82800160010185558215612c13579182015b82811115612c12578251825591602001919060010190612bf7565b5b509050612c209190612c64565b5090565b6040518060800160405280600073ffffffffffffffffffffffffffffffffffffffff16815260200160008152602001600081526020016000151581525090565b612c8691905b80821115612c82576000816000905550600101612c6a565b5090565b90565b600081359050612c9881613c96565b92915050565b600081359050612cad81613cad565b92915050565b600081359050612cc281613cc4565b92915050565b600081519050612cd781613cc4565b92915050565b600082601f830112612cee57600080fd5b8135612d01612cfc82613a4c565b613a1f565b91508082526020830160208301858383011115612d1d57600080fd5b612d28838284613c36565b50505092915050565b600082601f830112612d4257600080fd5b8151612d55612d5082613a4c565b613a1f565b91508082526020830160208301858383011115612d7157600080fd5b612d7c838284613c45565b50505092915050565b600081359050612d9481613cdb565b92915050565b600081519050612da981613cdb565b92915050565b600060208284031215612dc157600080fd5b6000612dcf84828501612c89565b91505092915050565b600060208284031215612dea57600080fd5b6000612df884828501612cc8565b91505092915050565b60008060408385031215612e1457600080fd5b6000612e2285828601612cb3565b9250506020612e3385828601612c9e565b9150509250929050565b600060208284031215612e4f57600080fd5b600082015167ffffffffffffffff811115612e6957600080fd5b612e7584828501612d31565b91505092915050565b600080600080600080600080610100898b031215612e9b57600080fd5b600089013567ffffffffffffffff811115612eb557600080fd5b612ec18b828c01612cdd565b985050602089013567ffffffffffffffff811115612ede57600080fd5b612eea8b828c01612cdd565b975050604089013567ffffffffffffffff811115612f0757600080fd5b612f138b828c01612cdd565b9650506060612f248b828c01612d85565b9550506080612f358b828c01612c9e565b94505060a0612f468b828c01612d85565b93505060c0612f578b828c01612c9e565b92505060e089013567ffffffffffffffff811115612f7457600080fd5b612f808b828c01612cdd565b9150509295985092959890939650565b600060208284031215612fa257600080fd5b6000612fb084828501612d85565b91505092915050565b600060208284031215612fcb57600080fd5b6000612fd984828501612d9a565b91505092915050565b60008060408385031215612ff557600080fd5b600061300385828601612d85565b925050602061301485828601612c89565b9150509250929050565b6000806040838503121561303157600080fd5b600061303f85828601612d85565b925050602061305085828601612d85565b9150509250929050565b600061306683836130c5565b60208301905092915050565b600061307e8383613272565b60208301905092915050565b6000613096838361329f565b905092915050565b60006130aa838361351d565b60208301905092915050565b6130bf81613bee565b82525050565b6130ce81613b89565b82525050565b6130dd81613b89565b82525050565b60006130ee82613ab8565b6130f88185613b23565b935061310383613a78565b8060005b8381101561313457815161311b888261305a565b975061312683613aef565b925050600181019050613107565b5085935050505092915050565b600061314c82613ac3565b6131568185613b34565b935061316183613a88565b8060005b838110156131925781516131798882613072565b975061318483613afc565b925050600181019050613165565b5085935050505092915050565b60006131aa82613ace565b6131b48185613b45565b9350836020820285016131c685613a98565b8060005b8581101561320257848403895281516131e3858261308a565b94506131ee83613b09565b925060208a019950506001810190506131ca565b50829750879550505050505092915050565b600061321f82613ad9565b6132298185613b56565b935061323483613aa8565b8060005b8381101561326557815161324c888261309e565b975061325783613b16565b925050600181019050613238565b5085935050505092915050565b61327b81613b9b565b82525050565b61328a81613b9b565b82525050565b61329981613c00565b82525050565b60006132aa82613ae4565b6132b48185613b67565b93506132c4818560208601613c45565b6132cd81613c78565b840191505092915050565b60006132e382613ae4565b6132ed8185613b78565b93506132fd818560208601613c45565b61330681613c78565b840191505092915050565b600061331e601983613b78565b91507f54656d7062616e6e6564203c20323420686f7572732061676f000000000000006000830152602082019050919050565b600061335e601983613b78565b91507f55736572206861732070656e64696e6720617070726f76616c000000000000006000830152602082019050919050565b600061339e601383613b78565b91507f55736572206861732068617320626f756e7479000000000000000000000000006000830152602082019050919050565b60006133de601b83613b78565b91507f536166654d6174683a206164646974696f6e206f766572666c6f7700000000006000830152602082019050919050565b600061341e602483613b78565b91507f426f756e7479206e6f7420617661696c61626c6520666f72206170706c69636160008301527f74696f6e000000000000000000000000000000000000000000000000000000006020830152604082019050919050565b6000613484602983613b78565b91507f41646472657373206e6f742061757468656e7469636174656420666f7220746860008301527f697320616374696f6e00000000000000000000000000000000000000000000006020830152604082019050919050565b60006134ea601383613b78565b91507f426f756e7479206e6f7420696e2073746f636b000000000000000000000000006000830152602082019050919050565b61352681613be4565b82525050565b61353581613be4565b82525050565b600060208201905061355060008301846130d4565b92915050565b600060208201905061356b60008301846130b6565b92915050565b600060608201905061358660008301866130d4565b613593602083018561352c565b6135a0604083018461352c565b949350505050565b60006080820190506135bd60008301876130d4565b6135ca602083018661352c565b6135d7604083018561352c565b6135e46060830184613281565b95945050505050565b60006020820190506136026000830184613281565b92915050565b6000602082019050818103600083015261362281846132d8565b905092915050565b6000604082019050818103600083015261364481856132d8565b9050818103602083015261365881846132d8565b90509392505050565b600061014082019050818103600083015261367c818d6132d8565b90508181036020830152613690818c6132d8565b905081810360408301526136a4818b6132d8565b90506136b3606083018a61352c565b6136c06080830189613281565b6136cd60a083018861352c565b6136da60c0830187613281565b6136e760e0830186613290565b8181036101008301526136fa81856132d8565b905061370a61012083018461352c565b9b9a5050505050505050505050565b6000602082019050818103600083015261373281613311565b9050919050565b6000602082019050818103600083015261375281613351565b9050919050565b6000602082019050818103600083015261377281613391565b9050919050565b60006020820190508181036000830152613792816133d1565b9050919050565b600060208201905081810360008301526137b281613411565b9050919050565b600060208201905081810360008301526137d281613477565b9050919050565b600060208201905081810360008301526137f2816134dd565b9050919050565b600060208201905061380e600083018461352c565b92915050565b6000604082019050613829600083018561352c565b61383660208301846130d4565b9392505050565b6000606082019050613852600083018661352c565b61385f60208301856130b6565b61386c604083018461352c565b949350505050565b6000606082019050613889600083018661352c565b61389660208301856130d4565b6138a3604083018461352c565b949350505050565b6000610100820190506138c1600083018b61352c565b81810360208301526138d3818a6130e3565b905081810360408301526138e7818961319f565b905081810360608301526138fb8188613214565b9050818103608083015261390f818761319f565b905081810360a08301526139238186613214565b905081810360c08301526139378185613214565b905081810360e083015261394b8184613141565b90509998505050505050505050565b600061012082019050613970600083018c61352c565b8181036020830152613982818b61319f565b90508181036040830152613996818a61319f565b905081810360608301526139aa818961319f565b905081810360808301526139be8188613214565b905081810360a08301526139d28187613141565b905081810360c08301526139e68186613214565b905081810360e08301526139fa8185613141565b9050818103610100830152613a0f8184613141565b90509a9950505050505050505050565b6000604051905081810181811067ffffffffffffffff82111715613a4257600080fd5b8060405250919050565b600067ffffffffffffffff821115613a6357600080fd5b601f19601f8301169050602081019050919050565b6000819050602082019050919050565b6000819050602082019050919050565b6000819050602082019050919050565b6000819050602082019050919050565b600081519050919050565b600081519050919050565b600081519050919050565b600081519050919050565b600081519050919050565b6000602082019050919050565b6000602082019050919050565b6000602082019050919050565b6000602082019050919050565b600082825260208201905092915050565b600082825260208201905092915050565b600082825260208201905092915050565b600082825260208201905092915050565b600082825260208201905092915050565b600082825260208201905092915050565b6000613b9482613bc4565b9050919050565b60008115159050919050565b6000819050919050565b6000819050613bbf82613c89565b919050565b600073ffffffffffffffffffffffffffffffffffffffff82169050919050565b6000819050919050565b6000613bf982613c12565b9050919050565b6000613c0b82613bb1565b9050919050565b6000613c1d82613c24565b9050919050565b6000613c2f82613bc4565b9050919050565b82818337600083830152505050565b60005b83811015613c63578082015181840152602081019050613c48565b83811115613c72576000848401525b50505050565b6000601f19601f8301169050919050565b60038110613c9357fe5b50565b613c9f81613b89565b8114613caa57600080fd5b50565b613cb681613b9b565b8114613cc157600080fd5b50565b613ccd81613ba7565b8114613cd857600080fd5b50565b613ce481613be4565b8114613cef57600080fd5b5056fea2646970667358221220869e2f063cbfde00e33677108b8df67edc331e2df4d52169031bf6d281253f9b64736f6c634300060a0033",
  "immutableReferences": {},
  "source": "//SPDX-License-Identifier: MIT\npragma solidity >=0.6.0 <0.8.0;\npragma experimental ABIEncoderV2;\n\nimport \"./interfaces/IBounties.sol\";\nimport \"./interfaces/ITwitterConsumer.sol\";\n\ncontract Bounties is IBounties {\n    //@param _users - the address of the deployed users contract\n    //@param _forwarder - the address of the gsn trusted forwarder\n    constructor(address _users, address _forwarder) public {\n        userContract = IUsers(_users);\n        userContract.setBounty(address(this));\n        trustedForwarder = _forwarder;\n    }\n\n    /// MUTABLE FUNCTIONS ///\n\n    function setConsumer(address _at) public override {\n        require(consumerContract == address(0));\n        consumerContract = _at;\n        consumerInstance = ITwitterConsumer(_at);\n    }\n\n    function addBounty(\n        string memory _title,\n        string memory _description,\n        string memory _imageUrl,\n        uint256 _award,\n        bool _infinite,\n        uint256 _quantity,\n        bool _manual,\n        string memory _tweetId\n    )\n        public\n        override\n        //adminOrTwitter(uint256(Trigger.Manual))\n        returns (uint256 _nonce)\n    {\n        bountyNonce = bountyNonce.add(1);\n        _nonce = bountyNonce;\n        Bounty storage bounty = bounties[_nonce];\n        //trigger initialization would need to be more robust with > 1 chainlink adapter\n        Trigger trigger = _manual ? Trigger.Manual : Trigger.Twitter;\n        bounty.name = _title;\n        bounty.description = _description;\n        bounty.imageUrl = _imageUrl;\n        bounty.award = _award;\n        bounty.infinite = _infinite;\n        bounty.quantity = _quantity;\n        bounty.trigger = trigger;\n        bounty.tweet = _tweetId;\n        bounty.active = true;\n        emit BountyAdded(_nonce);\n    }\n\n    function applyForBounty(uint256 _nonce)\n        public\n        override\n        beforeBountyApp(_nonce)\n    {\n        Bounty storage bounty = bounties[_nonce];\n        uint256 trigger = uint256(bounty.trigger);\n        requestNonce = requestNonce.add(1);\n        pendingIndices[trigger] = pendingIndices[trigger].add(1);\n        pendingRequests[trigger][pendingIndices[trigger]] = requestNonce;\n        Request storage request = requests[requestNonce];\n        request.user = _msgSender();\n        request.bounty = _nonce;\n        request.pendingIndex = pendingIndices[trigger];\n        bounty.status[_msgSender()] = BountyState.Pending;\n        if (bounty.trigger == Trigger.Twitter) {\n            string memory userId = userContract.getTwitterId(request.user);\n            string memory tweetId = bounty.tweet;\n            bytes32 requestId = consumerInstance.checkRetweets(userId, tweetId);\n            chainlinkRequests[requestId] = requestNonce;\n            nonceToRequestId[requestNonce] = requestId;\n        }\n        emit BountyApplication(_nonce, _msgSender(), requestNonce);\n    }\n\n    function approveBountyRequest(uint256 _trigger, uint256 _index)\n        public\n        override\n    {\n        uint256 requestNonce = pendingRequests[_trigger][_index];\n        Request memory request = requests[requestNonce];\n        Bounty storage bounty = bounties[request.bounty];\n        if (!bounty.infinite) {\n            bounty.quantity = bounty.quantity.sub(1);\n            if (bounty.quantity == 0) delistBounty(request.bounty);\n        }\n        bounty.status[request.user] = BountyState.Awarded;\n        bounty.holders.push(request.user);\n        userContract.addBounty(request.user, request.bounty, bounty.award);\n        userHasBounty[request.bounty][request.user] = true;\n        emit BountyAwarded(request.bounty, request.user, bounty.award);\n        removePendingRequest(_trigger, _index);\n    }\n\n    function rejectBountyRequest(uint256 _trigger, uint256 _index)\n        public\n        override\n        adminOrTwitter(uint256(Trigger.Twitter))\n    {\n        uint256 requestNonce = pendingRequests[_trigger][_index];\n        Request memory request = requests[requestNonce];\n        Bounty storage bounty = bounties[request.bounty];\n        bounty.status[request.user] = BountyState.None;\n        tempban[request.bounty][request.user] = now;\n        userHasBounty[request.bounty][request.user] = false;\n        emit BountyRejected(request.bounty, request.user);\n        removePendingRequest(_trigger, _index);\n    }\n\n    function delistBounty(uint256 _nonce)\n        public\n        override\n        adminOrTwitter(uint256(Trigger.Manual))\n    {\n        Bounty storage bounty = bounties[_nonce];\n        bounty.active = false;\n        emit BountyDelisted(_nonce);\n    }\n\n    /**\n     * Internal helper function to handle logic of removing pending requests from storage\n     *\n     * @param _trigger - the type of request being removed\n     * @dev can add more uint/ enum codes for triggers. 1 = manual, 2 = retweet verification\n     * @param _index - the index of the pending request to remove\n     */\n    function removePendingRequest(uint256 _trigger, uint256 _index) internal {\n        uint256 pendingIndex = pendingIndices[_trigger];\n        uint256 lastNonce = pendingRequests[_trigger][pendingIndex];\n        Request storage last = requests[lastNonce];\n        if (_index != pendingIndex) {\n            uint256 swapNonce = pendingRequests[_trigger][_index];\n            Request storage swap = requests[swapNonce];\n            swap.user = last.user;\n            swap.bounty = last.bounty;\n        }\n        pendingRequests[_trigger][pendingIndex] = 0;\n        pendingIndices[_trigger] = pendingIndices[_trigger].sub(1);\n    }\n\n    function fulfillChainlinkRequest(bytes32 _requestId, bool _status)\n        public\n        override\n    {\n        uint256 trigger = uint256(Trigger.Twitter);\n        Request storage request = requests[chainlinkRequests[_requestId]];\n        if (_status) approveBountyRequest(trigger, request.pendingIndex);\n        else rejectBountyRequest(trigger, request.pendingIndex);\n        request.fulfilled = true;\n    }\n\n    /// VIEWABLE FUNCTIONS ///\n\n    function pendingBountyRequests(uint256 _trigger)\n        public\n        view\n        override\n        returns (\n            uint256 _nonce,\n            address[] memory _users,\n            string[] memory _userNames,\n            uint256[] memory _bounties,\n            string[] memory _bountyNames,\n            uint256[] memory _bountyAwards,\n            uint256[] memory _bountyQuantities,\n            bool[] memory _bountyInfinite\n        )\n    {\n        _nonce = pendingIndices[_trigger];\n        _users = new address[](_nonce);\n        _userNames = new string[](_nonce);\n        _bounties = new uint256[](_nonce);\n        _bountyNames = new string[](_nonce);\n        _bountyAwards = new uint256[](_nonce);\n        _bountyQuantities = new uint256[](_nonce);\n        _bountyInfinite = new bool[](_nonce);\n        for (uint256 i = 0; i < _nonce; i++) {\n            uint256 requestNonce = pendingRequests[_trigger][i.add(1)];\n            _users[i] = requests[requestNonce].user;\n            _userNames[i] = userContract.name(_users[i]);\n            _bounties[i] = requests[requestNonce].bounty;\n            _bountyNames[i] = bounties[_bounties[i]].name;\n            _bountyAwards[i] = bounties[_bounties[i]].award;\n            _bountyQuantities[i] = bounties[_bounties[i]].quantity;\n            _bountyInfinite[i] = bounties[_bounties[i]].infinite;\n        }\n    }\n\n    function getBounties()\n        public\n        view\n        override\n        returns (\n            uint256 _bountyNonce,\n            string[] memory _titles,\n            string[] memory _descriptions,\n            string[] memory _imageUrls,\n            uint256[] memory _awards,\n            bool[] memory _infinites,\n            uint256[] memory _quantities,\n            bool[] memory _actives,\n            bool[] memory _manuals\n        )\n    {\n        _bountyNonce = bountyNonce;\n        _titles = new string[](_bountyNonce);\n        _descriptions = new string[](_bountyNonce);\n        _imageUrls = new string[](_bountyNonce);\n        _awards = new uint256[](_bountyNonce);\n        _infinites = new bool[](_bountyNonce);\n        _quantities = new uint256[](_bountyNonce);\n        _actives = new bool[](_bountyNonce);\n        _manuals = new bool[](_bountyNonce);\n        for (uint256 i = 0; i < _bountyNonce; i++) {\n            _titles[i] = bounties[i.add(1)].name;\n            _descriptions[i] = bounties[i.add(1)].description;\n            _imageUrls[i] = bounties[i.add(1)].imageUrl;\n            _awards[i] = bounties[i.add(1)].award;\n            _infinites[i] = bounties[i.add(1)].infinite;\n            _quantities[i] = bounties[i.add(1)].quantity;\n            _actives[i] = bounties[i.add(1)].active;\n            _manuals[i] = bounties[i.add(1)].trigger == Trigger.Manual;\n        }\n    }\n\n    function hasBounty(uint256 _bountyNonce, address _user)\n        public\n        view\n        override\n        returns (bool)\n    {\n        return userHasBounty[_bountyNonce][_user];\n    }\n\n    function checkFulfillment(uint256 _nonce)\n        public\n        view\n        override\n        returns (bool)\n    {\n        return requests[_nonce].fulfilled;\n    }\n}\n",
  "sourcePath": "/home/jpag/orgtoken/contracts/contracts/Bounties.sol",
  "compiler": {
    "name": "solc",
    "version": "0.6.10+commit.00c0fcaf.Emscripten.clang"
  },
  "schemaVersion": "3.3.3",
  "updatedAt": "2021-01-15T19:33:34.427Z",
  "networkType": "ethereum",
  "devdoc": {
    "methods": {}
  },
  "userdoc": {
    "methods": {
      "getTrustedForwarder()": {
        "notice": "GSN Forwarder Call"
      },
      "pendingBountyRequests(uint256)": {
        "notice": "VIEWABLE FUNCTIONS ///"
      },
      "setConsumer(address)": {
        "notice": "MUTABLE FUNCTIONS ///"
      }
    }
  }
}