{
  "contractName": "Bounties",
  "abi": [
    {
      "inputs": [
        {
          "internalType": "address",
          "name": "_users",
          "type": "address"
        }
      ],
      "stateMutability": "nonpayable",
      "type": "constructor"
    },
    {
      "anonymous": false,
      "inputs": [
        {
          "indexed": false,
          "internalType": "uint256",
          "name": "_nonce",
          "type": "uint256"
        }
      ],
      "name": "BountyAdded",
      "type": "event"
    },
    {
      "anonymous": false,
      "inputs": [
        {
          "indexed": false,
          "internalType": "uint256",
          "name": "_nonce",
          "type": "uint256"
        },
        {
          "indexed": false,
          "internalType": "address",
          "name": "_by",
          "type": "address"
        }
      ],
      "name": "BountyApplication",
      "type": "event"
    },
    {
      "anonymous": false,
      "inputs": [
        {
          "indexed": false,
          "internalType": "uint256",
          "name": "_nonce",
          "type": "uint256"
        },
        {
          "indexed": false,
          "internalType": "address",
          "name": "_to",
          "type": "address"
        },
        {
          "indexed": false,
          "internalType": "uint256",
          "name": "_minted",
          "type": "uint256"
        }
      ],
      "name": "BountyAwarded",
      "type": "event"
    },
    {
      "anonymous": false,
      "inputs": [
        {
          "indexed": false,
          "internalType": "uint256",
          "name": "_nonce",
          "type": "uint256"
        }
      ],
      "name": "BountyDelisted",
      "type": "event"
    },
    {
      "anonymous": false,
      "inputs": [
        {
          "indexed": false,
          "internalType": "uint256",
          "name": "_nonce",
          "type": "uint256"
        },
        {
          "indexed": false,
          "internalType": "address",
          "name": "_to",
          "type": "address"
        }
      ],
      "name": "BountyRejected",
      "type": "event"
    },
    {
      "inputs": [
        {
          "internalType": "uint256",
          "name": "",
          "type": "uint256"
        }
      ],
      "name": "bounties",
      "outputs": [
        {
          "internalType": "string",
          "name": "name",
          "type": "string"
        },
        {
          "internalType": "string",
          "name": "description",
          "type": "string"
        },
        {
          "internalType": "string",
          "name": "imageUrl",
          "type": "string"
        },
        {
          "internalType": "uint256",
          "name": "award",
          "type": "uint256"
        },
        {
          "internalType": "bool",
          "name": "infinite",
          "type": "bool"
        },
        {
          "internalType": "uint256",
          "name": "quantity",
          "type": "uint256"
        },
        {
          "internalType": "bool",
          "name": "active",
          "type": "bool"
        },
        {
          "internalType": "enum Trigger",
          "name": "trigger",
          "type": "uint8"
        },
        {
          "internalType": "string",
          "name": "tweet",
          "type": "string"
        },
        {
          "internalType": "uint256",
          "name": "pendingNonce",
          "type": "uint256"
        }
      ],
      "stateMutability": "view",
      "type": "function",
      "constant": true
    },
    {
      "inputs": [],
      "name": "bountyNonce",
      "outputs": [
        {
          "internalType": "uint256",
          "name": "",
          "type": "uint256"
        }
      ],
      "stateMutability": "view",
      "type": "function",
      "constant": true
    },
    {
      "inputs": [
        {
          "internalType": "string",
          "name": "_title",
          "type": "string"
        },
        {
          "internalType": "string",
          "name": "_description",
          "type": "string"
        },
        {
          "internalType": "string",
          "name": "_imageUrl",
          "type": "string"
        },
        {
          "internalType": "uint256",
          "name": "_award",
          "type": "uint256"
        },
        {
          "internalType": "bool",
          "name": "_infinite",
          "type": "bool"
        },
        {
          "internalType": "uint256",
          "name": "_quantity",
          "type": "uint256"
        },
        {
          "internalType": "bool",
          "name": "_manual",
          "type": "bool"
        },
        {
          "internalType": "string",
          "name": "_tweetId",
          "type": "string"
        }
      ],
      "name": "addBounty",
      "outputs": [
        {
          "internalType": "uint256",
          "name": "_nonce",
          "type": "uint256"
        }
      ],
      "stateMutability": "nonpayable",
      "type": "function"
    },
    {
      "inputs": [
        {
          "internalType": "uint256",
          "name": "_nonce",
          "type": "uint256"
        }
      ],
      "name": "applyForBounty",
      "outputs": [],
      "stateMutability": "nonpayable",
      "type": "function"
    },
    {
      "inputs": [
        {
          "internalType": "uint256",
          "name": "_trigger",
          "type": "uint256"
        },
        {
          "internalType": "uint256",
          "name": "_nonce",
          "type": "uint256"
        }
      ],
      "name": "approveBountyRequest",
      "outputs": [],
      "stateMutability": "nonpayable",
      "type": "function"
    },
    {
      "inputs": [
        {
          "internalType": "uint256",
          "name": "_trigger",
          "type": "uint256"
        },
        {
          "internalType": "uint256",
          "name": "_nonce",
          "type": "uint256"
        }
      ],
      "name": "rejectBountyRequest",
      "outputs": [],
      "stateMutability": "nonpayable",
      "type": "function"
    },
    {
      "inputs": [
        {
          "internalType": "uint256",
          "name": "_nonce",
          "type": "uint256"
        }
      ],
      "name": "delistBounty",
      "outputs": [],
      "stateMutability": "nonpayable",
      "type": "function"
    },
    {
      "inputs": [
        {
          "internalType": "uint256",
          "name": "_trigger",
          "type": "uint256"
        }
      ],
      "name": "pendingBountyRequests",
      "outputs": [
        {
          "internalType": "uint256",
          "name": "_nonce",
          "type": "uint256"
        },
        {
          "internalType": "address[]",
          "name": "_users",
          "type": "address[]"
        },
        {
          "internalType": "uint256[]",
          "name": "_bounties",
          "type": "uint256[]"
        }
      ],
      "stateMutability": "view",
      "type": "function",
      "constant": true
    },
    {
      "inputs": [],
      "name": "getBounties",
      "outputs": [
        {
          "internalType": "uint256",
          "name": "_bountyNonce",
          "type": "uint256"
        },
        {
          "internalType": "string[]",
          "name": "_titles",
          "type": "string[]"
        },
        {
          "internalType": "string[]",
          "name": "_descriptions",
          "type": "string[]"
        },
        {
          "internalType": "string[]",
          "name": "_imageUrls",
          "type": "string[]"
        },
        {
          "internalType": "uint256[]",
          "name": "_awards",
          "type": "uint256[]"
        },
        {
          "internalType": "bool[]",
          "name": "_infinites",
          "type": "bool[]"
        },
        {
          "internalType": "uint256[]",
          "name": "_quantities",
          "type": "uint256[]"
        },
        {
          "internalType": "bool[]",
          "name": "_actives",
          "type": "bool[]"
        },
        {
          "internalType": "bool[]",
          "name": "_manuals",
          "type": "bool[]"
        }
      ],
      "stateMutability": "view",
      "type": "function",
      "constant": true
    }
  ],
  "bytecode": "0x60806040523480156200001157600080fd5b506040516200299a3803806200299a833981810160405262000037919081019062000125565b806000806101000a81548173ffffffffffffffffffffffffffffffffffffffff021916908373ffffffffffffffffffffffffffffffffffffffff1602179055506000809054906101000a900473ffffffffffffffffffffffffffffffffffffffff1673ffffffffffffffffffffffffffffffffffffffff1663bc300ed3306040518263ffffffff1660e01b8152600401620000d3919062000162565b600060405180830381600087803b158015620000ee57600080fd5b505af115801562000103573d6000803e3d6000fd5b5050505050620001cd565b6000815190506200011f81620001b3565b92915050565b6000602082840312156200013857600080fd5b600062000148848285016200010e565b91505092915050565b6200015c816200017f565b82525050565b600060208201905062000179600083018462000151565b92915050565b60006200018c8262000193565b9050919050565b600073ffffffffffffffffffffffffffffffffffffffff82169050919050565b620001be816200017f565b8114620001ca57600080fd5b50565b6127bd80620001dd6000396000f3fe608060405234801561001057600080fd5b50600436106100935760003560e01c8063416dd08411610066578063416dd084146101285780635d69cb7e1461014457806378999d2014610176578063dc2f874414610192578063fd716a9c146101cb57610093565b80630cf0ac1d146100985780630f1ca5a7146100be5780632dfdad0b146100dc5780632f34b97d146100f8575b600080fd5b6100a06101e7565b6040516100b59998979695949392919061241c565b60405180910390f35b6100c66107e7565b6040516100d39190612333565b60405180910390f35b6100f660048036036100f19190810190611c49565b6107ed565b005b610112600480360361010d9190810190611b37565b61085c565b60405161011f9190612333565b60405180910390f35b610142600480360361013d9190810190611c72565b6109c1565b005b61015e60048036036101599190810190611c49565b610c8a565b60405161016d939291906123d7565b60405180910390f35b610190600480360361018b9190810190611c72565b610e20565b005b6101ac60048036036101a79190810190611c49565b610fe9565b6040516101c29a999897969594939291906121bb565b60405180910390f35b6101e560048036036101e09190810190611c49565b6112c4565b005b600060608060608060608060608060015498508860405190808252806020026020018201604052801561022e57816020015b60608152602001906001900390816102195790505b5097508860405190808252806020026020018201604052801561026557816020015b60608152602001906001900390816102505790505b5096508860405190808252806020026020018201604052801561029c57816020015b60608152602001906001900390816102875790505b509550886040519080825280602002602001820160405280156102ce5781602001602082028038833980820191505090505b509450886040519080825280602002602001820160405280156103005781602001602082028038833980820191505090505b509350886040519080825280602002602001820160405280156103325781602001602082028038833980820191505090505b509250886040519080825280602002602001820160405280156103645781602001602082028038833980820191505090505b509150886040519080825280602002602001820160405280156103965781602001602082028038833980820191505090505b50905060008090505b898110156107db57600260006103bf60018461176690919063ffffffff16565b81526020019081526020016000206000018054600181600116156101000203166002900480601f0160208091040260200160405190810160405280929190818152602001828054600181600116156101000203166002900480156104645780601f1061043957610100808354040283529160200191610464565b820191906000526020600020905b81548152906001019060200180831161044757829003601f168201915b505050505089828151811061047557fe5b60200260200101819052506002600061049860018461176690919063ffffffff16565b81526020019081526020016000206001018054600181600116156101000203166002900480601f01602080910402602001604051908101604052809291908181526020018280546001816001161561010002031660029004801561053d5780601f106105125761010080835404028352916020019161053d565b820191906000526020600020905b81548152906001019060200180831161052057829003601f168201915b505050505088828151811061054e57fe5b60200260200101819052506002600061057160018461176690919063ffffffff16565b81526020019081526020016000206002018054600181600116156101000203166002900480601f0160208091040260200160405190810160405280929190818152602001828054600181600116156101000203166002900480156106165780601f106105eb57610100808354040283529160200191610616565b820191906000526020600020905b8154815290600101906020018083116105f957829003601f168201915b505050505087828151811061062757fe5b60200260200101819052506002600061064a60018461176690919063ffffffff16565b81526020019081526020016000206003015486828151811061066857fe5b6020026020010181815250506002600061068c60018461176690919063ffffffff16565b815260200190815260200160002060040160009054906101000a900460ff168582815181106106b757fe5b602002602001019015159081151581525050600260006106e160018461176690919063ffffffff16565b8152602001908152602001600020600501548482815181106106ff57fe5b6020026020010181815250506002600061072360018461176690919063ffffffff16565b815260200190815260200160002060060160009054906101000a900460ff1683828151811061074e57fe5b6020026020010190151590811515815250506001600281111561076d57fe5b6002600061078560018561176690919063ffffffff16565b815260200190815260200160002060060160019054906101000a900460ff1660028111156107af57fe5b148282815181106107bc57fe5b602002602001019015159081151581525050808060010191505061039f565b50909192939495969798565b60015481565b600060026000838152602001908152602001600020905060008160060160006101000a81548160ff0219169083151502179055507f2d7b14f8a1fd1b1b7c237d5cf8c3b2c9a387db2aa8e5f03dbf74efa105673b0d826040516108509190612333565b60405180910390a15050565b60006108736001805461176690919063ffffffff16565b600181905550600154905060006002600083815260200190815260200160002090506000846108a35760026108a6565b60015b90508a8260000190805190602001906108c09291906119e4565b50898260010190805190602001906108d99291906119e4565b50888260020190805190602001906108f29291906119e4565b50878260030181905550868260040160006101000a81548160ff021916908315150217905550858260050181905550808260060160016101000a81548160ff0219169083600281111561094157fe5b02179055508382600701908051906020019061095e9291906119e4565b5060018260060160006101000a81548160ff0219169083151502179055507fa99eeb7ee15333d9449368ff1d1e52f206bab46c2bebd241bbe2632b80ad9a14836040516109ab9190612333565b60405180910390a1505098975050505050505050565b6109c9611a64565b6004600084815260200190815260200160002060008381526020019081526020016000206040518060400160405290816000820160009054906101000a900473ffffffffffffffffffffffffffffffffffffffff1673ffffffffffffffffffffffffffffffffffffffff1673ffffffffffffffffffffffffffffffffffffffff16815260200160018201548152505090506000600260008360200151815260200190815260200160002090508060040160009054906101000a900460ff16610ac757610aa3600182600501546117bb90919063ffffffff16565b8160050181905550600081600501541415610ac657610ac582602001516107ed565b5b5b6002816009016000846000015173ffffffffffffffffffffffffffffffffffffffff1673ffffffffffffffffffffffffffffffffffffffff16815260200190815260200160002060006101000a81548160ff02191690836002811115610b2957fe5b021790555080600a0182600001519080600181540180825580915050600190039060005260206000200160009091909190916101000a81548173ffffffffffffffffffffffffffffffffffffffff021916908373ffffffffffffffffffffffffffffffffffffffff1602179055506000809054906101000a900473ffffffffffffffffffffffffffffffffffffffff1673ffffffffffffffffffffffffffffffffffffffff1663e43f3e788360000151846020015184600301546040518463ffffffff1660e01b8152600401610c0193929190612162565b600060405180830381600087803b158015610c1b57600080fd5b505af1158015610c2f573d6000803e3d6000fd5b505050507f6afd625dfd10339cc4a7ba296f32817ab16fb8582d48761227a714a33af363c0826020015183600001518360030154604051610c72939291906123a0565b60405180910390a1610c848484611805565b50505050565b60006060806003600085815260200190815260200160002054925082604051908082528060200260200182016040528015610cd45781602001602082028038833980820191505090505b50915082604051908082528060200260200182016040528015610d065781602001602082028038833980820191505090505b50905060008090505b83811015610e1857600460008681526020019081526020016000206000610d4060018461176690919063ffffffff16565b815260200190815260200160002060000160009054906101000a900473ffffffffffffffffffffffffffffffffffffffff16838281518110610d7e57fe5b602002602001019073ffffffffffffffffffffffffffffffffffffffff16908173ffffffffffffffffffffffffffffffffffffffff1681525050600460008681526020019081526020016000206000610de160018461176690919063ffffffff16565b815260200190815260200160002060010154828281518110610dff57fe5b6020026020010181815250508080600101915050610d0f565b509193909250565b610e28611a64565b6004600084815260200190815260200160002060008381526020019081526020016000206040518060400160405290816000820160009054906101000a900473ffffffffffffffffffffffffffffffffffffffff1673ffffffffffffffffffffffffffffffffffffffff1673ffffffffffffffffffffffffffffffffffffffff16815260200160018201548152505090506000600260008360200151815260200190815260200160002090506000816009016000846000015173ffffffffffffffffffffffffffffffffffffffff1673ffffffffffffffffffffffffffffffffffffffff16815260200190815260200160002060006101000a81548160ff02191690836002811115610f3657fe5b02179055504260056000846020015181526020019081526020016000206000846000015173ffffffffffffffffffffffffffffffffffffffff1673ffffffffffffffffffffffffffffffffffffffff168152602001908152602001600020819055507f14bd13b4df7a34b48398ea3e7bb2d6daccb5c476bf3ef6066cf3a84e767521fa82602001518360000151604051610fd192919061234e565b60405180910390a1610fe38484611805565b50505050565b6002602052806000526040600020600091509050806000018054600181600116156101000203166002900480601f0160208091040260200160405190810160405280929190818152602001828054600181600116156101000203166002900480156110955780601f1061106a57610100808354040283529160200191611095565b820191906000526020600020905b81548152906001019060200180831161107857829003601f168201915b505050505090806001018054600181600116156101000203166002900480601f0160208091040260200160405190810160405280929190818152602001828054600181600116156101000203166002900480156111335780601f1061110857610100808354040283529160200191611133565b820191906000526020600020905b81548152906001019060200180831161111657829003601f168201915b505050505090806002018054600181600116156101000203166002900480601f0160208091040260200160405190810160405280929190818152602001828054600181600116156101000203166002900480156111d15780601f106111a6576101008083540402835291602001916111d1565b820191906000526020600020905b8154815290600101906020018083116111b457829003601f168201915b5050505050908060030154908060040160009054906101000a900460ff16908060050154908060060160009054906101000a900460ff16908060060160019054906101000a900460ff1690806007018054600181600116156101000203166002900480601f0160208091040260200160405190810160405280929190818152602001828054600181600116156101000203166002900480156112b45780601f10611289576101008083540402835291602001916112b4565b820191906000526020600020905b81548152906001019060200180831161129757829003601f168201915b505050505090806008015490508a565b806002600082815260200190815260200160002060040160009054906101000a900460ff168061130a575060006002600083815260200190815260200160002060050154115b611349576040517f08c379a000000000000000000000000000000000000000000000000000000000815260040161134090612313565b60405180910390fd5b6002600082815260200190815260200160002060060160009054906101000a900460ff166113ac576040517f08c379a00000000000000000000000000000000000000000000000000000000081526004016113a3906122f3565b60405180910390fd5b6113c262015180426117bb90919063ffffffff16565b6005600083815260200190815260200160002060003373ffffffffffffffffffffffffffffffffffffffff1673ffffffffffffffffffffffffffffffffffffffff1681526020019081526020016000205410611453576040517f08c379a000000000000000000000000000000000000000000000000000000000815260040161144a90612273565b60405180910390fd5b60028081111561145f57fe5b6002600083815260200190815260200160002060090160003373ffffffffffffffffffffffffffffffffffffffff1673ffffffffffffffffffffffffffffffffffffffff16815260200190815260200160002060009054906101000a900460ff1660028111156114cb57fe5b141561150c576040517f08c379a0000000000000000000000000000000000000000000000000000000008152600401611503906122b3565b60405180910390fd5b6001600281111561151957fe5b6002600083815260200190815260200160002060090160003373ffffffffffffffffffffffffffffffffffffffff1673ffffffffffffffffffffffffffffffffffffffff16815260200190815260200160002060009054906101000a900460ff16600281111561158557fe5b14156115c6576040517f08c379a00000000000000000000000000000000000000000000000000000000081526004016115bd90612293565b60405180910390fd5b600060026000848152602001908152602001600020905060008160060160019054906101000a900460ff1660028111156115fc57fe5b90506116256001600360008481526020019081526020016000205461176690919063ffffffff16565b60036000838152602001908152602001600020819055506000600460008381526020019081526020016000206000600360008581526020019081526020016000205481526020019081526020016000209050338160000160006101000a81548173ffffffffffffffffffffffffffffffffffffffff021916908373ffffffffffffffffffffffffffffffffffffffff16021790555084816001018190555060018360090160003373ffffffffffffffffffffffffffffffffffffffff1673ffffffffffffffffffffffffffffffffffffffff16815260200190815260200160002060006101000a81548160ff0219169083600281111561172157fe5b02179055507f27f73492263c83d57e845ca0500933ea9535d3b9fd093cc9c953c176f392a5da8533604051611757929190612377565b60405180910390a15050505050565b6000808284019050838110156117b1576040517f08c379a00000000000000000000000000000000000000000000000000000000081526004016117a8906122d3565b60405180910390fd5b8091505092915050565b60006117fd83836040518060400160405280601e81526020017f536166654d6174683a207375627472616374696f6e206f766572666c6f770000815250611989565b905092915050565b6000600460008481526020019081526020016000206000600360008681526020019081526020016000205481526020019081526020016000209050600360008481526020019081526020016000205482146118f857600060046000858152602001908152602001600020600084815260200190815260200160002090508160000160009054906101000a900473ffffffffffffffffffffffffffffffffffffffff168160000160006101000a81548173ffffffffffffffffffffffffffffffffffffffff021916908373ffffffffffffffffffffffffffffffffffffffff16021790555081600101548160010181905550505b60008160000160006101000a81548173ffffffffffffffffffffffffffffffffffffffff021916908373ffffffffffffffffffffffffffffffffffffffff1602179055506000816001018190555061196d600160036000868152602001908152602001600020546117bb90919063ffffffff16565b6003600085815260200190815260200160002081905550505050565b60008383111582906119d1576040517f08c379a00000000000000000000000000000000000000000000000000000000081526004016119c89190612199565b60405180910390fd5b5060008385039050809150509392505050565b828054600181600116156101000203166002900490600052602060002090601f016020900481019282601f10611a2557805160ff1916838001178555611a53565b82800160010185558215611a53579182015b82811115611a52578251825591602001919060010190611a37565b5b509050611a609190611a94565b5090565b6040518060400160405280600073ffffffffffffffffffffffffffffffffffffffff168152602001600081525090565b611ab691905b80821115611ab2576000816000905550600101611a9a565b5090565b90565b600081359050611ac881612759565b92915050565b600082601f830112611adf57600080fd5b8135611af2611aed8261250e565b6124e1565b91508082526020830160208301858383011115611b0e57600080fd5b611b198382846126f9565b50505092915050565b600081359050611b3181612770565b92915050565b600080600080600080600080610100898b031215611b5457600080fd5b600089013567ffffffffffffffff811115611b6e57600080fd5b611b7a8b828c01611ace565b985050602089013567ffffffffffffffff811115611b9757600080fd5b611ba38b828c01611ace565b975050604089013567ffffffffffffffff811115611bc057600080fd5b611bcc8b828c01611ace565b9650506060611bdd8b828c01611b22565b9550506080611bee8b828c01611ab9565b94505060a0611bff8b828c01611b22565b93505060c0611c108b828c01611ab9565b92505060e089013567ffffffffffffffff811115611c2d57600080fd5b611c398b828c01611ace565b9150509295985092959890939650565b600060208284031215611c5b57600080fd5b6000611c6984828501611b22565b91505092915050565b60008060408385031215611c8557600080fd5b6000611c9385828601611b22565b9250506020611ca485828601611b22565b9150509250929050565b6000611cba8383611d19565b60208301905092915050565b6000611cd28383611ec6565b60208301905092915050565b6000611cea8383611f2c565b905092915050565b6000611cfe8383612144565b60208301905092915050565b611d13816126b1565b82525050565b611d2281612656565b82525050565b611d3181612656565b82525050565b6000611d428261257a565b611d4c81856125f0565b9350611d578361253a565b8060005b83811015611d88578151611d6f8882611cae565b9750611d7a836125bc565b925050600181019050611d5b565b5085935050505092915050565b6000611da082612585565b611daa8185612601565b9350611db58361254a565b8060005b83811015611de6578151611dcd8882611cc6565b9750611dd8836125c9565b925050600181019050611db9565b5085935050505092915050565b6000611dfe82612590565b611e088185612612565b935083602082028501611e1a8561255a565b8060005b85811015611e565784840389528151611e378582611cde565b9450611e42836125d6565b925060208a01995050600181019050611e1e565b50829750879550505050505092915050565b6000611e738261259b565b611e7d8185612623565b9350611e888361256a565b8060005b83811015611eb9578151611ea08882611cf2565b9750611eab836125e3565b925050600181019050611e8c565b5085935050505092915050565b611ecf81612668565b82525050565b611ede81612668565b82525050565b611eed816126c3565b82525050565b6000611efe826125b1565b611f088185612645565b9350611f18818560208601612708565b611f218161273b565b840191505092915050565b6000611f37826125a6565b611f418185612634565b9350611f51818560208601612708565b611f5a8161273b565b840191505092915050565b6000611f70826125a6565b611f7a8185612645565b9350611f8a818560208601612708565b611f938161273b565b840191505092915050565b6000611fab601983612645565b91507f54656d7062616e6e6564203c20323420686f7572732061676f000000000000006000830152602082019050919050565b6000611feb601983612645565b91507f55736572206861732070656e64696e6720617070726f76616c000000000000006000830152602082019050919050565b600061202b601383612645565b91507f55736572206861732068617320626f756e7479000000000000000000000000006000830152602082019050919050565b600061206b601b83612645565b91507f536166654d6174683a206164646974696f6e206f766572666c6f7700000000006000830152602082019050919050565b60006120ab602483612645565b91507f426f756e7479206e6f7420617661696c61626c6520666f72206170706c69636160008301527f74696f6e000000000000000000000000000000000000000000000000000000006020830152604082019050919050565b6000612111601383612645565b91507f426f756e7479206e6f7420696e2073746f636b000000000000000000000000006000830152602082019050919050565b61214d816126a7565b82525050565b61215c816126a7565b82525050565b60006060820190506121776000830186611d28565b6121846020830185612153565b6121916040830184612153565b949350505050565b600060208201905081810360008301526121b38184611ef3565b905092915050565b60006101408201905081810360008301526121d6818d611f65565b905081810360208301526121ea818c611f65565b905081810360408301526121fe818b611f65565b905061220d606083018a612153565b61221a6080830189611ed5565b61222760a0830188612153565b61223460c0830187611ed5565b61224160e0830186611ee4565b8181036101008301526122548185611f65565b9050612264610120830184612153565b9b9a5050505050505050505050565b6000602082019050818103600083015261228c81611f9e565b9050919050565b600060208201905081810360008301526122ac81611fde565b9050919050565b600060208201905081810360008301526122cc8161201e565b9050919050565b600060208201905081810360008301526122ec8161205e565b9050919050565b6000602082019050818103600083015261230c8161209e565b9050919050565b6000602082019050818103600083015261232c81612104565b9050919050565b60006020820190506123486000830184612153565b92915050565b60006040820190506123636000830185612153565b6123706020830184611d28565b9392505050565b600060408201905061238c6000830185612153565b6123996020830184611d0a565b9392505050565b60006060820190506123b56000830186612153565b6123c26020830185611d28565b6123cf6040830184612153565b949350505050565b60006060820190506123ec6000830186612153565b81810360208301526123fe8185611d37565b905081810360408301526124128184611e68565b9050949350505050565b600061012082019050612432600083018c612153565b8181036020830152612444818b611df3565b90508181036040830152612458818a611df3565b9050818103606083015261246c8189611df3565b905081810360808301526124808188611e68565b905081810360a08301526124948187611d95565b905081810360c08301526124a88186611e68565b905081810360e08301526124bc8185611d95565b90508181036101008301526124d18184611d95565b90509a9950505050505050505050565b6000604051905081810181811067ffffffffffffffff8211171561250457600080fd5b8060405250919050565b600067ffffffffffffffff82111561252557600080fd5b601f19601f8301169050602081019050919050565b6000819050602082019050919050565b6000819050602082019050919050565b6000819050602082019050919050565b6000819050602082019050919050565b600081519050919050565b600081519050919050565b600081519050919050565b600081519050919050565b600081519050919050565b600081519050919050565b6000602082019050919050565b6000602082019050919050565b6000602082019050919050565b6000602082019050919050565b600082825260208201905092915050565b600082825260208201905092915050565b600082825260208201905092915050565b600082825260208201905092915050565b600082825260208201905092915050565b600082825260208201905092915050565b600061266182612687565b9050919050565b60008115159050919050565b60008190506126828261274c565b919050565b600073ffffffffffffffffffffffffffffffffffffffff82169050919050565b6000819050919050565b60006126bc826126d5565b9050919050565b60006126ce82612674565b9050919050565b60006126e0826126e7565b9050919050565b60006126f282612687565b9050919050565b82818337600083830152505050565b60005b8381101561272657808201518184015260208101905061270b565b83811115612735576000848401525b50505050565b6000601f19601f8301169050919050565b6003811061275657fe5b50565b61276281612668565b811461276d57600080fd5b50565b612779816126a7565b811461278457600080fd5b5056fea26469706673582212205c3f69fbd56d01556e327a5184a7e8c79c62e7d9395424aa4c6064691b14049e64736f6c63430006010033",
  "source": "//SPDX-License-Identifier: MIT\npragma solidity >=0.6.0 <0.8.0;\npragma experimental ABIEncoderV2;\n\nimport \"./interfaces/IBounties.sol\";\n\ncontract Bounties is IBounties {\n    //@param _users - the address of the deployed users contract\n    constructor(address _users) public {\n        userContract = IUsers(_users);\n        userContract.setBounty(address(this));\n    }\n\n    /// MUTABLE FUNCTIONS ///\n\n    function addBounty(\n        string memory _title,\n        string memory _description,\n        string memory _imageUrl,\n        uint256 _award,\n        bool _infinite,\n        uint256 _quantity,\n        bool _manual,\n        string memory _tweetId\n    ) public override returns (uint256 _nonce) {\n        bountyNonce = bountyNonce.add(1);\n        _nonce = bountyNonce;\n        Bounty storage bounty = bounties[_nonce];\n        //trigger initialization would need to be more robust with > 1 chainlink adapter\n        Trigger trigger = _manual ? Trigger.Manual : Trigger.Twitter;\n        bounty.name = _title;\n        bounty.description = _description;\n        bounty.imageUrl = _imageUrl;\n        bounty.award = _award;\n        bounty.infinite = _infinite;\n        bounty.quantity = _quantity;\n        bounty.trigger = trigger;\n        bounty.tweet = _tweetId;\n        bounty.active = true;\n        emit BountyAdded(_nonce);\n    }\n\n    function applyForBounty(uint256 _nonce)\n        public\n        override\n        beforeBountyApp(_nonce)\n    {\n        Bounty storage bounty = bounties[_nonce];\n        uint256 trigger = uint256(bounty.trigger);\n        pendingNonces[trigger] = pendingNonces[trigger].add(1);\n\n        Pending storage pending = pendings[trigger][pendingNonces[trigger]];\n        pending.user = msg.sender;\n        pending.bounty = _nonce;\n        bounty.status[msg.sender] = BountyState.Pending;\n        emit BountyApplication(_nonce, msg.sender);\n    }\n\n    function approveBountyRequest(uint256 _trigger, uint256 _nonce)\n        public\n        override\n\n    {\n        Pending memory pending = pendings[_trigger][_nonce];\n        Bounty storage bounty = bounties[pending.bounty];\n        //LOGIC FOR CHAINLINK HERE\n        //@dev make sure manual only approves manual and link only approves link\n        if (!bounty.infinite) {\n            bounty.quantity = bounty.quantity.sub(1);\n            if (bounty.quantity == 0) delistBounty(pending.bounty);\n        }\n        bounty.status[pending.user] = BountyState.Awarded;\n        bounty.holders.push(pending.user);\n        userContract.addBounty(pending.user, pending.bounty, bounty.award);\n        emit BountyAwarded(pending.bounty, pending.user, bounty.award);\n        removePendingRequest(_trigger, _nonce);\n    }\n\n    function rejectBountyRequest(uint256 _trigger, uint256 _nonce)\n        public\n        override\n    {\n        Pending memory pending = pendings[_trigger][_nonce];\n        Bounty storage bounty = bounties[pending.bounty];\n        bounty.status[pending.user] = BountyState.None;\n        tempban[pending.bounty][pending.user] = now;\n        emit BountyRejected(pending.bounty, pending.user);\n        removePendingRequest(_trigger, _nonce);\n    }\n\n    function delistBounty(uint256 _nonce) public override {\n        Bounty storage bounty = bounties[_nonce];\n        bounty.active = false;\n        emit BountyDelisted(_nonce);\n    }\n\n    /**\n     * Internal helper function to handle logic of removing pending requests from storage\n     *\n     * @param _trigger - the type of request being removed\n     * @dev can add more uint/ enum codes for triggers. 1 = manual, 2 = retweet verification\n     * @param _nonce - the index of the pending request to remove\n     */\n    function removePendingRequest(uint256 _trigger, uint256 _nonce) internal {\n        Pending storage last = pendings[_trigger][pendingNonces[_trigger]];\n        if (_nonce != pendingNonces[_trigger]) {\n            Pending storage swap = pendings[_trigger][_nonce];\n            swap.user = last.user;\n            swap.bounty = last.bounty;\n        }\n        last.user = address(0);\n        last.bounty = 0;\n        pendingNonces[_trigger] = pendingNonces[_trigger].sub(1);\n    }\n\n    /// VIEWABLE FUNCTIONS ///\n\n    function pendingBountyRequests(uint256 _trigger)\n        public\n        override\n        view\n        returns (\n            uint256 _nonce,\n            address[] memory _users,\n            uint256[] memory _bounties\n        )\n    {\n        _nonce = pendingNonces[_trigger];\n        _users = new address[](_nonce);\n        _bounties = new uint256[](_nonce);\n        for (uint256 i = 0; i < _nonce; i++) {\n            _users[i] = pendings[_trigger][i.add(1)].user;\n            _bounties[i] = pendings[_trigger][i.add(1)].bounty;\n        }\n    }\n\n    function getBounties()\n        public\n        override\n        view\n        returns (\n            uint256 _bountyNonce,\n            string[] memory _titles,\n            string[] memory _descriptions,\n            string[] memory _imageUrls,\n            uint256[] memory _awards,\n            bool[] memory _infinites,\n            uint256[] memory _quantities,\n            bool[] memory _actives,\n            bool[] memory _manuals\n        )\n    {\n        _bountyNonce = bountyNonce;\n        _titles = new string[](_bountyNonce);\n        _descriptions = new string[](_bountyNonce);\n        _imageUrls = new string[](_bountyNonce);\n        _awards = new uint256[](_bountyNonce);\n        _infinites = new bool[](_bountyNonce);\n        _quantities = new uint256[](_bountyNonce);\n        _actives = new bool[](_bountyNonce);\n        _manuals = new bool[](_bountyNonce);\n        for (uint256 i = 0; i < _bountyNonce; i++) {\n            _titles[i] = bounties[i.add(1)].name;\n            _descriptions[i] = bounties[i.add(1)].description;\n            _imageUrls[i] = bounties[i.add(1)].imageUrl;\n            _awards[i] = bounties[i.add(1)].award;\n            _infinites[i] = bounties[i.add(1)].infinite;\n            _quantities[i] = bounties[i.add(1)].quantity;\n            _actives[i] = bounties[i.add(1)].active;\n            _manuals[i] = bounties[i.add(1)].trigger == Trigger.Manual;\n        }\n    }\n}\n",
  "sourcePath": "/home/kiwi/Desktop/sandbox/contracts/contracts/Bounties.sol",
  "compiler": {
    "name": "solc",
    "version": "0.6.1+commit.e6f7d5a4.Emscripten.clang"
  },
  "schemaVersion": "3.3.1",
  "updatedAt": "2021-01-08T15:42:11.452Z",
  "networkType": "ethereum",
  "devdoc": {
    "methods": {}
  },
  "userdoc": {
    "methods": {
      "addBounty(string,string,string,uint256,bool,uint256,bool,string)": {
        "notice": "MUTABLE FUNCTIONS ///"
      },
      "pendingBountyRequests(uint256)": {
        "notice": "VIEWABLE FUNCTIONS ///"
      }
    }
  }
}