{
  "contractName": "Bounties",
  "abi": [
    {
      "inputs": [
        {
          "internalType": "address",
          "name": "_users",
          "type": "address"
        }
      ],
      "stateMutability": "nonpayable",
      "type": "constructor"
    },
    {
      "anonymous": false,
      "inputs": [
        {
          "indexed": false,
          "internalType": "uint256",
          "name": "_nonce",
          "type": "uint256"
        }
      ],
      "name": "BountyAdded",
      "type": "event"
    },
    {
      "anonymous": false,
      "inputs": [
        {
          "indexed": false,
          "internalType": "uint256",
          "name": "_nonce",
          "type": "uint256"
        },
        {
          "indexed": false,
          "internalType": "address",
          "name": "_by",
          "type": "address"
        },
        {
          "indexed": false,
          "internalType": "uint256",
          "name": "_requestNonce",
          "type": "uint256"
        }
      ],
      "name": "BountyApplication",
      "type": "event"
    },
    {
      "anonymous": false,
      "inputs": [
        {
          "indexed": false,
          "internalType": "uint256",
          "name": "_nonce",
          "type": "uint256"
        },
        {
          "indexed": false,
          "internalType": "address",
          "name": "_to",
          "type": "address"
        },
        {
          "indexed": false,
          "internalType": "uint256",
          "name": "_minted",
          "type": "uint256"
        }
      ],
      "name": "BountyAwarded",
      "type": "event"
    },
    {
      "anonymous": false,
      "inputs": [
        {
          "indexed": false,
          "internalType": "uint256",
          "name": "_nonce",
          "type": "uint256"
        }
      ],
      "name": "BountyDelisted",
      "type": "event"
    },
    {
      "anonymous": false,
      "inputs": [
        {
          "indexed": false,
          "internalType": "uint256",
          "name": "_nonce",
          "type": "uint256"
        },
        {
          "indexed": false,
          "internalType": "address",
          "name": "_to",
          "type": "address"
        }
      ],
      "name": "BountyRejected",
      "type": "event"
    },
    {
      "inputs": [
        {
          "internalType": "uint256",
          "name": "",
          "type": "uint256"
        }
      ],
      "name": "bounties",
      "outputs": [
        {
          "internalType": "string",
          "name": "name",
          "type": "string"
        },
        {
          "internalType": "string",
          "name": "description",
          "type": "string"
        },
        {
          "internalType": "string",
          "name": "imageUrl",
          "type": "string"
        },
        {
          "internalType": "uint256",
          "name": "award",
          "type": "uint256"
        },
        {
          "internalType": "bool",
          "name": "infinite",
          "type": "bool"
        },
        {
          "internalType": "uint256",
          "name": "quantity",
          "type": "uint256"
        },
        {
          "internalType": "bool",
          "name": "active",
          "type": "bool"
        },
        {
          "internalType": "enum Trigger",
          "name": "trigger",
          "type": "uint8"
        },
        {
          "internalType": "string",
          "name": "tweet",
          "type": "string"
        },
        {
          "internalType": "uint256",
          "name": "pendingIndex",
          "type": "uint256"
        }
      ],
      "stateMutability": "view",
      "type": "function",
      "constant": true
    },
    {
      "inputs": [],
      "name": "bountyNonce",
      "outputs": [
        {
          "internalType": "uint256",
          "name": "",
          "type": "uint256"
        }
      ],
      "stateMutability": "view",
      "type": "function",
      "constant": true
    },
    {
      "inputs": [],
      "name": "consumerContract",
      "outputs": [
        {
          "internalType": "address",
          "name": "",
          "type": "address"
        }
      ],
      "stateMutability": "view",
      "type": "function",
      "constant": true
    },
    {
      "inputs": [],
      "name": "requestNonce",
      "outputs": [
        {
          "internalType": "uint256",
          "name": "",
          "type": "uint256"
        }
      ],
      "stateMutability": "view",
      "type": "function",
      "constant": true
    },
    {
      "inputs": [
        {
          "internalType": "uint256",
          "name": "",
          "type": "uint256"
        }
      ],
      "name": "requests",
      "outputs": [
        {
          "internalType": "address",
          "name": "user",
          "type": "address"
        },
        {
          "internalType": "uint256",
          "name": "bounty",
          "type": "uint256"
        },
        {
          "internalType": "uint256",
          "name": "pendingIndex",
          "type": "uint256"
        },
        {
          "internalType": "bool",
          "name": "fulfilled",
          "type": "bool"
        }
      ],
      "stateMutability": "view",
      "type": "function",
      "constant": true
    },
    {
      "inputs": [
        {
          "internalType": "address",
          "name": "_at",
          "type": "address"
        }
      ],
      "name": "setConsumer",
      "outputs": [],
      "stateMutability": "nonpayable",
      "type": "function"
    },
    {
      "inputs": [
        {
          "internalType": "string",
          "name": "_title",
          "type": "string"
        },
        {
          "internalType": "string",
          "name": "_description",
          "type": "string"
        },
        {
          "internalType": "string",
          "name": "_imageUrl",
          "type": "string"
        },
        {
          "internalType": "uint256",
          "name": "_award",
          "type": "uint256"
        },
        {
          "internalType": "bool",
          "name": "_infinite",
          "type": "bool"
        },
        {
          "internalType": "uint256",
          "name": "_quantity",
          "type": "uint256"
        },
        {
          "internalType": "bool",
          "name": "_manual",
          "type": "bool"
        },
        {
          "internalType": "string",
          "name": "_tweetId",
          "type": "string"
        }
      ],
      "name": "addBounty",
      "outputs": [
        {
          "internalType": "uint256",
          "name": "_nonce",
          "type": "uint256"
        }
      ],
      "stateMutability": "nonpayable",
      "type": "function"
    },
    {
      "inputs": [
        {
          "internalType": "uint256",
          "name": "_nonce",
          "type": "uint256"
        }
      ],
      "name": "applyForBounty",
      "outputs": [],
      "stateMutability": "nonpayable",
      "type": "function"
    },
    {
      "inputs": [
        {
          "internalType": "uint256",
          "name": "_trigger",
          "type": "uint256"
        },
        {
          "internalType": "uint256",
          "name": "_index",
          "type": "uint256"
        }
      ],
      "name": "approveBountyRequest",
      "outputs": [],
      "stateMutability": "nonpayable",
      "type": "function"
    },
    {
      "inputs": [
        {
          "internalType": "uint256",
          "name": "_trigger",
          "type": "uint256"
        },
        {
          "internalType": "uint256",
          "name": "_index",
          "type": "uint256"
        }
      ],
      "name": "rejectBountyRequest",
      "outputs": [],
      "stateMutability": "nonpayable",
      "type": "function"
    },
    {
      "inputs": [
        {
          "internalType": "uint256",
          "name": "_nonce",
          "type": "uint256"
        }
      ],
      "name": "delistBounty",
      "outputs": [],
      "stateMutability": "nonpayable",
      "type": "function"
    },
    {
      "inputs": [
        {
          "internalType": "bytes32",
          "name": "_requestId",
          "type": "bytes32"
        },
        {
          "internalType": "bool",
          "name": "_status",
          "type": "bool"
        }
      ],
      "name": "fulfillChainlinkRequest",
      "outputs": [],
      "stateMutability": "nonpayable",
      "type": "function"
    },
    {
      "inputs": [
        {
          "internalType": "uint256",
          "name": "_trigger",
          "type": "uint256"
        }
      ],
      "name": "pendingBountyRequests",
      "outputs": [
        {
          "internalType": "uint256",
          "name": "_nonce",
          "type": "uint256"
        },
        {
          "internalType": "address[]",
          "name": "_users",
          "type": "address[]"
        },
        {
          "internalType": "string[]",
          "name": "_userNames",
          "type": "string[]"
        },
        {
          "internalType": "uint256[]",
          "name": "_bounties",
          "type": "uint256[]"
        },
        {
          "internalType": "string[]",
          "name": "_bountyNames",
          "type": "string[]"
        },
        {
          "internalType": "uint256[]",
          "name": "_bountyAwards",
          "type": "uint256[]"
        },
        {
          "internalType": "uint256[]",
          "name": "_bountyQuantities",
          "type": "uint256[]"
        },
        {
          "internalType": "bool[]",
          "name": "_bountyInfinite",
          "type": "bool[]"
        }
      ],
      "stateMutability": "view",
      "type": "function",
      "constant": true
    },
    {
      "inputs": [],
      "name": "getBounties",
      "outputs": [
        {
          "internalType": "uint256",
          "name": "_bountyNonce",
          "type": "uint256"
        },
        {
          "internalType": "string[]",
          "name": "_titles",
          "type": "string[]"
        },
        {
          "internalType": "string[]",
          "name": "_descriptions",
          "type": "string[]"
        },
        {
          "internalType": "string[]",
          "name": "_imageUrls",
          "type": "string[]"
        },
        {
          "internalType": "uint256[]",
          "name": "_awards",
          "type": "uint256[]"
        },
        {
          "internalType": "bool[]",
          "name": "_infinites",
          "type": "bool[]"
        },
        {
          "internalType": "uint256[]",
          "name": "_quantities",
          "type": "uint256[]"
        },
        {
          "internalType": "bool[]",
          "name": "_actives",
          "type": "bool[]"
        },
        {
          "internalType": "bool[]",
          "name": "_manuals",
          "type": "bool[]"
        }
      ],
      "stateMutability": "view",
      "type": "function",
      "constant": true
    },
    {
      "inputs": [
        {
          "internalType": "uint256",
          "name": "_bountyNonce",
          "type": "uint256"
        },
        {
          "internalType": "address",
          "name": "_user",
          "type": "address"
        }
      ],
      "name": "hasBounty",
      "outputs": [
        {
          "internalType": "bool",
          "name": "",
          "type": "bool"
        }
      ],
      "stateMutability": "view",
      "type": "function",
      "constant": true
    },
    {
      "inputs": [
        {
          "internalType": "uint256",
          "name": "_nonce",
          "type": "uint256"
        }
      ],
      "name": "checkFulfillment",
      "outputs": [
        {
          "internalType": "bool",
          "name": "",
          "type": "bool"
        }
      ],
      "stateMutability": "view",
      "type": "function",
      "constant": true
    }
  ],
  "bytecode": "0x60806040523480156200001157600080fd5b506040516200382e3803806200382e833981810160405262000037919081019062000125565b806000806101000a81548173ffffffffffffffffffffffffffffffffffffffff021916908373ffffffffffffffffffffffffffffffffffffffff1602179055506000809054906101000a900473ffffffffffffffffffffffffffffffffffffffff1673ffffffffffffffffffffffffffffffffffffffff1663bc300ed3306040518263ffffffff1660e01b8152600401620000d3919062000162565b600060405180830381600087803b158015620000ee57600080fd5b505af115801562000103573d6000803e3d6000fd5b5050505050620001cd565b6000815190506200011f81620001b3565b92915050565b6000602082840312156200013857600080fd5b600062000148848285016200010e565b91505092915050565b6200015c816200017f565b82525050565b600060208201905062000179600083018462000151565b92915050565b60006200018c8262000193565b9050919050565b600073ffffffffffffffffffffffffffffffffffffffff82169050919050565b620001be816200017f565b8114620001ca57600080fd5b50565b61365180620001dd6000396000f3fe608060405234801561001057600080fd5b50600436106101005760003560e01c806363a579d51161009757806381d12c581161006657806381d12c58146102a8578063d37a06f7146102db578063dc2f87441461030b578063fd716a9c1461034457610100565b806363a579d51461023657806378999d201461025257806379c0c5681461026e5780637c1a03021461028a57610100565b80632f34b97d116100d35780632f34b97d14610183578063416dd084146101b35780635d69cb7e146101cf578063633fd2c91461020657610100565b80630cf0ac1d146101055780630f1ca5a71461012b57806322dbddb1146101495780632dfdad0b14610167575b600080fd5b61010d610360565b60405161012299989796959493929190613278565b60405180910390f35b610133610960565b6040516101409190613117565b60405180910390f35b610151610966565b60405161015e9190612e94565b60405180910390f35b610181600480360361017c919081019061293f565b61098c565b005b61019d6004803603610198919081019061282d565b6109fb565b6040516101aa9190613117565b60405180910390f35b6101cd60048036036101c891908101906129a4565b610b61565b005b6101e960048036036101e4919081019061293f565b610e87565b6040516101fd9897969594939291906131c9565b60405180910390f35b610220600480360361021b9190810190612968565b6113ad565b60405161022d9190612f2b565b60405180910390f35b610250600480360361024b919081019061275e565b611415565b005b61026c600480360361026791908101906129a4565b6114f5565b005b610288600480360361028391908101906127b0565b61176d565b005b6102926117f2565b60405161029f9190613117565b60405180910390f35b6102c260048036036102bd919081019061293f565b6117f8565b6040516102d29493929190612ee6565b60405180910390f35b6102f560048036036102f0919081019061293f565b611855565b6040516103029190612f2b565b60405180910390f35b6103256004803603610320919081019061293f565b611882565b60405161033b9a99989796959493929190612f9f565b60405180910390f35b61035e6004803603610359919081019061293f565b611b5d565b005b60006060806060806060806060806003549850886040519080825280602002602001820160405280156103a757816020015b60608152602001906001900390816103925790505b509750886040519080825280602002602001820160405280156103de57816020015b60608152602001906001900390816103c95790505b5096508860405190808252806020026020018201604052801561041557816020015b60608152602001906001900390816104005790505b509550886040519080825280602002602001820160405280156104475781602001602082028038833980820191505090505b509450886040519080825280602002602001820160405280156104795781602001602082028038833980820191505090505b509350886040519080825280602002602001820160405280156104ab5781602001602082028038833980820191505090505b509250886040519080825280602002602001820160405280156104dd5781602001602082028038833980820191505090505b5091508860405190808252806020026020018201604052801561050f5781602001602082028038833980820191505090505b50905060008090505b8981101561095457600560006105386001846122e990919063ffffffff16565b81526020019081526020016000206000018054600181600116156101000203166002900480601f0160208091040260200160405190810160405280929190818152602001828054600181600116156101000203166002900480156105dd5780601f106105b2576101008083540402835291602001916105dd565b820191906000526020600020905b8154815290600101906020018083116105c057829003601f168201915b50505050508982815181106105ee57fe5b6020026020010181905250600560006106116001846122e990919063ffffffff16565b81526020019081526020016000206001018054600181600116156101000203166002900480601f0160208091040260200160405190810160405280929190818152602001828054600181600116156101000203166002900480156106b65780601f1061068b576101008083540402835291602001916106b6565b820191906000526020600020905b81548152906001019060200180831161069957829003601f168201915b50505050508882815181106106c757fe5b6020026020010181905250600560006106ea6001846122e990919063ffffffff16565b81526020019081526020016000206002018054600181600116156101000203166002900480601f01602080910402602001604051908101604052809291908181526020018280546001816001161561010002031660029004801561078f5780601f106107645761010080835404028352916020019161078f565b820191906000526020600020905b81548152906001019060200180831161077257829003601f168201915b50505050508782815181106107a057fe5b6020026020010181905250600560006107c36001846122e990919063ffffffff16565b8152602001908152602001600020600301548682815181106107e157fe5b602002602001018181525050600560006108056001846122e990919063ffffffff16565b815260200190815260200160002060040160009054906101000a900460ff1685828151811061083057fe5b6020026020010190151590811515815250506005600061085a6001846122e990919063ffffffff16565b81526020019081526020016000206005015484828151811061087857fe5b6020026020010181815250506005600061089c6001846122e990919063ffffffff16565b815260200190815260200160002060060160009054906101000a900460ff168382815181106108c757fe5b602002602001019015159081151581525050600160028111156108e657fe5b600560006108fe6001856122e990919063ffffffff16565b815260200190815260200160002060060160019054906101000a900460ff16600281111561092857fe5b1482828151811061093557fe5b6020026020010190151590811515815250508080600101915050610518565b50909192939495969798565b60035481565b600260009054906101000a900473ffffffffffffffffffffffffffffffffffffffff1681565b600060056000838152602001908152602001600020905060008160060160006101000a81548160ff0219169083151502179055507f2d7b14f8a1fd1b1b7c237d5cf8c3b2c9a387db2aa8e5f03dbf74efa105673b0d826040516109ef9190613117565b60405180910390a15050565b6000610a1360016003546122e990919063ffffffff16565b60038190555060035490506000600560008381526020019081526020016000209050600084610a43576002610a46565b60015b90508a826000019080519060200190610a60929190612568565b5089826001019080519060200190610a79929190612568565b5088826002019080519060200190610a92929190612568565b50878260030181905550868260040160006101000a81548160ff021916908315150217905550858260050181905550808260060160016101000a81548160ff02191690836002811115610ae157fe5b021790555083826007019080519060200190610afe929190612568565b5060018260060160006101000a81548160ff0219169083151502179055507fa99eeb7ee15333d9449368ff1d1e52f206bab46c2bebd241bbe2632b80ad9a1483604051610b4b9190613117565b60405180910390a1505098975050505050505050565b6000600860008481526020019081526020016000206000838152602001908152602001600020549050610b926125e8565b600660008381526020019081526020016000206040518060800160405290816000820160009054906101000a900473ffffffffffffffffffffffffffffffffffffffff1673ffffffffffffffffffffffffffffffffffffffff1673ffffffffffffffffffffffffffffffffffffffff16815260200160018201548152602001600282015481526020016003820160009054906101000a900460ff16151515158152505090506000600560008360200151815260200190815260200160002090506002816009016000846000015173ffffffffffffffffffffffffffffffffffffffff1673ffffffffffffffffffffffffffffffffffffffff16815260200190815260200160002060006101000a81548160ff02191690836002811115610cb457fe5b021790555080600a0182600001519080600181540180825580915050600190039060005260206000200160009091909190916101000a81548173ffffffffffffffffffffffffffffffffffffffff021916908373ffffffffffffffffffffffffffffffffffffffff1602179055506000809054906101000a900473ffffffffffffffffffffffffffffffffffffffff1673ffffffffffffffffffffffffffffffffffffffff1663e43f3e788360000151846020015184600301546040518463ffffffff1660e01b8152600401610d8c93929190612eaf565b600060405180830381600087803b158015610da657600080fd5b505af1158015610dba573d6000803e3d6000fd5b505050506001600b6000846020015181526020019081526020016000206000846000015173ffffffffffffffffffffffffffffffffffffffff1673ffffffffffffffffffffffffffffffffffffffff16815260200190815260200160002060006101000a81548160ff0219169083151502179055507f6afd625dfd10339cc4a7ba296f32817ab16fb8582d48761227a714a33af363c0826020015183600001518360030154604051610e6e93929190613192565b60405180910390a1610e80858561233e565b5050505050565b60006060806060806060806060600760008a815260200190815260200160002054975087604051908082528060200260200182016040528015610ed95781602001602082028038833980820191505090505b50965087604051908082528060200260200182016040528015610f1057816020015b6060815260200190600190039081610efb5790505b50955087604051908082528060200260200182016040528015610f425781602001602082028038833980820191505090505b50945087604051908082528060200260200182016040528015610f7957816020015b6060815260200190600190039081610f645790505b50935087604051908082528060200260200182016040528015610fab5781602001602082028038833980820191505090505b50925087604051908082528060200260200182016040528015610fdd5781602001602082028038833980820191505090505b5091508760405190808252806020026020018201604052801561100f5781602001602082028038833980820191505090505b50905060008090505b888110156113a1576000600860008c8152602001908152602001600020600061104b6001856122e990919063ffffffff16565b81526020019081526020016000205490506006600082815260200190815260200160002060000160009054906101000a900473ffffffffffffffffffffffffffffffffffffffff1689838151811061109f57fe5b602002602001019073ffffffffffffffffffffffffffffffffffffffff16908173ffffffffffffffffffffffffffffffffffffffff16815250506000809054906101000a900473ffffffffffffffffffffffffffffffffffffffff1673ffffffffffffffffffffffffffffffffffffffff1663019848928a848151811061112257fe5b60200260200101516040518263ffffffff1660e01b81526004016111469190612e94565b60006040518083038186803b15801561115e57600080fd5b505afa158015611172573d6000803e3d6000fd5b505050506040513d6000823e3d601f19601f8201168201806040525061119b91908101906127ec565b8883815181106111a757fe5b602002602001018190525060066000828152602001908152602001600020600101548783815181106111d557fe5b602002602001018181525050600560008884815181106111f157fe5b602002602001015181526020019081526020016000206000018054600181600116156101000203166002900480601f01602080910402602001604051908101604052809291908181526020018280546001816001161561010002031660029004801561129e5780601f106112735761010080835404028352916020019161129e565b820191906000526020600020905b81548152906001019060200180831161128157829003601f168201915b50505050508683815181106112af57fe5b6020026020010181905250600560008884815181106112ca57fe5b60200260200101518152602001908152602001600020600301548583815181106112f057fe5b6020026020010181815250506005600088848151811061130c57fe5b602002602001015181526020019081526020016000206005015484838151811061133257fe5b6020026020010181815250506005600088848151811061134e57fe5b6020026020010151815260200190815260200160002060040160009054906101000a900460ff1683838151811061138157fe5b602002602001019015159081151581525050508080600101915050611018565b50919395975091939597565b6000600b600084815260200190815260200160002060008373ffffffffffffffffffffffffffffffffffffffff1673ffffffffffffffffffffffffffffffffffffffff16815260200190815260200160002060009054906101000a900460ff16905092915050565b600073ffffffffffffffffffffffffffffffffffffffff16600260009054906101000a900473ffffffffffffffffffffffffffffffffffffffff1673ffffffffffffffffffffffffffffffffffffffff161461147057600080fd5b80600260006101000a81548173ffffffffffffffffffffffffffffffffffffffff021916908373ffffffffffffffffffffffffffffffffffffffff16021790555080600160006101000a81548173ffffffffffffffffffffffffffffffffffffffff021916908373ffffffffffffffffffffffffffffffffffffffff16021790555050565b60006008600084815260200190815260200160002060008381526020019081526020016000205490506115266125e8565b600660008381526020019081526020016000206040518060800160405290816000820160009054906101000a900473ffffffffffffffffffffffffffffffffffffffff1673ffffffffffffffffffffffffffffffffffffffff1673ffffffffffffffffffffffffffffffffffffffff16815260200160018201548152602001600282015481526020016003820160009054906101000a900460ff16151515158152505090506000600560008360200151815260200190815260200160002090506000816009016000846000015173ffffffffffffffffffffffffffffffffffffffff1673ffffffffffffffffffffffffffffffffffffffff16815260200190815260200160002060006101000a81548160ff0219169083600281111561164857fe5b02179055504260096000846020015181526020019081526020016000206000846000015173ffffffffffffffffffffffffffffffffffffffff1673ffffffffffffffffffffffffffffffffffffffff168152602001908152602001600020819055506000600b6000846020015181526020019081526020016000206000846000015173ffffffffffffffffffffffffffffffffffffffff1673ffffffffffffffffffffffffffffffffffffffff16815260200190815260200160002060006101000a81548160ff0219169083151502179055507f14bd13b4df7a34b48398ea3e7bb2d6daccb5c476bf3ef6066cf3a84e767521fa82602001518360000151604051611754929190613132565b60405180910390a1611766858561233e565b5050505050565b600060028081111561177b57fe5b9050600060066000600a6000878152602001908152602001600020548152602001908152602001600020905082156117c0576117bb828260020154610b61565b6117cf565b6117ce8282600201546114f5565b5b60018160030160006101000a81548160ff02191690831515021790555050505050565b60045481565b60066020528060005260406000206000915090508060000160009054906101000a900473ffffffffffffffffffffffffffffffffffffffff16908060010154908060020154908060030160009054906101000a900460ff16905084565b60006006600083815260200190815260200160002060030160009054906101000a900460ff169050919050565b6005602052806000526040600020600091509050806000018054600181600116156101000203166002900480601f01602080910402602001604051908101604052809291908181526020018280546001816001161561010002031660029004801561192e5780601f106119035761010080835404028352916020019161192e565b820191906000526020600020905b81548152906001019060200180831161191157829003601f168201915b505050505090806001018054600181600116156101000203166002900480601f0160208091040260200160405190810160405280929190818152602001828054600181600116156101000203166002900480156119cc5780601f106119a1576101008083540402835291602001916119cc565b820191906000526020600020905b8154815290600101906020018083116119af57829003601f168201915b505050505090806002018054600181600116156101000203166002900480601f016020809104026020016040519081016040528092919081815260200182805460018160011615610100020316600290048015611a6a5780601f10611a3f57610100808354040283529160200191611a6a565b820191906000526020600020905b815481529060010190602001808311611a4d57829003601f168201915b5050505050908060030154908060040160009054906101000a900460ff16908060050154908060060160009054906101000a900460ff16908060060160019054906101000a900460ff1690806007018054600181600116156101000203166002900480601f016020809104026020016040519081016040528092919081815260200182805460018160011615610100020316600290048015611b4d5780601f10611b2257610100808354040283529160200191611b4d565b820191906000526020600020905b815481529060010190602001808311611b3057829003601f168201915b505050505090806008015490508a565b806005600082815260200190815260200160002060040160009054906101000a900460ff1680611ba3575060006005600083815260200190815260200160002060050154115b611be2576040517f08c379a0000000000000000000000000000000000000000000000000000000008152600401611bd9906130f7565b60405180910390fd5b6005600082815260200190815260200160002060060160009054906101000a900460ff16611c45576040517f08c379a0000000000000000000000000000000000000000000000000000000008152600401611c3c906130d7565b60405180910390fd5b611c5b62015180426124c390919063ffffffff16565b6009600083815260200190815260200160002060003373ffffffffffffffffffffffffffffffffffffffff1673ffffffffffffffffffffffffffffffffffffffff1681526020019081526020016000205410611cec576040517f08c379a0000000000000000000000000000000000000000000000000000000008152600401611ce390613057565b60405180910390fd5b600280811115611cf857fe5b6005600083815260200190815260200160002060090160003373ffffffffffffffffffffffffffffffffffffffff1673ffffffffffffffffffffffffffffffffffffffff16815260200190815260200160002060009054906101000a900460ff166002811115611d6457fe5b1415611da5576040517f08c379a0000000000000000000000000000000000000000000000000000000008152600401611d9c90613097565b60405180910390fd5b60016002811115611db257fe5b6005600083815260200190815260200160002060090160003373ffffffffffffffffffffffffffffffffffffffff1673ffffffffffffffffffffffffffffffffffffffff16815260200190815260200160002060009054906101000a900460ff166002811115611e1e57fe5b1415611e5f576040517f08c379a0000000000000000000000000000000000000000000000000000000008152600401611e5690613077565b60405180910390fd5b600060056000848152602001908152602001600020905060008160060160019054906101000a900460ff166002811115611e9557fe5b9050611ead60016004546122e990919063ffffffff16565b600481905550611eda600160076000848152602001908152602001600020546122e990919063ffffffff16565b6007600083815260200190815260200160002081905550600454600860008381526020019081526020016000206000600760008581526020019081526020016000205481526020019081526020016000208190555060006006600060045481526020019081526020016000209050338160000160006101000a81548173ffffffffffffffffffffffffffffffffffffffff021916908373ffffffffffffffffffffffffffffffffffffffff1602179055508481600101819055506007600083815260200190815260200160002054816002018190555060018360090160003373ffffffffffffffffffffffffffffffffffffffff1673ffffffffffffffffffffffffffffffffffffffff16815260200190815260200160002060006101000a81548160ff0219169083600281111561200e57fe5b021790555060028081111561201f57fe5b8360060160019054906101000a900460ff16600281111561203c57fe5b14156122a55760606000809054906101000a900473ffffffffffffffffffffffffffffffffffffffff1673ffffffffffffffffffffffffffffffffffffffff16638b1a3bb18360000160009054906101000a900473ffffffffffffffffffffffffffffffffffffffff166040518263ffffffff1660e01b81526004016120c29190612e94565b60006040518083038186803b1580156120da57600080fd5b505afa1580156120ee573d6000803e3d6000fd5b505050506040513d6000823e3d601f19601f8201168201806040525061211791908101906127ec565b90506060846007018054600181600116156101000203166002900480601f0160208091040260200160405190810160405280929190818152602001828054600181600116156101000203166002900480156121b35780601f10612188576101008083540402835291602001916121b3565b820191906000526020600020905b81548152906001019060200180831161219657829003601f168201915b505050505090506000600160009054906101000a900473ffffffffffffffffffffffffffffffffffffffff1673ffffffffffffffffffffffffffffffffffffffff1663821bc7a484846040518363ffffffff1660e01b8152600401612219929190612f68565b602060405180830381600087803b15801561223357600080fd5b505af1158015612247573d6000803e3d6000fd5b505050506040513d601f19601f8201168201806040525061226b9190810190612787565b9050600454600a60008381526020019081526020016000208190555080600c60006004548152602001908152602001600020819055505050505b7f5bdc752c100bf36ba3271c08b26c15eed0fbbb0cd4d735cfc2ebcacdaa82b96085336004546040516122da9392919061315b565b60405180910390a15050505050565b600080828401905083811015612334576040517f08c379a000000000000000000000000000000000000000000000000000000000815260040161232b906130b7565b60405180910390fd5b8091505092915050565b6000600760008481526020019081526020016000205490506000600860008581526020019081526020016000206000838152602001908152602001600020549050600060066000838152602001908152602001600020905082841461245457600060086000878152602001908152602001600020600086815260200190815260200160002054905060006006600083815260200190815260200160002090508260000160009054906101000a900473ffffffffffffffffffffffffffffffffffffffff168160000160006101000a81548173ffffffffffffffffffffffffffffffffffffffff021916908373ffffffffffffffffffffffffffffffffffffffff1602179055508260010154816001018190555050505b6000600860008781526020019081526020016000206000858152602001908152602001600020819055506124a5600160076000888152602001908152602001600020546124c390919063ffffffff16565b60076000878152602001908152602001600020819055505050505050565b600061250583836040518060400160405280601e81526020017f536166654d6174683a207375627472616374696f6e206f766572666c6f77000081525061250d565b905092915050565b6000838311158290612555576040517f08c379a000000000000000000000000000000000000000000000000000000000815260040161254c9190612f46565b60405180910390fd5b5060008385039050809150509392505050565b828054600181600116156101000203166002900490600052602060002090601f016020900481019282601f106125a957805160ff19168380011785556125d7565b828001600101855582156125d7579182015b828111156125d65782518255916020019190600101906125bb565b5b5090506125e49190612628565b5090565b6040518060800160405280600073ffffffffffffffffffffffffffffffffffffffff16815260200160008152602001600081526020016000151581525090565b61264a91905b8082111561264657600081600090555060010161262e565b5090565b90565b60008135905061265c816135bf565b92915050565b600081359050612671816135d6565b92915050565b600081359050612686816135ed565b92915050565b60008151905061269b816135ed565b92915050565b600082601f8301126126b257600080fd5b81356126c56126c08261336a565b61333d565b915080825260208301602083018583830111156126e157600080fd5b6126ec83828461355f565b50505092915050565b600082601f83011261270657600080fd5b81516127196127148261336a565b61333d565b9150808252602083016020830185838301111561273557600080fd5b61274083828461356e565b50505092915050565b60008135905061275881613604565b92915050565b60006020828403121561277057600080fd5b600061277e8482850161264d565b91505092915050565b60006020828403121561279957600080fd5b60006127a78482850161268c565b91505092915050565b600080604083850312156127c357600080fd5b60006127d185828601612677565b92505060206127e285828601612662565b9150509250929050565b6000602082840312156127fe57600080fd5b600082015167ffffffffffffffff81111561281857600080fd5b612824848285016126f5565b91505092915050565b600080600080600080600080610100898b03121561284a57600080fd5b600089013567ffffffffffffffff81111561286457600080fd5b6128708b828c016126a1565b985050602089013567ffffffffffffffff81111561288d57600080fd5b6128998b828c016126a1565b975050604089013567ffffffffffffffff8111156128b657600080fd5b6128c28b828c016126a1565b96505060606128d38b828c01612749565b95505060806128e48b828c01612662565b94505060a06128f58b828c01612749565b93505060c06129068b828c01612662565b92505060e089013567ffffffffffffffff81111561292357600080fd5b61292f8b828c016126a1565b9150509295985092959890939650565b60006020828403121561295157600080fd5b600061295f84828501612749565b91505092915050565b6000806040838503121561297b57600080fd5b600061298985828601612749565b925050602061299a8582860161264d565b9150509250929050565b600080604083850312156129b757600080fd5b60006129c585828601612749565b92505060206129d685828601612749565b9150509250929050565b60006129ec8383612a4b565b60208301905092915050565b6000612a048383612bf8565b60208301905092915050565b6000612a1c8383612c5e565b905092915050565b6000612a308383612e76565b60208301905092915050565b612a4581613517565b82525050565b612a54816134b2565b82525050565b612a63816134b2565b82525050565b6000612a74826133d6565b612a7e818561344c565b9350612a8983613396565b8060005b83811015612aba578151612aa188826129e0565b9750612aac83613418565b925050600181019050612a8d565b5085935050505092915050565b6000612ad2826133e1565b612adc818561345d565b9350612ae7836133a6565b8060005b83811015612b18578151612aff88826129f8565b9750612b0a83613425565b925050600181019050612aeb565b5085935050505092915050565b6000612b30826133ec565b612b3a818561346e565b935083602082028501612b4c856133b6565b8060005b85811015612b885784840389528151612b698582612a10565b9450612b7483613432565b925060208a01995050600181019050612b50565b50829750879550505050505092915050565b6000612ba5826133f7565b612baf818561347f565b9350612bba836133c6565b8060005b83811015612beb578151612bd28882612a24565b9750612bdd8361343f565b925050600181019050612bbe565b5085935050505092915050565b612c01816134c4565b82525050565b612c10816134c4565b82525050565b612c1f81613529565b82525050565b6000612c308261340d565b612c3a81856134a1565b9350612c4a81856020860161356e565b612c53816135a1565b840191505092915050565b6000612c6982613402565b612c738185613490565b9350612c8381856020860161356e565b612c8c816135a1565b840191505092915050565b6000612ca282613402565b612cac81856134a1565b9350612cbc81856020860161356e565b612cc5816135a1565b840191505092915050565b6000612cdd6019836134a1565b91507f54656d7062616e6e6564203c20323420686f7572732061676f000000000000006000830152602082019050919050565b6000612d1d6019836134a1565b91507f55736572206861732070656e64696e6720617070726f76616c000000000000006000830152602082019050919050565b6000612d5d6013836134a1565b91507f55736572206861732068617320626f756e7479000000000000000000000000006000830152602082019050919050565b6000612d9d601b836134a1565b91507f536166654d6174683a206164646974696f6e206f766572666c6f7700000000006000830152602082019050919050565b6000612ddd6024836134a1565b91507f426f756e7479206e6f7420617661696c61626c6520666f72206170706c69636160008301527f74696f6e000000000000000000000000000000000000000000000000000000006020830152604082019050919050565b6000612e436013836134a1565b91507f426f756e7479206e6f7420696e2073746f636b000000000000000000000000006000830152602082019050919050565b612e7f8161350d565b82525050565b612e8e8161350d565b82525050565b6000602082019050612ea96000830184612a5a565b92915050565b6000606082019050612ec46000830186612a5a565b612ed16020830185612e85565b612ede6040830184612e85565b949350505050565b6000608082019050612efb6000830187612a5a565b612f086020830186612e85565b612f156040830185612e85565b612f226060830184612c07565b95945050505050565b6000602082019050612f406000830184612c07565b92915050565b60006020820190508181036000830152612f608184612c25565b905092915050565b60006040820190508181036000830152612f828185612c25565b90508181036020830152612f968184612c25565b90509392505050565b6000610140820190508181036000830152612fba818d612c97565b90508181036020830152612fce818c612c97565b90508181036040830152612fe2818b612c97565b9050612ff1606083018a612e85565b612ffe6080830189612c07565b61300b60a0830188612e85565b61301860c0830187612c07565b61302560e0830186612c16565b8181036101008301526130388185612c97565b9050613048610120830184612e85565b9b9a5050505050505050505050565b6000602082019050818103600083015261307081612cd0565b9050919050565b6000602082019050818103600083015261309081612d10565b9050919050565b600060208201905081810360008301526130b081612d50565b9050919050565b600060208201905081810360008301526130d081612d90565b9050919050565b600060208201905081810360008301526130f081612dd0565b9050919050565b6000602082019050818103600083015261311081612e36565b9050919050565b600060208201905061312c6000830184612e85565b92915050565b60006040820190506131476000830185612e85565b6131546020830184612a5a565b9392505050565b60006060820190506131706000830186612e85565b61317d6020830185612a3c565b61318a6040830184612e85565b949350505050565b60006060820190506131a76000830186612e85565b6131b46020830185612a5a565b6131c16040830184612e85565b949350505050565b6000610100820190506131df600083018b612e85565b81810360208301526131f1818a612a69565b905081810360408301526132058189612b25565b905081810360608301526132198188612b9a565b9050818103608083015261322d8187612b25565b905081810360a08301526132418186612b9a565b905081810360c08301526132558185612b9a565b905081810360e08301526132698184612ac7565b90509998505050505050505050565b60006101208201905061328e600083018c612e85565b81810360208301526132a0818b612b25565b905081810360408301526132b4818a612b25565b905081810360608301526132c88189612b25565b905081810360808301526132dc8188612b9a565b905081810360a08301526132f08187612ac7565b905081810360c08301526133048186612b9a565b905081810360e08301526133188185612ac7565b905081810361010083015261332d8184612ac7565b90509a9950505050505050505050565b6000604051905081810181811067ffffffffffffffff8211171561336057600080fd5b8060405250919050565b600067ffffffffffffffff82111561338157600080fd5b601f19601f8301169050602081019050919050565b6000819050602082019050919050565b6000819050602082019050919050565b6000819050602082019050919050565b6000819050602082019050919050565b600081519050919050565b600081519050919050565b600081519050919050565b600081519050919050565b600081519050919050565b600081519050919050565b6000602082019050919050565b6000602082019050919050565b6000602082019050919050565b6000602082019050919050565b600082825260208201905092915050565b600082825260208201905092915050565b600082825260208201905092915050565b600082825260208201905092915050565b600082825260208201905092915050565b600082825260208201905092915050565b60006134bd826134ed565b9050919050565b60008115159050919050565b6000819050919050565b60008190506134e8826135b2565b919050565b600073ffffffffffffffffffffffffffffffffffffffff82169050919050565b6000819050919050565b60006135228261353b565b9050919050565b6000613534826134da565b9050919050565b60006135468261354d565b9050919050565b6000613558826134ed565b9050919050565b82818337600083830152505050565b60005b8381101561358c578082015181840152602081019050613571565b8381111561359b576000848401525b50505050565b6000601f19601f8301169050919050565b600381106135bc57fe5b50565b6135c8816134b2565b81146135d357600080fd5b50565b6135df816134c4565b81146135ea57600080fd5b50565b6135f6816134d0565b811461360157600080fd5b50565b61360d8161350d565b811461361857600080fd5b5056fea264697066735822122081cfe279ce71265917ac17910b49c0567089810997bd72db08ce0c38641136ab64736f6c63430006010033",
  "source": "//SPDX-License-Identifier: MIT\npragma solidity >=0.6.0 <0.8.0;\npragma experimental ABIEncoderV2;\n\nimport \"./interfaces/IBounties.sol\";\nimport \"./interfaces/ITwitterConsumer.sol\";\n\ncontract Bounties is IBounties {\n    //@param _users - the address of the deployed users contract\n    constructor(address _users) public {\n        userContract = IUsers(_users);\n        userContract.setBounty(address(this));\n    }\n\n    /// MUTABLE FUNCTIONS ///\n\n    function setConsumer(address _at) public override {\n        require(consumerContract == address(0));\n        consumerContract = _at;\n        consumerInstance = ITwitterConsumer(_at);\n    }\n\n    function addBounty(\n        string memory _title,\n        string memory _description,\n        string memory _imageUrl,\n        uint256 _award,\n        bool _infinite,\n        uint256 _quantity,\n        bool _manual,\n        string memory _tweetId\n    ) public override returns (uint256 _nonce) {\n        bountyNonce = bountyNonce.add(1);\n        _nonce = bountyNonce;\n        Bounty storage bounty = bounties[_nonce];\n        //trigger initialization would need to be more robust with > 1 chainlink adapter\n        Trigger trigger = _manual ? Trigger.Manual : Trigger.Twitter;\n        bounty.name = _title;\n        bounty.description = _description;\n        bounty.imageUrl = _imageUrl;\n        bounty.award = _award;\n        bounty.infinite = _infinite;\n        bounty.quantity = _quantity;\n        bounty.trigger = trigger;\n        bounty.tweet = _tweetId;\n        bounty.active = true;\n        emit BountyAdded(_nonce);\n    }\n\n    function applyForBounty(uint256 _nonce)\n        public\n        override\n        beforeBountyApp(_nonce)\n    {\n        Bounty storage bounty = bounties[_nonce];\n        uint256 trigger = uint256(bounty.trigger);\n        requestNonce = requestNonce.add(1);\n        pendingIndices[trigger] = pendingIndices[trigger].add(1);\n        pendingRequests[trigger][pendingIndices[trigger]] = requestNonce;\n        Request storage request = requests[requestNonce];\n        request.user = msg.sender;\n        request.bounty = _nonce;\n        request.pendingIndex = pendingIndices[trigger];\n        bounty.status[msg.sender] = BountyState.Pending;\n        if (bounty.trigger == Trigger.Twitter) {\n            string memory userId = userContract.getTwitterId(request.user);\n            string memory tweetId = bounty.tweet;\n            bytes32 requestId = consumerInstance.checkRetweets(userId, tweetId);\n            chainlinkRequests[requestId] = requestNonce;\n            nonceToRequestId[requestNonce] = requestId;\n        }\n        emit BountyApplication(_nonce, msg.sender, requestNonce);\n    }\n\n    function approveBountyRequest(uint256 _trigger, uint256 _index)\n        public\n        override\n    {\n        uint requestNonce = pendingRequests[_trigger][_index];\n        Request memory request = requests[requestNonce];\n        Bounty storage bounty = bounties[request.bounty];\n        // if (!bounty.infinite) {\n        //     bounty.quantity = bounty.quantity.sub(1);\n        //     if (bounty.quantity == 0) delistBounty(request.bounty);\n        // }\n        bounty.status[request.user] = BountyState.Awarded;\n        bounty.holders.push(request.user);\n        userContract.addBounty(request.user, request.bounty, bounty.award);\n        userHasBounty[request.bounty][request.user] = true;\n        emit BountyAwarded(request.bounty, request.user, bounty.award);\n        removePendingRequest(_trigger, _index);\n    }\n\n    function rejectBountyRequest(uint256 _trigger, uint256 _index)\n        public\n        override\n    {\n        uint requestNonce = pendingRequests[_trigger][_index];\n        Request memory request = requests[requestNonce];\n        Bounty storage bounty = bounties[request.bounty];\n        bounty.status[request.user] = BountyState.None;\n        tempban[request.bounty][request.user] = now;\n        userHasBounty[request.bounty][request.user] = false;\n        emit BountyRejected(request.bounty, request.user);\n        removePendingRequest(_trigger, _index);\n    }\n\n    function delistBounty(uint256 _nonce) public override {\n        Bounty storage bounty = bounties[_nonce];\n        bounty.active = false;\n        emit BountyDelisted(_nonce);\n    }\n\n    /**\n     * Internal helper function to handle logic of removing pending requests from storage\n     *\n     * @param _trigger - the type of request being removed\n     * @dev can add more uint/ enum codes for triggers. 1 = manual, 2 = retweet verification\n     * @param _index - the index of the pending request to remove\n     */\n    function removePendingRequest(uint256 _trigger, uint256 _index) internal {\n        uint pendingIndex = pendingIndices[_trigger];\n        uint lastNonce = pendingRequests[_trigger][pendingIndex];\n        Request storage last = requests[lastNonce];\n        if (_index != pendingIndex) {\n            uint swapNonce = pendingRequests[_trigger][_index];\n            Request storage swap = requests[swapNonce];\n            swap.user = last.user;\n            swap.bounty = last.bounty;\n        }\n        pendingRequests[_trigger][pendingIndex] = 0;\n        pendingIndices[_trigger] = pendingIndices[_trigger].sub(1);\n    }\n\n    function fulfillChainlinkRequest(bytes32 _requestId, bool _status)\n        public\n        override\n    {\n        uint256 trigger = uint256(Trigger.Twitter);\n        Request storage request = requests[chainlinkRequests[_requestId]];\n        if (_status) \n            approveBountyRequest(trigger, request.pendingIndex);\n        else \n            rejectBountyRequest(trigger, request.pendingIndex);\n        request.fulfilled = true;\n    }\n\n    /// VIEWABLE FUNCTIONS ///\n\n    function pendingBountyRequests(uint256 _trigger)\n        public\n        view\n        override\n        returns (\n            uint256 _nonce,\n            address[] memory _users,\n            string[] memory _userNames,\n            uint256[] memory _bounties,\n            string[] memory _bountyNames,\n            uint256[] memory _bountyAwards,\n            uint256[] memory _bountyQuantities,\n            bool[] memory _bountyInfinite\n        )\n    {\n        _nonce = pendingIndices[_trigger];\n        _users = new address[](_nonce);\n        _userNames = new string[](_nonce);\n        _bounties = new uint256[](_nonce);\n        _bountyNames = new string[](_nonce);\n        _bountyAwards = new uint256[](_nonce);\n        _bountyQuantities = new uint256[](_nonce);\n        _bountyInfinite = new bool[](_nonce);\n        for (uint256 i = 0; i < _nonce; i++) {\n            uint requestNonce = pendingRequests[_trigger][i.add(1)];\n            _users[i] = requests[requestNonce].user;\n            _userNames[i] = userContract.name(_users[i]);\n            _bounties[i] = requests[requestNonce].bounty;\n            _bountyNames[i] = bounties[_bounties[i]].name;\n            _bountyAwards[i] = bounties[_bounties[i]].award;\n            _bountyQuantities[i] = bounties[_bounties[i]].quantity;\n            _bountyInfinite[i] = bounties[_bounties[i]].infinite;\n            \n        }\n    }\n\n    function getBounties()\n        public\n        view\n        override\n        returns (\n            uint256 _bountyNonce,\n            string[] memory _titles,\n            string[] memory _descriptions,\n            string[] memory _imageUrls,\n            uint256[] memory _awards,\n            bool[] memory _infinites,\n            uint256[] memory _quantities,\n            bool[] memory _actives,\n            bool[] memory _manuals\n        )\n    {\n        _bountyNonce = bountyNonce;\n        _titles = new string[](_bountyNonce);\n        _descriptions = new string[](_bountyNonce);\n        _imageUrls = new string[](_bountyNonce);\n        _awards = new uint256[](_bountyNonce);\n        _infinites = new bool[](_bountyNonce);\n        _quantities = new uint256[](_bountyNonce);\n        _actives = new bool[](_bountyNonce);\n        _manuals = new bool[](_bountyNonce);\n        for (uint256 i = 0; i < _bountyNonce; i++) {\n            _titles[i] = bounties[i.add(1)].name;\n            _descriptions[i] = bounties[i.add(1)].description;\n            _imageUrls[i] = bounties[i.add(1)].imageUrl;\n            _awards[i] = bounties[i.add(1)].award;\n            _infinites[i] = bounties[i.add(1)].infinite;\n            _quantities[i] = bounties[i.add(1)].quantity;\n            _actives[i] = bounties[i.add(1)].active;\n            _manuals[i] = bounties[i.add(1)].trigger == Trigger.Manual;\n        }\n    }\n\n    function hasBounty(uint256 _bountyNonce, address _user)\n        public\n        view\n        override\n        returns (bool)\n    {\n        return userHasBounty[_bountyNonce][_user];\n    }\n\n    function checkFulfillment(uint256 _nonce)\n        public\n        view\n        override\n        returns (bool)\n    {\n        return requests[_nonce].fulfilled;\n    }\n}\n",
  "sourcePath": "/home/kiwi/Desktop/sandbox/contracts/contracts/Bounties.sol",
  "compiler": {
    "name": "solc",
    "version": "0.6.1+commit.e6f7d5a4.Emscripten.clang"
  },
  "schemaVersion": "3.3.1",
  "updatedAt": "2021-01-11T22:21:52.835Z",
  "networkType": "ethereum",
  "devdoc": {
    "methods": {}
  },
  "userdoc": {
    "methods": {
      "pendingBountyRequests(uint256)": {
        "notice": "VIEWABLE FUNCTIONS ///"
      },
      "setConsumer(address)": {
        "notice": "MUTABLE FUNCTIONS ///"
      }
    }
  }
}