{
  "contractName": "Bounties",
  "abi": [
    {
      "inputs": [
        {
          "internalType": "address",
          "name": "_users",
          "type": "address"
        },
        {
          "internalType": "address",
          "name": "_forwarder",
          "type": "address"
        }
      ],
      "stateMutability": "nonpayable",
      "type": "constructor"
    },
    {
      "anonymous": false,
      "inputs": [
        {
          "indexed": false,
          "internalType": "uint256",
          "name": "_nonce",
          "type": "uint256"
        }
      ],
      "name": "BountyAdded",
      "type": "event"
    },
    {
      "anonymous": false,
      "inputs": [
        {
          "indexed": false,
          "internalType": "uint256",
          "name": "_nonce",
          "type": "uint256"
        },
        {
          "indexed": false,
          "internalType": "address",
          "name": "_by",
          "type": "address"
        },
        {
          "indexed": false,
          "internalType": "uint256",
          "name": "_requestNonce",
          "type": "uint256"
        }
      ],
      "name": "BountyApplication",
      "type": "event"
    },
    {
      "anonymous": false,
      "inputs": [
        {
          "indexed": false,
          "internalType": "uint256",
          "name": "_nonce",
          "type": "uint256"
        },
        {
          "indexed": false,
          "internalType": "address",
          "name": "_to",
          "type": "address"
        },
        {
          "indexed": false,
          "internalType": "uint256",
          "name": "_minted",
          "type": "uint256"
        }
      ],
      "name": "BountyAwarded",
      "type": "event"
    },
    {
      "anonymous": false,
      "inputs": [
        {
          "indexed": false,
          "internalType": "uint256",
          "name": "_nonce",
          "type": "uint256"
        }
      ],
      "name": "BountyDelisted",
      "type": "event"
    },
    {
      "anonymous": false,
      "inputs": [
        {
          "indexed": false,
          "internalType": "uint256",
          "name": "_nonce",
          "type": "uint256"
        },
        {
          "indexed": false,
          "internalType": "address",
          "name": "_to",
          "type": "address"
        }
      ],
      "name": "BountyRejected",
      "type": "event"
    },
    {
      "inputs": [
        {
          "internalType": "uint256",
          "name": "",
          "type": "uint256"
        }
      ],
      "name": "bounties",
      "outputs": [
        {
          "internalType": "string",
          "name": "name",
          "type": "string"
        },
        {
          "internalType": "string",
          "name": "description",
          "type": "string"
        },
        {
          "internalType": "string",
          "name": "imageUrl",
          "type": "string"
        },
        {
          "internalType": "uint256",
          "name": "award",
          "type": "uint256"
        },
        {
          "internalType": "bool",
          "name": "infinite",
          "type": "bool"
        },
        {
          "internalType": "uint256",
          "name": "quantity",
          "type": "uint256"
        },
        {
          "internalType": "bool",
          "name": "active",
          "type": "bool"
        },
        {
          "internalType": "enum Trigger",
          "name": "trigger",
          "type": "uint8"
        },
        {
          "internalType": "string",
          "name": "tweet",
          "type": "string"
        },
        {
          "internalType": "uint256",
          "name": "pendingIndex",
          "type": "uint256"
        }
      ],
      "stateMutability": "view",
      "type": "function",
      "constant": true
    },
    {
      "inputs": [],
      "name": "bountyNonce",
      "outputs": [
        {
          "internalType": "uint256",
          "name": "",
          "type": "uint256"
        }
      ],
      "stateMutability": "view",
      "type": "function",
      "constant": true
    },
    {
      "inputs": [],
      "name": "consumerContract",
      "outputs": [
        {
          "internalType": "address",
          "name": "",
          "type": "address"
        }
      ],
      "stateMutability": "view",
      "type": "function",
      "constant": true
    },
    {
      "inputs": [],
      "name": "getTrustedForwarder",
      "outputs": [
        {
          "internalType": "address",
          "name": "",
          "type": "address"
        }
      ],
      "stateMutability": "view",
      "type": "function",
      "constant": true
    },
    {
      "inputs": [
        {
          "internalType": "address",
          "name": "forwarder",
          "type": "address"
        }
      ],
      "name": "isTrustedForwarder",
      "outputs": [
        {
          "internalType": "bool",
          "name": "",
          "type": "bool"
        }
      ],
      "stateMutability": "view",
      "type": "function",
      "constant": true
    },
    {
      "inputs": [],
      "name": "requestNonce",
      "outputs": [
        {
          "internalType": "uint256",
          "name": "",
          "type": "uint256"
        }
      ],
      "stateMutability": "view",
      "type": "function",
      "constant": true
    },
    {
      "inputs": [
        {
          "internalType": "uint256",
          "name": "",
          "type": "uint256"
        }
      ],
      "name": "requests",
      "outputs": [
        {
          "internalType": "address",
          "name": "user",
          "type": "address"
        },
        {
          "internalType": "uint256",
          "name": "bounty",
          "type": "uint256"
        },
        {
          "internalType": "uint256",
          "name": "pendingIndex",
          "type": "uint256"
        },
        {
          "internalType": "bool",
          "name": "fulfilled",
          "type": "bool"
        }
      ],
      "stateMutability": "view",
      "type": "function",
      "constant": true
    },
    {
      "inputs": [],
      "name": "trustedForwarder",
      "outputs": [
        {
          "internalType": "address",
          "name": "",
          "type": "address"
        }
      ],
      "stateMutability": "view",
      "type": "function",
      "constant": true
    },
    {
      "inputs": [],
      "name": "versionRecipient",
      "outputs": [
        {
          "internalType": "string",
          "name": "",
          "type": "string"
        }
      ],
      "stateMutability": "view",
      "type": "function",
      "constant": true
    },
    {
      "inputs": [
        {
          "internalType": "address",
          "name": "_at",
          "type": "address"
        }
      ],
      "name": "setConsumer",
      "outputs": [],
      "stateMutability": "nonpayable",
      "type": "function"
    },
    {
      "inputs": [
        {
          "internalType": "string",
          "name": "_title",
          "type": "string"
        },
        {
          "internalType": "string",
          "name": "_description",
          "type": "string"
        },
        {
          "internalType": "string",
          "name": "_imageUrl",
          "type": "string"
        },
        {
          "internalType": "uint256",
          "name": "_award",
          "type": "uint256"
        },
        {
          "internalType": "bool",
          "name": "_infinite",
          "type": "bool"
        },
        {
          "internalType": "uint256",
          "name": "_quantity",
          "type": "uint256"
        },
        {
          "internalType": "bool",
          "name": "_manual",
          "type": "bool"
        },
        {
          "internalType": "string",
          "name": "_tweetId",
          "type": "string"
        }
      ],
      "name": "addBounty",
      "outputs": [
        {
          "internalType": "uint256",
          "name": "_nonce",
          "type": "uint256"
        }
      ],
      "stateMutability": "nonpayable",
      "type": "function"
    },
    {
      "inputs": [
        {
          "internalType": "uint256",
          "name": "_nonce",
          "type": "uint256"
        }
      ],
      "name": "applyForBounty",
      "outputs": [],
      "stateMutability": "nonpayable",
      "type": "function"
    },
    {
      "inputs": [
        {
          "internalType": "uint256",
          "name": "_trigger",
          "type": "uint256"
        },
        {
          "internalType": "uint256",
          "name": "_index",
          "type": "uint256"
        }
      ],
      "name": "approveBountyRequest",
      "outputs": [],
      "stateMutability": "nonpayable",
      "type": "function"
    },
    {
      "inputs": [
        {
          "internalType": "uint256",
          "name": "_trigger",
          "type": "uint256"
        },
        {
          "internalType": "uint256",
          "name": "_index",
          "type": "uint256"
        }
      ],
      "name": "rejectBountyRequest",
      "outputs": [],
      "stateMutability": "nonpayable",
      "type": "function"
    },
    {
      "inputs": [
        {
          "internalType": "uint256",
          "name": "_nonce",
          "type": "uint256"
        }
      ],
      "name": "delistBounty",
      "outputs": [],
      "stateMutability": "nonpayable",
      "type": "function"
    },
    {
      "inputs": [
        {
          "internalType": "bytes32",
          "name": "_requestId",
          "type": "bytes32"
        },
        {
          "internalType": "bool",
          "name": "_status",
          "type": "bool"
        }
      ],
      "name": "fulfillChainlinkRequest",
      "outputs": [],
      "stateMutability": "nonpayable",
      "type": "function"
    },
    {
      "inputs": [
        {
          "internalType": "uint256",
          "name": "_trigger",
          "type": "uint256"
        }
      ],
      "name": "pendingBountyRequests",
      "outputs": [
        {
          "internalType": "uint256",
          "name": "_nonce",
          "type": "uint256"
        },
        {
          "internalType": "address[]",
          "name": "_users",
          "type": "address[]"
        },
        {
          "internalType": "string[]",
          "name": "_userNames",
          "type": "string[]"
        },
        {
          "internalType": "uint256[]",
          "name": "_bounties",
          "type": "uint256[]"
        },
        {
          "internalType": "string[]",
          "name": "_bountyNames",
          "type": "string[]"
        },
        {
          "internalType": "uint256[]",
          "name": "_bountyAwards",
          "type": "uint256[]"
        },
        {
          "internalType": "uint256[]",
          "name": "_bountyQuantities",
          "type": "uint256[]"
        },
        {
          "internalType": "bool[]",
          "name": "_bountyInfinite",
          "type": "bool[]"
        }
      ],
      "stateMutability": "view",
      "type": "function",
      "constant": true
    },
    {
      "inputs": [],
      "name": "getBounties",
      "outputs": [
        {
          "internalType": "uint256",
          "name": "_bountyNonce",
          "type": "uint256"
        },
        {
          "internalType": "string[]",
          "name": "_titles",
          "type": "string[]"
        },
        {
          "internalType": "string[]",
          "name": "_descriptions",
          "type": "string[]"
        },
        {
          "internalType": "string[]",
          "name": "_imageUrls",
          "type": "string[]"
        },
        {
          "internalType": "uint256[]",
          "name": "_awards",
          "type": "uint256[]"
        },
        {
          "internalType": "bool[]",
          "name": "_infinites",
          "type": "bool[]"
        },
        {
          "internalType": "uint256[]",
          "name": "_quantities",
          "type": "uint256[]"
        },
        {
          "internalType": "bool[]",
          "name": "_actives",
          "type": "bool[]"
        },
        {
          "internalType": "bool[]",
          "name": "_manuals",
          "type": "bool[]"
        }
      ],
      "stateMutability": "view",
      "type": "function",
      "constant": true
    },
    {
      "inputs": [
        {
          "internalType": "uint256",
          "name": "_bountyNonce",
          "type": "uint256"
        },
        {
          "internalType": "address",
          "name": "_user",
          "type": "address"
        }
      ],
      "name": "hasBounty",
      "outputs": [
        {
          "internalType": "bool",
          "name": "",
          "type": "bool"
        }
      ],
      "stateMutability": "view",
      "type": "function",
      "constant": true
    },
    {
      "inputs": [
        {
          "internalType": "uint256",
          "name": "_nonce",
          "type": "uint256"
        }
      ],
      "name": "checkFulfillment",
      "outputs": [
        {
          "internalType": "bool",
          "name": "",
          "type": "bool"
        }
      ],
      "stateMutability": "view",
      "type": "function",
      "constant": true
    }
  ],
  "bytecode": "0x60806040526040518060400160405280600581526020017f322e302e30000000000000000000000000000000000000000000000000000000815250600e9080519060200190620000519291906200019f565b503480156200005f57600080fd5b506040516200417138038062004171833981810160405281019062000085919062000265565b81600160006101000a81548173ffffffffffffffffffffffffffffffffffffffff021916908373ffffffffffffffffffffffffffffffffffffffff160217905550600160009054906101000a900473ffffffffffffffffffffffffffffffffffffffff1673ffffffffffffffffffffffffffffffffffffffff1663bc300ed3306040518263ffffffff1660e01b8152600401620001239190620002b7565b600060405180830381600087803b1580156200013e57600080fd5b505af115801562000153573d6000803e3d6000fd5b50505050806000806101000a81548173ffffffffffffffffffffffffffffffffffffffff021916908373ffffffffffffffffffffffffffffffffffffffff160217905550505062000322565b828054600181600116156101000203166002900490600052602060002090601f016020900481019282601f10620001e257805160ff191683800117855562000213565b8280016001018555821562000213579182015b8281111562000212578251825591602001919060010190620001f5565b5b50905062000222919062000226565b5090565b6200024b91905b80821115620002475760008160009055506001016200022d565b5090565b90565b6000815190506200025f8162000308565b92915050565b600080604083850312156200027957600080fd5b600062000289858286016200024e565b92505060206200029c858286016200024e565b9150509250929050565b620002b181620002d4565b82525050565b6000602082019050620002ce6000830184620002a6565b92915050565b6000620002e182620002e8565b9050919050565b600073ffffffffffffffffffffffffffffffffffffffff82169050919050565b6200031381620002d4565b81146200031f57600080fd5b50565b613e3f80620003326000396000f3fe608060405234801561001057600080fd5b506004361061012c5760003560e01c806363a579d5116100ad57806381d12c581161007157806381d12c5814610340578063ce1b815f14610373578063d37a06f714610391578063dc2f8744146103c1578063fd716a9c146103fa5761012c565b806363a579d5146102b057806378999d20146102cc57806379c0c568146102e85780637c1a0302146103045780637da0a877146103225761012c565b8063416dd084116100f4578063416dd084146101df578063486ff0cd146101fb578063572b6c05146102195780635d69cb7e14610249578063633fd2c9146102805761012c565b80630cf0ac1d146101315780630f1ca5a71461015757806322dbddb1146101755780632dfdad0b146101935780632f34b97d146101af575b600080fd5b610139610416565b60405161014e99989796959493929190613a71565b60405180910390f35b61015f610ace565b60405161016c9190613910565b60405180910390f35b61017d610ad4565b60405161018a9190613652565b60405180910390f35b6101ad60048036038101906101a891906130a7565b610afa565b005b6101c960048036038101906101c49190612f95565b610c80565b6040516101d69190613910565b60405180910390f35b6101f960048036038101906101f49190613135565b610efd565b005b610203611276565b604051610210919061371f565b60405180910390f35b610233600480360381019061022e9190612ec6565b611314565b6040516102409190613704565b60405180910390f35b610263600480360381019061025e91906130a7565b61136d565b6040516102779897969594939291906139c2565b60405180910390f35b61029a600480360381019061029591906130f9565b611935565b6040516102a79190613704565b60405180910390f35b6102ca60048036038101906102c59190612ec6565b61199d565b005b6102e660048036038101906102e19190613135565b611a7d565b005b61030260048036038101906102fd9190612f18565b611e0b565b005b61030c611e90565b6040516103199190613910565b60405180910390f35b61032a611e96565b6040516103379190613652565b60405180910390f35b61035a600480360381019061035591906130a7565b611ebb565b60405161036a94939291906136bf565b60405180910390f35b61037b611f18565b6040516103889190613652565b60405180910390f35b6103ab60048036038101906103a691906130a7565b611f41565b6040516103b89190613704565b60405180910390f35b6103db60048036038101906103d691906130a7565b611f6e565b6040516103f19a99989796959493929190613778565b60405180910390f35b610414600480360381019061040f91906130a7565b612249565b005b600060608060608060608060608060045498508867ffffffffffffffff8111801561044057600080fd5b5060405190808252806020026020018201604052801561047457816020015b606081526020019060019003908161045f5790505b5097508867ffffffffffffffff8111801561048e57600080fd5b506040519080825280602002602001820160405280156104c257816020015b60608152602001906001900390816104ad5790505b5096508867ffffffffffffffff811180156104dc57600080fd5b5060405190808252806020026020018201604052801561051057816020015b60608152602001906001900390816104fb5790505b5095508867ffffffffffffffff8111801561052a57600080fd5b506040519080825280602002602001820160405280156105595781602001602082028036833780820191505090505b5094508867ffffffffffffffff8111801561057357600080fd5b506040519080825280602002602001820160405280156105a25781602001602082028036833780820191505090505b5093508867ffffffffffffffff811180156105bc57600080fd5b506040519080825280602002602001820160405280156105eb5781602001602082028036833780820191505090505b5092508867ffffffffffffffff8111801561060557600080fd5b506040519080825280602002602001820160405280156106345781602001602082028036833780820191505090505b5091508867ffffffffffffffff8111801561064e57600080fd5b5060405190808252806020026020018201604052801561067d5781602001602082028036833780820191505090505b50905060008090505b89811015610ac257600660006106a6600184612a0090919063ffffffff16565b81526020019081526020016000206000018054600181600116156101000203166002900480601f01602080910402602001604051908101604052809291908181526020018280546001816001161561010002031660029004801561074b5780601f106107205761010080835404028352916020019161074b565b820191906000526020600020905b81548152906001019060200180831161072e57829003601f168201915b505050505089828151811061075c57fe5b60200260200101819052506006600061077f600184612a0090919063ffffffff16565b81526020019081526020016000206001018054600181600116156101000203166002900480601f0160208091040260200160405190810160405280929190818152602001828054600181600116156101000203166002900480156108245780601f106107f957610100808354040283529160200191610824565b820191906000526020600020905b81548152906001019060200180831161080757829003601f168201915b505050505088828151811061083557fe5b602002602001018190525060066000610858600184612a0090919063ffffffff16565b81526020019081526020016000206002018054600181600116156101000203166002900480601f0160208091040260200160405190810160405280929190818152602001828054600181600116156101000203166002900480156108fd5780601f106108d2576101008083540402835291602001916108fd565b820191906000526020600020905b8154815290600101906020018083116108e057829003601f168201915b505050505087828151811061090e57fe5b602002602001018190525060066000610931600184612a0090919063ffffffff16565b81526020019081526020016000206003015486828151811061094f57fe5b60200260200101818152505060066000610973600184612a0090919063ffffffff16565b815260200190815260200160002060040160009054906101000a900460ff1685828151811061099e57fe5b602002602001019015159081151581525050600660006109c8600184612a0090919063ffffffff16565b8152602001908152602001600020600501548482815181106109e657fe5b60200260200101818152505060066000610a0a600184612a0090919063ffffffff16565b815260200190815260200160002060060160009054906101000a900460ff16838281518110610a3557fe5b60200260200101901515908115158152505060016002811115610a5457fe5b60066000610a6c600185612a0090919063ffffffff16565b815260200190815260200160002060060160019054906101000a900460ff166002811115610a9657fe5b14828281518110610aa357fe5b6020026020010190151590811515815250508080600101915050610686565b50909192939495969798565b60045481565b600360009054906101000a900473ffffffffffffffffffffffffffffffffffffffff1681565b60016002811115610b0757fe5b600280811115610b1357fe5b811480610bd157506002600160009054906101000a900473ffffffffffffffffffffffffffffffffffffffff1673ffffffffffffffffffffffffffffffffffffffff1663d590f8c9610b63612a55565b6040518263ffffffff1660e01b8152600401610b7f919061366d565b60206040518083038186803b158015610b9757600080fd5b505afa158015610bab573d6000803e3d6000fd5b505050506040513d601f19601f82011682018060405250810190610bcf91906130d0565b145b610c10576040517f08c379a0000000000000000000000000000000000000000000000000000000008152600401610c07906138d0565b60405180910390fd5b600060066000848152602001908152602001600020905060008160060160006101000a81548160ff0219169083151502179055507f2d7b14f8a1fd1b1b7c237d5cf8c3b2c9a387db2aa8e5f03dbf74efa105673b0d83604051610c739190613910565b60405180910390a1505050565b600060016002811115610c8f57fe5b600280811115610c9b57fe5b811480610d5957506002600160009054906101000a900473ffffffffffffffffffffffffffffffffffffffff1673ffffffffffffffffffffffffffffffffffffffff1663d590f8c9610ceb612a55565b6040518263ffffffff1660e01b8152600401610d07919061366d565b60206040518083038186803b158015610d1f57600080fd5b505afa158015610d33573d6000803e3d6000fd5b505050506040513d601f19601f82011682018060405250810190610d5791906130d0565b145b610d98576040517f08c379a0000000000000000000000000000000000000000000000000000000008152600401610d8f906138d0565b60405180910390fd5b610dae6001600454612a0090919063ffffffff16565b60048190555060045491506000600660008481526020019081526020016000209050600085610dde576002610de1565b60015b90508b826000019080519060200190610dfb929190612cbb565b508a826001019080519060200190610e14929190612cbb565b5089826002019080519060200190610e2d929190612cbb565b50888260030181905550878260040160006101000a81548160ff021916908315150217905550868260050181905550808260060160016101000a81548160ff02191690836002811115610e7c57fe5b021790555084826007019080519060200190610e99929190612cbb565b5060018260060160006101000a81548160ff0219169083151502179055507fa99eeb7ee15333d9449368ff1d1e52f206bab46c2bebd241bbe2632b80ad9a1484604051610ee69190613910565b60405180910390a150505098975050505050505050565b6000600960008481526020019081526020016000206000838152602001908152602001600020549050610f2e612d3b565b600760008381526020019081526020016000206040518060800160405290816000820160009054906101000a900473ffffffffffffffffffffffffffffffffffffffff1673ffffffffffffffffffffffffffffffffffffffff1673ffffffffffffffffffffffffffffffffffffffff16815260200160018201548152602001600282015481526020016003820160009054906101000a900460ff16151515158152505090506000600660008360200151815260200190815260200160002090508060040160009054906101000a900460ff166110405761101c60018260050154612a9190919063ffffffff16565b816005018190555060008160050154141561103f5761103e8260200151610afa565b5b5b6002816009016000846000015173ffffffffffffffffffffffffffffffffffffffff1673ffffffffffffffffffffffffffffffffffffffff16815260200190815260200160002060006101000a81548160ff021916908360028111156110a257fe5b021790555080600a0182600001519080600181540180825580915050600190039060005260206000200160009091909190916101000a81548173ffffffffffffffffffffffffffffffffffffffff021916908373ffffffffffffffffffffffffffffffffffffffff160217905550600160009054906101000a900473ffffffffffffffffffffffffffffffffffffffff1673ffffffffffffffffffffffffffffffffffffffff1663e43f3e788360000151846020015184600301546040518463ffffffff1660e01b815260040161117b93929190613688565b600060405180830381600087803b15801561119557600080fd5b505af11580156111a9573d6000803e3d6000fd5b505050506001600c6000846020015181526020019081526020016000206000846000015173ffffffffffffffffffffffffffffffffffffffff1673ffffffffffffffffffffffffffffffffffffffff16815260200190815260200160002060006101000a81548160ff0219169083151502179055507f6afd625dfd10339cc4a7ba296f32817ab16fb8582d48761227a714a33af363c082602001518360000151836003015460405161125d9392919061398b565b60405180910390a161126f8585612adb565b5050505050565b600e8054600181600116156101000203166002900480601f01602080910402602001604051908101604052809291908181526020018280546001816001161561010002031660029004801561130c5780601f106112e15761010080835404028352916020019161130c565b820191906000526020600020905b8154815290600101906020018083116112ef57829003601f168201915b505050505081565b60008060009054906101000a900473ffffffffffffffffffffffffffffffffffffffff1673ffffffffffffffffffffffffffffffffffffffff168273ffffffffffffffffffffffffffffffffffffffff16149050919050565b60006060806060806060806060600860008a81526020019081526020016000205497508767ffffffffffffffff811180156113a757600080fd5b506040519080825280602002602001820160405280156113d65781602001602082028036833780820191505090505b5096508767ffffffffffffffff811180156113f057600080fd5b5060405190808252806020026020018201604052801561142457816020015b606081526020019060019003908161140f5790505b5095508767ffffffffffffffff8111801561143e57600080fd5b5060405190808252806020026020018201604052801561146d5781602001602082028036833780820191505090505b5094508767ffffffffffffffff8111801561148757600080fd5b506040519080825280602002602001820160405280156114bb57816020015b60608152602001906001900390816114a65790505b5093508767ffffffffffffffff811180156114d557600080fd5b506040519080825280602002602001820160405280156115045781602001602082028036833780820191505090505b5092508767ffffffffffffffff8111801561151e57600080fd5b5060405190808252806020026020018201604052801561154d5781602001602082028036833780820191505090505b5091508767ffffffffffffffff8111801561156757600080fd5b506040519080825280602002602001820160405280156115965781602001602082028036833780820191505090505b50905060008090505b88811015611929576000600960008c815260200190815260200160002060006115d2600185612a0090919063ffffffff16565b81526020019081526020016000205490506007600082815260200190815260200160002060000160009054906101000a900473ffffffffffffffffffffffffffffffffffffffff1689838151811061162657fe5b602002602001019073ffffffffffffffffffffffffffffffffffffffff16908173ffffffffffffffffffffffffffffffffffffffff1681525050600160009054906101000a900473ffffffffffffffffffffffffffffffffffffffff1673ffffffffffffffffffffffffffffffffffffffff1663019848928a84815181106116aa57fe5b60200260200101516040518263ffffffff1660e01b81526004016116ce9190613652565b60006040518083038186803b1580156116e657600080fd5b505afa1580156116fa573d6000803e3d6000fd5b505050506040513d6000823e3d601f19601f820116820180604052508101906117239190612f54565b88838151811061172f57fe5b6020026020010181905250600760008281526020019081526020016000206001015487838151811061175d57fe5b6020026020010181815250506006600088848151811061177957fe5b602002602001015181526020019081526020016000206000018054600181600116156101000203166002900480601f0160208091040260200160405190810160405280929190818152602001828054600181600116156101000203166002900480156118265780601f106117fb57610100808354040283529160200191611826565b820191906000526020600020905b81548152906001019060200180831161180957829003601f168201915b505050505086838151811061183757fe5b60200260200101819052506006600088848151811061185257fe5b602002602001015181526020019081526020016000206003015485838151811061187857fe5b6020026020010181815250506006600088848151811061189457fe5b60200260200101518152602001908152602001600020600501548483815181106118ba57fe5b602002602001018181525050600660008884815181106118d657fe5b6020026020010151815260200190815260200160002060040160009054906101000a900460ff1683838151811061190957fe5b60200260200101901515908115158152505050808060010191505061159f565b50919395975091939597565b6000600c600084815260200190815260200160002060008373ffffffffffffffffffffffffffffffffffffffff1673ffffffffffffffffffffffffffffffffffffffff16815260200190815260200160002060009054906101000a900460ff16905092915050565b600073ffffffffffffffffffffffffffffffffffffffff16600360009054906101000a900473ffffffffffffffffffffffffffffffffffffffff1673ffffffffffffffffffffffffffffffffffffffff16146119f857600080fd5b80600360006101000a81548173ffffffffffffffffffffffffffffffffffffffff021916908373ffffffffffffffffffffffffffffffffffffffff16021790555080600260006101000a81548173ffffffffffffffffffffffffffffffffffffffff021916908373ffffffffffffffffffffffffffffffffffffffff16021790555050565b600280811115611a8957fe5b600280811115611a9557fe5b811480611b5357506002600160009054906101000a900473ffffffffffffffffffffffffffffffffffffffff1673ffffffffffffffffffffffffffffffffffffffff1663d590f8c9611ae5612a55565b6040518263ffffffff1660e01b8152600401611b01919061366d565b60206040518083038186803b158015611b1957600080fd5b505afa158015611b2d573d6000803e3d6000fd5b505050506040513d601f19601f82011682018060405250810190611b5191906130d0565b145b611b92576040517f08c379a0000000000000000000000000000000000000000000000000000000008152600401611b89906138d0565b60405180910390fd5b6000600960008581526020019081526020016000206000848152602001908152602001600020549050611bc3612d3b565b600760008381526020019081526020016000206040518060800160405290816000820160009054906101000a900473ffffffffffffffffffffffffffffffffffffffff1673ffffffffffffffffffffffffffffffffffffffff1673ffffffffffffffffffffffffffffffffffffffff16815260200160018201548152602001600282015481526020016003820160009054906101000a900460ff16151515158152505090506000600660008360200151815260200190815260200160002090506000816009016000846000015173ffffffffffffffffffffffffffffffffffffffff1673ffffffffffffffffffffffffffffffffffffffff16815260200190815260200160002060006101000a81548160ff02191690836002811115611ce557fe5b021790555042600a6000846020015181526020019081526020016000206000846000015173ffffffffffffffffffffffffffffffffffffffff1673ffffffffffffffffffffffffffffffffffffffff168152602001908152602001600020819055506000600c6000846020015181526020019081526020016000206000846000015173ffffffffffffffffffffffffffffffffffffffff1673ffffffffffffffffffffffffffffffffffffffff16815260200190815260200160002060006101000a81548160ff0219169083151502179055507f14bd13b4df7a34b48398ea3e7bb2d6daccb5c476bf3ef6066cf3a84e767521fa82602001518360000151604051611df192919061392b565b60405180910390a1611e038686612adb565b505050505050565b6000600280811115611e1957fe5b9050600060076000600b600087815260200190815260200160002054815260200190815260200160002090508215611e5e57611e59828260020154610efd565b611e6d565b611e6c828260020154611a7d565b5b60018160030160006101000a81548160ff02191690831515021790555050505050565b60055481565b6000809054906101000a900473ffffffffffffffffffffffffffffffffffffffff1681565b60076020528060005260406000206000915090508060000160009054906101000a900473ffffffffffffffffffffffffffffffffffffffff16908060010154908060020154908060030160009054906101000a900460ff16905084565b60008060009054906101000a900473ffffffffffffffffffffffffffffffffffffffff16905090565b60006007600083815260200190815260200160002060030160009054906101000a900460ff169050919050565b6006602052806000526040600020600091509050806000018054600181600116156101000203166002900480601f01602080910402602001604051908101604052809291908181526020018280546001816001161561010002031660029004801561201a5780601f10611fef5761010080835404028352916020019161201a565b820191906000526020600020905b815481529060010190602001808311611ffd57829003601f168201915b505050505090806001018054600181600116156101000203166002900480601f0160208091040260200160405190810160405280929190818152602001828054600181600116156101000203166002900480156120b85780601f1061208d576101008083540402835291602001916120b8565b820191906000526020600020905b81548152906001019060200180831161209b57829003601f168201915b505050505090806002018054600181600116156101000203166002900480601f0160208091040260200160405190810160405280929190818152602001828054600181600116156101000203166002900480156121565780601f1061212b57610100808354040283529160200191612156565b820191906000526020600020905b81548152906001019060200180831161213957829003601f168201915b5050505050908060030154908060040160009054906101000a900460ff16908060050154908060060160009054906101000a900460ff16908060060160019054906101000a900460ff1690806007018054600181600116156101000203166002900480601f0160208091040260200160405190810160405280929190818152602001828054600181600116156101000203166002900480156122395780601f1061220e57610100808354040283529160200191612239565b820191906000526020600020905b81548152906001019060200180831161221c57829003601f168201915b505050505090806008015490508a565b806006600082815260200190815260200160002060040160009054906101000a900460ff168061228f575060006006600083815260200190815260200160002060050154115b6122ce576040517f08c379a00000000000000000000000000000000000000000000000000000000081526004016122c5906138f0565b60405180910390fd5b6006600082815260200190815260200160002060060160009054906101000a900460ff16612331576040517f08c379a0000000000000000000000000000000000000000000000000000000008152600401612328906138b0565b60405180910390fd5b6123476201518042612a9190919063ffffffff16565b600a60008381526020019081526020016000206000612364612a55565b73ffffffffffffffffffffffffffffffffffffffff1673ffffffffffffffffffffffffffffffffffffffff16815260200190815260200160002054106123df576040517f08c379a00000000000000000000000000000000000000000000000000000000081526004016123d690613830565b60405180910390fd5b6002808111156123eb57fe5b60066000838152602001908152602001600020600901600061240b612a55565b73ffffffffffffffffffffffffffffffffffffffff1673ffffffffffffffffffffffffffffffffffffffff16815260200190815260200160002060009054906101000a900460ff16600281111561245e57fe5b141561249f576040517f08c379a000000000000000000000000000000000000000000000000000000000815260040161249690613870565b60405180910390fd5b600160028111156124ac57fe5b6006600083815260200190815260200160002060090160006124cc612a55565b73ffffffffffffffffffffffffffffffffffffffff1673ffffffffffffffffffffffffffffffffffffffff16815260200190815260200160002060009054906101000a900460ff16600281111561251f57fe5b1415612560576040517f08c379a000000000000000000000000000000000000000000000000000000000815260040161255790613850565b60405180910390fd5b600060066000848152602001908152602001600020905060008160060160019054906101000a900460ff16600281111561259657fe5b90506125ae6001600554612a0090919063ffffffff16565b6005819055506125db60016008600084815260200190815260200160002054612a0090919063ffffffff16565b6008600083815260200190815260200160002081905550600554600960008381526020019081526020016000206000600860008581526020019081526020016000205481526020019081526020016000208190555060006007600060055481526020019081526020016000209050612651612a55565b8160000160006101000a81548173ffffffffffffffffffffffffffffffffffffffff021916908373ffffffffffffffffffffffffffffffffffffffff1602179055508481600101819055506008600083815260200190815260200160002054816002018190555060018360090160006126c8612a55565b73ffffffffffffffffffffffffffffffffffffffff1673ffffffffffffffffffffffffffffffffffffffff16815260200190815260200160002060006101000a81548160ff0219169083600281111561271d57fe5b021790555060028081111561272e57fe5b8360060160019054906101000a900460ff16600281111561274b57fe5b14156129b5576060600160009054906101000a900473ffffffffffffffffffffffffffffffffffffffff1673ffffffffffffffffffffffffffffffffffffffff16638b1a3bb18360000160009054906101000a900473ffffffffffffffffffffffffffffffffffffffff166040518263ffffffff1660e01b81526004016127d29190613652565b60006040518083038186803b1580156127ea57600080fd5b505afa1580156127fe573d6000803e3d6000fd5b505050506040513d6000823e3d601f19601f820116820180604052508101906128279190612f54565b90506060846007018054600181600116156101000203166002900480601f0160208091040260200160405190810160405280929190818152602001828054600181600116156101000203166002900480156128c35780601f10612898576101008083540402835291602001916128c3565b820191906000526020600020905b8154815290600101906020018083116128a657829003601f168201915b505050505090506000600260009054906101000a900473ffffffffffffffffffffffffffffffffffffffff1673ffffffffffffffffffffffffffffffffffffffff1663821bc7a484846040518363ffffffff1660e01b8152600401612929929190613741565b602060405180830381600087803b15801561294357600080fd5b505af1158015612957573d6000803e3d6000fd5b505050506040513d601f19601f8201168201806040525081019061297b9190612eef565b9050600554600b60008381526020019081526020016000208190555080600d60006005548152602001908152602001600020819055505050505b7f5bdc752c100bf36ba3271c08b26c15eed0fbbb0cd4d735cfc2ebcacdaa82b960856129df612a55565b6005546040516129f193929190613954565b60405180910390a15050505050565b600080828401905083811015612a4b576040517f08c379a0000000000000000000000000000000000000000000000000000000008152600401612a4290613890565b60405180910390fd5b8091505092915050565b60006018600036905010158015612a715750612a7033611314565b5b15612a8557601436033560601c9050612a8d565b339050612a8e565b5b90565b6000612ad383836040518060400160405280601e81526020017f536166654d6174683a207375627472616374696f6e206f766572666c6f770000815250612c60565b905092915050565b60006008600084815260200190815260200160002054905060006009600085815260200190815260200160002060008381526020019081526020016000205490506000600760008381526020019081526020016000209050828414612bf157600060096000878152602001908152602001600020600086815260200190815260200160002054905060006007600083815260200190815260200160002090508260000160009054906101000a900473ffffffffffffffffffffffffffffffffffffffff168160000160006101000a81548173ffffffffffffffffffffffffffffffffffffffff021916908373ffffffffffffffffffffffffffffffffffffffff1602179055508260010154816001018190555050505b600060096000878152602001908152602001600020600085815260200190815260200160002081905550612c4260016008600088815260200190815260200160002054612a9190919063ffffffff16565b60086000878152602001908152602001600020819055505050505050565b6000838311158290612ca8576040517f08c379a0000000000000000000000000000000000000000000000000000000008152600401612c9f919061371f565b60405180910390fd5b5060008385039050809150509392505050565b828054600181600116156101000203166002900490600052602060002090601f016020900481019282601f10612cfc57805160ff1916838001178555612d2a565b82800160010185558215612d2a579182015b82811115612d29578251825591602001919060010190612d0e565b5b509050612d379190612d7b565b5090565b6040518060800160405280600073ffffffffffffffffffffffffffffffffffffffff16815260200160008152602001600081526020016000151581525090565b612d9d91905b80821115612d99576000816000905550600101612d81565b5090565b90565b600081359050612daf81613dad565b92915050565b600081359050612dc481613dc4565b92915050565b600081359050612dd981613ddb565b92915050565b600081519050612dee81613ddb565b92915050565b600082601f830112612e0557600080fd5b8135612e18612e1382613b63565b613b36565b91508082526020830160208301858383011115612e3457600080fd5b612e3f838284613d4d565b50505092915050565b600082601f830112612e5957600080fd5b8151612e6c612e6782613b63565b613b36565b91508082526020830160208301858383011115612e8857600080fd5b612e93838284613d5c565b50505092915050565b600081359050612eab81613df2565b92915050565b600081519050612ec081613df2565b92915050565b600060208284031215612ed857600080fd5b6000612ee684828501612da0565b91505092915050565b600060208284031215612f0157600080fd5b6000612f0f84828501612ddf565b91505092915050565b60008060408385031215612f2b57600080fd5b6000612f3985828601612dca565b9250506020612f4a85828601612db5565b9150509250929050565b600060208284031215612f6657600080fd5b600082015167ffffffffffffffff811115612f8057600080fd5b612f8c84828501612e48565b91505092915050565b600080600080600080600080610100898b031215612fb257600080fd5b600089013567ffffffffffffffff811115612fcc57600080fd5b612fd88b828c01612df4565b985050602089013567ffffffffffffffff811115612ff557600080fd5b6130018b828c01612df4565b975050604089013567ffffffffffffffff81111561301e57600080fd5b61302a8b828c01612df4565b965050606061303b8b828c01612e9c565b955050608061304c8b828c01612db5565b94505060a061305d8b828c01612e9c565b93505060c061306e8b828c01612db5565b92505060e089013567ffffffffffffffff81111561308b57600080fd5b6130978b828c01612df4565b9150509295985092959890939650565b6000602082840312156130b957600080fd5b60006130c784828501612e9c565b91505092915050565b6000602082840312156130e257600080fd5b60006130f084828501612eb1565b91505092915050565b6000806040838503121561310c57600080fd5b600061311a85828601612e9c565b925050602061312b85828601612da0565b9150509250929050565b6000806040838503121561314857600080fd5b600061315685828601612e9c565b925050602061316785828601612e9c565b9150509250929050565b600061317d83836131dc565b60208301905092915050565b60006131958383613389565b60208301905092915050565b60006131ad83836133b6565b905092915050565b60006131c18383613634565b60208301905092915050565b6131d681613d05565b82525050565b6131e581613ca0565b82525050565b6131f481613ca0565b82525050565b600061320582613bcf565b61320f8185613c3a565b935061321a83613b8f565b8060005b8381101561324b5781516132328882613171565b975061323d83613c06565b92505060018101905061321e565b5085935050505092915050565b600061326382613bda565b61326d8185613c4b565b935061327883613b9f565b8060005b838110156132a95781516132908882613189565b975061329b83613c13565b92505060018101905061327c565b5085935050505092915050565b60006132c182613be5565b6132cb8185613c5c565b9350836020820285016132dd85613baf565b8060005b8581101561331957848403895281516132fa85826131a1565b945061330583613c20565b925060208a019950506001810190506132e1565b50829750879550505050505092915050565b600061333682613bf0565b6133408185613c6d565b935061334b83613bbf565b8060005b8381101561337c57815161336388826131b5565b975061336e83613c2d565b92505060018101905061334f565b5085935050505092915050565b61339281613cb2565b82525050565b6133a181613cb2565b82525050565b6133b081613d17565b82525050565b60006133c182613bfb565b6133cb8185613c7e565b93506133db818560208601613d5c565b6133e481613d8f565b840191505092915050565b60006133fa82613bfb565b6134048185613c8f565b9350613414818560208601613d5c565b61341d81613d8f565b840191505092915050565b6000613435601983613c8f565b91507f54656d7062616e6e6564203c20323420686f7572732061676f000000000000006000830152602082019050919050565b6000613475601983613c8f565b91507f55736572206861732070656e64696e6720617070726f76616c000000000000006000830152602082019050919050565b60006134b5601383613c8f565b91507f55736572206861732068617320626f756e7479000000000000000000000000006000830152602082019050919050565b60006134f5601b83613c8f565b91507f536166654d6174683a206164646974696f6e206f766572666c6f7700000000006000830152602082019050919050565b6000613535602483613c8f565b91507f426f756e7479206e6f7420617661696c61626c6520666f72206170706c69636160008301527f74696f6e000000000000000000000000000000000000000000000000000000006020830152604082019050919050565b600061359b602983613c8f565b91507f41646472657373206e6f742061757468656e7469636174656420666f7220746860008301527f697320616374696f6e00000000000000000000000000000000000000000000006020830152604082019050919050565b6000613601601383613c8f565b91507f426f756e7479206e6f7420696e2073746f636b000000000000000000000000006000830152602082019050919050565b61363d81613cfb565b82525050565b61364c81613cfb565b82525050565b600060208201905061366760008301846131eb565b92915050565b600060208201905061368260008301846131cd565b92915050565b600060608201905061369d60008301866131eb565b6136aa6020830185613643565b6136b76040830184613643565b949350505050565b60006080820190506136d460008301876131eb565b6136e16020830186613643565b6136ee6040830185613643565b6136fb6060830184613398565b95945050505050565b60006020820190506137196000830184613398565b92915050565b6000602082019050818103600083015261373981846133ef565b905092915050565b6000604082019050818103600083015261375b81856133ef565b9050818103602083015261376f81846133ef565b90509392505050565b6000610140820190508181036000830152613793818d6133ef565b905081810360208301526137a7818c6133ef565b905081810360408301526137bb818b6133ef565b90506137ca606083018a613643565b6137d76080830189613398565b6137e460a0830188613643565b6137f160c0830187613398565b6137fe60e08301866133a7565b81810361010083015261381181856133ef565b9050613821610120830184613643565b9b9a5050505050505050505050565b6000602082019050818103600083015261384981613428565b9050919050565b6000602082019050818103600083015261386981613468565b9050919050565b60006020820190508181036000830152613889816134a8565b9050919050565b600060208201905081810360008301526138a9816134e8565b9050919050565b600060208201905081810360008301526138c981613528565b9050919050565b600060208201905081810360008301526138e98161358e565b9050919050565b60006020820190508181036000830152613909816135f4565b9050919050565b60006020820190506139256000830184613643565b92915050565b60006040820190506139406000830185613643565b61394d60208301846131eb565b9392505050565b60006060820190506139696000830186613643565b61397660208301856131cd565b6139836040830184613643565b949350505050565b60006060820190506139a06000830186613643565b6139ad60208301856131eb565b6139ba6040830184613643565b949350505050565b6000610100820190506139d8600083018b613643565b81810360208301526139ea818a6131fa565b905081810360408301526139fe81896132b6565b90508181036060830152613a12818861332b565b90508181036080830152613a2681876132b6565b905081810360a0830152613a3a818661332b565b905081810360c0830152613a4e818561332b565b905081810360e0830152613a628184613258565b90509998505050505050505050565b600061012082019050613a87600083018c613643565b8181036020830152613a99818b6132b6565b90508181036040830152613aad818a6132b6565b90508181036060830152613ac181896132b6565b90508181036080830152613ad5818861332b565b905081810360a0830152613ae98187613258565b905081810360c0830152613afd818661332b565b905081810360e0830152613b118185613258565b9050818103610100830152613b268184613258565b90509a9950505050505050505050565b6000604051905081810181811067ffffffffffffffff82111715613b5957600080fd5b8060405250919050565b600067ffffffffffffffff821115613b7a57600080fd5b601f19601f8301169050602081019050919050565b6000819050602082019050919050565b6000819050602082019050919050565b6000819050602082019050919050565b6000819050602082019050919050565b600081519050919050565b600081519050919050565b600081519050919050565b600081519050919050565b600081519050919050565b6000602082019050919050565b6000602082019050919050565b6000602082019050919050565b6000602082019050919050565b600082825260208201905092915050565b600082825260208201905092915050565b600082825260208201905092915050565b600082825260208201905092915050565b600082825260208201905092915050565b600082825260208201905092915050565b6000613cab82613cdb565b9050919050565b60008115159050919050565b6000819050919050565b6000819050613cd682613da0565b919050565b600073ffffffffffffffffffffffffffffffffffffffff82169050919050565b6000819050919050565b6000613d1082613d29565b9050919050565b6000613d2282613cc8565b9050919050565b6000613d3482613d3b565b9050919050565b6000613d4682613cdb565b9050919050565b82818337600083830152505050565b60005b83811015613d7a578082015181840152602081019050613d5f565b83811115613d89576000848401525b50505050565b6000601f19601f8301169050919050565b60038110613daa57fe5b50565b613db681613ca0565b8114613dc157600080fd5b50565b613dcd81613cb2565b8114613dd857600080fd5b50565b613de481613cbe565b8114613def57600080fd5b50565b613dfb81613cfb565b8114613e0657600080fd5b5056fea26469706673582212200b8cf3ab5398e50bc08f07eeb70617ca7494a110a34bd54c2a75ed1614874fdc64736f6c634300060a0033",
  "immutableReferences": {},
  "source": "//SPDX-License-Identifier: MIT\npragma solidity >=0.6.0 <0.8.0;\npragma experimental ABIEncoderV2;\n\nimport \"./interfaces/IBounties.sol\";\nimport \"./interfaces/ITwitterConsumer.sol\";\n\ncontract Bounties is IBounties {\n    //@param _users - the address of the deployed users contract\n    //@param _forwarder - the address of the gsn trusted forwarder\n    constructor(address _users, address _forwarder) public {\n        userContract = IUsers(_users);\n        userContract.setBounty(address(this));\n        trustedForwarder = _forwarder;\n    }\n\n    /// MUTABLE FUNCTIONS ///\n\n    function setConsumer(address _at) public override {\n        require(consumerContract == address(0));\n        consumerContract = _at;\n        consumerInstance = ITwitterConsumer(_at);\n    }\n\n    function addBounty(\n        string memory _title,\n        string memory _description,\n        string memory _imageUrl,\n        uint256 _award,\n        bool _infinite,\n        uint256 _quantity,\n        bool _manual,\n        string memory _tweetId\n    )\n        public\n        override\n        adminOrTwitter(uint256(Trigger.Manual))\n        returns (uint256 _nonce)\n    {\n        bountyNonce = bountyNonce.add(1);\n        _nonce = bountyNonce;\n        Bounty storage bounty = bounties[_nonce];\n        //trigger initialization would need to be more robust with > 1 chainlink adapter\n        Trigger trigger = _manual ? Trigger.Manual : Trigger.Twitter;\n        bounty.name = _title;\n        bounty.description = _description;\n        bounty.imageUrl = _imageUrl;\n        bounty.award = _award;\n        bounty.infinite = _infinite;\n        bounty.quantity = _quantity;\n        bounty.trigger = trigger;\n        bounty.tweet = _tweetId;\n        bounty.active = true;\n        emit BountyAdded(_nonce);\n    }\n\n    function applyForBounty(uint256 _nonce)\n        public\n        override\n        beforeBountyApp(_nonce)\n    {\n        Bounty storage bounty = bounties[_nonce];\n        uint256 trigger = uint256(bounty.trigger);\n        requestNonce = requestNonce.add(1);\n        pendingIndices[trigger] = pendingIndices[trigger].add(1);\n        pendingRequests[trigger][pendingIndices[trigger]] = requestNonce;\n        Request storage request = requests[requestNonce];\n        request.user = _msgSender();\n        request.bounty = _nonce;\n        request.pendingIndex = pendingIndices[trigger];\n        bounty.status[_msgSender()] = BountyState.Pending;\n        if (bounty.trigger == Trigger.Twitter) {\n            string memory userId = userContract.getTwitterId(request.user);\n            string memory tweetId = bounty.tweet;\n            bytes32 requestId = consumerInstance.checkRetweets(userId, tweetId);\n            chainlinkRequests[requestId] = requestNonce;\n            nonceToRequestId[requestNonce] = requestId;\n        }\n        emit BountyApplication(_nonce, _msgSender(), requestNonce);\n    }\n\n    function approveBountyRequest(uint256 _trigger, uint256 _index)\n        public\n        override\n    {\n        uint256 requestNonce = pendingRequests[_trigger][_index];\n        Request memory request = requests[requestNonce];\n        Bounty storage bounty = bounties[request.bounty];\n        if (!bounty.infinite) {\n            bounty.quantity = bounty.quantity.sub(1);\n            if (bounty.quantity == 0) delistBounty(request.bounty);\n        }\n        bounty.status[request.user] = BountyState.Awarded;\n        bounty.holders.push(request.user);\n        userContract.addBounty(request.user, request.bounty, bounty.award);\n        userHasBounty[request.bounty][request.user] = true;\n        emit BountyAwarded(request.bounty, request.user, bounty.award);\n        removePendingRequest(_trigger, _index);\n    }\n\n    function rejectBountyRequest(uint256 _trigger, uint256 _index)\n        public\n        override\n        adminOrTwitter(uint256(Trigger.Twitter))\n    {\n        uint256 requestNonce = pendingRequests[_trigger][_index];\n        Request memory request = requests[requestNonce];\n        Bounty storage bounty = bounties[request.bounty];\n        bounty.status[request.user] = BountyState.None;\n        tempban[request.bounty][request.user] = now;\n        userHasBounty[request.bounty][request.user] = false;\n        emit BountyRejected(request.bounty, request.user);\n        removePendingRequest(_trigger, _index);\n    }\n\n    function delistBounty(uint256 _nonce)\n        public\n        override\n        adminOrTwitter(uint256(Trigger.Manual))\n    {\n        Bounty storage bounty = bounties[_nonce];\n        bounty.active = false;\n        emit BountyDelisted(_nonce);\n    }\n\n    /**\n     * Internal helper function to handle logic of removing pending requests from storage\n     *\n     * @param _trigger - the type of request being removed\n     * @dev can add more uint/ enum codes for triggers. 1 = manual, 2 = retweet verification\n     * @param _index - the index of the pending request to remove\n     */\n    function removePendingRequest(uint256 _trigger, uint256 _index) internal {\n        uint256 pendingIndex = pendingIndices[_trigger];\n        uint256 lastNonce = pendingRequests[_trigger][pendingIndex];\n        Request storage last = requests[lastNonce];\n        if (_index != pendingIndex) {\n            uint256 swapNonce = pendingRequests[_trigger][_index];\n            Request storage swap = requests[swapNonce];\n            swap.user = last.user;\n            swap.bounty = last.bounty;\n        }\n        pendingRequests[_trigger][pendingIndex] = 0;\n        pendingIndices[_trigger] = pendingIndices[_trigger].sub(1);\n    }\n\n    function fulfillChainlinkRequest(bytes32 _requestId, bool _status)\n        public\n        override\n    {\n        uint256 trigger = uint256(Trigger.Twitter);\n        Request storage request = requests[chainlinkRequests[_requestId]];\n        if (_status) approveBountyRequest(trigger, request.pendingIndex);\n        else rejectBountyRequest(trigger, request.pendingIndex);\n        request.fulfilled = true;\n    }\n\n    /// VIEWABLE FUNCTIONS ///\n\n    function pendingBountyRequests(uint256 _trigger)\n        public\n        view\n        override\n        returns (\n            uint256 _nonce,\n            address[] memory _users,\n            string[] memory _userNames,\n            uint256[] memory _bounties,\n            string[] memory _bountyNames,\n            uint256[] memory _bountyAwards,\n            uint256[] memory _bountyQuantities,\n            bool[] memory _bountyInfinite\n        )\n    {\n        _nonce = pendingIndices[_trigger];\n        _users = new address[](_nonce);\n        _userNames = new string[](_nonce);\n        _bounties = new uint256[](_nonce);\n        _bountyNames = new string[](_nonce);\n        _bountyAwards = new uint256[](_nonce);\n        _bountyQuantities = new uint256[](_nonce);\n        _bountyInfinite = new bool[](_nonce);\n        for (uint256 i = 0; i < _nonce; i++) {\n            uint256 requestNonce = pendingRequests[_trigger][i.add(1)];\n            _users[i] = requests[requestNonce].user;\n            _userNames[i] = userContract.name(_users[i]);\n            _bounties[i] = requests[requestNonce].bounty;\n            _bountyNames[i] = bounties[_bounties[i]].name;\n            _bountyAwards[i] = bounties[_bounties[i]].award;\n            _bountyQuantities[i] = bounties[_bounties[i]].quantity;\n            _bountyInfinite[i] = bounties[_bounties[i]].infinite;\n        }\n    }\n\n    function getBounties()\n        public\n        view\n        override\n        returns (\n            uint256 _bountyNonce,\n            string[] memory _titles,\n            string[] memory _descriptions,\n            string[] memory _imageUrls,\n            uint256[] memory _awards,\n            bool[] memory _infinites,\n            uint256[] memory _quantities,\n            bool[] memory _actives,\n            bool[] memory _manuals\n        )\n    {\n        _bountyNonce = bountyNonce;\n        _titles = new string[](_bountyNonce);\n        _descriptions = new string[](_bountyNonce);\n        _imageUrls = new string[](_bountyNonce);\n        _awards = new uint256[](_bountyNonce);\n        _infinites = new bool[](_bountyNonce);\n        _quantities = new uint256[](_bountyNonce);\n        _actives = new bool[](_bountyNonce);\n        _manuals = new bool[](_bountyNonce);\n        for (uint256 i = 0; i < _bountyNonce; i++) {\n            _titles[i] = bounties[i.add(1)].name;\n            _descriptions[i] = bounties[i.add(1)].description;\n            _imageUrls[i] = bounties[i.add(1)].imageUrl;\n            _awards[i] = bounties[i.add(1)].award;\n            _infinites[i] = bounties[i.add(1)].infinite;\n            _quantities[i] = bounties[i.add(1)].quantity;\n            _actives[i] = bounties[i.add(1)].active;\n            _manuals[i] = bounties[i.add(1)].trigger == Trigger.Manual;\n        }\n    }\n\n    function hasBounty(uint256 _bountyNonce, address _user)\n        public\n        view\n        override\n        returns (bool)\n    {\n        return userHasBounty[_bountyNonce][_user];\n    }\n\n    function checkFulfillment(uint256 _nonce)\n        public\n        view\n        override\n        returns (bool)\n    {\n        return requests[_nonce].fulfilled;\n    }\n}\n",
  "sourcePath": "/home/jpag/orgtoken/contracts/contracts/Bounties.sol",
  "compiler": {
    "name": "solc",
    "version": "0.6.10+commit.00c0fcaf.Emscripten.clang"
  },
  "schemaVersion": "3.3.3",
  "updatedAt": "2021-01-17T00:27:45.467Z",
  "networkType": "ethereum",
  "devdoc": {
    "methods": {}
  },
  "userdoc": {
    "methods": {
      "getTrustedForwarder()": {
        "notice": "GSN Forwarder Call"
      },
      "pendingBountyRequests(uint256)": {
        "notice": "VIEWABLE FUNCTIONS ///"
      },
      "setConsumer(address)": {
        "notice": "MUTABLE FUNCTIONS ///"
      }
    }
  }
}