{
  "contractName": "Bounties",
  "abi": [
    {
      "inputs": [
        {
          "internalType": "address",
          "name": "_users",
          "type": "address"
        }
      ],
      "stateMutability": "nonpayable",
      "type": "constructor"
    },
    {
      "anonymous": false,
      "inputs": [
        {
          "indexed": false,
          "internalType": "uint256",
          "name": "_nonce",
          "type": "uint256"
        }
      ],
      "name": "BountyAdded",
      "type": "event"
    },
    {
      "anonymous": false,
      "inputs": [
        {
          "indexed": false,
          "internalType": "uint256",
          "name": "_nonce",
          "type": "uint256"
        },
        {
          "indexed": false,
          "internalType": "address",
          "name": "_by",
          "type": "address"
        }
      ],
      "name": "BountyApplication",
      "type": "event"
    },
    {
      "anonymous": false,
      "inputs": [
        {
          "indexed": false,
          "internalType": "uint256",
          "name": "_nonce",
          "type": "uint256"
        },
        {
          "indexed": false,
          "internalType": "address",
          "name": "_to",
          "type": "address"
        },
        {
          "indexed": false,
          "internalType": "uint256",
          "name": "_minted",
          "type": "uint256"
        }
      ],
      "name": "BountyAwarded",
      "type": "event"
    },
    {
      "anonymous": false,
      "inputs": [
        {
          "indexed": false,
          "internalType": "uint256",
          "name": "_nonce",
          "type": "uint256"
        }
      ],
      "name": "BountyDelisted",
      "type": "event"
    },
    {
      "anonymous": false,
      "inputs": [
        {
          "indexed": false,
          "internalType": "uint256",
          "name": "_nonce",
          "type": "uint256"
        },
        {
          "indexed": false,
          "internalType": "address",
          "name": "_to",
          "type": "address"
        }
      ],
      "name": "BountyRejected",
      "type": "event"
    },
    {
      "anonymous": false,
      "inputs": [
        {
          "indexed": false,
          "internalType": "bool",
          "name": "_infinite",
          "type": "bool"
        }
      ],
      "name": "FLAG",
      "type": "event"
    },
    {
      "inputs": [
        {
          "internalType": "uint256",
          "name": "",
          "type": "uint256"
        }
      ],
      "name": "bounties",
      "outputs": [
        {
          "internalType": "string",
          "name": "name",
          "type": "string"
        },
        {
          "internalType": "string",
          "name": "description",
          "type": "string"
        },
        {
          "internalType": "string",
          "name": "imageUrl",
          "type": "string"
        },
        {
          "internalType": "uint256",
          "name": "award",
          "type": "uint256"
        },
        {
          "internalType": "bool",
          "name": "infinite",
          "type": "bool"
        },
        {
          "internalType": "uint256",
          "name": "quantity",
          "type": "uint256"
        },
        {
          "internalType": "bool",
          "name": "active",
          "type": "bool"
        },
        {
          "internalType": "enum Trigger",
          "name": "trigger",
          "type": "uint8"
        },
        {
          "internalType": "string",
          "name": "tweet",
          "type": "string"
        },
        {
          "internalType": "uint256",
          "name": "pendingIndex",
          "type": "uint256"
        }
      ],
      "stateMutability": "view",
      "type": "function",
      "constant": true
    },
    {
      "inputs": [],
      "name": "bountyNonce",
      "outputs": [
        {
          "internalType": "uint256",
          "name": "",
          "type": "uint256"
        }
      ],
      "stateMutability": "view",
      "type": "function",
      "constant": true
    },
    {
      "inputs": [],
      "name": "consumerContract",
      "outputs": [
        {
          "internalType": "address",
          "name": "",
          "type": "address"
        }
      ],
      "stateMutability": "view",
      "type": "function",
      "constant": true
    },
    {
      "inputs": [],
      "name": "requestNonce",
      "outputs": [
        {
          "internalType": "uint256",
          "name": "",
          "type": "uint256"
        }
      ],
      "stateMutability": "view",
      "type": "function",
      "constant": true
    },
    {
      "inputs": [
        {
          "internalType": "uint256",
          "name": "",
          "type": "uint256"
        }
      ],
      "name": "requests",
      "outputs": [
        {
          "internalType": "address",
          "name": "user",
          "type": "address"
        },
        {
          "internalType": "uint256",
          "name": "bounty",
          "type": "uint256"
        },
        {
          "internalType": "uint256",
          "name": "pendingIndex",
          "type": "uint256"
        },
        {
          "internalType": "bool",
          "name": "fulfilled",
          "type": "bool"
        }
      ],
      "stateMutability": "view",
      "type": "function",
      "constant": true
    },
    {
      "inputs": [
        {
          "internalType": "address",
          "name": "_at",
          "type": "address"
        }
      ],
      "name": "setConsumer",
      "outputs": [],
      "stateMutability": "nonpayable",
      "type": "function"
    },
    {
      "inputs": [
        {
          "internalType": "string",
          "name": "_title",
          "type": "string"
        },
        {
          "internalType": "string",
          "name": "_description",
          "type": "string"
        },
        {
          "internalType": "string",
          "name": "_imageUrl",
          "type": "string"
        },
        {
          "internalType": "uint256",
          "name": "_award",
          "type": "uint256"
        },
        {
          "internalType": "bool",
          "name": "_infinite",
          "type": "bool"
        },
        {
          "internalType": "uint256",
          "name": "_quantity",
          "type": "uint256"
        },
        {
          "internalType": "bool",
          "name": "_manual",
          "type": "bool"
        },
        {
          "internalType": "string",
          "name": "_tweetId",
          "type": "string"
        }
      ],
      "name": "addBounty",
      "outputs": [
        {
          "internalType": "uint256",
          "name": "_nonce",
          "type": "uint256"
        }
      ],
      "stateMutability": "nonpayable",
      "type": "function"
    },
    {
      "inputs": [
        {
          "internalType": "uint256",
          "name": "_nonce",
          "type": "uint256"
        }
      ],
      "name": "applyForBounty",
      "outputs": [],
      "stateMutability": "nonpayable",
      "type": "function"
    },
    {
      "inputs": [
        {
          "internalType": "uint256",
          "name": "_trigger",
          "type": "uint256"
        },
        {
          "internalType": "uint256",
          "name": "_index",
          "type": "uint256"
        }
      ],
      "name": "approveBountyRequest",
      "outputs": [],
      "stateMutability": "nonpayable",
      "type": "function"
    },
    {
      "inputs": [
        {
          "internalType": "uint256",
          "name": "_trigger",
          "type": "uint256"
        },
        {
          "internalType": "uint256",
          "name": "_index",
          "type": "uint256"
        }
      ],
      "name": "rejectBountyRequest",
      "outputs": [],
      "stateMutability": "nonpayable",
      "type": "function"
    },
    {
      "inputs": [
        {
          "internalType": "uint256",
          "name": "_nonce",
          "type": "uint256"
        }
      ],
      "name": "delistBounty",
      "outputs": [],
      "stateMutability": "nonpayable",
      "type": "function"
    },
    {
      "inputs": [
        {
          "internalType": "bytes32",
          "name": "_requestId",
          "type": "bytes32"
        },
        {
          "internalType": "bool",
          "name": "_status",
          "type": "bool"
        }
      ],
      "name": "fufillChainlinkRequest",
      "outputs": [],
      "stateMutability": "nonpayable",
      "type": "function"
    },
    {
      "inputs": [
        {
          "internalType": "uint256",
          "name": "_trigger",
          "type": "uint256"
        }
      ],
      "name": "pendingBountyRequests",
      "outputs": [
        {
          "internalType": "uint256",
          "name": "_nonce",
          "type": "uint256"
        },
        {
          "internalType": "address[]",
          "name": "_users",
          "type": "address[]"
        },
        {
          "internalType": "string[]",
          "name": "_userNames",
          "type": "string[]"
        },
        {
          "internalType": "uint256[]",
          "name": "_bounties",
          "type": "uint256[]"
        },
        {
          "internalType": "string[]",
          "name": "_bountyNames",
          "type": "string[]"
        },
        {
          "internalType": "uint256[]",
          "name": "_bountyAwards",
          "type": "uint256[]"
        },
        {
          "internalType": "uint256[]",
          "name": "_bountyQuantities",
          "type": "uint256[]"
        },
        {
          "internalType": "bool[]",
          "name": "_bountyInfinite",
          "type": "bool[]"
        }
      ],
      "stateMutability": "view",
      "type": "function",
      "constant": true
    },
    {
      "inputs": [],
      "name": "getBounties",
      "outputs": [
        {
          "internalType": "uint256",
          "name": "_bountyNonce",
          "type": "uint256"
        },
        {
          "internalType": "string[]",
          "name": "_titles",
          "type": "string[]"
        },
        {
          "internalType": "string[]",
          "name": "_descriptions",
          "type": "string[]"
        },
        {
          "internalType": "string[]",
          "name": "_imageUrls",
          "type": "string[]"
        },
        {
          "internalType": "uint256[]",
          "name": "_awards",
          "type": "uint256[]"
        },
        {
          "internalType": "bool[]",
          "name": "_infinites",
          "type": "bool[]"
        },
        {
          "internalType": "uint256[]",
          "name": "_quantities",
          "type": "uint256[]"
        },
        {
          "internalType": "bool[]",
          "name": "_actives",
          "type": "bool[]"
        },
        {
          "internalType": "bool[]",
          "name": "_manuals",
          "type": "bool[]"
        }
      ],
      "stateMutability": "view",
      "type": "function",
      "constant": true
    },
    {
      "inputs": [
        {
          "internalType": "string",
          "name": "_userid",
          "type": "string"
        },
        {
          "internalType": "string",
          "name": "_tweet",
          "type": "string"
        }
      ],
      "name": "checkRetweet",
      "outputs": [
        {
          "internalType": "bool",
          "name": "",
          "type": "bool"
        }
      ],
      "stateMutability": "view",
      "type": "function",
      "constant": true
    },
    {
      "inputs": [
        {
          "internalType": "bytes32",
          "name": "_requestId",
          "type": "bytes32"
        }
      ],
      "name": "checkFufillment",
      "outputs": [
        {
          "internalType": "bool",
          "name": "",
          "type": "bool"
        }
      ],
      "stateMutability": "view",
      "type": "function",
      "constant": true
    }
  ],
  "bytecode": "0x60806040523480156200001157600080fd5b5060405162003a0038038062003a00833981810160405262000037919081019062000125565b806000806101000a81548173ffffffffffffffffffffffffffffffffffffffff021916908373ffffffffffffffffffffffffffffffffffffffff1602179055506000809054906101000a900473ffffffffffffffffffffffffffffffffffffffff1673ffffffffffffffffffffffffffffffffffffffff1663bc300ed3306040518263ffffffff1660e01b8152600401620000d3919062000162565b600060405180830381600087803b158015620000ee57600080fd5b505af115801562000103573d6000803e3d6000fd5b5050505050620001cd565b6000815190506200011f81620001b3565b92915050565b6000602082840312156200013857600080fd5b600062000148848285016200010e565b91505092915050565b6200015c816200017f565b82525050565b600060208201905062000179600083018462000151565b92915050565b60006200018c8262000193565b9050919050565b600073ffffffffffffffffffffffffffffffffffffffff82169050919050565b620001be816200017f565b8114620001ca57600080fd5b50565b61382380620001dd6000396000f3fe608060405234801561001057600080fd5b50600436106101005760003560e01c806363a579d511610097578063d2cd2b2511610066578063d2cd2b25146102bf578063dc2f8744146102db578063ddb7d26e14610314578063fd716a9c1461034457610100565b806363a579d51461023657806378999d20146102525780637c1a03021461026e57806381d12c581461028c57610100565b80632dfdad0b116100d35780632dfdad0b146101975780632f34b97d146101b3578063416dd084146101e35780635d69cb7e146101ff57610100565b80630cf0ac1d146101055780630f1ca5a71461012b57806321d9f7da1461014957806322dbddb114610179575b600080fd5b61010d610360565b6040516101229998979695949392919061343f565b60405180910390f35b610133610960565b60405161014091906132ec565b60405180910390f35b610163600480360361015e919081019061298a565b610966565b6040516101709190613100565b60405180910390f35b6101816109b8565b60405161018e9190613069565b60405180910390f35b6101b160048036036101ac9190810190612b08565b6109de565b005b6101cd60048036036101c891908101906129f6565b610a4d565b6040516101da91906132ec565b60405180910390f35b6101fd60048036036101f89190810190612b31565b610bb3565b005b61021960048036036102149190810190612b08565b610eba565b60405161022d989796959493929190613390565b60405180910390f35b610250600480360361024b9190810190612892565b6113e0565b005b61026c60048036036102679190810190612b31565b6114c0565b005b6102766116ca565b60405161028391906132ec565b60405180910390f35b6102a660048036036102a19190810190612b08565b6116d0565b6040516102b694939291906130bb565b60405180910390f35b6102d960048036036102d4919081019061290d565b61172d565b005b6102f560048036036102f09190810190612b08565b611994565b60405161030b9a99989796959493929190613174565b60405180910390f35b61032e600480360361032991908101906128bb565b611c6f565b60405161033b9190613100565b60405180910390f35b61035e60048036036103599190810190612b08565b611caf565b005b60006060806060806060806060806003549850886040519080825280602002602001820160405280156103a757816020015b60608152602001906001900390816103925790505b509750886040519080825280602002602001820160405280156103de57816020015b60608152602001906001900390816103c95790505b5096508860405190808252806020026020018201604052801561041557816020015b60608152602001906001900390816104005790505b509550886040519080825280602002602001820160405280156104475781602001602082028038833980820191505090505b509450886040519080825280602002602001820160405280156104795781602001602082028038833980820191505090505b509350886040519080825280602002602001820160405280156104ab5781602001602082028038833980820191505090505b509250886040519080825280602002602001820160405280156104dd5781602001602082028038833980820191505090505b5091508860405190808252806020026020018201604052801561050f5781602001602082028038833980820191505090505b50905060008090505b89811015610954576005600061053860018461241d90919063ffffffff16565b81526020019081526020016000206000018054600181600116156101000203166002900480601f0160208091040260200160405190810160405280929190818152602001828054600181600116156101000203166002900480156105dd5780601f106105b2576101008083540402835291602001916105dd565b820191906000526020600020905b8154815290600101906020018083116105c057829003601f168201915b50505050508982815181106105ee57fe5b60200260200101819052506005600061061160018461241d90919063ffffffff16565b81526020019081526020016000206001018054600181600116156101000203166002900480601f0160208091040260200160405190810160405280929190818152602001828054600181600116156101000203166002900480156106b65780601f1061068b576101008083540402835291602001916106b6565b820191906000526020600020905b81548152906001019060200180831161069957829003601f168201915b50505050508882815181106106c757fe5b6020026020010181905250600560006106ea60018461241d90919063ffffffff16565b81526020019081526020016000206002018054600181600116156101000203166002900480601f01602080910402602001604051908101604052809291908181526020018280546001816001161561010002031660029004801561078f5780601f106107645761010080835404028352916020019161078f565b820191906000526020600020905b81548152906001019060200180831161077257829003601f168201915b50505050508782815181106107a057fe5b6020026020010181905250600560006107c360018461241d90919063ffffffff16565b8152602001908152602001600020600301548682815181106107e157fe5b6020026020010181815250506005600061080560018461241d90919063ffffffff16565b815260200190815260200160002060040160009054906101000a900460ff1685828151811061083057fe5b6020026020010190151590811515815250506005600061085a60018461241d90919063ffffffff16565b81526020019081526020016000206005015484828151811061087857fe5b6020026020010181815250506005600061089c60018461241d90919063ffffffff16565b815260200190815260200160002060060160009054906101000a900460ff168382815181106108c757fe5b602002602001019015159081151581525050600160028111156108e657fe5b600560006108fe60018561241d90919063ffffffff16565b815260200190815260200160002060060160019054906101000a900460ff16600281111561092857fe5b1482828151811061093557fe5b6020026020010190151590811515815250508080600101915050610518565b50909192939495969798565b60035481565b6000600b826040516109789190613052565b9081526020016040518091039020836040516109949190613052565b908152602001604051809103902060009054906101000a900460ff16905092915050565b600260009054906101000a900473ffffffffffffffffffffffffffffffffffffffff1681565b600060056000838152602001908152602001600020905060008160060160006101000a81548160ff0219169083151502179055507f2d7b14f8a1fd1b1b7c237d5cf8c3b2c9a387db2aa8e5f03dbf74efa105673b0d82604051610a4191906132ec565b60405180910390a15050565b6000610a65600160035461241d90919063ffffffff16565b60038190555060035490506000600560008381526020019081526020016000209050600084610a95576002610a98565b60015b90508a826000019080519060200190610ab292919061269c565b5089826001019080519060200190610acb92919061269c565b5088826002019080519060200190610ae492919061269c565b50878260030181905550868260040160006101000a81548160ff021916908315150217905550858260050181905550808260060160016101000a81548160ff02191690836002811115610b3357fe5b021790555083826007019080519060200190610b5092919061269c565b5060018260060160006101000a81548160ff0219169083151502179055507fa99eeb7ee15333d9449368ff1d1e52f206bab46c2bebd241bbe2632b80ad9a1483604051610b9d91906132ec565b60405180910390a1505098975050505050505050565b6000600860008481526020019081526020016000206000838152602001908152602001600020549050610be461271c565b600660008381526020019081526020016000206040518060800160405290816000820160009054906101000a900473ffffffffffffffffffffffffffffffffffffffff1673ffffffffffffffffffffffffffffffffffffffff1673ffffffffffffffffffffffffffffffffffffffff16815260200160018201548152602001600282015481526020016003820160009054906101000a900460ff16151515158152505090506000600560008360200151815260200190815260200160002090508060040160009054906101000a900460ff16610cf657610cd26001826005015461247290919063ffffffff16565b8160050181905550600081600501541415610cf557610cf482602001516109de565b5b5b6002816009016000846000015173ffffffffffffffffffffffffffffffffffffffff1673ffffffffffffffffffffffffffffffffffffffff16815260200190815260200160002060006101000a81548160ff02191690836002811115610d5857fe5b021790555080600a0182600001519080600181540180825580915050600190039060005260206000200160009091909190916101000a81548173ffffffffffffffffffffffffffffffffffffffff021916908373ffffffffffffffffffffffffffffffffffffffff1602179055506000809054906101000a900473ffffffffffffffffffffffffffffffffffffffff1673ffffffffffffffffffffffffffffffffffffffff1663e43f3e788360000151846020015184600301546040518463ffffffff1660e01b8152600401610e3093929190613084565b600060405180830381600087803b158015610e4a57600080fd5b505af1158015610e5e573d6000803e3d6000fd5b505050507f6afd625dfd10339cc4a7ba296f32817ab16fb8582d48761227a714a33af363c0826020015183600001518360030154604051610ea193929190613359565b60405180910390a1610eb385856124bc565b5050505050565b60006060806060806060806060600760008a815260200190815260200160002054975087604051908082528060200260200182016040528015610f0c5781602001602082028038833980820191505090505b50965087604051908082528060200260200182016040528015610f4357816020015b6060815260200190600190039081610f2e5790505b50955087604051908082528060200260200182016040528015610f755781602001602082028038833980820191505090505b50945087604051908082528060200260200182016040528015610fac57816020015b6060815260200190600190039081610f975790505b50935087604051908082528060200260200182016040528015610fde5781602001602082028038833980820191505090505b509250876040519080825280602002602001820160405280156110105781602001602082028038833980820191505090505b509150876040519080825280602002602001820160405280156110425781602001602082028038833980820191505090505b50905060008090505b888110156113d4576000600860008c8152602001908152602001600020600061107e60018561241d90919063ffffffff16565b81526020019081526020016000205490506006600082815260200190815260200160002060000160009054906101000a900473ffffffffffffffffffffffffffffffffffffffff168983815181106110d257fe5b602002602001019073ffffffffffffffffffffffffffffffffffffffff16908173ffffffffffffffffffffffffffffffffffffffff16815250506000809054906101000a900473ffffffffffffffffffffffffffffffffffffffff1673ffffffffffffffffffffffffffffffffffffffff1663019848928a848151811061115557fe5b60200260200101516040518263ffffffff1660e01b81526004016111799190613069565b60006040518083038186803b15801561119157600080fd5b505afa1580156111a5573d6000803e3d6000fd5b505050506040513d6000823e3d601f19601f820116820180604052506111ce9190810190612949565b8883815181106111da57fe5b6020026020010181905250600660008281526020019081526020016000206001015487838151811061120857fe5b6020026020010181815250506005600088848151811061122457fe5b602002602001015181526020019081526020016000206000018054600181600116156101000203166002900480601f0160208091040260200160405190810160405280929190818152602001828054600181600116156101000203166002900480156112d15780601f106112a6576101008083540402835291602001916112d1565b820191906000526020600020905b8154815290600101906020018083116112b457829003601f168201915b50505050508683815181106112e257fe5b6020026020010181905250600560008884815181106112fd57fe5b602002602001015181526020019081526020016000206003015485838151811061132357fe5b6020026020010181815250506005600088848151811061133f57fe5b602002602001015181526020019081526020016000206005015484838151811061136557fe5b6020026020010181815250506005600088848151811061138157fe5b6020026020010151815260200190815260200160002060040160009054906101000a900460ff168383815181106113b457fe5b60200260200101901515908115158152505050808060010191505061104b565b50919395975091939597565b600073ffffffffffffffffffffffffffffffffffffffff16600260009054906101000a900473ffffffffffffffffffffffffffffffffffffffff1673ffffffffffffffffffffffffffffffffffffffff161461143b57600080fd5b80600260006101000a81548173ffffffffffffffffffffffffffffffffffffffff021916908373ffffffffffffffffffffffffffffffffffffffff16021790555080600160006101000a81548173ffffffffffffffffffffffffffffffffffffffff021916908373ffffffffffffffffffffffffffffffffffffffff16021790555050565b600860008381526020019081526020016000206000828152602001908152602001600020546004819055506114f361271c565b6006600060045481526020019081526020016000206040518060800160405290816000820160009054906101000a900473ffffffffffffffffffffffffffffffffffffffff1673ffffffffffffffffffffffffffffffffffffffff1673ffffffffffffffffffffffffffffffffffffffff16815260200160018201548152602001600282015481526020016003820160009054906101000a900460ff16151515158152505090506000600560008360200151815260200190815260200160002090506000816009016000846000015173ffffffffffffffffffffffffffffffffffffffff1673ffffffffffffffffffffffffffffffffffffffff16815260200190815260200160002060006101000a81548160ff0219169083600281111561161757fe5b02179055504260096000846020015181526020019081526020016000206000846000015173ffffffffffffffffffffffffffffffffffffffff1673ffffffffffffffffffffffffffffffffffffffff168152602001908152602001600020819055507f14bd13b4df7a34b48398ea3e7bb2d6daccb5c476bf3ef6066cf3a84e767521fa826020015183600001516040516116b2929190613307565b60405180910390a16116c484846124bc565b50505050565b60045481565b60066020528060005260406000206000915090508060000160009054906101000a900473ffffffffffffffffffffffffffffffffffffffff16908060010154908060020154908060030160009054906101000a900460ff16905084565b600060028081111561173b57fe5b9050600060066000600a6000878152602001908152602001600020548152602001908152602001600020905082156117805761177b828260020154610bb3565b61178f565b61178e8282600201546114c0565b5b60018160030160006101000a81548160ff021916908315150217905550606060056000836001015481526020019081526020016000206007018054600181600116156101000203166002900480601f01602080910402602001604051908101604052809291908181526020018280546001816001161561010002031660029004801561185c5780601f106118315761010080835404028352916020019161185c565b820191906000526020600020905b81548152906001019060200180831161183f57829003601f168201915b5050505050905060606000809054906101000a900473ffffffffffffffffffffffffffffffffffffffff1673ffffffffffffffffffffffffffffffffffffffff16638b1a3bb18460000160009054906101000a900473ffffffffffffffffffffffffffffffffffffffff166040518263ffffffff1660e01b81526004016118e39190613069565b60006040518083038186803b1580156118fb57600080fd5b505afa15801561190f573d6000803e3d6000fd5b505050506040513d6000823e3d601f19601f820116820180604052506119389190810190612949565b905084600b8360405161194b9190613052565b9081526020016040518091039020826040516119679190613052565b908152602001604051809103902060006101000a81548160ff021916908315150217905550505050505050565b6005602052806000526040600020600091509050806000018054600181600116156101000203166002900480601f016020809104026020016040519081016040528092919081815260200182805460018160011615610100020316600290048015611a405780601f10611a1557610100808354040283529160200191611a40565b820191906000526020600020905b815481529060010190602001808311611a2357829003601f168201915b505050505090806001018054600181600116156101000203166002900480601f016020809104026020016040519081016040528092919081815260200182805460018160011615610100020316600290048015611ade5780601f10611ab357610100808354040283529160200191611ade565b820191906000526020600020905b815481529060010190602001808311611ac157829003601f168201915b505050505090806002018054600181600116156101000203166002900480601f016020809104026020016040519081016040528092919081815260200182805460018160011615610100020316600290048015611b7c5780601f10611b5157610100808354040283529160200191611b7c565b820191906000526020600020905b815481529060010190602001808311611b5f57829003601f168201915b5050505050908060030154908060040160009054906101000a900460ff16908060050154908060060160009054906101000a900460ff16908060060160019054906101000a900460ff1690806007018054600181600116156101000203166002900480601f016020809104026020016040519081016040528092919081815260200182805460018160011615610100020316600290048015611c5f5780601f10611c3457610100808354040283529160200191611c5f565b820191906000526020600020905b815481529060010190602001808311611c4257829003601f168201915b505050505090806008015490508a565b600060066000600a600085815260200190815260200160002054815260200190815260200160002060030160009054906101000a900460ff169050919050565b806005600082815260200190815260200160002060040160009054906101000a900460ff1680611cf5575060006005600083815260200190815260200160002060050154115b611d34576040517f08c379a0000000000000000000000000000000000000000000000000000000008152600401611d2b906132cc565b60405180910390fd5b6005600082815260200190815260200160002060060160009054906101000a900460ff16611d97576040517f08c379a0000000000000000000000000000000000000000000000000000000008152600401611d8e906132ac565b60405180910390fd5b611dad620151804261247290919063ffffffff16565b6009600083815260200190815260200160002060003373ffffffffffffffffffffffffffffffffffffffff1673ffffffffffffffffffffffffffffffffffffffff1681526020019081526020016000205410611e3e576040517f08c379a0000000000000000000000000000000000000000000000000000000008152600401611e359061322c565b60405180910390fd5b600280811115611e4a57fe5b6005600083815260200190815260200160002060090160003373ffffffffffffffffffffffffffffffffffffffff1673ffffffffffffffffffffffffffffffffffffffff16815260200190815260200160002060009054906101000a900460ff166002811115611eb657fe5b1415611ef7576040517f08c379a0000000000000000000000000000000000000000000000000000000008152600401611eee9061326c565b60405180910390fd5b60016002811115611f0457fe5b6005600083815260200190815260200160002060090160003373ffffffffffffffffffffffffffffffffffffffff1673ffffffffffffffffffffffffffffffffffffffff16815260200190815260200160002060009054906101000a900460ff166002811115611f7057fe5b1415611fb1576040517f08c379a0000000000000000000000000000000000000000000000000000000008152600401611fa89061324c565b60405180910390fd5b600060056000848152602001908152602001600020905060008160060160019054906101000a900460ff166002811115611fe757fe5b9050611fff600160045461241d90919063ffffffff16565b60048190555061202c6001600760008481526020019081526020016000205461241d90919063ffffffff16565b6007600083815260200190815260200160002081905550600454600860008381526020019081526020016000206000600760008581526020019081526020016000205481526020019081526020016000208190555060006006600060045481526020019081526020016000209050338160000160006101000a81548173ffffffffffffffffffffffffffffffffffffffff021916908373ffffffffffffffffffffffffffffffffffffffff1602179055508481600101819055506007600083815260200190815260200160002054816002018190555060018360090160003373ffffffffffffffffffffffffffffffffffffffff1673ffffffffffffffffffffffffffffffffffffffff16815260200190815260200160002060006101000a81548160ff0219169083600281111561216057fe5b021790555060028081111561217157fe5b8360060160019054906101000a900460ff16600281111561218e57fe5b14156123dd5760606000809054906101000a900473ffffffffffffffffffffffffffffffffffffffff1673ffffffffffffffffffffffffffffffffffffffff16638b1a3bb18360000160009054906101000a900473ffffffffffffffffffffffffffffffffffffffff166040518263ffffffff1660e01b81526004016122149190613069565b60006040518083038186803b15801561222c57600080fd5b505afa158015612240573d6000803e3d6000fd5b505050506040513d6000823e3d601f19601f820116820180604052506122699190810190612949565b90506060846007018054600181600116156101000203166002900480601f0160208091040260200160405190810160405280929190818152602001828054600181600116156101000203166002900480156123055780601f106122da57610100808354040283529160200191612305565b820191906000526020600020905b8154815290600101906020018083116122e857829003601f168201915b505050505090506000600160009054906101000a900473ffffffffffffffffffffffffffffffffffffffff1673ffffffffffffffffffffffffffffffffffffffff1663821bc7a484846040518363ffffffff1660e01b815260040161236b92919061313d565b602060405180830381600087803b15801561238557600080fd5b505af1158015612399573d6000803e3d6000fd5b505050506040513d601f19601f820116820180604052506123bd91908101906128e4565b9050600454600a6000838152602001908152602001600020819055505050505b7f27f73492263c83d57e845ca0500933ea9535d3b9fd093cc9c953c176f392a5da853360405161240e929190613330565b60405180910390a15050505050565b600080828401905083811015612468576040517f08c379a000000000000000000000000000000000000000000000000000000000815260040161245f9061328c565b60405180910390fd5b8091505092915050565b60006124b483836040518060400160405280601e81526020017f536166654d6174683a207375627472616374696f6e206f766572666c6f770000815250612641565b905092915050565b600060076000848152602001908152602001600020549050600060086000858152602001908152602001600020600083815260200190815260200160002054905060006006600083815260200190815260200160002090508284146125d257600060086000878152602001908152602001600020600086815260200190815260200160002054905060006006600083815260200190815260200160002090508260000160009054906101000a900473ffffffffffffffffffffffffffffffffffffffff168160000160006101000a81548173ffffffffffffffffffffffffffffffffffffffff021916908373ffffffffffffffffffffffffffffffffffffffff1602179055508260010154816001018190555050505b6000600860008781526020019081526020016000206000858152602001908152602001600020819055506126236001600760008881526020019081526020016000205461247290919063ffffffff16565b60076000878152602001908152602001600020819055505050505050565b6000838311158290612689576040517f08c379a0000000000000000000000000000000000000000000000000000000008152600401612680919061311b565b60405180910390fd5b5060008385039050809150509392505050565b828054600181600116156101000203166002900490600052602060002090601f016020900481019282601f106126dd57805160ff191683800117855561270b565b8280016001018555821561270b579182015b8281111561270a5782518255916020019190600101906126ef565b5b509050612718919061275c565b5090565b6040518060800160405280600073ffffffffffffffffffffffffffffffffffffffff16815260200160008152602001600081526020016000151581525090565b61277e91905b8082111561277a576000816000905550600101612762565b5090565b90565b60008135905061279081613791565b92915050565b6000813590506127a5816137a8565b92915050565b6000813590506127ba816137bf565b92915050565b6000815190506127cf816137bf565b92915050565b600082601f8301126127e657600080fd5b81356127f96127f482613531565b613504565b9150808252602083016020830185838301111561281557600080fd5b612820838284613731565b50505092915050565b600082601f83011261283a57600080fd5b815161284d61284882613531565b613504565b9150808252602083016020830185838301111561286957600080fd5b612874838284613740565b50505092915050565b60008135905061288c816137d6565b92915050565b6000602082840312156128a457600080fd5b60006128b284828501612781565b91505092915050565b6000602082840312156128cd57600080fd5b60006128db848285016127ab565b91505092915050565b6000602082840312156128f657600080fd5b6000612904848285016127c0565b91505092915050565b6000806040838503121561292057600080fd5b600061292e858286016127ab565b925050602061293f85828601612796565b9150509250929050565b60006020828403121561295b57600080fd5b600082015167ffffffffffffffff81111561297557600080fd5b61298184828501612829565b91505092915050565b6000806040838503121561299d57600080fd5b600083013567ffffffffffffffff8111156129b757600080fd5b6129c3858286016127d5565b925050602083013567ffffffffffffffff8111156129e057600080fd5b6129ec858286016127d5565b9150509250929050565b600080600080600080600080610100898b031215612a1357600080fd5b600089013567ffffffffffffffff811115612a2d57600080fd5b612a398b828c016127d5565b985050602089013567ffffffffffffffff811115612a5657600080fd5b612a628b828c016127d5565b975050604089013567ffffffffffffffff811115612a7f57600080fd5b612a8b8b828c016127d5565b9650506060612a9c8b828c0161287d565b9550506080612aad8b828c01612796565b94505060a0612abe8b828c0161287d565b93505060c0612acf8b828c01612796565b92505060e089013567ffffffffffffffff811115612aec57600080fd5b612af88b828c016127d5565b9150509295985092959890939650565b600060208284031215612b1a57600080fd5b6000612b288482850161287d565b91505092915050565b60008060408385031215612b4457600080fd5b6000612b528582860161287d565b9250506020612b638582860161287d565b9150509250929050565b6000612b798383612bd8565b60208301905092915050565b6000612b918383612d85565b60208301905092915050565b6000612ba98383612e1c565b905092915050565b6000612bbd8383613034565b60208301905092915050565b612bd2816136e9565b82525050565b612be181613684565b82525050565b612bf081613684565b82525050565b6000612c018261359d565b612c0b8185613613565b9350612c168361355d565b8060005b83811015612c47578151612c2e8882612b6d565b9750612c39836135df565b925050600181019050612c1a565b5085935050505092915050565b6000612c5f826135a8565b612c698185613624565b9350612c748361356d565b8060005b83811015612ca5578151612c8c8882612b85565b9750612c97836135ec565b925050600181019050612c78565b5085935050505092915050565b6000612cbd826135b3565b612cc78185613635565b935083602082028501612cd98561357d565b8060005b85811015612d155784840389528151612cf68582612b9d565b9450612d01836135f9565b925060208a01995050600181019050612cdd565b50829750879550505050505092915050565b6000612d32826135be565b612d3c8185613646565b9350612d478361358d565b8060005b83811015612d78578151612d5f8882612bb1565b9750612d6a83613606565b925050600181019050612d4b565b5085935050505092915050565b612d8e81613696565b82525050565b612d9d81613696565b82525050565b612dac816136fb565b82525050565b6000612dbd826135d4565b612dc78185613668565b9350612dd7818560208601613740565b612de081613773565b840191505092915050565b6000612df6826135d4565b612e008185613679565b9350612e10818560208601613740565b80840191505092915050565b6000612e27826135c9565b612e318185613657565b9350612e41818560208601613740565b612e4a81613773565b840191505092915050565b6000612e60826135c9565b612e6a8185613668565b9350612e7a818560208601613740565b612e8381613773565b840191505092915050565b6000612e9b601983613668565b91507f54656d7062616e6e6564203c20323420686f7572732061676f000000000000006000830152602082019050919050565b6000612edb601983613668565b91507f55736572206861732070656e64696e6720617070726f76616c000000000000006000830152602082019050919050565b6000612f1b601383613668565b91507f55736572206861732068617320626f756e7479000000000000000000000000006000830152602082019050919050565b6000612f5b601b83613668565b91507f536166654d6174683a206164646974696f6e206f766572666c6f7700000000006000830152602082019050919050565b6000612f9b602483613668565b91507f426f756e7479206e6f7420617661696c61626c6520666f72206170706c69636160008301527f74696f6e000000000000000000000000000000000000000000000000000000006020830152604082019050919050565b6000613001601383613668565b91507f426f756e7479206e6f7420696e2073746f636b000000000000000000000000006000830152602082019050919050565b61303d816136df565b82525050565b61304c816136df565b82525050565b600061305e8284612deb565b915081905092915050565b600060208201905061307e6000830184612be7565b92915050565b60006060820190506130996000830186612be7565b6130a66020830185613043565b6130b36040830184613043565b949350505050565b60006080820190506130d06000830187612be7565b6130dd6020830186613043565b6130ea6040830185613043565b6130f76060830184612d94565b95945050505050565b60006020820190506131156000830184612d94565b92915050565b600060208201905081810360008301526131358184612db2565b905092915050565b600060408201905081810360008301526131578185612db2565b9050818103602083015261316b8184612db2565b90509392505050565b600061014082019050818103600083015261318f818d612e55565b905081810360208301526131a3818c612e55565b905081810360408301526131b7818b612e55565b90506131c6606083018a613043565b6131d36080830189612d94565b6131e060a0830188613043565b6131ed60c0830187612d94565b6131fa60e0830186612da3565b81810361010083015261320d8185612e55565b905061321d610120830184613043565b9b9a5050505050505050505050565b6000602082019050818103600083015261324581612e8e565b9050919050565b6000602082019050818103600083015261326581612ece565b9050919050565b6000602082019050818103600083015261328581612f0e565b9050919050565b600060208201905081810360008301526132a581612f4e565b9050919050565b600060208201905081810360008301526132c581612f8e565b9050919050565b600060208201905081810360008301526132e581612ff4565b9050919050565b60006020820190506133016000830184613043565b92915050565b600060408201905061331c6000830185613043565b6133296020830184612be7565b9392505050565b60006040820190506133456000830185613043565b6133526020830184612bc9565b9392505050565b600060608201905061336e6000830186613043565b61337b6020830185612be7565b6133886040830184613043565b949350505050565b6000610100820190506133a6600083018b613043565b81810360208301526133b8818a612bf6565b905081810360408301526133cc8189612cb2565b905081810360608301526133e08188612d27565b905081810360808301526133f48187612cb2565b905081810360a08301526134088186612d27565b905081810360c083015261341c8185612d27565b905081810360e08301526134308184612c54565b90509998505050505050505050565b600061012082019050613455600083018c613043565b8181036020830152613467818b612cb2565b9050818103604083015261347b818a612cb2565b9050818103606083015261348f8189612cb2565b905081810360808301526134a38188612d27565b905081810360a08301526134b78187612c54565b905081810360c08301526134cb8186612d27565b905081810360e08301526134df8185612c54565b90508181036101008301526134f48184612c54565b90509a9950505050505050505050565b6000604051905081810181811067ffffffffffffffff8211171561352757600080fd5b8060405250919050565b600067ffffffffffffffff82111561354857600080fd5b601f19601f8301169050602081019050919050565b6000819050602082019050919050565b6000819050602082019050919050565b6000819050602082019050919050565b6000819050602082019050919050565b600081519050919050565b600081519050919050565b600081519050919050565b600081519050919050565b600081519050919050565b600081519050919050565b6000602082019050919050565b6000602082019050919050565b6000602082019050919050565b6000602082019050919050565b600082825260208201905092915050565b600082825260208201905092915050565b600082825260208201905092915050565b600082825260208201905092915050565b600082825260208201905092915050565b600082825260208201905092915050565b600081905092915050565b600061368f826136bf565b9050919050565b60008115159050919050565b6000819050919050565b60008190506136ba82613784565b919050565b600073ffffffffffffffffffffffffffffffffffffffff82169050919050565b6000819050919050565b60006136f48261370d565b9050919050565b6000613706826136ac565b9050919050565b60006137188261371f565b9050919050565b600061372a826136bf565b9050919050565b82818337600083830152505050565b60005b8381101561375e578082015181840152602081019050613743565b8381111561376d576000848401525b50505050565b6000601f19601f8301169050919050565b6003811061378e57fe5b50565b61379a81613684565b81146137a557600080fd5b50565b6137b181613696565b81146137bc57600080fd5b50565b6137c8816136a2565b81146137d357600080fd5b50565b6137df816136df565b81146137ea57600080fd5b5056fea26469706673582212209731cc73370de71595130c95b1c374079296bcd25be12497eebbf777d718b6e464736f6c63430006010033",
  "source": "//SPDX-License-Identifier: MIT\npragma solidity >=0.6.0 <0.8.0;\npragma experimental ABIEncoderV2;\n\nimport \"./interfaces/IBounties.sol\";\nimport \"./interfaces/ITwitterConsumer.sol\";\n\ncontract Bounties is IBounties {\n    //@param _users - the address of the deployed users contract\n    constructor(address _users) public {\n        userContract = IUsers(_users);\n        userContract.setBounty(address(this));\n    }\n\n    /// MUTABLE FUNCTIONS ///\n\n    function setConsumer(address _at) public override {\n        require(consumerContract == address(0));\n        consumerContract = _at;\n        consumerInstance = ITwitterConsumer(_at);\n    }\n\n    function addBounty(\n        string memory _title,\n        string memory _description,\n        string memory _imageUrl,\n        uint256 _award,\n        bool _infinite,\n        uint256 _quantity,\n        bool _manual,\n        string memory _tweetId\n    ) public override returns (uint256 _nonce) {\n        bountyNonce = bountyNonce.add(1);\n        _nonce = bountyNonce;\n        Bounty storage bounty = bounties[_nonce];\n        //trigger initialization would need to be more robust with > 1 chainlink adapter\n        Trigger trigger = _manual ? Trigger.Manual : Trigger.Twitter;\n        bounty.name = _title;\n        bounty.description = _description;\n        bounty.imageUrl = _imageUrl;\n        bounty.award = _award;\n        bounty.infinite = _infinite;\n        bounty.quantity = _quantity;\n        bounty.trigger = trigger;\n        bounty.tweet = _tweetId;\n        bounty.active = true;\n        emit BountyAdded(_nonce);\n    }\n\n    function applyForBounty(uint256 _nonce)\n        public\n        override\n        beforeBountyApp(_nonce)\n    {\n        Bounty storage bounty = bounties[_nonce];\n        uint256 trigger = uint256(bounty.trigger);\n        requestNonce = requestNonce.add(1);\n        pendingIndices[trigger] = pendingIndices[trigger].add(1);\n        pendingRequests[trigger][pendingIndices[trigger]] = requestNonce;\n        Request storage request = requests[requestNonce];\n        request.user = msg.sender;\n        request.bounty = _nonce;\n        request.pendingIndex = pendingIndices[trigger];\n        bounty.status[msg.sender] = BountyState.Pending;\n        if (bounty.trigger == Trigger.Twitter) {\n            string memory userId = userContract.getTwitterId(request.user);\n            string memory tweetId = bounty.tweet;\n            bytes32 requestId = consumerInstance.checkRetweets(userId, tweetId);\n            chainlinkRequests[requestId] = requestNonce;\n        }\n        emit BountyApplication(_nonce, msg.sender);\n    }\n\n    function approveBountyRequest(uint256 _trigger, uint256 _index)\n        public\n        override\n    {\n        uint requestNonce = pendingRequests[_trigger][_index];\n        Request memory request = requests[requestNonce];\n        Bounty storage bounty = bounties[request.bounty];\n        if (!bounty.infinite) {\n            bounty.quantity = bounty.quantity.sub(1);\n            if (bounty.quantity == 0) delistBounty(request.bounty);\n        }\n        bounty.status[request.user] = BountyState.Awarded;\n        bounty.holders.push(request.user);\n        userContract.addBounty(request.user, request.bounty, bounty.award);\n        emit BountyAwarded(request.bounty, request.user, bounty.award);\n        removePendingRequest(_trigger, _index);\n    }\n\n    function rejectBountyRequest(uint256 _trigger, uint256 _index)\n        public\n        override\n    {\n        requestNonce = pendingRequests[_trigger][_index];\n        Request memory request = requests[requestNonce];\n        Bounty storage bounty = bounties[request.bounty];\n        bounty.status[request.user] = BountyState.None;\n        tempban[request.bounty][request.user] = now;\n        emit BountyRejected(request.bounty, request.user);\n        removePendingRequest(_trigger, _index);\n    }\n\n    function delistBounty(uint256 _nonce) public override {\n        Bounty storage bounty = bounties[_nonce];\n        bounty.active = false;\n        emit BountyDelisted(_nonce);\n    }\n\n    /**\n     * Internal helper function to handle logic of removing pending requests from storage\n     *\n     * @param _trigger - the type of request being removed\n     * @dev can add more uint/ enum codes for triggers. 1 = manual, 2 = retweet verification\n     * @param _index - the index of the pending request to remove\n     */\n    function removePendingRequest(uint256 _trigger, uint256 _index) internal {\n        uint pendingIndex = pendingIndices[_trigger];\n        uint lastNonce = pendingRequests[_trigger][pendingIndex];\n        Request storage last = requests[lastNonce];\n        if (_index != pendingIndex) {\n            uint swapNonce = pendingRequests[_trigger][_index];\n            Request storage swap = requests[swapNonce];\n            swap.user = last.user;\n            swap.bounty = last.bounty;\n        }\n        pendingRequests[_trigger][pendingIndex] = 0;\n        pendingIndices[_trigger] = pendingIndices[_trigger].sub(1);\n    }\n\n    function fufillChainlinkRequest(bytes32 _requestId, bool _status)\n        public\n        override\n    {\n        uint256 trigger = uint(Trigger.Twitter);\n        Request storage request = requests[chainlinkRequests[_requestId]];\n        if (_status)\n            approveBountyRequest(trigger, request.pendingIndex);\n        else\n            rejectBountyRequest(trigger, request.pendingIndex);\n        request.fulfilled = true;\n        string memory tweet = bounties[request.bounty].tweet;\n        string memory username = userContract.getTwitterId(request.user);\n        hasRetweeted[tweet][username] = _status;\n    }\n\n    /// VIEWABLE FUNCTIONS ///\n\n    function pendingBountyRequests(uint256 _trigger)\n        public\n        view\n        override\n        returns (\n            uint256 _nonce,\n            address[] memory _users,\n            string[] memory _userNames,\n            uint256[] memory _bounties,\n            string[] memory _bountyNames,\n            uint256[] memory _bountyAwards,\n            uint256[] memory _bountyQuantities,\n            bool[] memory _bountyInfinite\n        )\n    {\n        _nonce = pendingIndices[_trigger];\n        _users = new address[](_nonce);\n        _userNames = new string[](_nonce);\n        _bounties = new uint256[](_nonce);\n        _bountyNames = new string[](_nonce);\n        _bountyAwards = new uint256[](_nonce);\n        _bountyQuantities = new uint256[](_nonce);\n        _bountyInfinite = new bool[](_nonce);\n        for (uint256 i = 0; i < _nonce; i++) {\n            uint requestNonce = pendingRequests[_trigger][i.add(1)];\n            _users[i] = requests[requestNonce].user;\n            _userNames[i] = userContract.name(_users[i]);\n            _bounties[i] = requests[requestNonce].bounty;\n            _bountyNames[i] = bounties[_bounties[i]].name;\n            _bountyAwards[i] = bounties[_bounties[i]].award;\n            _bountyQuantities[i] = bounties[_bounties[i]].quantity;\n            _bountyInfinite[i] = bounties[_bounties[i]].infinite;\n            \n        }\n    }\n\n    function getBounties()\n        public\n        view\n        override\n        returns (\n            uint256 _bountyNonce,\n            string[] memory _titles,\n            string[] memory _descriptions,\n            string[] memory _imageUrls,\n            uint256[] memory _awards,\n            bool[] memory _infinites,\n            uint256[] memory _quantities,\n            bool[] memory _actives,\n            bool[] memory _manuals\n        )\n    {\n        _bountyNonce = bountyNonce;\n        _titles = new string[](_bountyNonce);\n        _descriptions = new string[](_bountyNonce);\n        _imageUrls = new string[](_bountyNonce);\n        _awards = new uint256[](_bountyNonce);\n        _infinites = new bool[](_bountyNonce);\n        _quantities = new uint256[](_bountyNonce);\n        _actives = new bool[](_bountyNonce);\n        _manuals = new bool[](_bountyNonce);\n        for (uint256 i = 0; i < _bountyNonce; i++) {\n            _titles[i] = bounties[i.add(1)].name;\n            _descriptions[i] = bounties[i.add(1)].description;\n            _imageUrls[i] = bounties[i.add(1)].imageUrl;\n            _awards[i] = bounties[i.add(1)].award;\n            _infinites[i] = bounties[i.add(1)].infinite;\n            _quantities[i] = bounties[i.add(1)].quantity;\n            _actives[i] = bounties[i.add(1)].active;\n            _manuals[i] = bounties[i.add(1)].trigger == Trigger.Manual;\n        }\n    }\n\n    function checkRetweet(string memory _userid, string memory _tweet)\n        public\n        view\n        override\n        returns (bool)\n    {\n        return hasRetweeted[_tweet][_userid];\n    }\n\n    function checkFufillment(bytes32 _requestId)\n        public\n        view\n        override\n        returns (bool)\n    {\n        return requests[chainlinkRequests[_requestId]].fulfilled;\n    }\n}\n",
  "sourcePath": "/home/kiwi/Desktop/sandbox/contracts/contracts/Bounties.sol",
  "compiler": {
    "name": "solc",
    "version": "0.6.1+commit.e6f7d5a4.Emscripten.clang"
  },
  "schemaVersion": "3.3.1",
  "updatedAt": "2021-01-11T18:26:36.517Z",
  "networkType": "ethereum",
  "devdoc": {
    "methods": {}
  },
  "userdoc": {
    "methods": {
      "pendingBountyRequests(uint256)": {
        "notice": "VIEWABLE FUNCTIONS ///"
      },
      "setConsumer(address)": {
        "notice": "MUTABLE FUNCTIONS ///"
      }
    }
  }
}