{
  "contractName": "Items",
  "abi": [
    {
      "inputs": [
        {
          "internalType": "address",
          "name": "_users",
          "type": "address"
        },
        {
          "internalType": "address",
          "name": "_forwarder",
          "type": "address"
        }
      ],
      "stateMutability": "nonpayable",
      "type": "constructor"
    },
    {
      "anonymous": false,
      "inputs": [
        {
          "indexed": false,
          "internalType": "uint256",
          "name": "_nonce",
          "type": "uint256"
        }
      ],
      "name": "ItemAdded",
      "type": "event"
    },
    {
      "anonymous": false,
      "inputs": [
        {
          "indexed": false,
          "internalType": "uint256",
          "name": "_nonce",
          "type": "uint256"
        }
      ],
      "name": "ItemDelisted",
      "type": "event"
    },
    {
      "anonymous": false,
      "inputs": [
        {
          "indexed": false,
          "internalType": "uint256",
          "name": "_nonce",
          "type": "uint256"
        },
        {
          "indexed": false,
          "internalType": "address",
          "name": "_by",
          "type": "address"
        },
        {
          "indexed": false,
          "internalType": "uint256",
          "name": "_burned",
          "type": "uint256"
        }
      ],
      "name": "ItemPurchased",
      "type": "event"
    },
    {
      "inputs": [],
      "name": "getTrustedForwarder",
      "outputs": [
        {
          "internalType": "address",
          "name": "",
          "type": "address"
        }
      ],
      "stateMutability": "view",
      "type": "function",
      "constant": true
    },
    {
      "inputs": [
        {
          "internalType": "address",
          "name": "forwarder",
          "type": "address"
        }
      ],
      "name": "isTrustedForwarder",
      "outputs": [
        {
          "internalType": "bool",
          "name": "",
          "type": "bool"
        }
      ],
      "stateMutability": "view",
      "type": "function",
      "constant": true
    },
    {
      "inputs": [],
      "name": "itemNonce",
      "outputs": [
        {
          "internalType": "uint256",
          "name": "",
          "type": "uint256"
        }
      ],
      "stateMutability": "view",
      "type": "function",
      "constant": true
    },
    {
      "inputs": [
        {
          "internalType": "uint256",
          "name": "",
          "type": "uint256"
        }
      ],
      "name": "items",
      "outputs": [
        {
          "internalType": "string",
          "name": "title",
          "type": "string"
        },
        {
          "internalType": "string",
          "name": "description",
          "type": "string"
        },
        {
          "internalType": "string",
          "name": "imageUrl",
          "type": "string"
        },
        {
          "internalType": "uint256",
          "name": "cost",
          "type": "uint256"
        },
        {
          "internalType": "bool",
          "name": "infinite",
          "type": "bool"
        },
        {
          "internalType": "uint256",
          "name": "quantity",
          "type": "uint256"
        },
        {
          "internalType": "bool",
          "name": "active",
          "type": "bool"
        }
      ],
      "stateMutability": "view",
      "type": "function",
      "constant": true
    },
    {
      "inputs": [],
      "name": "trustedForwarder",
      "outputs": [
        {
          "internalType": "address",
          "name": "",
          "type": "address"
        }
      ],
      "stateMutability": "view",
      "type": "function",
      "constant": true
    },
    {
      "inputs": [],
      "name": "versionRecipient",
      "outputs": [
        {
          "internalType": "string",
          "name": "",
          "type": "string"
        }
      ],
      "stateMutability": "view",
      "type": "function",
      "constant": true
    },
    {
      "inputs": [
        {
          "internalType": "string",
          "name": "_title",
          "type": "string"
        },
        {
          "internalType": "string",
          "name": "_description",
          "type": "string"
        },
        {
          "internalType": "string",
          "name": "_imageUrl",
          "type": "string"
        },
        {
          "internalType": "uint256",
          "name": "_cost",
          "type": "uint256"
        },
        {
          "internalType": "bool",
          "name": "_infinite",
          "type": "bool"
        },
        {
          "internalType": "uint256",
          "name": "_quantity",
          "type": "uint256"
        }
      ],
      "name": "addItem",
      "outputs": [
        {
          "internalType": "uint256",
          "name": "_nonce",
          "type": "uint256"
        }
      ],
      "stateMutability": "nonpayable",
      "type": "function"
    },
    {
      "inputs": [
        {
          "internalType": "uint256",
          "name": "_nonce",
          "type": "uint256"
        }
      ],
      "name": "buyItem",
      "outputs": [
        {
          "internalType": "uint256",
          "name": "_balance",
          "type": "uint256"
        }
      ],
      "stateMutability": "nonpayable",
      "type": "function"
    },
    {
      "inputs": [
        {
          "internalType": "uint256",
          "name": "_nonce",
          "type": "uint256"
        }
      ],
      "name": "delistItem",
      "outputs": [],
      "stateMutability": "nonpayable",
      "type": "function"
    },
    {
      "inputs": [],
      "name": "getItems",
      "outputs": [
        {
          "internalType": "uint256",
          "name": "_itemNonce",
          "type": "uint256"
        },
        {
          "internalType": "string[]",
          "name": "_titles",
          "type": "string[]"
        },
        {
          "internalType": "string[]",
          "name": "_descriptions",
          "type": "string[]"
        },
        {
          "internalType": "string[]",
          "name": "_imageUrls",
          "type": "string[]"
        },
        {
          "internalType": "uint256[]",
          "name": "_costs",
          "type": "uint256[]"
        },
        {
          "internalType": "bool[]",
          "name": "_infinites",
          "type": "bool[]"
        },
        {
          "internalType": "uint256[]",
          "name": "_quantities",
          "type": "uint256[]"
        },
        {
          "internalType": "bool[]",
          "name": "_actives",
          "type": "bool[]"
        }
      ],
      "stateMutability": "view",
      "type": "function",
      "constant": true
    }
  ],
  "bytecode": "0x60806040526040518060400160405280600581526020017f322e302e3000000000000000000000000000000000000000000000000000000081525060049080519060200190620000519291906200019f565b503480156200005f57600080fd5b506040516200250338038062002503833981810160405281019062000085919062000265565b81600160006101000a81548173ffffffffffffffffffffffffffffffffffffffff021916908373ffffffffffffffffffffffffffffffffffffffff160217905550600160009054906101000a900473ffffffffffffffffffffffffffffffffffffffff1673ffffffffffffffffffffffffffffffffffffffff1663165ed276306040518263ffffffff1660e01b8152600401620001239190620002b7565b600060405180830381600087803b1580156200013e57600080fd5b505af115801562000153573d6000803e3d6000fd5b50505050806000806101000a81548173ffffffffffffffffffffffffffffffffffffffff021916908373ffffffffffffffffffffffffffffffffffffffff160217905550505062000322565b828054600181600116156101000203166002900490600052602060002090601f016020900481019282601f10620001e257805160ff191683800117855562000213565b8280016001018555821562000213579182015b8281111562000212578251825591602001919060010190620001f5565b5b50905062000222919062000226565b5090565b6200024b91905b80821115620002475760008160009055506001016200022d565b5090565b90565b6000815190506200025f8162000308565b92915050565b600080604083850312156200027957600080fd5b600062000289858286016200024e565b92505060206200029c858286016200024e565b9150509250929050565b620002b181620002d4565b82525050565b6000602082019050620002ce6000830184620002a6565b92915050565b6000620002e182620002e8565b9050919050565b600073ffffffffffffffffffffffffffffffffffffffff82169050919050565b6200031381620002d4565b81146200031f57600080fd5b50565b6121d180620003326000396000f3fe608060405234801561001057600080fd5b506004361061009e5760003560e01c8063b8a2e52411610066578063b8a2e52414610150578063bfb231d214610180578063cd89500f146101b6578063ce1b815f146101d4578063e7fb74c7146101f25761009e565b806310061631146100a3578063410d59cc146100bf578063486ff0cd146100e4578063572b6c05146101025780637da0a87714610132575b600080fd5b6100bd60048036038101906100b8919061182c565b610222565b005b6100c7610385565b6040516100db989796959493929190611ea5565b60405180910390f35b6100ec610984565b6040516100f99190611ced565b60405180910390f35b61011c60048036038101906101179190611732565b610a22565b6040516101299190611cd2565b60405180910390f35b61013a610a7b565b6040516101479190611c65565b60405180910390f35b61016a6004803603810190610165919061175b565b610aa0565b6040516101779190611e53565b60405180910390f35b61019a6004803603810190610195919061182c565b610ca6565b6040516101ad9796959493929190611d0f565b60405180910390f35b6101be610eca565b6040516101cb9190611e53565b60405180910390f35b6101dc610ed0565b6040516101e99190611c65565b60405180910390f35b61020c6004803603810190610207919061182c565b610ef9565b6040516102199190611e53565b60405180910390f35b6002600160009054906101000a900473ffffffffffffffffffffffffffffffffffffffff1673ffffffffffffffffffffffffffffffffffffffff1663d590f8c961026a6114af565b6040518263ffffffff1660e01b81526004016102869190611c80565b60206040518083038186803b15801561029e57600080fd5b505afa1580156102b2573d6000803e3d6000fd5b505050506040513d601f19601f820116820180604052508101906102d69190611855565b14610316576040517f08c379a000000000000000000000000000000000000000000000000000000000815260040161030d90611dd3565b60405180910390fd5b600060036000838152602001908152602001600020905060008160060160006101000a81548160ff0219169083151502179055507fa4b62d701729d2038b6683e9584f5ea4479ea94a225c6e81b838699093b9ca20826040516103799190611e53565b60405180910390a15050565b6000606080606080606080606060025497508767ffffffffffffffff811180156103ae57600080fd5b506040519080825280602002602001820160405280156103e257816020015b60608152602001906001900390816103cd5790505b5096508767ffffffffffffffff811180156103fc57600080fd5b5060405190808252806020026020018201604052801561043057816020015b606081526020019060019003908161041b5790505b5095508767ffffffffffffffff8111801561044a57600080fd5b5060405190808252806020026020018201604052801561047e57816020015b60608152602001906001900390816104695790505b5094508767ffffffffffffffff8111801561049857600080fd5b506040519080825280602002602001820160405280156104c75781602001602082028036833780820191505090505b5093508767ffffffffffffffff811180156104e157600080fd5b506040519080825280602002602001820160405280156105105781602001602082028036833780820191505090505b5092508767ffffffffffffffff8111801561052a57600080fd5b506040519080825280602002602001820160405280156105595781602001602082028036833780820191505090505b5091508767ffffffffffffffff8111801561057357600080fd5b506040519080825280602002602001820160405280156105a25781602001602082028036833780820191505090505b50905060008090505b8881101561097957600360006105cb6001846114eb90919063ffffffff16565b81526020019081526020016000206000018054600181600116156101000203166002900480601f0160208091040260200160405190810160405280929190818152602001828054600181600116156101000203166002900480156106705780601f1061064557610100808354040283529160200191610670565b820191906000526020600020905b81548152906001019060200180831161065357829003601f168201915b505050505088828151811061068157fe5b6020026020010181905250600360006106a46001846114eb90919063ffffffff16565b81526020019081526020016000206001018054600181600116156101000203166002900480601f0160208091040260200160405190810160405280929190818152602001828054600181600116156101000203166002900480156107495780601f1061071e57610100808354040283529160200191610749565b820191906000526020600020905b81548152906001019060200180831161072c57829003601f168201915b505050505087828151811061075a57fe5b60200260200101819052506003600061077d6001846114eb90919063ffffffff16565b81526020019081526020016000206002018054600181600116156101000203166002900480601f0160208091040260200160405190810160405280929190818152602001828054600181600116156101000203166002900480156108225780601f106107f757610100808354040283529160200191610822565b820191906000526020600020905b81548152906001019060200180831161080557829003601f168201915b505050505086828151811061083357fe5b6020026020010181905250600360006108566001846114eb90919063ffffffff16565b81526020019081526020016000206003015485828151811061087457fe5b602002602001018181525050600360006108986001846114eb90919063ffffffff16565b815260200190815260200160002060040160009054906101000a900460ff168482815181106108c357fe5b602002602001019015159081151581525050600360006108ed6001846114eb90919063ffffffff16565b81526020019081526020016000206005015483828151811061090b57fe5b6020026020010181815250506003600061092f6001846114eb90919063ffffffff16565b815260200190815260200160002060060160009054906101000a900460ff1682828151811061095a57fe5b60200260200101901515908115158152505080806001019150506105ab565b509091929394959697565b60048054600181600116156101000203166002900480601f016020809104026020016040519081016040528092919081815260200182805460018160011615610100020316600290048015610a1a5780601f106109ef57610100808354040283529160200191610a1a565b820191906000526020600020905b8154815290600101906020018083116109fd57829003601f168201915b505050505081565b60008060009054906101000a900473ffffffffffffffffffffffffffffffffffffffff1673ffffffffffffffffffffffffffffffffffffffff168273ffffffffffffffffffffffffffffffffffffffff16149050919050565b6000809054906101000a900473ffffffffffffffffffffffffffffffffffffffff1681565b60006002600160009054906101000a900473ffffffffffffffffffffffffffffffffffffffff1673ffffffffffffffffffffffffffffffffffffffff1663d590f8c9610aea6114af565b6040518263ffffffff1660e01b8152600401610b069190611c80565b60206040518083038186803b158015610b1e57600080fd5b505afa158015610b32573d6000803e3d6000fd5b505050506040513d601f19601f82011682018060405250810190610b569190611855565b14610b96576040517f08c379a0000000000000000000000000000000000000000000000000000000008152600401610b8d90611dd3565b60405180910390fd5b610bac60016002546114eb90919063ffffffff16565b6002819055506002549050600060036000838152602001908152602001600020905087816000019080519060200190610be69291906115e5565b5086816001019080519060200190610bff9291906115e5565b5085816002019080519060200190610c189291906115e5565b50848160030181905550838160040160006101000a81548160ff02191690831515021790555082816005018190555060018160060160006101000a81548160ff0219169083151502179055507f186760a37e06b130959978c68b5c592841caf4f64de1dc960b2c54cf454ca9dd82604051610c939190611e53565b60405180910390a1509695505050505050565b6003602052806000526040600020600091509050806000018054600181600116156101000203166002900480601f016020809104026020016040519081016040528092919081815260200182805460018160011615610100020316600290048015610d525780601f10610d2757610100808354040283529160200191610d52565b820191906000526020600020905b815481529060010190602001808311610d3557829003601f168201915b505050505090806001018054600181600116156101000203166002900480601f016020809104026020016040519081016040528092919081815260200182805460018160011615610100020316600290048015610df05780601f10610dc557610100808354040283529160200191610df0565b820191906000526020600020905b815481529060010190602001808311610dd357829003601f168201915b505050505090806002018054600181600116156101000203166002900480601f016020809104026020016040519081016040528092919081815260200182805460018160011615610100020316600290048015610e8e5780601f10610e6357610100808354040283529160200191610e8e565b820191906000526020600020905b815481529060010190602001808311610e7157829003601f168201915b5050505050908060030154908060040160009054906101000a900460ff16908060050154908060060160009054906101000a900460ff16905087565b60025481565b60008060009054906101000a900473ffffffffffffffffffffffffffffffffffffffff16905090565b6000816003600082815260200190815260200160002060060160009054906101000a900460ff16610f5f576040517f08c379a0000000000000000000000000000000000000000000000000000000008152600401610f5690611e13565b60405180910390fd5b6003600082815260200190815260200160002060040160009054906101000a900460ff1680610fa4575060006003600083815260200190815260200160002060050154115b610fe3576040517f08c379a0000000000000000000000000000000000000000000000000000000008152600401610fda90611e33565b60405180910390fd5b6003600082815260200190815260200160002060030154600160009054906101000a900473ffffffffffffffffffffffffffffffffffffffff1673ffffffffffffffffffffffffffffffffffffffff166370a082316110406114af565b6040518263ffffffff1660e01b815260040161105c9190611c80565b60206040518083038186803b15801561107457600080fd5b505afa158015611088573d6000803e3d6000fd5b505050506040513d601f19601f820116820180604052508101906110ac9190611855565b10156110ed576040517f08c379a00000000000000000000000000000000000000000000000000000000081526004016110e490611df3565b60405180910390fd5b60036000828152602001908152602001600020600701600061110d6114af565b73ffffffffffffffffffffffffffffffffffffffff1673ffffffffffffffffffffffffffffffffffffffff16815260200190815260200160002060009054906101000a900460ff1615611195576040517f08c379a000000000000000000000000000000000000000000000000000000000815260040161118c90611db3565b60405180910390fd5b60006003600085815260200190815260200160002090508060040160009054906101000a900460ff16611245576111da6001826005015461154090919063ffffffff16565b81600501819055506000816005015414156112445760008160060160006101000a81548160ff0219169083151502179055507fa4b62d701729d2038b6683e9584f5ea4479ea94a225c6e81b838699093b9ca208460405161123b9190611e53565b60405180910390a15b5b806008016112516114af565b9080600181540180825580915050600190039060005260206000200160009091909190916101000a81548173ffffffffffffffffffffffffffffffffffffffff021916908373ffffffffffffffffffffffffffffffffffffffff16021790555060018160070160006112c16114af565b73ffffffffffffffffffffffffffffffffffffffff1673ffffffffffffffffffffffffffffffffffffffff16815260200190815260200160002060006101000a81548160ff021916908315150217905550600160009054906101000a900473ffffffffffffffffffffffffffffffffffffffff1673ffffffffffffffffffffffffffffffffffffffff1663c1b91dd96113586114af565b8684600301546040518463ffffffff1660e01b815260040161137c93929190611c9b565b600060405180830381600087803b15801561139657600080fd5b505af11580156113aa573d6000803e3d6000fd5b505050507f78a0660bbda86d17037943644187f6f1f73f2f20a3240bf4cf4a56c2a96bcf84846113d86114af565b83600301546040516113ec93929190611e6e565b60405180910390a1600160009054906101000a900473ffffffffffffffffffffffffffffffffffffffff1673ffffffffffffffffffffffffffffffffffffffff166370a0823161143a6114af565b6040518263ffffffff1660e01b81526004016114569190611c80565b60206040518083038186803b15801561146e57600080fd5b505afa158015611482573d6000803e3d6000fd5b505050506040513d601f19601f820116820180604052508101906114a69190611855565b92505050919050565b600060186000369050101580156114cb57506114ca33610a22565b5b156114df57601436033560601c90506114e7565b3390506114e8565b5b90565b600080828401905083811015611536576040517f08c379a000000000000000000000000000000000000000000000000000000000815260040161152d90611d93565b60405180910390fd5b8091505092915050565b600061158283836040518060400160405280601e81526020017f536166654d6174683a207375627472616374696f6e206f766572666c6f77000081525061158a565b905092915050565b60008383111582906115d2576040517f08c379a00000000000000000000000000000000000000000000000000000000081526004016115c99190611ced565b60405180910390fd5b5060008385039050809150509392505050565b828054600181600116156101000203166002900490600052602060002090601f016020900481019282601f1061162657805160ff1916838001178555611654565b82800160010185558215611654579182015b82811115611653578251825591602001919060010190611638565b5b5090506116619190611665565b5090565b61168791905b8082111561168357600081600090555060010161166b565b5090565b90565b60008135905061169981612156565b92915050565b6000813590506116ae8161216d565b92915050565b600082601f8301126116c557600080fd5b81356116d86116d382611f81565b611f54565b915080825260208301602083018583830111156116f457600080fd5b6116ff838284612103565b50505092915050565b60008135905061171781612184565b92915050565b60008151905061172c81612184565b92915050565b60006020828403121561174457600080fd5b60006117528482850161168a565b91505092915050565b60008060008060008060c0878903121561177457600080fd5b600087013567ffffffffffffffff81111561178e57600080fd5b61179a89828a016116b4565b965050602087013567ffffffffffffffff8111156117b757600080fd5b6117c389828a016116b4565b955050604087013567ffffffffffffffff8111156117e057600080fd5b6117ec89828a016116b4565b94505060606117fd89828a01611708565b935050608061180e89828a0161169f565b92505060a061181f89828a01611708565b9150509295509295509295565b60006020828403121561183e57600080fd5b600061184c84828501611708565b91505092915050565b60006020828403121561186757600080fd5b60006118758482850161171d565b91505092915050565b600061188a8383611a11565b60208301905092915050565b60006118a28383611a2f565b905092915050565b60006118b68383611c47565b60208301905092915050565b6118cb816120cd565b82525050565b6118da81612085565b82525050565b60006118eb82611fdd565b6118f58185612030565b935061190083611fad565b8060005b83811015611931578151611918888261187e565b975061192383612009565b925050600181019050611904565b5085935050505092915050565b600061194982611fe8565b6119538185612041565b93508360208202850161196585611fbd565b8060005b858110156119a157848403895281516119828582611896565b945061198d83612016565b925060208a01995050600181019050611969565b50829750879550505050505092915050565b60006119be82611ff3565b6119c88185612052565b93506119d383611fcd565b8060005b83811015611a045781516119eb88826118aa565b97506119f683612023565b9250506001810190506119d7565b5085935050505092915050565b611a1a81612097565b82525050565b611a2981612097565b82525050565b6000611a3a82611ffe565b611a448185612063565b9350611a54818560208601612112565b611a5d81612145565b840191505092915050565b6000611a7382611ffe565b611a7d8185612074565b9350611a8d818560208601612112565b611a9681612145565b840191505092915050565b6000611aae601b83612074565b91507f536166654d6174683a206164646974696f6e206f766572666c6f7700000000006000830152602082019050919050565b6000611aee601683612074565b91507f5573657220616c7265616479206f776e73206974656d000000000000000000006000830152602082019050919050565b6000611b2e602983612074565b91507f41646472657373206e6f742061757468656e7469636174656420666f7220746860008301527f697320616374696f6e00000000000000000000000000000000000000000000006020830152604082019050919050565b6000611b94601d83612074565b91507f557365722068617320696e73756666696369656e742062616c616e63650000006000830152602082019050919050565b6000611bd4601183612074565b91507f4974656d206e6f7420666f722073616c650000000000000000000000000000006000830152602082019050919050565b6000611c14601183612074565b91507f4974656d206e6f7420696e2073746f636b0000000000000000000000000000006000830152602082019050919050565b611c50816120c3565b82525050565b611c5f816120c3565b82525050565b6000602082019050611c7a60008301846118d1565b92915050565b6000602082019050611c9560008301846118c2565b92915050565b6000606082019050611cb060008301866118c2565b611cbd6020830185611c56565b611cca6040830184611c56565b949350505050565b6000602082019050611ce76000830184611a20565b92915050565b60006020820190508181036000830152611d078184611a68565b905092915050565b600060e0820190508181036000830152611d29818a611a68565b90508181036020830152611d3d8189611a68565b90508181036040830152611d518188611a68565b9050611d606060830187611c56565b611d6d6080830186611a20565b611d7a60a0830185611c56565b611d8760c0830184611a20565b98975050505050505050565b60006020820190508181036000830152611dac81611aa1565b9050919050565b60006020820190508181036000830152611dcc81611ae1565b9050919050565b60006020820190508181036000830152611dec81611b21565b9050919050565b60006020820190508181036000830152611e0c81611b87565b9050919050565b60006020820190508181036000830152611e2c81611bc7565b9050919050565b60006020820190508181036000830152611e4c81611c07565b9050919050565b6000602082019050611e686000830184611c56565b92915050565b6000606082019050611e836000830186611c56565b611e9060208301856118c2565b611e9d6040830184611c56565b949350505050565b600061010082019050611ebb600083018b611c56565b8181036020830152611ecd818a61193e565b90508181036040830152611ee1818961193e565b90508181036060830152611ef5818861193e565b90508181036080830152611f0981876119b3565b905081810360a0830152611f1d81866118e0565b905081810360c0830152611f3181856119b3565b905081810360e0830152611f4581846118e0565b90509998505050505050505050565b6000604051905081810181811067ffffffffffffffff82111715611f7757600080fd5b8060405250919050565b600067ffffffffffffffff821115611f9857600080fd5b601f19601f8301169050602081019050919050565b6000819050602082019050919050565b6000819050602082019050919050565b6000819050602082019050919050565b600081519050919050565b600081519050919050565b600081519050919050565b600081519050919050565b6000602082019050919050565b6000602082019050919050565b6000602082019050919050565b600082825260208201905092915050565b600082825260208201905092915050565b600082825260208201905092915050565b600082825260208201905092915050565b600082825260208201905092915050565b6000612090826120a3565b9050919050565b60008115159050919050565b600073ffffffffffffffffffffffffffffffffffffffff82169050919050565b6000819050919050565b60006120d8826120df565b9050919050565b60006120ea826120f1565b9050919050565b60006120fc826120a3565b9050919050565b82818337600083830152505050565b60005b83811015612130578082015181840152602081019050612115565b8381111561213f576000848401525b50505050565b6000601f19601f8301169050919050565b61215f81612085565b811461216a57600080fd5b50565b61217681612097565b811461218157600080fd5b50565b61218d816120c3565b811461219857600080fd5b5056fea264697066735822122065a16fd5e5857744795ff50d8e04ce2d281ec3e75842a928159396c8e68209cb64736f6c634300060a0033",
  "immutableReferences": {},
  "source": "//SPDX-License-Identifier: MIT\npragma solidity >=0.6.0 <0.8.0;\npragma experimental ABIEncoderV2;\n\nimport \"./interfaces/IItems.sol\";\n\ncontract Items is IItems {\n    //@param _users - the address of the deployed users contract\n    //@param _forwarder - the address of the gsn trusted forwarder\n    constructor(address _users, address _forwarder) public {\n        userContract = IUsers(_users);\n        userContract.setItem(address(this));\n        trustedForwarder = _forwarder;\n    }\n\n    /// MUTABLE FUNCTIONS ///\n\n    function addItem(\n        string memory _title,\n        string memory _description,\n        string memory _imageUrl,\n        uint256 _cost,\n        bool _infinite,\n        uint256 _quantity\n    ) public override onlyAdmin() returns (uint256 _nonce) {\n        itemNonce = itemNonce.add(1);\n        _nonce = itemNonce;\n        Item storage item = items[_nonce];\n        item.title = _title;\n        item.description = _description;\n        item.imageUrl = _imageUrl;\n        item.cost = _cost;\n        item.infinite = _infinite;\n        item.quantity = _quantity;\n        item.active = true;\n        emit ItemAdded(_nonce);\n    }\n\n    function buyItem(uint256 _nonce)\n        public\n        override\n        beforeItemBuy(_nonce)\n        returns (uint256 _balance)\n    {\n        Item storage item = items[_nonce];\n        if (!item.infinite) {\n            item.quantity = item.quantity.sub(1);\n            if (item.quantity == 0) {\n                item.active = false;\n                emit ItemDelisted(_nonce);\n            }\n        }\n        item.owners.push(_msgSender());\n        item.purchased[_msgSender()] = true;\n        userContract.addItem(_msgSender(), _nonce, item.cost);\n        emit ItemPurchased(_nonce, _msgSender(), item.cost);\n        return userContract.balanceOf(_msgSender());\n    }\n\n    function delistItem(uint256 _nonce) public override onlyAdmin() {\n        Item storage item = items[_nonce];\n        item.active = false;\n        emit ItemDelisted(_nonce);\n    }\n\n    /// VIEWABLE FUNCTIONS ///\n\n    function getItems()\n        public\n        view\n        override\n        returns (\n            uint256 _itemNonce,\n            string[] memory _titles,\n            string[] memory _descriptions,\n            string[] memory _imageUrls,\n            uint256[] memory _costs,\n            bool[] memory _infinites,\n            uint256[] memory _quantities,\n            bool[] memory _actives\n        )\n    {\n        _itemNonce = itemNonce;\n        _titles = new string[](_itemNonce);\n        _descriptions = new string[](_itemNonce);\n        _imageUrls = new string[](_itemNonce);\n        _costs = new uint256[](_itemNonce);\n        _infinites = new bool[](_itemNonce);\n        _quantities = new uint256[](_itemNonce);\n        _actives = new bool[](_itemNonce);\n        for (uint256 i = 0; i < _itemNonce; i++) {\n            _titles[i] = items[i.add(1)].title;\n            _descriptions[i] = items[i.add(1)].description;\n            _imageUrls[i] = items[i.add(1)].imageUrl;\n            _costs[i] = items[i.add(1)].cost;\n            _infinites[i] = items[i.add(1)].infinite;\n            _quantities[i] = items[i.add(1)].quantity;\n            _actives[i] = items[i.add(1)].active;\n        }\n    }\n}\n",
  "sourcePath": "/home/jpag/orgtoken/contracts/contracts/Items.sol",
  "compiler": {
    "name": "solc",
    "version": "0.6.10+commit.00c0fcaf.Emscripten.clang"
  },
  "schemaVersion": "3.3.3",
  "updatedAt": "2021-01-17T00:27:45.453Z",
  "networkType": "ethereum",
  "devdoc": {
    "methods": {}
  },
  "userdoc": {
    "methods": {
      "addItem(string,string,string,uint256,bool,uint256)": {
        "notice": "MUTABLE FUNCTIONS ///"
      },
      "getItems()": {
        "notice": "VIEWABLE FUNCTIONS ///"
      },
      "getTrustedForwarder()": {
        "notice": "GSN Forwarder Call"
      }
    }
  }
}