{
  "contractName": "Items",
  "abi": [
    {
      "inputs": [
        {
          "internalType": "address",
          "name": "_users",
          "type": "address"
        }
      ],
      "stateMutability": "nonpayable",
      "type": "constructor"
    },
    {
      "anonymous": false,
      "inputs": [
        {
          "indexed": false,
          "internalType": "uint256",
          "name": "_nonce",
          "type": "uint256"
        }
      ],
      "name": "ItemAdded",
      "type": "event"
    },
    {
      "anonymous": false,
      "inputs": [
        {
          "indexed": false,
          "internalType": "uint256",
          "name": "_nonce",
          "type": "uint256"
        }
      ],
      "name": "ItemDelisted",
      "type": "event"
    },
    {
      "anonymous": false,
      "inputs": [
        {
          "indexed": false,
          "internalType": "uint256",
          "name": "_nonce",
          "type": "uint256"
        },
        {
          "indexed": false,
          "internalType": "address",
          "name": "_by",
          "type": "address"
        },
        {
          "indexed": false,
          "internalType": "uint256",
          "name": "_burned",
          "type": "uint256"
        }
      ],
      "name": "ItemPurchased",
      "type": "event"
    },
    {
      "inputs": [],
      "name": "itemNonce",
      "outputs": [
        {
          "internalType": "uint256",
          "name": "",
          "type": "uint256"
        }
      ],
      "stateMutability": "view",
      "type": "function",
      "constant": true
    },
    {
      "inputs": [
        {
          "internalType": "uint256",
          "name": "",
          "type": "uint256"
        }
      ],
      "name": "items",
      "outputs": [
        {
          "internalType": "string",
          "name": "title",
          "type": "string"
        },
        {
          "internalType": "string",
          "name": "description",
          "type": "string"
        },
        {
          "internalType": "string",
          "name": "imageUrl",
          "type": "string"
        },
        {
          "internalType": "uint256",
          "name": "cost",
          "type": "uint256"
        },
        {
          "internalType": "bool",
          "name": "infinite",
          "type": "bool"
        },
        {
          "internalType": "uint256",
          "name": "quantity",
          "type": "uint256"
        },
        {
          "internalType": "bool",
          "name": "active",
          "type": "bool"
        }
      ],
      "stateMutability": "view",
      "type": "function",
      "constant": true
    },
    {
      "inputs": [
        {
          "internalType": "string",
          "name": "_title",
          "type": "string"
        },
        {
          "internalType": "string",
          "name": "_description",
          "type": "string"
        },
        {
          "internalType": "string",
          "name": "_imageUrl",
          "type": "string"
        },
        {
          "internalType": "uint256",
          "name": "_cost",
          "type": "uint256"
        },
        {
          "internalType": "bool",
          "name": "_infinite",
          "type": "bool"
        },
        {
          "internalType": "uint256",
          "name": "_quantity",
          "type": "uint256"
        }
      ],
      "name": "addItem",
      "outputs": [
        {
          "internalType": "uint256",
          "name": "_nonce",
          "type": "uint256"
        }
      ],
      "stateMutability": "nonpayable",
      "type": "function"
    },
    {
      "inputs": [
        {
          "internalType": "uint256",
          "name": "_nonce",
          "type": "uint256"
        }
      ],
      "name": "buyItem",
      "outputs": [
        {
          "internalType": "uint256",
          "name": "_balance",
          "type": "uint256"
        }
      ],
      "stateMutability": "nonpayable",
      "type": "function"
    },
    {
      "inputs": [
        {
          "internalType": "uint256",
          "name": "_nonce",
          "type": "uint256"
        }
      ],
      "name": "delistItem",
      "outputs": [],
      "stateMutability": "nonpayable",
      "type": "function"
    },
    {
      "inputs": [],
      "name": "getItems",
      "outputs": [
        {
          "internalType": "uint256",
          "name": "_itemNonce",
          "type": "uint256"
        },
        {
          "internalType": "string[]",
          "name": "_titles",
          "type": "string[]"
        },
        {
          "internalType": "string[]",
          "name": "_descriptions",
          "type": "string[]"
        },
        {
          "internalType": "string[]",
          "name": "_imageUrls",
          "type": "string[]"
        },
        {
          "internalType": "uint256[]",
          "name": "_costs",
          "type": "uint256[]"
        },
        {
          "internalType": "bool[]",
          "name": "_infinites",
          "type": "bool[]"
        },
        {
          "internalType": "uint256[]",
          "name": "_quantities",
          "type": "uint256[]"
        },
        {
          "internalType": "bool[]",
          "name": "_actives",
          "type": "bool[]"
        }
      ],
      "stateMutability": "view",
      "type": "function",
      "constant": true
    }
  ],
  "bytecode": "0x60806040523480156200001157600080fd5b5060405162001dbb38038062001dbb833981810160405262000037919081019062000125565b806000806101000a81548173ffffffffffffffffffffffffffffffffffffffff021916908373ffffffffffffffffffffffffffffffffffffffff1602179055506000809054906101000a900473ffffffffffffffffffffffffffffffffffffffff1673ffffffffffffffffffffffffffffffffffffffff1663165ed276306040518263ffffffff1660e01b8152600401620000d3919062000162565b600060405180830381600087803b158015620000ee57600080fd5b505af115801562000103573d6000803e3d6000fd5b5050505050620001cd565b6000815190506200011f81620001b3565b92915050565b6000602082840312156200013857600080fd5b600062000148848285016200010e565b91505092915050565b6200015c816200017f565b82525050565b600060208201905062000179600083018462000151565b92915050565b60006200018c8262000193565b9050919050565b600073ffffffffffffffffffffffffffffffffffffffff82169050919050565b620001be816200017f565b8114620001ca57600080fd5b50565b611bde80620001dd6000396000f3fe608060405234801561001057600080fd5b50600436106100625760003560e01c80631006163114610067578063410d59cc14610083578063b8a2e524146100a8578063bfb231d2146100d8578063cd89500f1461010e578063e7fb74c71461012c575b600080fd5b610081600480360361007c91908101906112e9565b61015c565b005b61008b6101cb565b60405161009f9897969594939291906118d0565b60405180910390f35b6100c260048036036100bd9190810190611218565b610729565b6040516100cf919061187e565b60405180910390f35b6100f260048036036100ed91908101906112e9565b61083a565b604051610105979695949392919061175a565b60405180910390f35b610116610a5e565b604051610123919061187e565b60405180910390f35b610146600480360361014191908101906112e9565b610a64565b604051610153919061187e565b60405180910390f35b600060026000838152602001908152602001600020905060008160060160006101000a81548160ff0219169083151502179055507fa4b62d701729d2038b6683e9584f5ea4479ea94a225c6e81b838699093b9ca20826040516101bf919061187e565b60405180910390a15050565b6000606080606080606080606060015497508760405190808252806020026020018201604052801561021157816020015b60608152602001906001900390816101fc5790505b5096508760405190808252806020026020018201604052801561024857816020015b60608152602001906001900390816102335790505b5095508760405190808252806020026020018201604052801561027f57816020015b606081526020019060019003908161026a5790505b509450876040519080825280602002602001820160405280156102b15781602001602082028038833980820191505090505b509350876040519080825280602002602001820160405280156102e35781602001602082028038833980820191505090505b509250876040519080825280602002602001820160405280156103155781602001602082028038833980820191505090505b509150876040519080825280602002602001820160405280156103475781602001602082028038833980820191505090505b50905060008090505b8881101561071e5760026000610370600184610fe690919063ffffffff16565b81526020019081526020016000206000018054600181600116156101000203166002900480601f0160208091040260200160405190810160405280929190818152602001828054600181600116156101000203166002900480156104155780601f106103ea57610100808354040283529160200191610415565b820191906000526020600020905b8154815290600101906020018083116103f857829003601f168201915b505050505088828151811061042657fe5b602002602001018190525060026000610449600184610fe690919063ffffffff16565b81526020019081526020016000206001018054600181600116156101000203166002900480601f0160208091040260200160405190810160405280929190818152602001828054600181600116156101000203166002900480156104ee5780601f106104c3576101008083540402835291602001916104ee565b820191906000526020600020905b8154815290600101906020018083116104d157829003601f168201915b50505050508782815181106104ff57fe5b602002602001018190525060026000610522600184610fe690919063ffffffff16565b81526020019081526020016000206002018054600181600116156101000203166002900480601f0160208091040260200160405190810160405280929190818152602001828054600181600116156101000203166002900480156105c75780601f1061059c576101008083540402835291602001916105c7565b820191906000526020600020905b8154815290600101906020018083116105aa57829003601f168201915b50505050508682815181106105d857fe5b6020026020010181905250600260006105fb600184610fe690919063ffffffff16565b81526020019081526020016000206003015485828151811061061957fe5b6020026020010181815250506002600061063d600184610fe690919063ffffffff16565b815260200190815260200160002060040160009054906101000a900460ff1684828151811061066857fe5b60200260200101901515908115158152505060026000610692600184610fe690919063ffffffff16565b8152602001908152602001600020600501548382815181106106b057fe5b602002602001018181525050600260006106d4600184610fe690919063ffffffff16565b815260200190815260200160002060060160009054906101000a900460ff168282815181106106ff57fe5b6020026020010190151590811515815250508080600101915050610350565b509091929394959697565b600061074060018054610fe690919063ffffffff16565b600181905550600154905060006002600083815260200190815260200160002090508781600001908051906020019061077a9291906110e0565b50868160010190805190602001906107939291906110e0565b50858160020190805190602001906107ac9291906110e0565b50848160030181905550838160040160006101000a81548160ff02191690831515021790555082816005018190555060018160060160006101000a81548160ff0219169083151502179055507f186760a37e06b130959978c68b5c592841caf4f64de1dc960b2c54cf454ca9dd82604051610827919061187e565b60405180910390a1509695505050505050565b6002602052806000526040600020600091509050806000018054600181600116156101000203166002900480601f0160208091040260200160405190810160405280929190818152602001828054600181600116156101000203166002900480156108e65780601f106108bb576101008083540402835291602001916108e6565b820191906000526020600020905b8154815290600101906020018083116108c957829003601f168201915b505050505090806001018054600181600116156101000203166002900480601f0160208091040260200160405190810160405280929190818152602001828054600181600116156101000203166002900480156109845780601f1061095957610100808354040283529160200191610984565b820191906000526020600020905b81548152906001019060200180831161096757829003601f168201915b505050505090806002018054600181600116156101000203166002900480601f016020809104026020016040519081016040528092919081815260200182805460018160011615610100020316600290048015610a225780601f106109f757610100808354040283529160200191610a22565b820191906000526020600020905b815481529060010190602001808311610a0557829003601f168201915b5050505050908060030154908060040160009054906101000a900460ff16908060050154908060060160009054906101000a900460ff16905087565b60015481565b6000816002600082815260200190815260200160002060060160009054906101000a900460ff16610aca576040517f08c379a0000000000000000000000000000000000000000000000000000000008152600401610ac19061183e565b60405180910390fd5b6002600082815260200190815260200160002060040160009054906101000a900460ff1680610b0f575060006002600083815260200190815260200160002060050154115b610b4e576040517f08c379a0000000000000000000000000000000000000000000000000000000008152600401610b459061185e565b60405180910390fd5b60026000828152602001908152602001600020600301546000809054906101000a900473ffffffffffffffffffffffffffffffffffffffff1673ffffffffffffffffffffffffffffffffffffffff166370a08231336040518263ffffffff1660e01b8152600401610bbf91906116e6565b60206040518083038186803b158015610bd757600080fd5b505afa158015610beb573d6000803e3d6000fd5b505050506040513d601f19601f82011682018060405250610c0f9190810190611312565b1015610c50576040517f08c379a0000000000000000000000000000000000000000000000000000000008152600401610c479061181e565b60405180910390fd5b6002600082815260200190815260200160002060070160003373ffffffffffffffffffffffffffffffffffffffff1673ffffffffffffffffffffffffffffffffffffffff16815260200190815260200160002060009054906101000a900460ff1615610cf1576040517f08c379a0000000000000000000000000000000000000000000000000000000008152600401610ce8906117fe565b60405180910390fd5b60006002600085815260200190815260200160002090508060040160009054906101000a900460ff16610da157610d366001826005015461103b90919063ffffffff16565b8160050181905550600081600501541415610da05760008160060160006101000a81548160ff0219169083151502179055507fa4b62d701729d2038b6683e9584f5ea4479ea94a225c6e81b838699093b9ca2084604051610d97919061187e565b60405180910390a15b5b80600801339080600181540180825580915050600190039060005260206000200160009091909190916101000a81548173ffffffffffffffffffffffffffffffffffffffff021916908373ffffffffffffffffffffffffffffffffffffffff16021790555060018160070160003373ffffffffffffffffffffffffffffffffffffffff1673ffffffffffffffffffffffffffffffffffffffff16815260200190815260200160002060006101000a81548160ff0219169083151502179055506000809054906101000a900473ffffffffffffffffffffffffffffffffffffffff1673ffffffffffffffffffffffffffffffffffffffff1663c1b91dd9338684600301546040518463ffffffff1660e01b8152600401610ec293929190611701565b600060405180830381600087803b158015610edc57600080fd5b505af1158015610ef0573d6000803e3d6000fd5b505050507f78a0660bbda86d17037943644187f6f1f73f2f20a3240bf4cf4a56c2a96bcf8484338360030154604051610f2b93929190611899565b60405180910390a16000809054906101000a900473ffffffffffffffffffffffffffffffffffffffff1673ffffffffffffffffffffffffffffffffffffffff166370a08231336040518263ffffffff1660e01b8152600401610f8d91906116e6565b60206040518083038186803b158015610fa557600080fd5b505afa158015610fb9573d6000803e3d6000fd5b505050506040513d601f19601f82011682018060405250610fdd9190810190611312565b92505050919050565b600080828401905083811015611031576040517f08c379a0000000000000000000000000000000000000000000000000000000008152600401611028906117de565b60405180910390fd5b8091505092915050565b600061107d83836040518060400160405280601e81526020017f536166654d6174683a207375627472616374696f6e206f766572666c6f770000815250611085565b905092915050565b60008383111582906110cd576040517f08c379a00000000000000000000000000000000000000000000000000000000081526004016110c49190611738565b60405180910390fd5b5060008385039050809150509392505050565b828054600181600116156101000203166002900490600052602060002090601f016020900481019282601f1061112157805160ff191683800117855561114f565b8280016001018555821561114f579182015b8281111561114e578251825591602001919060010190611133565b5b50905061115c9190611160565b5090565b61118291905b8082111561117e576000816000905550600101611166565b5090565b90565b60008135905061119481611b7a565b92915050565b600082601f8301126111ab57600080fd5b81356111be6111b9826119ac565b61197f565b915080825260208301602083018583830111156111da57600080fd5b6111e5838284611b27565b50505092915050565b6000813590506111fd81611b91565b92915050565b60008151905061121281611b91565b92915050565b60008060008060008060c0878903121561123157600080fd5b600087013567ffffffffffffffff81111561124b57600080fd5b61125789828a0161119a565b965050602087013567ffffffffffffffff81111561127457600080fd5b61128089828a0161119a565b955050604087013567ffffffffffffffff81111561129d57600080fd5b6112a989828a0161119a565b94505060606112ba89828a016111ee565b93505060806112cb89828a01611185565b92505060a06112dc89828a016111ee565b9150509295509295509295565b6000602082840312156112fb57600080fd5b6000611309848285016111ee565b91505092915050565b60006020828403121561132457600080fd5b600061133284828501611203565b91505092915050565b600061134783836114bf565b60208301905092915050565b600061135f8383611516565b905092915050565b600061137383836116c8565b60208301905092915050565b61138881611af1565b82525050565b600061139982611a08565b6113a38185611a66565b93506113ae836119d8565b8060005b838110156113df5781516113c6888261133b565b97506113d183611a3f565b9250506001810190506113b2565b5085935050505092915050565b60006113f782611a13565b6114018185611a77565b935083602082028501611413856119e8565b8060005b8581101561144f57848403895281516114308582611353565b945061143b83611a4c565b925060208a01995050600181019050611417565b50829750879550505050505092915050565b600061146c82611a1e565b6114768185611a88565b9350611481836119f8565b8060005b838110156114b25781516114998882611367565b97506114a483611a59565b925050600181019050611485565b5085935050505092915050565b6114c881611abb565b82525050565b6114d781611abb565b82525050565b60006114e882611a34565b6114f28185611aaa565b9350611502818560208601611b36565b61150b81611b69565b840191505092915050565b600061152182611a29565b61152b8185611a99565b935061153b818560208601611b36565b61154481611b69565b840191505092915050565b600061155a82611a29565b6115648185611aaa565b9350611574818560208601611b36565b61157d81611b69565b840191505092915050565b6000611595601b83611aaa565b91507f536166654d6174683a206164646974696f6e206f766572666c6f7700000000006000830152602082019050919050565b60006115d5601683611aaa565b91507f5573657220616c7265616479206f776e73206974656d000000000000000000006000830152602082019050919050565b6000611615601d83611aaa565b91507f557365722068617320696e73756666696369656e742062616c616e63650000006000830152602082019050919050565b6000611655601183611aaa565b91507f4974656d206e6f7420666f722073616c650000000000000000000000000000006000830152602082019050919050565b6000611695601183611aaa565b91507f4974656d206e6f7420696e2073746f636b0000000000000000000000000000006000830152602082019050919050565b6116d181611ae7565b82525050565b6116e081611ae7565b82525050565b60006020820190506116fb600083018461137f565b92915050565b6000606082019050611716600083018661137f565b61172360208301856116d7565b61173060408301846116d7565b949350505050565b6000602082019050818103600083015261175281846114dd565b905092915050565b600060e0820190508181036000830152611774818a61154f565b90508181036020830152611788818961154f565b9050818103604083015261179c818861154f565b90506117ab60608301876116d7565b6117b860808301866114ce565b6117c560a08301856116d7565b6117d260c08301846114ce565b98975050505050505050565b600060208201905081810360008301526117f781611588565b9050919050565b60006020820190508181036000830152611817816115c8565b9050919050565b6000602082019050818103600083015261183781611608565b9050919050565b6000602082019050818103600083015261185781611648565b9050919050565b6000602082019050818103600083015261187781611688565b9050919050565b600060208201905061189360008301846116d7565b92915050565b60006060820190506118ae60008301866116d7565b6118bb602083018561137f565b6118c860408301846116d7565b949350505050565b6000610100820190506118e6600083018b6116d7565b81810360208301526118f8818a6113ec565b9050818103604083015261190c81896113ec565b9050818103606083015261192081886113ec565b905081810360808301526119348187611461565b905081810360a0830152611948818661138e565b905081810360c083015261195c8185611461565b905081810360e0830152611970818461138e565b90509998505050505050505050565b6000604051905081810181811067ffffffffffffffff821117156119a257600080fd5b8060405250919050565b600067ffffffffffffffff8211156119c357600080fd5b601f19601f8301169050602081019050919050565b6000819050602082019050919050565b6000819050602082019050919050565b6000819050602082019050919050565b600081519050919050565b600081519050919050565b600081519050919050565b600081519050919050565b600081519050919050565b6000602082019050919050565b6000602082019050919050565b6000602082019050919050565b600082825260208201905092915050565b600082825260208201905092915050565b600082825260208201905092915050565b600082825260208201905092915050565b600082825260208201905092915050565b60008115159050919050565b600073ffffffffffffffffffffffffffffffffffffffff82169050919050565b6000819050919050565b6000611afc82611b03565b9050919050565b6000611b0e82611b15565b9050919050565b6000611b2082611ac7565b9050919050565b82818337600083830152505050565b60005b83811015611b54578082015181840152602081019050611b39565b83811115611b63576000848401525b50505050565b6000601f19601f8301169050919050565b611b8381611abb565b8114611b8e57600080fd5b50565b611b9a81611ae7565b8114611ba557600080fd5b5056fea2646970667358221220daad33898367fd44ac9f33890f702e3beb3651341f0462234efacb25212fe88d64736f6c63430006010033",
  "source": "//SPDX-License-Identifier: MIT\npragma solidity >=0.6.0 <0.8.0;\npragma experimental ABIEncoderV2;\n\nimport \"./interfaces/IItems.sol\";\n\ncontract Items is IItems {\n    //@param _users - the address of the deployed users contract\n    constructor(address _users) public {\n        userContract = IUsers(_users);\n        userContract.setItem(address(this));\n    }\n\n    /// MUTABLE FUNCTIONS ///\n\n    function addItem(\n        string memory _title,\n        string memory _description,\n        string memory _imageUrl,\n        uint256 _cost,\n        bool _infinite,\n        uint256 _quantity\n    ) public override returns (uint256 _nonce) {\n        itemNonce = itemNonce.add(1);\n        _nonce = itemNonce;\n        Item storage item = items[_nonce];\n        item.title = _title;\n        item.description = _description;\n        item.imageUrl = _imageUrl;\n        item.cost = _cost;\n        item.infinite = _infinite;\n        item.quantity = _quantity;\n        item.active = true;\n        emit ItemAdded(_nonce);\n    }\n\n    function buyItem(uint256 _nonce)\n        public\n        override\n        beforeItemBuy(_nonce)\n        returns (uint256 _balance)\n    {\n        Item storage item = items[_nonce];\n        if (!item.infinite) {\n            item.quantity = item.quantity.sub(1);\n            if (item.quantity == 0) {\n                item.active = false;\n                emit ItemDelisted(_nonce);\n            }\n        }\n        item.owners.push(msg.sender);\n        item.purchased[msg.sender] = true;\n        userContract.addItem(msg.sender, _nonce, item.cost);\n        emit ItemPurchased(_nonce, msg.sender, item.cost);\n        return userContract.balanceOf(msg.sender);\n    }\n\n    function delistItem(uint256 _nonce) public override {\n        Item storage item = items[_nonce];\n        item.active = false;\n        emit ItemDelisted(_nonce);\n    }\n\n    /// VIEWABLE FUNCTIONS ///\n\n    function getItems()\n        public\n        override\n        view\n        returns (\n            uint256 _itemNonce,\n            string[] memory _titles,\n            string[] memory _descriptions,\n            string[] memory _imageUrls,\n            uint256[] memory _costs,\n            bool[] memory _infinites,\n            uint256[] memory _quantities,\n            bool[] memory _actives\n        )\n    {\n        _itemNonce = itemNonce;\n        _titles = new string[](_itemNonce);\n        _descriptions = new string[](_itemNonce);\n        _imageUrls = new string[](_itemNonce);\n        _costs = new uint256[](_itemNonce);\n        _infinites = new bool[](_itemNonce);\n        _quantities = new uint256[](_itemNonce);\n        _actives = new bool[](_itemNonce);\n        for (uint256 i = 0; i < _itemNonce; i++) {\n            _titles[i] = items[i.add(1)].title;\n            _descriptions[i] = items[i.add(1)].description;\n            _imageUrls[i] = items[i.add(1)].imageUrl;\n            _costs[i] = items[i.add(1)].cost;\n            _infinites[i] = items[i.add(1)].infinite;\n            _quantities[i] = items[i.add(1)].quantity;\n            _actives[i] = items[i.add(1)].active;\n        }\n    }\n}\n",
  "sourcePath": "/home/kiwi/Desktop/sandbox/contracts/contracts/Items.sol",
  "compiler": {
    "name": "solc",
    "version": "0.6.1+commit.e6f7d5a4.Emscripten.clang"
  },
  "schemaVersion": "3.3.1",
  "updatedAt": "2021-01-11T18:26:07.590Z",
  "networkType": "ethereum",
  "devdoc": {
    "methods": {}
  },
  "userdoc": {
    "methods": {
      "addItem(string,string,string,uint256,bool,uint256)": {
        "notice": "MUTABLE FUNCTIONS ///"
      },
      "getItems()": {
        "notice": "VIEWABLE FUNCTIONS ///"
      }
    }
  }
}