{
  "contractName": "OrgTokenPaymaster",
  "abi": [
    {
      "anonymous": false,
      "inputs": [
        {
          "indexed": true,
          "internalType": "address",
          "name": "previousOwner",
          "type": "address"
        },
        {
          "indexed": true,
          "internalType": "address",
          "name": "newOwner",
          "type": "address"
        }
      ],
      "name": "OwnershipTransferred",
      "type": "event"
    },
    {
      "anonymous": false,
      "inputs": [
        {
          "indexed": false,
          "internalType": "uint256",
          "name": "",
          "type": "uint256"
        }
      ],
      "name": "PostRelayed",
      "type": "event"
    },
    {
      "anonymous": false,
      "inputs": [
        {
          "indexed": false,
          "internalType": "uint256",
          "name": "",
          "type": "uint256"
        }
      ],
      "name": "PreRelayed",
      "type": "event"
    },
    {
      "anonymous": false,
      "inputs": [
        {
          "indexed": false,
          "internalType": "address",
          "name": "_users",
          "type": "address"
        },
        {
          "indexed": false,
          "internalType": "address",
          "name": "_announcements",
          "type": "address"
        },
        {
          "indexed": false,
          "internalType": "address",
          "name": "_items",
          "type": "address"
        },
        {
          "indexed": false,
          "internalType": "address",
          "name": "_bounties",
          "type": "address"
        }
      ],
      "name": "TargetsSet",
      "type": "event"
    },
    {
      "inputs": [],
      "name": "FORWARDER_HUB_OVERHEAD",
      "outputs": [
        {
          "internalType": "uint256",
          "name": "",
          "type": "uint256"
        }
      ],
      "stateMutability": "view",
      "type": "function",
      "constant": true
    },
    {
      "inputs": [],
      "name": "PAYMASTER_ACCEPTANCE_BUDGET",
      "outputs": [
        {
          "internalType": "uint256",
          "name": "",
          "type": "uint256"
        }
      ],
      "stateMutability": "view",
      "type": "function",
      "constant": true
    },
    {
      "inputs": [],
      "name": "POST_RELAYED_CALL_GAS_LIMIT",
      "outputs": [
        {
          "internalType": "uint256",
          "name": "",
          "type": "uint256"
        }
      ],
      "stateMutability": "view",
      "type": "function",
      "constant": true
    },
    {
      "inputs": [],
      "name": "PRE_RELAYED_CALL_GAS_LIMIT",
      "outputs": [
        {
          "internalType": "uint256",
          "name": "",
          "type": "uint256"
        }
      ],
      "stateMutability": "view",
      "type": "function",
      "constant": true
    },
    {
      "inputs": [
        {
          "components": [
            {
              "components": [
                {
                  "internalType": "address",
                  "name": "from",
                  "type": "address"
                },
                {
                  "internalType": "address",
                  "name": "to",
                  "type": "address"
                },
                {
                  "internalType": "uint256",
                  "name": "value",
                  "type": "uint256"
                },
                {
                  "internalType": "uint256",
                  "name": "gas",
                  "type": "uint256"
                },
                {
                  "internalType": "uint256",
                  "name": "nonce",
                  "type": "uint256"
                },
                {
                  "internalType": "bytes",
                  "name": "data",
                  "type": "bytes"
                }
              ],
              "internalType": "struct IForwarder.ForwardRequest",
              "name": "request",
              "type": "tuple"
            },
            {
              "components": [
                {
                  "internalType": "uint256",
                  "name": "gasPrice",
                  "type": "uint256"
                },
                {
                  "internalType": "uint256",
                  "name": "pctRelayFee",
                  "type": "uint256"
                },
                {
                  "internalType": "uint256",
                  "name": "baseRelayFee",
                  "type": "uint256"
                },
                {
                  "internalType": "address",
                  "name": "relayWorker",
                  "type": "address"
                },
                {
                  "internalType": "address",
                  "name": "paymaster",
                  "type": "address"
                },
                {
                  "internalType": "bytes",
                  "name": "paymasterData",
                  "type": "bytes"
                },
                {
                  "internalType": "uint256",
                  "name": "clientId",
                  "type": "uint256"
                },
                {
                  "internalType": "address",
                  "name": "forwarder",
                  "type": "address"
                }
              ],
              "internalType": "struct GsnTypes.RelayData",
              "name": "relayData",
              "type": "tuple"
            }
          ],
          "internalType": "struct GsnTypes.RelayRequest",
          "name": "relayRequest",
          "type": "tuple"
        }
      ],
      "name": "_verifyForwarder",
      "outputs": [],
      "stateMutability": "view",
      "type": "function",
      "constant": true
    },
    {
      "inputs": [],
      "name": "announcements",
      "outputs": [
        {
          "internalType": "address",
          "name": "",
          "type": "address"
        }
      ],
      "stateMutability": "view",
      "type": "function",
      "constant": true
    },
    {
      "inputs": [],
      "name": "bounties",
      "outputs": [
        {
          "internalType": "address",
          "name": "",
          "type": "address"
        }
      ],
      "stateMutability": "view",
      "type": "function",
      "constant": true
    },
    {
      "inputs": [],
      "name": "getGasLimits",
      "outputs": [
        {
          "components": [
            {
              "internalType": "uint256",
              "name": "acceptanceBudget",
              "type": "uint256"
            },
            {
              "internalType": "uint256",
              "name": "preRelayedCallGasLimit",
              "type": "uint256"
            },
            {
              "internalType": "uint256",
              "name": "postRelayedCallGasLimit",
              "type": "uint256"
            }
          ],
          "internalType": "struct IPaymaster.GasLimits",
          "name": "limits",
          "type": "tuple"
        }
      ],
      "stateMutability": "view",
      "type": "function",
      "constant": true
    },
    {
      "inputs": [],
      "name": "getHubAddr",
      "outputs": [
        {
          "internalType": "address",
          "name": "",
          "type": "address"
        }
      ],
      "stateMutability": "view",
      "type": "function",
      "constant": true
    },
    {
      "inputs": [],
      "name": "getRelayHubDeposit",
      "outputs": [
        {
          "internalType": "uint256",
          "name": "",
          "type": "uint256"
        }
      ],
      "stateMutability": "view",
      "type": "function",
      "constant": true
    },
    {
      "inputs": [],
      "name": "items",
      "outputs": [
        {
          "internalType": "address",
          "name": "",
          "type": "address"
        }
      ],
      "stateMutability": "view",
      "type": "function",
      "constant": true
    },
    {
      "inputs": [],
      "name": "owner",
      "outputs": [
        {
          "internalType": "address",
          "name": "",
          "type": "address"
        }
      ],
      "stateMutability": "view",
      "type": "function",
      "constant": true
    },
    {
      "inputs": [],
      "name": "renounceOwnership",
      "outputs": [],
      "stateMutability": "nonpayable",
      "type": "function"
    },
    {
      "inputs": [
        {
          "internalType": "contract IRelayHub",
          "name": "hub",
          "type": "address"
        }
      ],
      "name": "setRelayHub",
      "outputs": [],
      "stateMutability": "nonpayable",
      "type": "function"
    },
    {
      "inputs": [
        {
          "internalType": "contract IForwarder",
          "name": "forwarder",
          "type": "address"
        }
      ],
      "name": "setTrustedForwarder",
      "outputs": [],
      "stateMutability": "nonpayable",
      "type": "function"
    },
    {
      "inputs": [
        {
          "internalType": "address",
          "name": "newOwner",
          "type": "address"
        }
      ],
      "name": "transferOwnership",
      "outputs": [],
      "stateMutability": "nonpayable",
      "type": "function"
    },
    {
      "inputs": [],
      "name": "trustedForwarder",
      "outputs": [
        {
          "internalType": "contract IForwarder",
          "name": "",
          "type": "address"
        }
      ],
      "stateMutability": "view",
      "type": "function",
      "constant": true
    },
    {
      "inputs": [],
      "name": "users",
      "outputs": [
        {
          "internalType": "address",
          "name": "",
          "type": "address"
        }
      ],
      "stateMutability": "view",
      "type": "function",
      "constant": true
    },
    {
      "inputs": [
        {
          "internalType": "uint256",
          "name": "amount",
          "type": "uint256"
        },
        {
          "internalType": "address payable",
          "name": "target",
          "type": "address"
        }
      ],
      "name": "withdrawRelayHubDepositTo",
      "outputs": [],
      "stateMutability": "nonpayable",
      "type": "function"
    },
    {
      "stateMutability": "payable",
      "type": "receive",
      "payable": true
    },
    {
      "inputs": [
        {
          "internalType": "address",
          "name": "_users",
          "type": "address"
        },
        {
          "internalType": "address",
          "name": "_announcements",
          "type": "address"
        },
        {
          "internalType": "address",
          "name": "_items",
          "type": "address"
        },
        {
          "internalType": "address",
          "name": "_bounties",
          "type": "address"
        }
      ],
      "name": "setTargets",
      "outputs": [],
      "stateMutability": "nonpayable",
      "type": "function"
    },
    {
      "inputs": [
        {
          "components": [
            {
              "components": [
                {
                  "internalType": "address",
                  "name": "from",
                  "type": "address"
                },
                {
                  "internalType": "address",
                  "name": "to",
                  "type": "address"
                },
                {
                  "internalType": "uint256",
                  "name": "value",
                  "type": "uint256"
                },
                {
                  "internalType": "uint256",
                  "name": "gas",
                  "type": "uint256"
                },
                {
                  "internalType": "uint256",
                  "name": "nonce",
                  "type": "uint256"
                },
                {
                  "internalType": "bytes",
                  "name": "data",
                  "type": "bytes"
                }
              ],
              "internalType": "struct IForwarder.ForwardRequest",
              "name": "request",
              "type": "tuple"
            },
            {
              "components": [
                {
                  "internalType": "uint256",
                  "name": "gasPrice",
                  "type": "uint256"
                },
                {
                  "internalType": "uint256",
                  "name": "pctRelayFee",
                  "type": "uint256"
                },
                {
                  "internalType": "uint256",
                  "name": "baseRelayFee",
                  "type": "uint256"
                },
                {
                  "internalType": "address",
                  "name": "relayWorker",
                  "type": "address"
                },
                {
                  "internalType": "address",
                  "name": "paymaster",
                  "type": "address"
                },
                {
                  "internalType": "bytes",
                  "name": "paymasterData",
                  "type": "bytes"
                },
                {
                  "internalType": "uint256",
                  "name": "clientId",
                  "type": "uint256"
                },
                {
                  "internalType": "address",
                  "name": "forwarder",
                  "type": "address"
                }
              ],
              "internalType": "struct GsnTypes.RelayData",
              "name": "relayData",
              "type": "tuple"
            }
          ],
          "internalType": "struct GsnTypes.RelayRequest",
          "name": "relayRequest",
          "type": "tuple"
        },
        {
          "internalType": "bytes",
          "name": "signature",
          "type": "bytes"
        },
        {
          "internalType": "bytes",
          "name": "approvalData",
          "type": "bytes"
        },
        {
          "internalType": "uint256",
          "name": "maxPossibleGas",
          "type": "uint256"
        }
      ],
      "name": "preRelayedCall",
      "outputs": [
        {
          "internalType": "bytes",
          "name": "context",
          "type": "bytes"
        },
        {
          "internalType": "bool",
          "name": "",
          "type": "bool"
        }
      ],
      "stateMutability": "nonpayable",
      "type": "function"
    },
    {
      "inputs": [
        {
          "internalType": "bytes",
          "name": "context",
          "type": "bytes"
        },
        {
          "internalType": "bool",
          "name": "success",
          "type": "bool"
        },
        {
          "internalType": "uint256",
          "name": "gasUseWithoutPost",
          "type": "uint256"
        },
        {
          "components": [
            {
              "internalType": "uint256",
              "name": "gasPrice",
              "type": "uint256"
            },
            {
              "internalType": "uint256",
              "name": "pctRelayFee",
              "type": "uint256"
            },
            {
              "internalType": "uint256",
              "name": "baseRelayFee",
              "type": "uint256"
            },
            {
              "internalType": "address",
              "name": "relayWorker",
              "type": "address"
            },
            {
              "internalType": "address",
              "name": "paymaster",
              "type": "address"
            },
            {
              "internalType": "bytes",
              "name": "paymasterData",
              "type": "bytes"
            },
            {
              "internalType": "uint256",
              "name": "clientId",
              "type": "uint256"
            },
            {
              "internalType": "address",
              "name": "forwarder",
              "type": "address"
            }
          ],
          "internalType": "struct GsnTypes.RelayData",
          "name": "relayData",
          "type": "tuple"
        }
      ],
      "name": "postRelayedCall",
      "outputs": [],
      "stateMutability": "nonpayable",
      "type": "function"
    },
    {
      "inputs": [],
      "name": "versionPaymaster",
      "outputs": [
        {
          "internalType": "string",
          "name": "",
          "type": "string"
        }
      ],
      "stateMutability": "view",
      "type": "function",
      "constant": true
    }
  ],
  "bytecode": "0x608060405234801561001057600080fd5b5060006100216100c460201b60201c565b9050806000806101000a81548173ffffffffffffffffffffffffffffffffffffffff021916908373ffffffffffffffffffffffffffffffffffffffff1602179055508073ffffffffffffffffffffffffffffffffffffffff16600073ffffffffffffffffffffffffffffffffffffffff167f8be0079c531659141344cd1fd0a4f28419497f9722a3daafe3b4186f6b6457e060405160405180910390a3506100cc565b600033905090565b61226d806100db6000396000f3fe6080604052600436106101445760003560e01c80639ea09211116100b6578063df463a661161006f578063df463a661461052b578063e1be746714610556578063e5c1244614610581578063f2020275146105bf578063f2fde38b146105ea578063f9c002f7146106135761026b565b80639ea092111461042d578063b7f0ce5f14610456578063b90b41cf14610481578063bbdaa3c9146104ac578063c06fad06146104d7578063da742228146105025761026b565b806374e861d61161010857806374e861d61461032f5780637bb052641461035a5780637da0a877146103835780638da5cb5b146103ae5780638e9483b0146103d9578063921276ea146104025761026b565b80632afe31c1146102705780632d14c4b71461029b5780635b7a6863146102c45780635ea54eee146102ed578063715018a6146103185761026b565b3661026b57600073ffffffffffffffffffffffffffffffffffffffff16600160009054906101000a900473ffffffffffffffffffffffffffffffffffffffff1673ffffffffffffffffffffffffffffffffffffffff1614156101db576040517f08c379a00000000000000000000000000000000000000000000000000000000081526004016101d290611f06565b60405180910390fd5b600160009054906101000a900473ffffffffffffffffffffffffffffffffffffffff1673ffffffffffffffffffffffffffffffffffffffff1663aa67c91934306040518363ffffffff1660e01b81526004016102379190611df9565b6000604051808303818588803b15801561025057600080fd5b505af1158015610264573d6000803e3d6000fd5b5050505050005b600080fd5b34801561027c57600080fd5b5061028561063e565b6040516102929190611fc1565b60405180910390f35b3480156102a757600080fd5b506102c260048036038101906102bd9190611a31565b6106f0565b005b3480156102d057600080fd5b506102eb60048036038101906102e69190611775565b610818565b005b3480156102f957600080fd5b50610302610a7d565b60405161030f9190611fa6565b60405180910390f35b34801561032457600080fd5b5061032d610ab2565b005b34801561033b57600080fd5b50610344610c07565b6040516103519190611dde565b60405180910390f35b34801561036657600080fd5b50610381600480360381019061037c91906118c2565b610c31565b005b34801561038f57600080fd5b50610398610d0b565b6040516103a59190611e89565b60405180910390f35b3480156103ba57600080fd5b506103c3610d31565b6040516103d09190611dde565b60405180910390f35b3480156103e557600080fd5b5061040060048036038101906103fb9190611801565b610d5a565b005b34801561040e57600080fd5b50610417610da6565b6040516104249190611ea4565b60405180910390f35b34801561043957600080fd5b50610454600480360381019061044f91906118eb565b610de3565b005b34801561046257600080fd5b5061046b610ea0565b6040516104789190611dde565b60405180910390f35b34801561048d57600080fd5b50610496610ec6565b6040516104a39190611fc1565b60405180910390f35b3480156104b857600080fd5b506104c1610ecc565b6040516104ce9190611fc1565b60405180910390f35b3480156104e357600080fd5b506104ec610ed3565b6040516104f99190611dde565b60405180910390f35b34801561050e57600080fd5b5061052960048036038101906105249190611899565b610ef9565b005b34801561053757600080fd5b50610540610fd3565b60405161054d9190611fc1565b60405180910390f35b34801561056257600080fd5b5061056b610fde565b6040516105789190611dde565b60405180910390f35b34801561058d57600080fd5b506105a860048036038101906105a3919061192c565b611004565b6040516105b6929190611e59565b60405180910390f35b3480156105cb57600080fd5b506105d4611208565b6040516105e19190611dde565b60405180910390f35b3480156105f657600080fd5b50610611600480360381019061060c919061174c565b61122e565b005b34801561061f57600080fd5b506106286113f2565b6040516106359190611fc1565b60405180910390f35b6000600160009054906101000a900473ffffffffffffffffffffffffffffffffffffffff1673ffffffffffffffffffffffffffffffffffffffff166370a08231306040518263ffffffff1660e01b815260040161069b9190611df9565b60206040518083038186803b1580156106b357600080fd5b505afa1580156106c7573d6000803e3d6000fd5b505050506040513d601f19601f820116820180604052508101906106eb9190611a08565b905090565b6106f86113f9565b73ffffffffffffffffffffffffffffffffffffffff166000809054906101000a900473ffffffffffffffffffffffffffffffffffffffff1673ffffffffffffffffffffffffffffffffffffffff1614610786576040517f08c379a000000000000000000000000000000000000000000000000000000000815260040161077d90611f86565b60405180910390fd5b600160009054906101000a900473ffffffffffffffffffffffffffffffffffffffff1673ffffffffffffffffffffffffffffffffffffffff1662f714ce83836040518363ffffffff1660e01b81526004016107e2929190611fdc565b600060405180830381600087803b1580156107fc57600080fd5b505af1158015610810573d6000803e3d6000fd5b505050505050565b6108206113f9565b73ffffffffffffffffffffffffffffffffffffffff166000809054906101000a900473ffffffffffffffffffffffffffffffffffffffff1673ffffffffffffffffffffffffffffffffffffffff16146108ae576040517f08c379a00000000000000000000000000000000000000000000000000000000081526004016108a590611f86565b60405180910390fd5b83600360006101000a81548173ffffffffffffffffffffffffffffffffffffffff021916908373ffffffffffffffffffffffffffffffffffffffff16021790555082600460006101000a81548173ffffffffffffffffffffffffffffffffffffffff021916908373ffffffffffffffffffffffffffffffffffffffff16021790555081600560006101000a81548173ffffffffffffffffffffffffffffffffffffffff021916908373ffffffffffffffffffffffffffffffffffffffff16021790555080600660006101000a81548173ffffffffffffffffffffffffffffffffffffffff021916908373ffffffffffffffffffffffffffffffffffffffff1602179055507fec6d447cd03cc888b500b6f8e869e30afc786ac289ff4dcd5c7d18fc84484fd5600360009054906101000a900473ffffffffffffffffffffffffffffffffffffffff16600460009054906101000a900473ffffffffffffffffffffffffffffffffffffffff16600560009054906101000a900473ffffffffffffffffffffffffffffffffffffffff16600660009054906101000a900473ffffffffffffffffffffffffffffffffffffffff16604051610a6f9493929190611e14565b60405180910390a150505050565b610a85611602565b604051806060016040528061c350620186a0018152602001620186a081526020016201adb0815250905090565b610aba6113f9565b73ffffffffffffffffffffffffffffffffffffffff166000809054906101000a900473ffffffffffffffffffffffffffffffffffffffff1673ffffffffffffffffffffffffffffffffffffffff1614610b48576040517f08c379a0000000000000000000000000000000000000000000000000000000008152600401610b3f90611f86565b60405180910390fd5b600073ffffffffffffffffffffffffffffffffffffffff166000809054906101000a900473ffffffffffffffffffffffffffffffffffffffff1673ffffffffffffffffffffffffffffffffffffffff167f8be0079c531659141344cd1fd0a4f28419497f9722a3daafe3b4186f6b6457e060405160405180910390a360008060006101000a81548173ffffffffffffffffffffffffffffffffffffffff021916908373ffffffffffffffffffffffffffffffffffffffff160217905550565b6000600160009054906101000a900473ffffffffffffffffffffffffffffffffffffffff16905090565b610c396113f9565b73ffffffffffffffffffffffffffffffffffffffff166000809054906101000a900473ffffffffffffffffffffffffffffffffffffffff1673ffffffffffffffffffffffffffffffffffffffff1614610cc7576040517f08c379a0000000000000000000000000000000000000000000000000000000008152600401610cbe90611f86565b60405180910390fd5b80600160006101000a81548173ffffffffffffffffffffffffffffffffffffffff021916908373ffffffffffffffffffffffffffffffffffffffff16021790555050565b600260009054906101000a900473ffffffffffffffffffffffffffffffffffffffff1681565b60008060009054906101000a900473ffffffffffffffffffffffffffffffffffffffff16905090565b7f142c6d2c03c5b3fcbb162bc0e230bbaae8c9032eb624a8fd44658e00efa63c908585810190610d8a91906119df565b604051610d979190611fc1565b60405180910390a15050505050565b60606040518060400160405280600581526020017f322e302e30000000000000000000000000000000000000000000000000000000815250905090565b808060200190610df39190612029565b60e0016020810190610e05919061174c565b73ffffffffffffffffffffffffffffffffffffffff16600260009054906101000a900473ffffffffffffffffffffffffffffffffffffffff1673ffffffffffffffffffffffffffffffffffffffff1614610e94576040517f08c379a0000000000000000000000000000000000000000000000000000000008152600401610e8b90611f26565b60405180910390fd5b610e9d81611401565b50565b600460009054906101000a900473ffffffffffffffffffffffffffffffffffffffff1681565b61c35081565b6201adb081565b600560009054906101000a900473ffffffffffffffffffffffffffffffffffffffff1681565b610f016113f9565b73ffffffffffffffffffffffffffffffffffffffff166000809054906101000a900473ffffffffffffffffffffffffffffffffffffffff1673ffffffffffffffffffffffffffffffffffffffff1614610f8f576040517f08c379a0000000000000000000000000000000000000000000000000000000008152600401610f8690611f86565b60405180910390fd5b80600260006101000a81548173ffffffffffffffffffffffffffffffffffffffff021916908373ffffffffffffffffffffffffffffffffffffffff16021790555050565b61c350620186a00181565b600660009054906101000a900473ffffffffffffffffffffffffffffffffffffffff1681565b6060600061101188610de3565b60008880600001906110239190612005565b6020016020810190611035919061174c565b90506000600360009054906101000a900473ffffffffffffffffffffffffffffffffffffffff1673ffffffffffffffffffffffffffffffffffffffff168273ffffffffffffffffffffffffffffffffffffffff1614806110e25750600460009054906101000a900473ffffffffffffffffffffffffffffffffffffffff1673ffffffffffffffffffffffffffffffffffffffff168273ffffffffffffffffffffffffffffffffffffffff16145b8061113a5750600560009054906101000a900473ffffffffffffffffffffffffffffffffffffffff1673ffffffffffffffffffffffffffffffffffffffff168273ffffffffffffffffffffffffffffffffffffffff16145b806111925750600660009054906101000a900473ffffffffffffffffffffffffffffffffffffffff1673ffffffffffffffffffffffffffffffffffffffff168273ffffffffffffffffffffffffffffffffffffffff16145b90508061119e57600080fd5b7f1fab8d24eefec3578055fc7f1c7cce1b10153c6731e0b5ca8147e8916d884b45426040516111cd9190611fc1565b60405180910390a1426040516020016111e69190611fc1565b6040516020818303038152906040526000935093505050965096945050505050565b600360009054906101000a900473ffffffffffffffffffffffffffffffffffffffff1681565b6112366113f9565b73ffffffffffffffffffffffffffffffffffffffff166000809054906101000a900473ffffffffffffffffffffffffffffffffffffffff1673ffffffffffffffffffffffffffffffffffffffff16146112c4576040517f08c379a00000000000000000000000000000000000000000000000000000000081526004016112bb90611f86565b60405180910390fd5b600073ffffffffffffffffffffffffffffffffffffffff168173ffffffffffffffffffffffffffffffffffffffff161415611334576040517f08c379a000000000000000000000000000000000000000000000000000000000815260040161132b90611ee6565b60405180910390fd5b8073ffffffffffffffffffffffffffffffffffffffff166000809054906101000a900473ffffffffffffffffffffffffffffffffffffffff1673ffffffffffffffffffffffffffffffffffffffff167f8be0079c531659141344cd1fd0a4f28419497f9722a3daafe3b4186f6b6457e060405160405180910390a3806000806101000a81548173ffffffffffffffffffffffffffffffffffffffff021916908373ffffffffffffffffffffffffffffffffffffffff16021790555050565b620186a081565b600033905090565b600060608280600001906114159190612005565b6020016020810190611427919061174c565b73ffffffffffffffffffffffffffffffffffffffff1663572b6c0560e01b8480602001906114559190612029565b60e0016020810190611467919061174c565b6040516024016114779190611dde565b604051602081830303815290604052907bffffffffffffffffffffffffffffffffffffffffffffffffffffffff19166020820180517bffffffffffffffffffffffffffffffffffffffffffffffffffffffff83818316178352505050506040516114e19190611dc7565b600060405180830381855afa9150503d806000811461151c576040519150601f19603f3d011682016040523d82523d6000602084013e611521565b606091505b509150915081611566576040517f08c379a000000000000000000000000000000000000000000000000000000000815260040161155d90611f66565b60405180910390fd5b60208151146115aa576040517f08c379a00000000000000000000000000000000000000000000000000000000081526004016115a190611f46565b60405180910390fd5b808060200190518101906115be91906117d8565b6115fd576040517f08c379a00000000000000000000000000000000000000000000000000000000081526004016115f490611ec6565b60405180910390fd5b505050565b60405180606001604052806000815260200160008152602001600081525090565b600081359050611632816121ad565b92915050565b600081359050611647816121c4565b92915050565b60008135905061165c816121db565b92915050565b600081519050611671816121db565b92915050565b60008083601f84011261168957600080fd5b8235905067ffffffffffffffff8111156116a257600080fd5b6020830191508360018202830111156116ba57600080fd5b9250929050565b6000813590506116d0816121f2565b92915050565b6000813590506116e581612209565b92915050565b600061010082840312156116fe57600080fd5b81905092915050565b60006040828403121561171957600080fd5b81905092915050565b60008135905061173181612220565b92915050565b60008151905061174681612220565b92915050565b60006020828403121561175e57600080fd5b600061176c84828501611623565b91505092915050565b6000806000806080858703121561178b57600080fd5b600061179987828801611623565b94505060206117aa87828801611623565b93505060406117bb87828801611623565b92505060606117cc87828801611623565b91505092959194509250565b6000602082840312156117ea57600080fd5b60006117f884828501611662565b91505092915050565b60008060008060006080868803121561181957600080fd5b600086013567ffffffffffffffff81111561183357600080fd5b61183f88828901611677565b955095505060206118528882890161164d565b935050604061186388828901611722565b925050606086013567ffffffffffffffff81111561188057600080fd5b61188c888289016116eb565b9150509295509295909350565b6000602082840312156118ab57600080fd5b60006118b9848285016116c1565b91505092915050565b6000602082840312156118d457600080fd5b60006118e2848285016116d6565b91505092915050565b6000602082840312156118fd57600080fd5b600082013567ffffffffffffffff81111561191757600080fd5b61192384828501611707565b91505092915050565b6000806000806000806080878903121561194557600080fd5b600087013567ffffffffffffffff81111561195f57600080fd5b61196b89828a01611707565b965050602087013567ffffffffffffffff81111561198857600080fd5b61199489828a01611677565b9550955050604087013567ffffffffffffffff8111156119b357600080fd5b6119bf89828a01611677565b935093505060606119d289828a01611722565b9150509295509295509295565b6000602082840312156119f157600080fd5b60006119ff84828501611722565b91505092915050565b600060208284031215611a1a57600080fd5b6000611a2884828501611737565b91505092915050565b60008060408385031215611a4457600080fd5b6000611a5285828601611722565b9250506020611a6385828601611638565b9150509250929050565b611a768161210f565b82525050565b611a85816120a3565b82525050565b611a9481612091565b82525050565b611aa3816120b5565b82525050565b6000611ab48261204e565b611abe8185612064565b9350611ace818560208601612169565b611ad78161219c565b840191505092915050565b6000611aed8261204e565b611af78185612075565b9350611b07818560208601612169565b80840191505092915050565b611b1c81612121565b82525050565b6000611b2d82612059565b611b378185612080565b9350611b47818560208601612169565b611b508161219c565b840191505092915050565b6000611b68601f83612080565b91507f696e76616c696420666f7277617264657220666f7220726563697069656e74006000830152602082019050919050565b6000611ba8602683612080565b91507f4f776e61626c653a206e6577206f776e657220697320746865207a65726f206160008301527f64647265737300000000000000000000000000000000000000000000000000006020830152604082019050919050565b6000611c0e601983612080565b91507f72656c6179206875622061646472657373206e6f7420736574000000000000006000830152602082019050919050565b6000611c4e601883612080565b91507f466f72776172646572206973206e6f74207472757374656400000000000000006000830152602082019050919050565b6000611c8e602c83612080565b91507f697354727573746564466f727761726465722072657475726e656420696e766160008301527f6c696420726573706f6e736500000000000000000000000000000000000000006020830152604082019050919050565b6000611cf4601b83612080565b91507f697354727573746564466f7277617264657220726576657274656400000000006000830152602082019050919050565b6000611d34602083612080565b91507f4f776e61626c653a2063616c6c6572206973206e6f7420746865206f776e65726000830152602082019050919050565b606082016000820151611d7d6000850182611da9565b506020820151611d906020850182611da9565b506040820151611da36040850182611da9565b50505050565b611db281612105565b82525050565b611dc181612105565b82525050565b6000611dd38284611ae2565b915081905092915050565b6000602082019050611df36000830184611a8b565b92915050565b6000602082019050611e0e6000830184611a6d565b92915050565b6000608082019050611e296000830187611a8b565b611e366020830186611a8b565b611e436040830185611a8b565b611e506060830184611a8b565b95945050505050565b60006040820190508181036000830152611e738185611aa9565b9050611e826020830184611a9a565b9392505050565b6000602082019050611e9e6000830184611b13565b92915050565b60006020820190508181036000830152611ebe8184611b22565b905092915050565b60006020820190508181036000830152611edf81611b5b565b9050919050565b60006020820190508181036000830152611eff81611b9b565b9050919050565b60006020820190508181036000830152611f1f81611c01565b9050919050565b60006020820190508181036000830152611f3f81611c41565b9050919050565b60006020820190508181036000830152611f5f81611c81565b9050919050565b60006020820190508181036000830152611f7f81611ce7565b9050919050565b60006020820190508181036000830152611f9f81611d27565b9050919050565b6000606082019050611fbb6000830184611d67565b92915050565b6000602082019050611fd66000830184611db8565b92915050565b6000604082019050611ff16000830185611db8565b611ffe6020830184611a7c565b9392505050565b60008235600160c00383360303811261201d57600080fd5b80830191505092915050565b6000823560016101000383360303811261204257600080fd5b80830191505092915050565b600081519050919050565b600081519050919050565b600082825260208201905092915050565b600081905092915050565b600082825260208201905092915050565b600061209c826120e5565b9050919050565b60006120ae826120e5565b9050919050565b60008115159050919050565b60006120cc82612091565b9050919050565b60006120de82612091565b9050919050565b600073ffffffffffffffffffffffffffffffffffffffff82169050919050565b6000819050919050565b600061211a82612145565b9050919050565b600061212c82612133565b9050919050565b600061213e826120e5565b9050919050565b600061215082612157565b9050919050565b6000612162826120e5565b9050919050565b60005b8381101561218757808201518184015260208101905061216c565b83811115612196576000848401525b50505050565b6000601f19601f8301169050919050565b6121b681612091565b81146121c157600080fd5b50565b6121cd816120a3565b81146121d857600080fd5b50565b6121e4816120b5565b81146121ef57600080fd5b50565b6121fb816120c1565b811461220657600080fd5b50565b612212816120d3565b811461221d57600080fd5b50565b61222981612105565b811461223457600080fd5b5056fea2646970667358221220cf6c9ddcd36a88b5e531cdc5af796337d8ba5e0c74ea7ef2379f56e0cfdf684e64736f6c634300060a0033",
  "immutableReferences": {},
  "source": "//SPDX-License-Identifier: UNLICENSED\npragma solidity >=0.6.0 <0.8.0;\npragma experimental ABIEncoderV2;\n\nimport \"@opengsn/gsn/contracts/BasePaymaster.sol\";\n\ncontract OrgTokenPaymaster is BasePaymaster {\n    address public users;\n    address public announcements;\n    address public items;\n    address public bounties;\n\n    // allow the owner to set target contracts\n    event TargetsSet(\n        address _users,\n        address _announcements,\n        address _items,\n        address _bounties\n    );\n\n    /**\n     * Set the target contracts for this paymaster\n     *\n     * @param _users - the address of the users contract\n     * @param _announcements - the address of the announcements contract\n     * @param _items - the address of the items contract\n     * @param _bounties - the address of the bounties contract\n     */\n    function setTargets(\n        address _users,\n        address _announcements,\n        address _items,\n        address _bounties\n    ) external onlyOwner {\n        users = _users;\n        announcements = _announcements;\n        items = _items;\n        bounties = _bounties;\n        emit TargetsSet(users, announcements, items, bounties);\n    }\n\n    event PreRelayed(uint256);\n    event PostRelayed(uint256);\n\n    function preRelayedCall(\n        GsnTypes.RelayRequest calldata relayRequest,\n        bytes calldata signature,\n        bytes calldata approvalData,\n        uint256 maxPossibleGas\n    ) external virtual override returns (bytes memory context, bool) {\n        _verifyForwarder(relayRequest);\n        (signature, approvalData, maxPossibleGas);\n        address _to = relayRequest.request.to;\n        bool accept = _to == users || _to == announcements || _to == items || _to == bounties;\n        require(accept);\n        emit PreRelayed(now);\n        return (abi.encode(now), false);\n    }\n\n    function postRelayedCall(\n        bytes calldata context,\n        bool success,\n        uint256 gasUseWithoutPost,\n        GsnTypes.RelayData calldata relayData\n    ) external virtual override {\n        (context, success, gasUseWithoutPost, relayData);\n        emit PostRelayed(abi.decode(context, (uint256)));\n    }\n\n    function versionPaymaster()\n        external\n        view\n        virtual\n        override\n        returns (string memory)\n    {\n        return \"2.0.0\";\n    }\n}\n",
  "sourcePath": "/home/jpag/orgtoken/contracts/contracts/gsn/OrgTokenPaymaster.sol",
  "compiler": {
    "name": "solc",
    "version": "0.6.10+commit.00c0fcaf.Emscripten.clang"
  },
  "schemaVersion": "3.3.3",
  "updatedAt": "2021-01-17T00:25:41.772Z",
  "networkType": "ethereum",
  "devdoc": {
    "methods": {
      "owner()": {
        "details": "Returns the address of the current owner."
      },
      "renounceOwnership()": {
        "details": "Leaves the contract without owner. It will not be possible to call `onlyOwner` functions anymore. Can only be called by the current owner. NOTE: Renouncing ownership will leave the contract without an owner, thereby removing any functionality that is only available to the owner."
      },
      "setTargets(address,address,address,address)": {
        "params": {
          "_announcements": "- the address of the announcements contract",
          "_bounties": "- the address of the bounties contract",
          "_items": "- the address of the items contract",
          "_users": "- the address of the users contract"
        }
      },
      "transferOwnership(address)": {
        "details": "Transfers ownership of the contract to a new account (`newOwner`). Can only be called by the current owner."
      }
    }
  },
  "userdoc": {
    "methods": {
      "getRelayHubDeposit()": {
        "notice": "check current deposit on relay hub."
      },
      "setTargets(address,address,address,address)": {
        "notice": "Set the target contracts for this paymaster"
      },
      "withdrawRelayHubDepositTo(uint256,address)": {
        "notice": "withdraw deposit from relayHub"
      }
    }
  }
}