{
  "contractName": "TwitterConsumer",
  "abi": [
    {
      "inputs": [
        {
          "internalType": "address",
          "name": "_bountyAddress",
          "type": "address"
        }
      ],
      "stateMutability": "nonpayable",
      "type": "constructor"
    },
    {
      "anonymous": false,
      "inputs": [
        {
          "indexed": true,
          "internalType": "bytes32",
          "name": "id",
          "type": "bytes32"
        }
      ],
      "name": "ChainlinkCancelled",
      "type": "event"
    },
    {
      "anonymous": false,
      "inputs": [
        {
          "indexed": true,
          "internalType": "bytes32",
          "name": "id",
          "type": "bytes32"
        }
      ],
      "name": "ChainlinkFulfilled",
      "type": "event"
    },
    {
      "anonymous": false,
      "inputs": [
        {
          "indexed": true,
          "internalType": "bytes32",
          "name": "id",
          "type": "bytes32"
        }
      ],
      "name": "ChainlinkRequested",
      "type": "event"
    },
    {
      "anonymous": false,
      "inputs": [
        {
          "indexed": false,
          "internalType": "address",
          "name": "caller",
          "type": "address"
        },
        {
          "indexed": false,
          "internalType": "string",
          "name": "tweetId",
          "type": "string"
        }
      ],
      "name": "OracleRequestMade",
      "type": "event"
    },
    {
      "inputs": [],
      "name": "fee",
      "outputs": [
        {
          "internalType": "uint256",
          "name": "",
          "type": "uint256"
        }
      ],
      "stateMutability": "view",
      "type": "function",
      "constant": true
    },
    {
      "inputs": [],
      "name": "jobId",
      "outputs": [
        {
          "internalType": "bytes32",
          "name": "",
          "type": "bytes32"
        }
      ],
      "stateMutability": "view",
      "type": "function",
      "constant": true
    },
    {
      "inputs": [],
      "name": "oracle",
      "outputs": [
        {
          "internalType": "address",
          "name": "",
          "type": "address"
        }
      ],
      "stateMutability": "view",
      "type": "function",
      "constant": true
    },
    {
      "inputs": [
        {
          "internalType": "string",
          "name": "_userId",
          "type": "string"
        },
        {
          "internalType": "string",
          "name": "_tweetId",
          "type": "string"
        }
      ],
      "name": "checkRetweets",
      "outputs": [
        {
          "internalType": "bytes32",
          "name": "requestId",
          "type": "bytes32"
        }
      ],
      "stateMutability": "nonpayable",
      "type": "function"
    },
    {
      "inputs": [
        {
          "internalType": "bytes32",
          "name": "_requestId",
          "type": "bytes32"
        },
        {
          "internalType": "bool",
          "name": "_status",
          "type": "bool"
        }
      ],
      "name": "fulfill",
      "outputs": [],
      "stateMutability": "nonpayable",
      "type": "function"
    }
  ],
  "bytecode": "0x6080604052600160045534801561001557600080fd5b506040516113c23803806113c28339818101604052602081101561003857600080fd5b81019080805190602001909291905050506100576101e260201b60201c565b7356dd6586db0d08c6ce7b2f2805af28616e082455600760006101000a81548173ffffffffffffffffffffffffffffffffffffffff021916908373ffffffffffffffffffffffffffffffffffffffff1602179055507f306438356466323436393238343632336133343639613766326261623966663260088190555067016345785d8a000060098190555080600660006101000a81548173ffffffffffffffffffffffffffffffffffffffff021916908373ffffffffffffffffffffffffffffffffffffffff160217905550600660009054906101000a900473ffffffffffffffffffffffffffffffffffffffff1673ffffffffffffffffffffffffffffffffffffffff166363a579d5306040518263ffffffff1660e01b8152600401808273ffffffffffffffffffffffffffffffffffffffff1673ffffffffffffffffffffffffffffffffffffffff168152602001915050600060405180830381600087803b1580156101c457600080fd5b505af11580156101d8573d6000803e3d6000fd5b50505050506102cb565b61028573c89bd4e1632d3a43cb03aaad5262cbe4038bc57173ffffffffffffffffffffffffffffffffffffffff166338cc48316040518163ffffffff1660e01b815260040160206040518083038186803b15801561023f57600080fd5b505afa158015610253573d6000803e3d6000fd5b505050506040513d602081101561026957600080fd5b810190808051906020019092919050505061028760201b60201c565b565b80600260006101000a81548173ffffffffffffffffffffffffffffffffffffffff021916908373ffffffffffffffffffffffffffffffffffffffff16021790555050565b6110e8806102da6000396000f3fe608060405234801561001057600080fd5b50600436106100575760003560e01c80637dc0d1d01461005c578063821bc7a4146100a6578063c2939d971461020c578063ddca3f431461022a578063fd68990a14610248575b600080fd5b610064610282565b604051808273ffffffffffffffffffffffffffffffffffffffff1673ffffffffffffffffffffffffffffffffffffffff16815260200191505060405180910390f35b6101f6600480360360408110156100bc57600080fd5b81019080803590602001906401000000008111156100d957600080fd5b8201836020820111156100eb57600080fd5b8035906020019184600183028401116401000000008311171561010d57600080fd5b91908080601f016020809104026020016040519081016040528093929190818152602001838380828437600081840152601f19601f8201169050808301925050505050505091929192908035906020019064010000000081111561017057600080fd5b82018360208201111561018257600080fd5b803590602001918460018302840111640100000000831117156101a457600080fd5b91908080601f016020809104026020016040519081016040528093929190818152602001838380828437600081840152601f19601f8201169050808301925050505050505091929192905050506102a8565b6040518082815260200191505060405180910390f35b610214610464565b6040518082815260200191505060405180910390f35b61023261046a565b6040518082815260200191505060405180910390f35b6102806004803603604081101561025e57600080fd5b8101908080359060200190929190803515159060200190929190505050610470565b005b600760009054906101000a900473ffffffffffffffffffffffffffffffffffffffff1681565b60006102b2610fc6565b6102c66008543063fd68990a60e01b610629565b90506103126040518060400160405280600681526020017f7573657269640000000000000000000000000000000000000000000000000000815250858361065a9092919063ffffffff16565b61035c6040518060400160405280600781526020017f7477656574696400000000000000000000000000000000000000000000000000815250848361065a9092919063ffffffff16565b7fa4727882259f627710ee97dacce8e0a57e328dc4b4f52227847de7dfa664c3843384604051808373ffffffffffffffffffffffffffffffffffffffff1673ffffffffffffffffffffffffffffffffffffffff16815260200180602001828103825283818151815260200191508051906020019080838360005b838110156103f15780820151818401526020810190506103d6565b50505050905090810190601f16801561041e5780820380516001836020036101000a031916815260200191505b50935050505060405180910390a161045b600760009054906101000a900473ffffffffffffffffffffffffffffffffffffffff168260095461068d565b91505092915050565b60085481565b60095481565b816005600082815260200190815260200160002060009054906101000a900473ffffffffffffffffffffffffffffffffffffffff1673ffffffffffffffffffffffffffffffffffffffff163373ffffffffffffffffffffffffffffffffffffffff1614610528576040517f08c379a000000000000000000000000000000000000000000000000000000000815260040180806020018281038252602881526020018061108b6028913960400191505060405180910390fd5b6005600082815260200190815260200160002060006101000a81549073ffffffffffffffffffffffffffffffffffffffff0219169055807f7cc135e0cebb02c3480ae5d74d377283180a2601f8f644edf7987b009316c63a60405160405180910390a2600660009054906101000a900473ffffffffffffffffffffffffffffffffffffffff1673ffffffffffffffffffffffffffffffffffffffff166379c0c56884846040518363ffffffff1660e01b8152600401808381526020018215151515815260200192505050600060405180830381600087803b15801561060c57600080fd5b505af1158015610620573d6000803e3d6000fd5b50505050505050565b610631610fc6565b610639610fc6565b61065085858584610945909392919063ffffffff16565b9150509392505050565b6106718284608001516109f590919063ffffffff16565b6106888184608001516109f590919063ffffffff16565b505050565b600030600454604051602001808373ffffffffffffffffffffffffffffffffffffffff1673ffffffffffffffffffffffffffffffffffffffff1660601b815260140182815260200192505050604051602081830303815290604052805190602001209050600454836060018181525050836005600083815260200190815260200160002060006101000a81548173ffffffffffffffffffffffffffffffffffffffff021916908373ffffffffffffffffffffffffffffffffffffffff160217905550807fb5e6e01e79f91267dc17b4e6314d5d4d03593d2ceee0fbb452b750bd70ea5af960405160405180910390a2600260009054906101000a900473ffffffffffffffffffffffffffffffffffffffff1673ffffffffffffffffffffffffffffffffffffffff16634000aea085846107c587610a1a565b6040518463ffffffff1660e01b8152600401808473ffffffffffffffffffffffffffffffffffffffff1673ffffffffffffffffffffffffffffffffffffffff16815260200183815260200180602001828103825283818151815260200191508051906020019080838360005b8381101561084c578082015181840152602081019050610831565b50505050905090810190601f1680156108795780820380516001836020036101000a031916815260200191505b50945050505050602060405180830381600087803b15801561089a57600080fd5b505af11580156108ae573d6000803e3d6000fd5b505050506040513d60208110156108c457600080fd5b810190808051906020019092919050505061092a576040517f08c379a00000000000000000000000000000000000000000000000000000000081526004018080602001828103825260238152602001806110686023913960400191505060405180910390fd5b60016004600082825401925050819055508090509392505050565b61094d610fc6565b61095d8560800151610100610c21565b508385600001818152505082856020019073ffffffffffffffffffffffffffffffffffffffff16908173ffffffffffffffffffffffffffffffffffffffff16815250508185604001907bffffffffffffffffffffffffffffffffffffffffffffffffffffffff191690817bffffffffffffffffffffffffffffffffffffffffffffffffffffffff191681525050849050949350505050565b610a028260038351610c75565b610a158183610dba90919063ffffffff16565b505050565b6060600360009054906101000a900473ffffffffffffffffffffffffffffffffffffffff1673ffffffffffffffffffffffffffffffffffffffff166340429946905060e01b60008084600001518560200151866040015187606001516001896080015160000151604051602401808973ffffffffffffffffffffffffffffffffffffffff1673ffffffffffffffffffffffffffffffffffffffff1681526020018881526020018781526020018673ffffffffffffffffffffffffffffffffffffffff1673ffffffffffffffffffffffffffffffffffffffff168152602001857bffffffffffffffffffffffffffffffffffffffffffffffffffffffff19167bffffffffffffffffffffffffffffffffffffffffffffffffffffffff1916815260200184815260200183815260200180602001828103825283818151815260200191508051906020019080838360005b83811015610b84578082015181840152602081019050610b69565b50505050905090810190601f168015610bb15780820380516001836020036101000a031916815260200191505b509950505050505050505050604051602081830303815290604052907bffffffffffffffffffffffffffffffffffffffffffffffffffffffff19166020820180517bffffffffffffffffffffffffffffffffffffffffffffffffffffffff83818316178352505050509050919050565b610c29611033565b600060208381610c3557fe5b0614610c4e5760208281610c4557fe5b06602003820191505b81836020018181525050604051808452600081528281016020016040525082905092915050565b60178111610ca257610c9c8160058460ff16901b60ff161784610ddc90919063ffffffff16565b50610db5565b60ff8111610ce457610cc7601860058460ff16901b1784610ddc90919063ffffffff16565b50610cde81600185610dfc9092919063ffffffff16565b50610db4565b61ffff8111610d2757610d0a601960058460ff16901b1784610ddc90919063ffffffff16565b50610d2181600285610dfc9092919063ffffffff16565b50610db3565b63ffffffff8111610d6c57610d4f601a60058460ff16901b1784610ddc90919063ffffffff16565b50610d6681600485610dfc9092919063ffffffff16565b50610db2565b67ffffffffffffffff8111610db157610d98601b60058460ff16901b1784610ddc90919063ffffffff16565b50610daf81600885610dfc9092919063ffffffff16565b505b5b5b5b5b505050565b610dc2611033565b610dd483846000015151848551610e1e565b905092915050565b610de4611033565b610df48384600001515184610ed7565b905092915050565b610e04611033565b610e15848560000151518585610f25565b90509392505050565b610e26611033565b8251821115610e3457600080fd5b84602001518285011115610e5f57610e5e856002610e588860200151888701610f86565b02610fa2565b5b600080865180518760208301019350808887011115610e7e5787860182525b60208701925050505b60208410610eaa5780518252602082019150602081019050602084039350610e87565b60006001856020036101000a03905080198251168184511681811785525050879350505050949350505050565b610edf611033565b83602001518310610efc57610efb846002866020015102610fa2565b5b8351805160208583010184815381861415610f18576001820183525b5050508390509392505050565b610f2d611033565b84602001518483011115610f4b57610f4a85600286850102610fa2565b5b60006001836101000a0390508551838682010185831982511617815281518588011115610f785784870182525b505085915050949350505050565b600081831115610f9857829050610f9c565b8190505b92915050565b606082600001519050610fb58383610c21565b50610fc08382610dba565b50505050565b6040518060a0016040528060008019168152602001600073ffffffffffffffffffffffffffffffffffffffff16815260200160007bffffffffffffffffffffffffffffffffffffffffffffffffffffffff191681526020016000815260200161102d61104d565b81525090565b604051806040016040528060608152602001600081525090565b60405180604001604052806060815260200160008152509056fe756e61626c6520746f207472616e73666572416e6443616c6c20746f206f7261636c65536f75726365206d75737420626520746865206f7261636c65206f66207468652072657175657374a2646970667358221220fb1e3ff701bda9a302ac9fe4a1f1e63a1f2a27cb11580de27710083c676fc32d64736f6c63430006010033",
  "source": "pragma solidity >=0.4.22 <0.8.0;\n\nimport \"./interfaces/ITwitterConsumer.sol\";\n\ncontract TwitterConsumer is ITwitterConsumer {\n\n    // // Map user address to twitter id\n    // mapping (string => address) public twitterIdToAddress;\n\n    // Limit 1 call per day for each user\n    // mapping(address => string) public probation;\n\n    // Map tweet id to user and determine whether or not they have retweeted\n    // mapping(string => mapping(address => bool)) public hasRetweeted;\n\n\n    // string public \n    /**\n     * Network: Kovan\n     * Oracle: Chainlink - 0x2f90A6D021db21e1B2A077c5a37B3C7E75D15b7e\n     * Job ID: Chainlink - 29fa9aa13bf1468788b7cc4a500a45b8\n     * Fee: 0.1 LINK\n     */\n\n    constructor(address _bountyAddress) public {\n        setPublicChainlinkToken();\n        oracle = 0x56dd6586DB0D08c6Ce7B2f2805af28616E082455;\n        jobId = \"0d85df2469284623a3469a7f2bab9ff2\";\n        fee = 0.1 * 10 ** 18; // 0.1 LINK\n        bountyContract = IBounties(_bountyAddress);\n        bountyContract.setConsumer(address(this));\n    }\n\n    function checkRetweets(string memory _userId, string memory _tweetId) public override returns (bytes32 requestId) {\n        // Limit the number of calls that an account can make a day\n        // require(now - probation[msg.sender] >= 1 days, \"Probationary period has not expired.\");\n\n        // Ensure user can only verify a url once\n        // require(!hasRetweeted[_url][msg.sender], \"You have already retweeted this tweet\")\n        \n        // If user does not exist in mapping then map address to id\n        // if(twitterIdToAddress[_userId] == address(0)) {\n        //     twitterIdToAddress[_userId] = msg.sender;\n        // }\n        \n        // Get the Chainlink Request struct\n        Chainlink.Request memory request = buildChainlinkRequest(jobId, address(this), this.fulfill.selector);\n        \n        request.add(\"userid\", _userId);\n        request.add(\"tweetid\", _tweetId);\n\n        \n        // Call has completed and probationary period has commenced\n        // probation[msg.sender] = now;\n\n        emit OracleRequestMade(msg.sender, _tweetId);\n\n        // Send Chainlink Request\n        return sendChainlinkRequestTo(oracle, request, fee);\n    }\n\n    /**\n     * Check if the specified user has retweeted\n     */ \n    function fulfill(bytes32 _requestId, bool _status) public override recordChainlinkFulfillment(_requestId)\n    {\n        bountyContract.fulfillChainlinkRequest(_requestId, _status);\n    }\n\n}",
  "sourcePath": "/home/kiwi/Desktop/sandbox/contracts/contracts/TwitterConsumer.sol",
  "compiler": {
    "name": "solc",
    "version": "0.6.1+commit.e6f7d5a4.Emscripten.clang"
  },
  "schemaVersion": "3.3.1",
  "updatedAt": "2021-01-11T22:21:52.844Z",
  "networkType": "ethereum",
  "devdoc": {
    "methods": {}
  },
  "userdoc": {
    "methods": {
      "constructor": "Network: Kovan Oracle: Chainlink - 0x2f90A6D021db21e1B2A077c5a37B3C7E75D15b7e Job ID: Chainlink - 29fa9aa13bf1468788b7cc4a500a45b8 Fee: 0.1 LINK",
      "fulfill(bytes32,bool)": {
        "notice": "Check if the specified user has retweeted"
      }
    }
  }
}