{
  "contractName": "Users",
  "abi": [
    {
      "inputs": [
        {
          "internalType": "string",
          "name": "_name",
          "type": "string"
        },
        {
          "internalType": "string",
          "name": "_twitterId",
          "type": "string"
        },
        {
          "internalType": "string",
          "name": "_imageUrl",
          "type": "string"
        },
        {
          "internalType": "address",
          "name": "_forwarder",
          "type": "address"
        }
      ],
      "stateMutability": "nonpayable",
      "type": "constructor"
    },
    {
      "anonymous": false,
      "inputs": [
        {
          "indexed": false,
          "internalType": "address",
          "name": "_user",
          "type": "address"
        }
      ],
      "name": "TwitterIDUpdated",
      "type": "event"
    },
    {
      "anonymous": false,
      "inputs": [
        {
          "indexed": false,
          "internalType": "address",
          "name": "_user",
          "type": "address"
        }
      ],
      "name": "UserEnrolled",
      "type": "event"
    },
    {
      "anonymous": false,
      "inputs": [
        {
          "indexed": false,
          "internalType": "address",
          "name": "_user",
          "type": "address"
        }
      ],
      "name": "UserPromoted",
      "type": "event"
    },
    {
      "inputs": [],
      "name": "bountyContract",
      "outputs": [
        {
          "internalType": "address",
          "name": "",
          "type": "address"
        }
      ],
      "stateMutability": "view",
      "type": "function",
      "constant": true
    },
    {
      "inputs": [],
      "name": "getTrustedForwarder",
      "outputs": [
        {
          "internalType": "address",
          "name": "",
          "type": "address"
        }
      ],
      "stateMutability": "view",
      "type": "function",
      "constant": true
    },
    {
      "inputs": [
        {
          "internalType": "address",
          "name": "forwarder",
          "type": "address"
        }
      ],
      "name": "isTrustedForwarder",
      "outputs": [
        {
          "internalType": "bool",
          "name": "",
          "type": "bool"
        }
      ],
      "stateMutability": "view",
      "type": "function",
      "constant": true
    },
    {
      "inputs": [],
      "name": "itemContract",
      "outputs": [
        {
          "internalType": "address",
          "name": "",
          "type": "address"
        }
      ],
      "stateMutability": "view",
      "type": "function",
      "constant": true
    },
    {
      "inputs": [],
      "name": "trustedForwarder",
      "outputs": [
        {
          "internalType": "address",
          "name": "",
          "type": "address"
        }
      ],
      "stateMutability": "view",
      "type": "function",
      "constant": true
    },
    {
      "inputs": [
        {
          "internalType": "address",
          "name": "",
          "type": "address"
        }
      ],
      "name": "userID",
      "outputs": [
        {
          "internalType": "uint256",
          "name": "",
          "type": "uint256"
        }
      ],
      "stateMutability": "view",
      "type": "function",
      "constant": true
    },
    {
      "inputs": [],
      "name": "userNonce",
      "outputs": [
        {
          "internalType": "uint256",
          "name": "",
          "type": "uint256"
        }
      ],
      "stateMutability": "view",
      "type": "function",
      "constant": true
    },
    {
      "inputs": [
        {
          "internalType": "uint256",
          "name": "",
          "type": "uint256"
        }
      ],
      "name": "users",
      "outputs": [
        {
          "internalType": "string",
          "name": "name",
          "type": "string"
        },
        {
          "internalType": "string",
          "name": "twitterId",
          "type": "string"
        },
        {
          "internalType": "string",
          "name": "imageUrl",
          "type": "string"
        },
        {
          "internalType": "address",
          "name": "at",
          "type": "address"
        },
        {
          "internalType": "uint256",
          "name": "balance",
          "type": "uint256"
        },
        {
          "internalType": "enum Role",
          "name": "role",
          "type": "uint8"
        }
      ],
      "stateMutability": "view",
      "type": "function",
      "constant": true
    },
    {
      "inputs": [],
      "name": "versionRecipient",
      "outputs": [
        {
          "internalType": "string",
          "name": "",
          "type": "string"
        }
      ],
      "stateMutability": "view",
      "type": "function",
      "constant": true
    },
    {
      "inputs": [
        {
          "internalType": "address",
          "name": "_at",
          "type": "address"
        },
        {
          "internalType": "string",
          "name": "_name",
          "type": "string"
        },
        {
          "internalType": "string",
          "name": "_twitterId",
          "type": "string"
        },
        {
          "internalType": "string",
          "name": "_imageUrl",
          "type": "string"
        }
      ],
      "name": "enrollAdmin",
      "outputs": [
        {
          "internalType": "uint256",
          "name": "_nonce",
          "type": "uint256"
        }
      ],
      "stateMutability": "nonpayable",
      "type": "function"
    },
    {
      "inputs": [
        {
          "internalType": "string",
          "name": "_name",
          "type": "string"
        },
        {
          "internalType": "string",
          "name": "_twitterId",
          "type": "string"
        },
        {
          "internalType": "string",
          "name": "_imageUrl",
          "type": "string"
        }
      ],
      "name": "enroll",
      "outputs": [
        {
          "internalType": "uint256",
          "name": "_nonce",
          "type": "uint256"
        }
      ],
      "stateMutability": "nonpayable",
      "type": "function"
    },
    {
      "inputs": [
        {
          "internalType": "address",
          "name": "_user",
          "type": "address"
        }
      ],
      "name": "promote",
      "outputs": [],
      "stateMutability": "nonpayable",
      "type": "function"
    },
    {
      "inputs": [
        {
          "internalType": "string",
          "name": "_twitterId",
          "type": "string"
        }
      ],
      "name": "setTwitterId",
      "outputs": [],
      "stateMutability": "nonpayable",
      "type": "function"
    },
    {
      "inputs": [
        {
          "internalType": "address",
          "name": "_at",
          "type": "address"
        }
      ],
      "name": "setBounty",
      "outputs": [],
      "stateMutability": "nonpayable",
      "type": "function"
    },
    {
      "inputs": [
        {
          "internalType": "address",
          "name": "_user",
          "type": "address"
        },
        {
          "internalType": "uint256",
          "name": "_item",
          "type": "uint256"
        },
        {
          "internalType": "uint256",
          "name": "_value",
          "type": "uint256"
        }
      ],
      "name": "addItem",
      "outputs": [],
      "stateMutability": "nonpayable",
      "type": "function"
    },
    {
      "inputs": [
        {
          "internalType": "address",
          "name": "_at",
          "type": "address"
        }
      ],
      "name": "setItem",
      "outputs": [],
      "stateMutability": "nonpayable",
      "type": "function"
    },
    {
      "inputs": [
        {
          "internalType": "address",
          "name": "_user",
          "type": "address"
        },
        {
          "internalType": "uint256",
          "name": "_bounty",
          "type": "uint256"
        },
        {
          "internalType": "uint256",
          "name": "_value",
          "type": "uint256"
        }
      ],
      "name": "addBounty",
      "outputs": [],
      "stateMutability": "nonpayable",
      "type": "function"
    },
    {
      "inputs": [
        {
          "internalType": "address",
          "name": "_user",
          "type": "address"
        }
      ],
      "name": "role",
      "outputs": [
        {
          "internalType": "uint256",
          "name": "_role",
          "type": "uint256"
        }
      ],
      "stateMutability": "view",
      "type": "function",
      "constant": true
    },
    {
      "inputs": [
        {
          "internalType": "address",
          "name": "_user",
          "type": "address"
        }
      ],
      "name": "balanceOf",
      "outputs": [
        {
          "internalType": "uint256",
          "name": "_balance",
          "type": "uint256"
        }
      ],
      "stateMutability": "view",
      "type": "function",
      "constant": true
    },
    {
      "inputs": [
        {
          "internalType": "address",
          "name": "_user",
          "type": "address"
        }
      ],
      "name": "name",
      "outputs": [
        {
          "internalType": "string",
          "name": "_name",
          "type": "string"
        }
      ],
      "stateMutability": "view",
      "type": "function",
      "constant": true
    },
    {
      "inputs": [
        {
          "internalType": "address",
          "name": "_user",
          "type": "address"
        }
      ],
      "name": "getUser",
      "outputs": [
        {
          "internalType": "string",
          "name": "_name",
          "type": "string"
        },
        {
          "internalType": "string",
          "name": "_imageUrl",
          "type": "string"
        },
        {
          "internalType": "string",
          "name": "_twitterId",
          "type": "string"
        },
        {
          "internalType": "uint256",
          "name": "_balance",
          "type": "uint256"
        },
        {
          "internalType": "uint256",
          "name": "_role",
          "type": "uint256"
        },
        {
          "internalType": "uint256[]",
          "name": "_items",
          "type": "uint256[]"
        },
        {
          "internalType": "uint256[]",
          "name": "_bounties",
          "type": "uint256[]"
        },
        {
          "internalType": "address",
          "name": "_at",
          "type": "address"
        }
      ],
      "stateMutability": "view",
      "type": "function",
      "constant": true
    },
    {
      "inputs": [],
      "name": "getUsers",
      "outputs": [
        {
          "internalType": "uint256",
          "name": "_nonce",
          "type": "uint256"
        },
        {
          "internalType": "string[]",
          "name": "_names",
          "type": "string[]"
        },
        {
          "internalType": "string[]",
          "name": "_imageUrls",
          "type": "string[]"
        },
        {
          "internalType": "uint256[]",
          "name": "_balances",
          "type": "uint256[]"
        },
        {
          "internalType": "uint256[]",
          "name": "_roles",
          "type": "uint256[]"
        },
        {
          "internalType": "address[]",
          "name": "_ats",
          "type": "address[]"
        }
      ],
      "stateMutability": "view",
      "type": "function",
      "constant": true
    },
    {
      "inputs": [
        {
          "internalType": "address",
          "name": "_from",
          "type": "address"
        }
      ],
      "name": "getTwitterId",
      "outputs": [
        {
          "internalType": "string",
          "name": "",
          "type": "string"
        }
      ],
      "stateMutability": "view",
      "type": "function",
      "constant": true
    }
  ],
  "bytecode": "0x60806040526040518060400160405280600581526020017f322e302e3000000000000000000000000000000000000000000000000000000081525060069080519060200190620000519291906200045c565b503480156200005f57600080fd5b506040516200353d3803806200353d83398181016040528101906200008591906200057e565b620000988484846200011e60201b60201c565b50600260056000600354815260200190815260200160002060050160006101000a81548160ff02191690836002811115620000cf57fe5b0217905550806000806101000a81548173ffffffffffffffffffffffffffffffffffffffff021916908373ffffffffffffffffffffffffffffffffffffffff1602179055505050505062000857565b60008060046000620001356200036360201b60201c565b73ffffffffffffffffffffffffffffffffffffffff1673ffffffffffffffffffffffffffffffffffffffff1681526020019081526020016000205414620001b3576040517f08c379a0000000000000000000000000000000000000000000000000000000008152600401620001aa90620006e7565b60405180910390fd5b620001d06001600354620003ab60201b62001e561790919060201c565b60038190555060035460046000620001ed6200036360201b60201c565b73ffffffffffffffffffffffffffffffffffffffff1673ffffffffffffffffffffffffffffffffffffffff1681526020019081526020016000208190555060006005600060035481526020019081526020016000209050848160000190805190602001906200025e9291906200045c565b5083816001019080519060200190620002799291906200045c565b5082816002019080519060200190620002949291906200045c565b50620002a56200036360201b60201c565b8160030160006101000a81548173ffffffffffffffffffffffffffffffffffffffff021916908373ffffffffffffffffffffffffffffffffffffffff16021790555060018160050160006101000a81548160ff021916908360028111156200030957fe5b02179055507f2f98b1c76410ce8512191c4f9392c1eec008c4254f2366b1ab7eb195702f0d586200033f6200036360201b60201c565b6040516200034e9190620006ca565b60405180910390a16003549150509392505050565b6000601860003690501015801562000388575062000387336200040360201b60201c565b5b156200039e57601436033560601c9050620003a7565b339050620003a8565b5b90565b600080828401905083811015620003f9576040517f08c379a0000000000000000000000000000000000000000000000000000000008152600401620003f09062000709565b60405180910390fd5b8091505092915050565b60008060009054906101000a900473ffffffffffffffffffffffffffffffffffffffff1673ffffffffffffffffffffffffffffffffffffffff168273ffffffffffffffffffffffffffffffffffffffff16149050919050565b828054600181600116156101000203166002900490600052602060002090601f016020900481019282601f106200049f57805160ff1916838001178555620004d0565b82800160010185558215620004d0579182015b82811115620004cf578251825591602001919060010190620004b2565b5b509050620004df9190620004e3565b5090565b6200050891905b8082111562000504576000816000905550600101620004ea565b5090565b90565b6000815190506200051c816200083d565b92915050565b600082601f8301126200053457600080fd5b81516200054b620005458262000759565b6200072b565b915080825260208301602083018583830111156200056857600080fd5b6200057583828462000807565b50505092915050565b600080600080608085870312156200059557600080fd5b600085015167ffffffffffffffff811115620005b057600080fd5b620005be8782880162000522565b945050602085015167ffffffffffffffff811115620005dc57600080fd5b620005ea8782880162000522565b935050604085015167ffffffffffffffff8111156200060857600080fd5b620006168782880162000522565b925050606062000629878288016200050b565b91505092959194509250565b6200064081620007cb565b82525050565b60006200065560108362000786565b91507f5573657220697320656e726f6c6c6564000000000000000000000000000000006000830152602082019050919050565b600062000697601b8362000786565b91507f536166654d6174683a206164646974696f6e206f766572666c6f7700000000006000830152602082019050919050565b6000602082019050620006e1600083018462000635565b92915050565b60006020820190508181036000830152620007028162000646565b9050919050565b60006020820190508181036000830152620007248162000688565b9050919050565b6000604051905081810181811067ffffffffffffffff821117156200074f57600080fd5b8060405250919050565b600067ffffffffffffffff8211156200077157600080fd5b601f19601f8301169050602081019050919050565b600082825260208201905092915050565b6000620007a482620007ab565b9050919050565b600073ffffffffffffffffffffffffffffffffffffffff82169050919050565b6000620007d882620007df565b9050919050565b6000620007ec82620007f3565b9050919050565b60006200080082620007ab565b9050919050565b60005b83811015620008275780820151818401526020810190506200080a565b8381111562000837576000848401525b50505050565b620008488162000797565b81146200085457600080fd5b50565b612cd680620008676000396000f3fe608060405234801561001057600080fd5b506004361061014c5760003560e01c80638d76f940116100c3578063d590f8c91161007c578063d590f8c9146103e8578063ddf9fa0914610418578063e249e4fe14610436578063e43f3e7814610452578063eda7794e1461046e578063f8609df11461049e5761014c565b80638d76f94014610328578063bc300ed314610346578063c1b91dd914610362578063ce1b815f1461037e578063d09a169c1461039c578063d0e0813a146103cc5761014c565b8063486ff0cd11610115578063486ff0cd14610225578063572b6c05146102435780636f77926b1461027357806370a08231146102aa5780637da0a877146102da5780638b1a3bb1146102f85761014c565b8062ce8e3e146101515780630198489214610174578063165ed276146101a45780632055e0d9146101c0578063365b98b2146101f0575b600080fd5b6101596104bc565b60405161016b969594939291906129ba565b60405180910390f35b61018e60048036038101906101899190612115565b610944565b60405161019b91906127a6565b60405180910390f35b6101be60048036038101906101b99190612115565b610a3b565b005b6101da60048036038101906101d5919061213e565b610ada565b6040516101e7919061299f565b60405180910390f35b61020a60048036038101906102059190612310565b610d11565b60405161021c969594939291906127c8565b60405180910390f35b61022d610f42565b60405161023a91906127a6565b60405180910390f35b61025d60048036038101906102589190612115565b610fe0565b60405161026a919061278b565b60405180910390f35b61028d60048036038101906102889190612115565b611039565b6040516102a198979695949392919061283e565b60405180910390f35b6102c460048036038101906102bf9190612115565b611420565b6040516102d1919061299f565b60405180910390f35b6102e261147f565b6040516102ef9190612755565b60405180910390f35b610312600480360381019061030d9190612115565b6114a4565b60405161031f91906127a6565b60405180910390f35b61033061159b565b60405161033d9190612755565b60405180910390f35b610360600480360381019061035b9190612115565b6115c1565b005b61037c600480360381019061037791906121e9565b611660565b005b610386611796565b6040516103939190612755565b60405180910390f35b6103b660048036038101906103b19190612279565b6117bf565b6040516103c3919061299f565b60405180910390f35b6103e660048036038101906103e19190612115565b6119d1565b005b61040260048036038101906103fd9190612115565b611bb3565b60405161040f919061299f565b60405180910390f35b610420611c2a565b60405161042d9190612755565b60405180910390f35b610450600480360381019061044b9190612238565b611c50565b005b61046c600480360381019061046791906121e9565b611d02565b005b61048860048036038101906104839190612115565b611e38565b604051610495919061299f565b60405180910390f35b6104a6611e50565b6040516104b3919061299f565b60405180910390f35b6000606080606080606060035495508567ffffffffffffffff811180156104e257600080fd5b5060405190808252806020026020018201604052801561051657816020015b60608152602001906001900390816105015790505b5094508567ffffffffffffffff8111801561053057600080fd5b5060405190808252806020026020018201604052801561056457816020015b606081526020019060019003908161054f5790505b5093508567ffffffffffffffff8111801561057e57600080fd5b506040519080825280602002602001820160405280156105ad5781602001602082028036833780820191505090505b5092508567ffffffffffffffff811180156105c757600080fd5b506040519080825280602002602001820160405280156105f65781602001602082028036833780820191505090505b5091508567ffffffffffffffff8111801561061057600080fd5b5060405190808252806020026020018201604052801561063f5781602001602082028036833780820191505090505b50905060008090505b8681101561093b5760056000610668600184611e5690919063ffffffff16565b81526020019081526020016000206000018054600181600116156101000203166002900480601f01602080910402602001604051908101604052809291908181526020018280546001816001161561010002031660029004801561070d5780601f106106e25761010080835404028352916020019161070d565b820191906000526020600020905b8154815290600101906020018083116106f057829003601f168201915b505050505086828151811061071e57fe5b602002602001018190525060056000610741600184611e5690919063ffffffff16565b81526020019081526020016000206002018054600181600116156101000203166002900480601f0160208091040260200160405190810160405280929190818152602001828054600181600116156101000203166002900480156107e65780601f106107bb576101008083540402835291602001916107e6565b820191906000526020600020905b8154815290600101906020018083116107c957829003601f168201915b50505050508582815181106107f757fe5b60200260200101819052506005600061081a600184611e5690919063ffffffff16565b81526020019081526020016000206004015484828151811061083857fe5b6020026020010181815250506005600061085c600184611e5690919063ffffffff16565b815260200190815260200160002060050160009054906101000a900460ff16600281111561088657fe5b83828151811061089257fe5b602002602001018181525050600560006108b6600184611e5690919063ffffffff16565b815260200190815260200160002060030160009054906101000a900473ffffffffffffffffffffffffffffffffffffffff168282815181106108f457fe5b602002602001019073ffffffffffffffffffffffffffffffffffffffff16908173ffffffffffffffffffffffffffffffffffffffff16815250508080600101915050610648565b50909192939495565b606060056000600460008573ffffffffffffffffffffffffffffffffffffffff1673ffffffffffffffffffffffffffffffffffffffff1681526020019081526020016000205481526020019081526020016000206000018054600181600116156101000203166002900480601f016020809104026020016040519081016040528092919081815260200182805460018160011615610100020316600290048015610a2f5780601f10610a0457610100808354040283529160200191610a2f565b820191906000526020600020905b815481529060010190602001808311610a1257829003601f168201915b50505050509050919050565b600073ffffffffffffffffffffffffffffffffffffffff16600160009054906101000a900473ffffffffffffffffffffffffffffffffffffffff1673ffffffffffffffffffffffffffffffffffffffff1614610a9657600080fd5b80600160006101000a81548173ffffffffffffffffffffffffffffffffffffffff021916908373ffffffffffffffffffffffffffffffffffffffff16021790555050565b6000600280811115610ae857fe5b6005600060046000610af8611eab565b73ffffffffffffffffffffffffffffffffffffffff1673ffffffffffffffffffffffffffffffffffffffff16815260200190815260200160002054815260200190815260200160002060050160009054906101000a900460ff166002811115610b5d57fe5b14610b9d576040517f08c379a0000000000000000000000000000000000000000000000000000000008152600401610b949061297f565b60405180910390fd5b610bb36001600354611e5690919063ffffffff16565b600381905550600354600460008773ffffffffffffffffffffffffffffffffffffffff1673ffffffffffffffffffffffffffffffffffffffff168152602001908152602001600020819055506000600560006003548152602001908152602001600020905084816000019080519060200190610c30929190611f8c565b5083816001019080519060200190610c49929190611f8c565b5082816002019080519060200190610c62929190611f8c565b50858160030160006101000a81548173ffffffffffffffffffffffffffffffffffffffff021916908373ffffffffffffffffffffffffffffffffffffffff16021790555060028160050160006101000a81548160ff02191690836002811115610cc757fe5b02179055507f2f98b1c76410ce8512191c4f9392c1eec008c4254f2366b1ab7eb195702f0d5886604051610cfb9190612755565b60405180910390a1600354915050949350505050565b6005602052806000526040600020600091509050806000018054600181600116156101000203166002900480601f016020809104026020016040519081016040528092919081815260200182805460018160011615610100020316600290048015610dbd5780601f10610d9257610100808354040283529160200191610dbd565b820191906000526020600020905b815481529060010190602001808311610da057829003601f168201915b505050505090806001018054600181600116156101000203166002900480601f016020809104026020016040519081016040528092919081815260200182805460018160011615610100020316600290048015610e5b5780601f10610e3057610100808354040283529160200191610e5b565b820191906000526020600020905b815481529060010190602001808311610e3e57829003601f168201915b505050505090806002018054600181600116156101000203166002900480601f016020809104026020016040519081016040528092919081815260200182805460018160011615610100020316600290048015610ef95780601f10610ece57610100808354040283529160200191610ef9565b820191906000526020600020905b815481529060010190602001808311610edc57829003601f168201915b5050505050908060030160009054906101000a900473ffffffffffffffffffffffffffffffffffffffff16908060040154908060050160009054906101000a900460ff16905086565b60068054600181600116156101000203166002900480601f016020809104026020016040519081016040528092919081815260200182805460018160011615610100020316600290048015610fd85780601f10610fad57610100808354040283529160200191610fd8565b820191906000526020600020905b815481529060010190602001808311610fbb57829003601f168201915b505050505081565b60008060009054906101000a900473ffffffffffffffffffffffffffffffffffffffff1673ffffffffffffffffffffffffffffffffffffffff168273ffffffffffffffffffffffffffffffffffffffff16149050919050565b6060806060600080606080600061104e61200c565b60056000600460008d73ffffffffffffffffffffffffffffffffffffffff1673ffffffffffffffffffffffffffffffffffffffff16815260200190815260200160002054815260200190815260200160002060405180610100016040529081600082018054600181600116156101000203166002900480601f0160208091040260200160405190810160405280929190818152602001828054600181600116156101000203166002900480156111455780601f1061111a57610100808354040283529160200191611145565b820191906000526020600020905b81548152906001019060200180831161112857829003601f168201915b50505050508152602001600182018054600181600116156101000203166002900480601f0160208091040260200160405190810160405280929190818152602001828054600181600116156101000203166002900480156111e75780601f106111bc576101008083540402835291602001916111e7565b820191906000526020600020905b8154815290600101906020018083116111ca57829003601f168201915b50505050508152602001600282018054600181600116156101000203166002900480601f0160208091040260200160405190810160405280929190818152602001828054600181600116156101000203166002900480156112895780601f1061125e57610100808354040283529160200191611289565b820191906000526020600020905b81548152906001019060200180831161126c57829003601f168201915b505050505081526020016003820160009054906101000a900473ffffffffffffffffffffffffffffffffffffffff1673ffffffffffffffffffffffffffffffffffffffff1673ffffffffffffffffffffffffffffffffffffffff168152602001600482015481526020016005820160009054906101000a900460ff16600281111561131057fe5b600281111561131b57fe5b81526020016006820180548060200260200160405190810160405280929190818152602001828054801561136e57602002820191906000526020600020905b81548152602001906001019080831161135a575b50505050508152602001600782018054806020026020016040519081016040528092919081815260200182805480156113c657602002820191906000526020600020905b8154815260200190600101908083116113b2575b5050505050815250509050806000015198508060400151975080602001519650806080015195508060a0015160028111156113fd57fe5b94508060c0015193508060e0015192508060600151915050919395975091939597565b600060056000600460008573ffffffffffffffffffffffffffffffffffffffff1673ffffffffffffffffffffffffffffffffffffffff168152602001908152602001600020548152602001908152602001600020600401549050919050565b6000809054906101000a900473ffffffffffffffffffffffffffffffffffffffff1681565b606060056000600460008573ffffffffffffffffffffffffffffffffffffffff1673ffffffffffffffffffffffffffffffffffffffff1681526020019081526020016000205481526020019081526020016000206001018054600181600116156101000203166002900480601f01602080910402602001604051908101604052809291908181526020018280546001816001161561010002031660029004801561158f5780601f106115645761010080835404028352916020019161158f565b820191906000526020600020905b81548152906001019060200180831161157257829003601f168201915b50505050509050919050565b600160009054906101000a900473ffffffffffffffffffffffffffffffffffffffff1681565b600073ffffffffffffffffffffffffffffffffffffffff16600260009054906101000a900473ffffffffffffffffffffffffffffffffffffffff1673ffffffffffffffffffffffffffffffffffffffff161461161c57600080fd5b80600260006101000a81548173ffffffffffffffffffffffffffffffffffffffff021916908373ffffffffffffffffffffffffffffffffffffffff16021790555050565b600160009054906101000a900473ffffffffffffffffffffffffffffffffffffffff1673ffffffffffffffffffffffffffffffffffffffff163373ffffffffffffffffffffffffffffffffffffffff16146116f0576040517f08c379a00000000000000000000000000000000000000000000000000000000081526004016116e79061295f565b60405180910390fd5b600060056000600460008773ffffffffffffffffffffffffffffffffffffffff1673ffffffffffffffffffffffffffffffffffffffff168152602001908152602001600020548152602001908152602001600020905080600601839080600181540180825580915050600190039060005260206000200160009091909190915055611788828260040154611ee790919063ffffffff16565b816004018190555050505050565b60008060009054906101000a900473ffffffffffffffffffffffffffffffffffffffff16905090565b600080600460006117ce611eab565b73ffffffffffffffffffffffffffffffffffffffff1673ffffffffffffffffffffffffffffffffffffffff1681526020019081526020016000205414611849576040517f08c379a0000000000000000000000000000000000000000000000000000000008152600401611840906128ff565b60405180910390fd5b61185f6001600354611e5690919063ffffffff16565b60038190555060035460046000611874611eab565b73ffffffffffffffffffffffffffffffffffffffff1673ffffffffffffffffffffffffffffffffffffffff1681526020019081526020016000208190555060006005600060035481526020019081526020016000209050848160000190805190602001906118e3929190611f8c565b50838160010190805190602001906118fc929190611f8c565b5082816002019080519060200190611915929190611f8c565b5061191e611eab565b8160030160006101000a81548173ffffffffffffffffffffffffffffffffffffffff021916908373ffffffffffffffffffffffffffffffffffffffff16021790555060018160050160006101000a81548160ff0219169083600281111561198157fe5b02179055507f2f98b1c76410ce8512191c4f9392c1eec008c4254f2366b1ab7eb195702f0d586119af611eab565b6040516119bc9190612770565b60405180910390a16003549150509392505050565b6002808111156119dd57fe5b60056000600460006119ed611eab565b73ffffffffffffffffffffffffffffffffffffffff1673ffffffffffffffffffffffffffffffffffffffff16815260200190815260200160002054815260200190815260200160002060050160009054906101000a900460ff166002811115611a5257fe5b14611a92576040517f08c379a0000000000000000000000000000000000000000000000000000000008152600401611a899061297f565b60405180910390fd5b600060056000600460008573ffffffffffffffffffffffffffffffffffffffff1673ffffffffffffffffffffffffffffffffffffffff168152602001908152602001600020548152602001908152602001600020905060016002811115611af557fe5b8160050160009054906101000a900460ff166002811115611b1257fe5b14611b52576040517f08c379a0000000000000000000000000000000000000000000000000000000008152600401611b49906128df565b60405180910390fd5b60028160050160006101000a81548160ff02191690836002811115611b7357fe5b02179055507f11434ddb2adc98734adcfc3abc944a402adef5b8ee6203e3bcc2d6d23bf2364882604051611ba79190612755565b60405180910390a15050565b600060056000600460008573ffffffffffffffffffffffffffffffffffffffff1673ffffffffffffffffffffffffffffffffffffffff16815260200190815260200160002054815260200190815260200160002060050160009054906101000a900460ff166002811115611c2357fe5b9050919050565b600260009054906101000a900473ffffffffffffffffffffffffffffffffffffffff1681565b806005600060046000611c61611eab565b73ffffffffffffffffffffffffffffffffffffffff1673ffffffffffffffffffffffffffffffffffffffff1681526020019081526020016000205481526020019081526020016000206001019080519060200190611cc0929190611f8c565b507f5c036e0fb78aa87beea16bba4b6cb9d133815a9b9b40cdfa95b9368e1e37c1c9611cea611eab565b604051611cf79190612770565b60405180910390a150565b600260009054906101000a900473ffffffffffffffffffffffffffffffffffffffff1673ffffffffffffffffffffffffffffffffffffffff163373ffffffffffffffffffffffffffffffffffffffff1614611d92576040517f08c379a0000000000000000000000000000000000000000000000000000000008152600401611d899061293f565b60405180910390fd5b600060056000600460008773ffffffffffffffffffffffffffffffffffffffff1673ffffffffffffffffffffffffffffffffffffffff168152602001908152602001600020548152602001908152602001600020905080600701839080600181540180825580915050600190039060005260206000200160009091909190915055611e2a828260040154611e5690919063ffffffff16565b816004018190555050505050565b60046020528060005260406000206000915090505481565b60035481565b600080828401905083811015611ea1576040517f08c379a0000000000000000000000000000000000000000000000000000000008152600401611e989061291f565b60405180910390fd5b8091505092915050565b60006018600036905010158015611ec75750611ec633610fe0565b5b15611edb57601436033560601c9050611ee3565b339050611ee4565b5b90565b6000611f2983836040518060400160405280601e81526020017f536166654d6174683a207375627472616374696f6e206f766572666c6f770000815250611f31565b905092915050565b6000838311158290611f79576040517f08c379a0000000000000000000000000000000000000000000000000000000008152600401611f7091906127a6565b60405180910390fd5b5060008385039050809150509392505050565b828054600181600116156101000203166002900490600052602060002090601f016020900481019282601f10611fcd57805160ff1916838001178555611ffb565b82800160010185558215611ffb579182015b82811115611ffa578251825591602001919060010190611fdf565b5b5090506120089190612072565b5090565b604051806101000160405280606081526020016060815260200160608152602001600073ffffffffffffffffffffffffffffffffffffffff168152602001600081526020016000600281111561205e57fe5b815260200160608152602001606081525090565b61209491905b80821115612090576000816000905550600101612078565b5090565b90565b6000813590506120a681612c72565b92915050565b600082601f8301126120bd57600080fd5b81356120d06120cb82612a6b565b612a3e565b915080825260208301602083018583830111156120ec57600080fd5b6120f7838284612c12565b50505092915050565b60008135905061210f81612c89565b92915050565b60006020828403121561212757600080fd5b600061213584828501612097565b91505092915050565b6000806000806080858703121561215457600080fd5b600061216287828801612097565b945050602085013567ffffffffffffffff81111561217f57600080fd5b61218b878288016120ac565b935050604085013567ffffffffffffffff8111156121a857600080fd5b6121b4878288016120ac565b925050606085013567ffffffffffffffff8111156121d157600080fd5b6121dd878288016120ac565b91505092959194509250565b6000806000606084860312156121fe57600080fd5b600061220c86828701612097565b935050602061221d86828701612100565b925050604061222e86828701612100565b9150509250925092565b60006020828403121561224a57600080fd5b600082013567ffffffffffffffff81111561226457600080fd5b612270848285016120ac565b91505092915050565b60008060006060848603121561228e57600080fd5b600084013567ffffffffffffffff8111156122a857600080fd5b6122b4868287016120ac565b935050602084013567ffffffffffffffff8111156122d157600080fd5b6122dd868287016120ac565b925050604084013567ffffffffffffffff8111156122fa57600080fd5b612306868287016120ac565b9150509250925092565b60006020828403121561232257600080fd5b600061233084828501612100565b91505092915050565b6000612345838361238c565b60208301905092915050565b600061235d83836124f9565b905092915050565b60006123718383612737565b60208301905092915050565b61238681612bca565b82525050565b61239581612b6f565b82525050565b6123a481612b6f565b82525050565b60006123b582612ac7565b6123bf8185612b1a565b93506123ca83612a97565b8060005b838110156123fb5781516123e28882612339565b97506123ed83612af3565b9250506001810190506123ce565b5085935050505092915050565b600061241382612ad2565b61241d8185612b2b565b93508360208202850161242f85612aa7565b8060005b8581101561246b578484038952815161244c8582612351565b945061245783612b00565b925060208a01995050600181019050612433565b50829750879550505050505092915050565b600061248882612add565b6124928185612b3c565b935061249d83612ab7565b8060005b838110156124ce5781516124b58882612365565b97506124c083612b0d565b9250506001810190506124a1565b5085935050505092915050565b6124e481612b81565b82525050565b6124f381612bdc565b82525050565b600061250482612ae8565b61250e8185612b4d565b935061251e818560208601612c21565b61252781612c54565b840191505092915050565b600061253d82612ae8565b6125478185612b5e565b9350612557818560208601612c21565b61256081612c54565b840191505092915050565b6000612578601983612b5e565b91507f43616e206f6e6c792070726f6d6f74652061204d656d626572000000000000006000830152602082019050919050565b60006125b8601083612b5e565b91507f5573657220697320656e726f6c6c6564000000000000000000000000000000006000830152602082019050919050565b60006125f8601b83612b5e565b91507f536166654d6174683a206164646974696f6e206f766572666c6f7700000000006000830152602082019050919050565b6000612638602583612b5e565b91507f43616c6c206973207265737472696374656420746f20626f756e747920636f6e60008301527f74726163740000000000000000000000000000000000000000000000000000006020830152604082019050919050565b600061269e602383612b5e565b91507f43616c6c206973207265737472696374656420746f206974656d20636f6e747260008301527f61637400000000000000000000000000000000000000000000000000000000006020830152604082019050919050565b6000612704601e83612b5e565b91507f43616c6c6572206973206e6f7420616e2061646d696e6973747261746f7200006000830152602082019050919050565b61274081612bc0565b82525050565b61274f81612bc0565b82525050565b600060208201905061276a600083018461239b565b92915050565b6000602082019050612785600083018461237d565b92915050565b60006020820190506127a060008301846124db565b92915050565b600060208201905081810360008301526127c08184612532565b905092915050565b600060c08201905081810360008301526127e28189612532565b905081810360208301526127f68188612532565b9050818103604083015261280a8187612532565b9050612819606083018661239b565b6128266080830185612746565b61283360a08301846124ea565b979650505050505050565b6000610100820190508181036000830152612859818b612532565b9050818103602083015261286d818a612532565b905081810360408301526128818189612532565b90506128906060830188612746565b61289d6080830187612746565b81810360a08301526128af818661247d565b905081810360c08301526128c3818561247d565b90506128d260e083018461239b565b9998505050505050505050565b600060208201905081810360008301526128f88161256b565b9050919050565b60006020820190508181036000830152612918816125ab565b9050919050565b60006020820190508181036000830152612938816125eb565b9050919050565b600060208201905081810360008301526129588161262b565b9050919050565b6000602082019050818103600083015261297881612691565b9050919050565b60006020820190508181036000830152612998816126f7565b9050919050565b60006020820190506129b46000830184612746565b92915050565b600060c0820190506129cf6000830189612746565b81810360208301526129e18188612408565b905081810360408301526129f58187612408565b90508181036060830152612a09818661247d565b90508181036080830152612a1d818561247d565b905081810360a0830152612a3181846123aa565b9050979650505050505050565b6000604051905081810181811067ffffffffffffffff82111715612a6157600080fd5b8060405250919050565b600067ffffffffffffffff821115612a8257600080fd5b601f19601f8301169050602081019050919050565b6000819050602082019050919050565b6000819050602082019050919050565b6000819050602082019050919050565b600081519050919050565b600081519050919050565b600081519050919050565b600081519050919050565b6000602082019050919050565b6000602082019050919050565b6000602082019050919050565b600082825260208201905092915050565b600082825260208201905092915050565b600082825260208201905092915050565b600082825260208201905092915050565b600082825260208201905092915050565b6000612b7a82612ba0565b9050919050565b60008115159050919050565b6000819050612b9b82612c65565b919050565b600073ffffffffffffffffffffffffffffffffffffffff82169050919050565b6000819050919050565b6000612bd582612bee565b9050919050565b6000612be782612b8d565b9050919050565b6000612bf982612c00565b9050919050565b6000612c0b82612ba0565b9050919050565b82818337600083830152505050565b60005b83811015612c3f578082015181840152602081019050612c24565b83811115612c4e576000848401525b50505050565b6000601f19601f8301169050919050565b60038110612c6f57fe5b50565b612c7b81612b6f565b8114612c8657600080fd5b50565b612c9281612bc0565b8114612c9d57600080fd5b5056fea264697066735822122064372c2d98edab8ffcfa1a20f81ca14b99e91d533e6aa66701921a3474275d9d64736f6c634300060a0033",
  "immutableReferences": {},
  "source": "//SPDX-License-Identifier: MIT\npragma solidity >=0.6.0 <0.8.0;\npragma experimental ABIEncoderV2;\n\nimport \"./interfaces/IUsers.sol\";\n\ncontract Users is IUsers {\n    // @param _name - the name of the admin\n    // @param _twitterId - the twitter id of the admin\n    // @param _imageUrl - the google profile photo of the admin\n    // @param _forwarder - the address of the gsn trusted forwarder\n    constructor(\n        string memory _name,\n        string memory _twitterId,\n        string memory _imageUrl,\n        address _forwarder\n    ) public {\n        enroll(_name, _twitterId, _imageUrl);\n        users[userNonce].role = Role.Administrator;\n        trustedForwarder = _forwarder;\n    }\n\n    /// MUTABLE FUNCTIONS ///\n\n    function enrollAdmin(\n        address _at,\n        string memory _name,\n        string memory _twitterId,\n        string memory _imageUrl\n    ) public override onlyAdmin() returns (uint256 _nonce) {\n        userNonce = userNonce.add(1);\n        userID[_at] = userNonce;\n        User storage user = users[userNonce];\n        user.name = _name;\n        user.twitterId = _twitterId;\n        user.imageUrl = _imageUrl;\n        user.at = _at;\n        user.role = Role.Administrator;\n        emit UserEnrolled(_at);\n        _nonce = userNonce;\n    }\n\n    function enroll(\n        string memory _name,\n        string memory _twitterId,\n        string memory _imageUrl\n    ) public override returns (uint256 _nonce) {\n        require(userID[_msgSender()] == 0, \"User is enrolled\");\n        userNonce = userNonce.add(1);\n        userID[_msgSender()] = userNonce;\n        User storage user = users[userNonce];\n        user.name = _name;\n        user.twitterId = _twitterId;\n        user.imageUrl = _imageUrl;\n        user.at = _msgSender();\n        user.role = Role.Member;\n        emit UserEnrolled(_msgSender());\n        _nonce = userNonce;\n    }\n\n    function promote(address _user) public override onlyAdmin() {\n        User storage user = users[userID[_user]];\n        require(user.role == Role.Member, \"Can only promote a Member\");\n        user.role = Role.Administrator;\n        emit UserPromoted(_user);\n    }\n\n    function setTwitterId(string memory _twitterId) public override {\n        users[userID[_msgSender()]].twitterId = _twitterId;\n        emit TwitterIDUpdated(_msgSender());\n    }\n\n    function setBounty(address _at) public override {\n        require(bountyContract == address(0));\n        bountyContract = _at;\n    }\n\n    function addItem(\n        address _user,\n        uint256 _item,\n        uint256 _value\n    ) public override {\n        require(\n            msg.sender == itemContract,\n            \"Call is restricted to item contract\"\n        );\n        User storage user = users[userID[_user]];\n        user.items.push(_item);\n        user.balance = user.balance.sub(_value);\n    }\n\n    function setItem(address _at) public override {\n        require(itemContract == address(0));\n        itemContract = _at;\n    }\n\n    function addBounty(\n        address _user,\n        uint256 _bounty,\n        uint256 _value\n    ) public override {\n        require(\n            msg.sender == bountyContract,\n            \"Call is restricted to bounty contract\"\n        );\n        User storage user = users[userID[_user]];\n        user.bounties.push(_bounty);\n        user.balance = user.balance.add(_value);\n    }\n\n    /// VIEWABLE FUNCTIONS ///\n\n    function role(address _user) public view override returns (uint256 _role) {\n        _role = uint256(users[userID[_user]].role);\n    }\n\n    function balanceOf(address _user)\n        public\n        view\n        override\n        returns (uint256 _balance)\n    {\n        _balance = users[userID[_user]].balance;\n    }\n\n    function name(address _user)\n        public\n        view\n        override\n        returns (string memory _name)\n    {\n        _name = users[userID[_user]].name;\n    }\n\n    function getUser(address _user)\n        public\n        view\n        override\n        returns (\n            string memory _name,\n            string memory _imageUrl,\n            string memory _twitterId,\n            uint256 _balance,\n            uint256 _role,\n            uint256[] memory _items,\n            uint256[] memory _bounties,\n            address _at\n        )\n    {\n        User memory user = users[userID[_user]];\n        _name = user.name;\n        _imageUrl = user.imageUrl;\n        _twitterId = user.twitterId;\n        _balance = user.balance;\n        _role = uint256(user.role);\n        _items = user.items;\n        _bounties = user.bounties;\n        _at = user.at;\n    }\n\n    function getUsers()\n        public\n        view\n        override\n        returns (\n            uint256 _nonce,\n            string[] memory _names,\n            string[] memory _imageUrls,\n            uint256[] memory _balances,\n            uint256[] memory _roles,\n            address[] memory _ats\n        )\n    {\n        _nonce = userNonce;\n        _names = new string[](_nonce);\n        _imageUrls = new string[](_nonce);\n        _balances = new uint256[](_nonce);\n        _roles = new uint256[](_nonce);\n        _ats = new address[](_nonce);\n        for (uint256 i = 0; i < _nonce; i++) {\n            _names[i] = users[i.add(1)].name;\n            _imageUrls[i] = users[i.add(1)].imageUrl;\n            _balances[i] = users[i.add(1)].balance;\n            _roles[i] = uint256(users[i.add(1)].role);\n            _ats[i] = users[i.add(1)].at;\n        }\n    }\n\n    function getTwitterId(address _from)\n        public\n        view\n        override\n        returns (string memory)\n    {\n        return users[userID[_from]].twitterId;\n    }\n}\n",
  "sourcePath": "/home/jpag/orgtoken/contracts/contracts/Users.sol",
  "compiler": {
    "name": "solc",
    "version": "0.6.10+commit.00c0fcaf.Emscripten.clang"
  },
  "schemaVersion": "3.3.3",
  "updatedAt": "2021-01-17T00:27:45.437Z",
  "networkType": "ethereum",
  "devdoc": {
    "methods": {}
  },
  "userdoc": {
    "methods": {
      "enrollAdmin(address,string,string,string)": {
        "notice": "MUTABLE FUNCTIONS ///"
      },
      "getTrustedForwarder()": {
        "notice": "GSN Forwarder Call"
      },
      "role(address)": {
        "notice": "VIEWABLE FUNCTIONS ///"
      }
    }
  }
}