{
  "contractName": "Users",
  "abi": [
    {
      "inputs": [
        {
          "internalType": "string",
          "name": "_name",
          "type": "string"
        },
        {
          "internalType": "string",
          "name": "_twitterId",
          "type": "string"
        },
        {
          "internalType": "string",
          "name": "_imageUrl",
          "type": "string"
        },
        {
          "internalType": "address",
          "name": "_forwarder",
          "type": "address"
        }
      ],
      "stateMutability": "nonpayable",
      "type": "constructor"
    },
    {
      "anonymous": false,
      "inputs": [
        {
          "indexed": false,
          "internalType": "address",
          "name": "_user",
          "type": "address"
        }
      ],
      "name": "TwitterIDUpdated",
      "type": "event"
    },
    {
      "anonymous": false,
      "inputs": [
        {
          "indexed": false,
          "internalType": "address",
          "name": "_user",
          "type": "address"
        }
      ],
      "name": "UserEnrolled",
      "type": "event"
    },
    {
      "anonymous": false,
      "inputs": [
        {
          "indexed": false,
          "internalType": "address",
          "name": "_user",
          "type": "address"
        }
      ],
      "name": "UserPromoted",
      "type": "event"
    },
    {
      "inputs": [],
      "name": "bountyContract",
      "outputs": [
        {
          "internalType": "address",
          "name": "",
          "type": "address"
        }
      ],
      "stateMutability": "view",
      "type": "function",
      "constant": true
    },
    {
      "inputs": [],
      "name": "getTrustedForwarder",
      "outputs": [
        {
          "internalType": "address",
          "name": "",
          "type": "address"
        }
      ],
      "stateMutability": "view",
      "type": "function",
      "constant": true
    },
    {
      "inputs": [
        {
          "internalType": "address",
          "name": "forwarder",
          "type": "address"
        }
      ],
      "name": "isTrustedForwarder",
      "outputs": [
        {
          "internalType": "bool",
          "name": "",
          "type": "bool"
        }
      ],
      "stateMutability": "view",
      "type": "function",
      "constant": true
    },
    {
      "inputs": [],
      "name": "itemContract",
      "outputs": [
        {
          "internalType": "address",
          "name": "",
          "type": "address"
        }
      ],
      "stateMutability": "view",
      "type": "function",
      "constant": true
    },
    {
      "inputs": [],
      "name": "trustedForwarder",
      "outputs": [
        {
          "internalType": "address",
          "name": "",
          "type": "address"
        }
      ],
      "stateMutability": "view",
      "type": "function",
      "constant": true
    },
    {
      "inputs": [
        {
          "internalType": "address",
          "name": "",
          "type": "address"
        }
      ],
      "name": "userID",
      "outputs": [
        {
          "internalType": "uint256",
          "name": "",
          "type": "uint256"
        }
      ],
      "stateMutability": "view",
      "type": "function",
      "constant": true
    },
    {
      "inputs": [],
      "name": "userNonce",
      "outputs": [
        {
          "internalType": "uint256",
          "name": "",
          "type": "uint256"
        }
      ],
      "stateMutability": "view",
      "type": "function",
      "constant": true
    },
    {
      "inputs": [
        {
          "internalType": "uint256",
          "name": "",
          "type": "uint256"
        }
      ],
      "name": "users",
      "outputs": [
        {
          "internalType": "string",
          "name": "name",
          "type": "string"
        },
        {
          "internalType": "string",
          "name": "twitterId",
          "type": "string"
        },
        {
          "internalType": "string",
          "name": "imageUrl",
          "type": "string"
        },
        {
          "internalType": "address",
          "name": "at",
          "type": "address"
        },
        {
          "internalType": "uint256",
          "name": "balance",
          "type": "uint256"
        },
        {
          "internalType": "enum Role",
          "name": "role",
          "type": "uint8"
        }
      ],
      "stateMutability": "view",
      "type": "function",
      "constant": true
    },
    {
      "inputs": [],
      "name": "versionRecipient",
      "outputs": [
        {
          "internalType": "string",
          "name": "",
          "type": "string"
        }
      ],
      "stateMutability": "view",
      "type": "function",
      "constant": true
    },
    {
      "inputs": [
        {
          "internalType": "string",
          "name": "_name",
          "type": "string"
        },
        {
          "internalType": "string",
          "name": "_twitterId",
          "type": "string"
        },
        {
          "internalType": "string",
          "name": "_imageUrl",
          "type": "string"
        }
      ],
      "name": "enroll",
      "outputs": [
        {
          "internalType": "uint256",
          "name": "_nonce",
          "type": "uint256"
        }
      ],
      "stateMutability": "nonpayable",
      "type": "function"
    },
    {
      "inputs": [
        {
          "internalType": "address",
          "name": "_user",
          "type": "address"
        }
      ],
      "name": "promote",
      "outputs": [],
      "stateMutability": "nonpayable",
      "type": "function"
    },
    {
      "inputs": [
        {
          "internalType": "string",
          "name": "_twitterId",
          "type": "string"
        }
      ],
      "name": "setTwitterId",
      "outputs": [],
      "stateMutability": "nonpayable",
      "type": "function"
    },
    {
      "inputs": [
        {
          "internalType": "address",
          "name": "_at",
          "type": "address"
        }
      ],
      "name": "setBounty",
      "outputs": [],
      "stateMutability": "nonpayable",
      "type": "function"
    },
    {
      "inputs": [
        {
          "internalType": "address",
          "name": "_user",
          "type": "address"
        },
        {
          "internalType": "uint256",
          "name": "_item",
          "type": "uint256"
        },
        {
          "internalType": "uint256",
          "name": "_value",
          "type": "uint256"
        }
      ],
      "name": "addItem",
      "outputs": [],
      "stateMutability": "nonpayable",
      "type": "function"
    },
    {
      "inputs": [
        {
          "internalType": "address",
          "name": "_at",
          "type": "address"
        }
      ],
      "name": "setItem",
      "outputs": [],
      "stateMutability": "nonpayable",
      "type": "function"
    },
    {
      "inputs": [
        {
          "internalType": "address",
          "name": "_user",
          "type": "address"
        },
        {
          "internalType": "uint256",
          "name": "_bounty",
          "type": "uint256"
        },
        {
          "internalType": "uint256",
          "name": "_value",
          "type": "uint256"
        }
      ],
      "name": "addBounty",
      "outputs": [],
      "stateMutability": "nonpayable",
      "type": "function"
    },
    {
      "inputs": [
        {
          "internalType": "address",
          "name": "_user",
          "type": "address"
        }
      ],
      "name": "role",
      "outputs": [
        {
          "internalType": "uint256",
          "name": "_role",
          "type": "uint256"
        }
      ],
      "stateMutability": "view",
      "type": "function",
      "constant": true
    },
    {
      "inputs": [
        {
          "internalType": "address",
          "name": "_user",
          "type": "address"
        }
      ],
      "name": "balanceOf",
      "outputs": [
        {
          "internalType": "uint256",
          "name": "_balance",
          "type": "uint256"
        }
      ],
      "stateMutability": "view",
      "type": "function",
      "constant": true
    },
    {
      "inputs": [
        {
          "internalType": "address",
          "name": "_user",
          "type": "address"
        }
      ],
      "name": "name",
      "outputs": [
        {
          "internalType": "string",
          "name": "_name",
          "type": "string"
        }
      ],
      "stateMutability": "view",
      "type": "function",
      "constant": true
    },
    {
      "inputs": [
        {
          "internalType": "address",
          "name": "_user",
          "type": "address"
        }
      ],
      "name": "getUser",
      "outputs": [
        {
          "internalType": "string",
          "name": "_name",
          "type": "string"
        },
        {
          "internalType": "string",
          "name": "_imageUrl",
          "type": "string"
        },
        {
          "internalType": "string",
          "name": "_twitterId",
          "type": "string"
        },
        {
          "internalType": "uint256",
          "name": "_balance",
          "type": "uint256"
        },
        {
          "internalType": "uint256",
          "name": "_role",
          "type": "uint256"
        },
        {
          "internalType": "uint256[]",
          "name": "_items",
          "type": "uint256[]"
        },
        {
          "internalType": "uint256[]",
          "name": "_bounties",
          "type": "uint256[]"
        }
      ],
      "stateMutability": "view",
      "type": "function",
      "constant": true
    },
    {
      "inputs": [],
      "name": "getUsers",
      "outputs": [
        {
          "internalType": "uint256",
          "name": "_nonce",
          "type": "uint256"
        },
        {
          "internalType": "string[]",
          "name": "_names",
          "type": "string[]"
        },
        {
          "internalType": "string[]",
          "name": "_imageUrls",
          "type": "string[]"
        },
        {
          "internalType": "uint256[]",
          "name": "_balances",
          "type": "uint256[]"
        },
        {
          "internalType": "uint256[]",
          "name": "_roles",
          "type": "uint256[]"
        }
      ],
      "stateMutability": "view",
      "type": "function",
      "constant": true
    },
    {
      "inputs": [
        {
          "internalType": "address",
          "name": "_from",
          "type": "address"
        }
      ],
      "name": "getTwitterId",
      "outputs": [
        {
          "internalType": "string",
          "name": "",
          "type": "string"
        }
      ],
      "stateMutability": "view",
      "type": "function",
      "constant": true
    }
  ],
  "bytecode": "0x60806040526040518060400160405280600581526020017f322e302e3000000000000000000000000000000000000000000000000000000081525060069080519060200190620000519291906200045c565b503480156200005f57600080fd5b50604051620030573803806200305783398181016040528101906200008591906200057e565b620000988484846200011e60201b60201c565b50600260056000600354815260200190815260200160002060050160006101000a81548160ff02191690836002811115620000cf57fe5b0217905550806000806101000a81548173ffffffffffffffffffffffffffffffffffffffff021916908373ffffffffffffffffffffffffffffffffffffffff1602179055505050505062000857565b60008060046000620001356200036360201b60201c565b73ffffffffffffffffffffffffffffffffffffffff1673ffffffffffffffffffffffffffffffffffffffff1681526020019081526020016000205414620001b3576040517f08c379a0000000000000000000000000000000000000000000000000000000008152600401620001aa90620006e7565b60405180910390fd5b620001d06001600354620003ab60201b62001afd1790919060201c565b60038190555060035460046000620001ed6200036360201b60201c565b73ffffffffffffffffffffffffffffffffffffffff1673ffffffffffffffffffffffffffffffffffffffff1681526020019081526020016000208190555060006005600060035481526020019081526020016000209050848160000190805190602001906200025e9291906200045c565b5083816001019080519060200190620002799291906200045c565b5082816002019080519060200190620002949291906200045c565b50620002a56200036360201b60201c565b8160030160006101000a81548173ffffffffffffffffffffffffffffffffffffffff021916908373ffffffffffffffffffffffffffffffffffffffff16021790555060018160050160006101000a81548160ff021916908360028111156200030957fe5b02179055507f2f98b1c76410ce8512191c4f9392c1eec008c4254f2366b1ab7eb195702f0d586200033f6200036360201b60201c565b6040516200034e9190620006ca565b60405180910390a16003549150509392505050565b6000601860003690501015801562000388575062000387336200040360201b60201c565b5b156200039e57601436033560601c9050620003a7565b339050620003a8565b5b90565b600080828401905083811015620003f9576040517f08c379a0000000000000000000000000000000000000000000000000000000008152600401620003f09062000709565b60405180910390fd5b8091505092915050565b60008060009054906101000a900473ffffffffffffffffffffffffffffffffffffffff1673ffffffffffffffffffffffffffffffffffffffff168273ffffffffffffffffffffffffffffffffffffffff16149050919050565b828054600181600116156101000203166002900490600052602060002090601f016020900481019282601f106200049f57805160ff1916838001178555620004d0565b82800160010185558215620004d0579182015b82811115620004cf578251825591602001919060010190620004b2565b5b509050620004df9190620004e3565b5090565b6200050891905b8082111562000504576000816000905550600101620004ea565b5090565b90565b6000815190506200051c816200083d565b92915050565b600082601f8301126200053457600080fd5b81516200054b620005458262000759565b6200072b565b915080825260208301602083018583830111156200056857600080fd5b6200057583828462000807565b50505092915050565b600080600080608085870312156200059557600080fd5b600085015167ffffffffffffffff811115620005b057600080fd5b620005be8782880162000522565b945050602085015167ffffffffffffffff811115620005dc57600080fd5b620005ea8782880162000522565b935050604085015167ffffffffffffffff8111156200060857600080fd5b620006168782880162000522565b925050606062000629878288016200050b565b91505092959194509250565b6200064081620007cb565b82525050565b60006200065560108362000786565b91507f5573657220697320656e726f6c6c6564000000000000000000000000000000006000830152602082019050919050565b600062000697601b8362000786565b91507f536166654d6174683a206164646974696f6e206f766572666c6f7700000000006000830152602082019050919050565b6000602082019050620006e1600083018462000635565b92915050565b60006020820190508181036000830152620007028162000646565b9050919050565b60006020820190508181036000830152620007248162000688565b9050919050565b6000604051905081810181811067ffffffffffffffff821117156200074f57600080fd5b8060405250919050565b600067ffffffffffffffff8211156200077157600080fd5b601f19601f8301169050602081019050919050565b600082825260208201905092915050565b6000620007a482620007ab565b9050919050565b600073ffffffffffffffffffffffffffffffffffffffff82169050919050565b6000620007d882620007df565b9050919050565b6000620007ec82620007f3565b9050919050565b60006200080082620007ab565b9050919050565b60005b83811015620008275780820151818401526020810190506200080a565b8381111562000837576000848401525b50505050565b620008488162000797565b81146200085457600080fd5b50565b6127f080620008676000396000f3fe608060405234801561001057600080fd5b50600436106101415760003560e01c8063bc300ed3116100b8578063d590f8c91161007c578063d590f8c9146103ab578063ddf9fa09146103db578063e249e4fe146103f9578063e43f3e7814610415578063eda7794e14610431578063f8609df11461046157610141565b8063bc300ed314610309578063c1b91dd914610325578063ce1b815f14610341578063d09a169c1461035f578063d0e0813a1461038f57610141565b8063572b6c051161010a578063572b6c05146102075780636f77926b1461023757806370a082311461026d5780637da0a8771461029d5780638b1a3bb1146102bb5780638d76f940146102eb57610141565b8062ce8e3e146101465780630198489214610168578063165ed27614610198578063365b98b2146101b4578063486ff0cd146101e9575b600080fd5b61014e61047f565b60405161015f959493929190612522565b60405180910390f35b610182600480360381019061017d9190611dbc565b61082b565b60405161018f919061231d565b60405180910390f35b6101b260048036038101906101ad9190611dbc565b610922565b005b6101ce60048036038101906101c99190611f0c565b6109c1565b6040516101e09695949392919061233f565b60405180910390f35b6101f1610bf2565b6040516101fe919061231d565b60405180910390f35b610221600480360381019061021c9190611dbc565b610c90565b60405161022e9190612302565b60405180910390f35b610251600480360381019061024c9190611dbc565b610ce9565b60405161026497969594939291906123b5565b60405180910390f35b61028760048036038101906102829190611dbc565b6110c7565b6040516102949190612507565b60405180910390f35b6102a5611126565b6040516102b291906122cc565b60405180910390f35b6102d560048036038101906102d09190611dbc565b61114b565b6040516102e2919061231d565b60405180910390f35b6102f3611242565b60405161030091906122cc565b60405180910390f35b610323600480360381019061031e9190611dbc565b611268565b005b61033f600480360381019061033a9190611de5565b611307565b005b61034961143d565b60405161035691906122cc565b60405180910390f35b61037960048036038101906103749190611e75565b611466565b6040516103869190612507565b60405180910390f35b6103a960048036038101906103a49190611dbc565b611678565b005b6103c560048036038101906103c09190611dbc565b61185a565b6040516103d29190612507565b60405180910390f35b6103e36118d1565b6040516103f091906122cc565b60405180910390f35b610413600480360381019061040e9190611e34565b6118f7565b005b61042f600480360381019061042a9190611de5565b6119a9565b005b61044b60048036038101906104469190611dbc565b611adf565b6040516104589190612507565b60405180910390f35b610469611af7565b6040516104769190612507565b60405180910390f35b600060608060608060035494508467ffffffffffffffff811180156104a357600080fd5b506040519080825280602002602001820160405280156104d757816020015b60608152602001906001900390816104c25790505b5093508467ffffffffffffffff811180156104f157600080fd5b5060405190808252806020026020018201604052801561052557816020015b60608152602001906001900390816105105790505b5092508467ffffffffffffffff8111801561053f57600080fd5b5060405190808252806020026020018201604052801561056e5781602001602082028036833780820191505090505b5091508467ffffffffffffffff8111801561058857600080fd5b506040519080825280602002602001820160405280156105b75781602001602082028036833780820191505090505b50905060008090505b8581101561082357600560006105e0600184611afd90919063ffffffff16565b81526020019081526020016000206000018054600181600116156101000203166002900480601f0160208091040260200160405190810160405280929190818152602001828054600181600116156101000203166002900480156106855780601f1061065a57610100808354040283529160200191610685565b820191906000526020600020905b81548152906001019060200180831161066857829003601f168201915b505050505085828151811061069657fe5b6020026020010181905250600560006106b9600184611afd90919063ffffffff16565b81526020019081526020016000206002018054600181600116156101000203166002900480601f01602080910402602001604051908101604052809291908181526020018280546001816001161561010002031660029004801561075e5780601f106107335761010080835404028352916020019161075e565b820191906000526020600020905b81548152906001019060200180831161074157829003601f168201915b505050505084828151811061076f57fe5b602002602001018190525060056000610792600184611afd90919063ffffffff16565b8152602001908152602001600020600401548382815181106107b057fe5b602002602001018181525050600560006107d4600184611afd90919063ffffffff16565b815260200190815260200160002060050160009054906101000a900460ff1660028111156107fe57fe5b82828151811061080a57fe5b60200260200101818152505080806001019150506105c0565b509091929394565b606060056000600460008573ffffffffffffffffffffffffffffffffffffffff1673ffffffffffffffffffffffffffffffffffffffff1681526020019081526020016000205481526020019081526020016000206000018054600181600116156101000203166002900480601f0160208091040260200160405190810160405280929190818152602001828054600181600116156101000203166002900480156109165780601f106108eb57610100808354040283529160200191610916565b820191906000526020600020905b8154815290600101906020018083116108f957829003601f168201915b50505050509050919050565b600073ffffffffffffffffffffffffffffffffffffffff16600160009054906101000a900473ffffffffffffffffffffffffffffffffffffffff1673ffffffffffffffffffffffffffffffffffffffff161461097d57600080fd5b80600160006101000a81548173ffffffffffffffffffffffffffffffffffffffff021916908373ffffffffffffffffffffffffffffffffffffffff16021790555050565b6005602052806000526040600020600091509050806000018054600181600116156101000203166002900480601f016020809104026020016040519081016040528092919081815260200182805460018160011615610100020316600290048015610a6d5780601f10610a4257610100808354040283529160200191610a6d565b820191906000526020600020905b815481529060010190602001808311610a5057829003601f168201915b505050505090806001018054600181600116156101000203166002900480601f016020809104026020016040519081016040528092919081815260200182805460018160011615610100020316600290048015610b0b5780601f10610ae057610100808354040283529160200191610b0b565b820191906000526020600020905b815481529060010190602001808311610aee57829003601f168201915b505050505090806002018054600181600116156101000203166002900480601f016020809104026020016040519081016040528092919081815260200182805460018160011615610100020316600290048015610ba95780601f10610b7e57610100808354040283529160200191610ba9565b820191906000526020600020905b815481529060010190602001808311610b8c57829003601f168201915b5050505050908060030160009054906101000a900473ffffffffffffffffffffffffffffffffffffffff16908060040154908060050160009054906101000a900460ff16905086565b60068054600181600116156101000203166002900480601f016020809104026020016040519081016040528092919081815260200182805460018160011615610100020316600290048015610c885780601f10610c5d57610100808354040283529160200191610c88565b820191906000526020600020905b815481529060010190602001808311610c6b57829003601f168201915b505050505081565b60008060009054906101000a900473ffffffffffffffffffffffffffffffffffffffff1673ffffffffffffffffffffffffffffffffffffffff168273ffffffffffffffffffffffffffffffffffffffff16149050919050565b6060806060600080606080610cfc611c33565b60056000600460008c73ffffffffffffffffffffffffffffffffffffffff1673ffffffffffffffffffffffffffffffffffffffff16815260200190815260200160002054815260200190815260200160002060405180610100016040529081600082018054600181600116156101000203166002900480601f016020809104026020016040519081016040528092919081815260200182805460018160011615610100020316600290048015610df35780601f10610dc857610100808354040283529160200191610df3565b820191906000526020600020905b815481529060010190602001808311610dd657829003601f168201915b50505050508152602001600182018054600181600116156101000203166002900480601f016020809104026020016040519081016040528092919081815260200182805460018160011615610100020316600290048015610e955780601f10610e6a57610100808354040283529160200191610e95565b820191906000526020600020905b815481529060010190602001808311610e7857829003601f168201915b50505050508152602001600282018054600181600116156101000203166002900480601f016020809104026020016040519081016040528092919081815260200182805460018160011615610100020316600290048015610f375780601f10610f0c57610100808354040283529160200191610f37565b820191906000526020600020905b815481529060010190602001808311610f1a57829003601f168201915b505050505081526020016003820160009054906101000a900473ffffffffffffffffffffffffffffffffffffffff1673ffffffffffffffffffffffffffffffffffffffff1673ffffffffffffffffffffffffffffffffffffffff168152602001600482015481526020016005820160009054906101000a900460ff166002811115610fbe57fe5b6002811115610fc957fe5b81526020016006820180548060200260200160405190810160405280929190818152602001828054801561101c57602002820191906000526020600020905b815481526020019060010190808311611008575b505050505081526020016007820180548060200260200160405190810160405280929190818152602001828054801561107457602002820191906000526020600020905b815481526020019060010190808311611060575b5050505050815250509050806000015197508060400151965080602001519550806080015194508060a0015160028111156110ab57fe5b93508060c0015192508060e00151915050919395979092949650565b600060056000600460008573ffffffffffffffffffffffffffffffffffffffff1673ffffffffffffffffffffffffffffffffffffffff168152602001908152602001600020548152602001908152602001600020600401549050919050565b6000809054906101000a900473ffffffffffffffffffffffffffffffffffffffff1681565b606060056000600460008573ffffffffffffffffffffffffffffffffffffffff1673ffffffffffffffffffffffffffffffffffffffff1681526020019081526020016000205481526020019081526020016000206001018054600181600116156101000203166002900480601f0160208091040260200160405190810160405280929190818152602001828054600181600116156101000203166002900480156112365780601f1061120b57610100808354040283529160200191611236565b820191906000526020600020905b81548152906001019060200180831161121957829003601f168201915b50505050509050919050565b600160009054906101000a900473ffffffffffffffffffffffffffffffffffffffff1681565b600073ffffffffffffffffffffffffffffffffffffffff16600260009054906101000a900473ffffffffffffffffffffffffffffffffffffffff1673ffffffffffffffffffffffffffffffffffffffff16146112c357600080fd5b80600260006101000a81548173ffffffffffffffffffffffffffffffffffffffff021916908373ffffffffffffffffffffffffffffffffffffffff16021790555050565b600160009054906101000a900473ffffffffffffffffffffffffffffffffffffffff1673ffffffffffffffffffffffffffffffffffffffff163373ffffffffffffffffffffffffffffffffffffffff1614611397576040517f08c379a000000000000000000000000000000000000000000000000000000000815260040161138e906124c7565b60405180910390fd5b600060056000600460008773ffffffffffffffffffffffffffffffffffffffff1673ffffffffffffffffffffffffffffffffffffffff16815260200190815260200160002054815260200190815260200160002090508060060183908060018154018082558091505060019003906000526020600020016000909190919091505561142f828260040154611b5290919063ffffffff16565b816004018190555050505050565b60008060009054906101000a900473ffffffffffffffffffffffffffffffffffffffff16905090565b60008060046000611475611b9c565b73ffffffffffffffffffffffffffffffffffffffff1673ffffffffffffffffffffffffffffffffffffffff16815260200190815260200160002054146114f0576040517f08c379a00000000000000000000000000000000000000000000000000000000081526004016114e790612467565b60405180910390fd5b6115066001600354611afd90919063ffffffff16565b6003819055506003546004600061151b611b9c565b73ffffffffffffffffffffffffffffffffffffffff1673ffffffffffffffffffffffffffffffffffffffff16815260200190815260200160002081905550600060056000600354815260200190815260200160002090508481600001908051906020019061158a929190611c99565b50838160010190805190602001906115a3929190611c99565b50828160020190805190602001906115bc929190611c99565b506115c5611b9c565b8160030160006101000a81548173ffffffffffffffffffffffffffffffffffffffff021916908373ffffffffffffffffffffffffffffffffffffffff16021790555060018160050160006101000a81548160ff0219169083600281111561162857fe5b02179055507f2f98b1c76410ce8512191c4f9392c1eec008c4254f2366b1ab7eb195702f0d58611656611b9c565b60405161166391906122e7565b60405180910390a16003549150509392505050565b60028081111561168457fe5b6005600060046000611694611b9c565b73ffffffffffffffffffffffffffffffffffffffff1673ffffffffffffffffffffffffffffffffffffffff16815260200190815260200160002054815260200190815260200160002060050160009054906101000a900460ff1660028111156116f957fe5b14611739576040517f08c379a0000000000000000000000000000000000000000000000000000000008152600401611730906124e7565b60405180910390fd5b600060056000600460008573ffffffffffffffffffffffffffffffffffffffff1673ffffffffffffffffffffffffffffffffffffffff16815260200190815260200160002054815260200190815260200160002090506001600281111561179c57fe5b8160050160009054906101000a900460ff1660028111156117b957fe5b146117f9576040517f08c379a00000000000000000000000000000000000000000000000000000000081526004016117f090612447565b60405180910390fd5b60028160050160006101000a81548160ff0219169083600281111561181a57fe5b02179055507f11434ddb2adc98734adcfc3abc944a402adef5b8ee6203e3bcc2d6d23bf236488260405161184e91906122cc565b60405180910390a15050565b600060056000600460008573ffffffffffffffffffffffffffffffffffffffff1673ffffffffffffffffffffffffffffffffffffffff16815260200190815260200160002054815260200190815260200160002060050160009054906101000a900460ff1660028111156118ca57fe5b9050919050565b600260009054906101000a900473ffffffffffffffffffffffffffffffffffffffff1681565b806005600060046000611908611b9c565b73ffffffffffffffffffffffffffffffffffffffff1673ffffffffffffffffffffffffffffffffffffffff1681526020019081526020016000205481526020019081526020016000206001019080519060200190611967929190611c99565b507f5c036e0fb78aa87beea16bba4b6cb9d133815a9b9b40cdfa95b9368e1e37c1c9611991611b9c565b60405161199e91906122e7565b60405180910390a150565b600260009054906101000a900473ffffffffffffffffffffffffffffffffffffffff1673ffffffffffffffffffffffffffffffffffffffff163373ffffffffffffffffffffffffffffffffffffffff1614611a39576040517f08c379a0000000000000000000000000000000000000000000000000000000008152600401611a30906124a7565b60405180910390fd5b600060056000600460008773ffffffffffffffffffffffffffffffffffffffff1673ffffffffffffffffffffffffffffffffffffffff168152602001908152602001600020548152602001908152602001600020905080600701839080600181540180825580915050600190039060005260206000200160009091909190915055611ad1828260040154611afd90919063ffffffff16565b816004018190555050505050565b60046020528060005260406000206000915090505481565b60035481565b600080828401905083811015611b48576040517f08c379a0000000000000000000000000000000000000000000000000000000008152600401611b3f90612487565b60405180910390fd5b8091505092915050565b6000611b9483836040518060400160405280601e81526020017f536166654d6174683a207375627472616374696f6e206f766572666c6f770000815250611bd8565b905092915050565b60006018600036905010158015611bb85750611bb733610c90565b5b15611bcc57601436033560601c9050611bd4565b339050611bd5565b5b90565b6000838311158290611c20576040517f08c379a0000000000000000000000000000000000000000000000000000000008152600401611c17919061231d565b60405180910390fd5b5060008385039050809150509392505050565b604051806101000160405280606081526020016060815260200160608152602001600073ffffffffffffffffffffffffffffffffffffffff1681526020016000815260200160006002811115611c8557fe5b815260200160608152602001606081525090565b828054600181600116156101000203166002900490600052602060002090601f016020900481019282601f10611cda57805160ff1916838001178555611d08565b82800160010185558215611d08579182015b82811115611d07578251825591602001919060010190611cec565b5b509050611d159190611d19565b5090565b611d3b91905b80821115611d37576000816000905550600101611d1f565b5090565b90565b600081359050611d4d8161278c565b92915050565b600082601f830112611d6457600080fd5b8135611d77611d72826125be565b612591565b91508082526020830160208301858383011115611d9357600080fd5b611d9e83828461272c565b50505092915050565b600081359050611db6816127a3565b92915050565b600060208284031215611dce57600080fd5b6000611ddc84828501611d3e565b91505092915050565b600080600060608486031215611dfa57600080fd5b6000611e0886828701611d3e565b9350506020611e1986828701611da7565b9250506040611e2a86828701611da7565b9150509250925092565b600060208284031215611e4657600080fd5b600082013567ffffffffffffffff811115611e6057600080fd5b611e6c84828501611d53565b91505092915050565b600080600060608486031215611e8a57600080fd5b600084013567ffffffffffffffff811115611ea457600080fd5b611eb086828701611d53565b935050602084013567ffffffffffffffff811115611ecd57600080fd5b611ed986828701611d53565b925050604084013567ffffffffffffffff811115611ef657600080fd5b611f0286828701611d53565b9150509250925092565b600060208284031215611f1e57600080fd5b6000611f2c84828501611da7565b91505092915050565b6000611f418383612070565b905092915050565b6000611f5583836122ae565b60208301905092915050565b611f6a816126e4565b82525050565b611f7981612689565b82525050565b6000611f8a8261260a565b611f948185612645565b935083602082028501611fa6856125ea565b8060005b85811015611fe25784840389528151611fc38582611f35565b9450611fce8361262b565b925060208a01995050600181019050611faa565b50829750879550505050505092915050565b6000611fff82612615565b6120098185612656565b9350612014836125fa565b8060005b8381101561204557815161202c8882611f49565b975061203783612638565b925050600181019050612018565b5085935050505092915050565b61205b8161269b565b82525050565b61206a816126f6565b82525050565b600061207b82612620565b6120858185612667565b935061209581856020860161273b565b61209e8161276e565b840191505092915050565b60006120b482612620565b6120be8185612678565b93506120ce81856020860161273b565b6120d78161276e565b840191505092915050565b60006120ef601983612678565b91507f43616e206f6e6c792070726f6d6f74652061204d656d626572000000000000006000830152602082019050919050565b600061212f601083612678565b91507f5573657220697320656e726f6c6c6564000000000000000000000000000000006000830152602082019050919050565b600061216f601b83612678565b91507f536166654d6174683a206164646974696f6e206f766572666c6f7700000000006000830152602082019050919050565b60006121af602583612678565b91507f43616c6c206973207265737472696374656420746f20626f756e747920636f6e60008301527f74726163740000000000000000000000000000000000000000000000000000006020830152604082019050919050565b6000612215602383612678565b91507f43616c6c206973207265737472696374656420746f206974656d20636f6e747260008301527f61637400000000000000000000000000000000000000000000000000000000006020830152604082019050919050565b600061227b601e83612678565b91507f43616c6c6572206973206e6f7420616e2061646d696e6973747261746f7200006000830152602082019050919050565b6122b7816126da565b82525050565b6122c6816126da565b82525050565b60006020820190506122e16000830184611f70565b92915050565b60006020820190506122fc6000830184611f61565b92915050565b60006020820190506123176000830184612052565b92915050565b6000602082019050818103600083015261233781846120a9565b905092915050565b600060c082019050818103600083015261235981896120a9565b9050818103602083015261236d81886120a9565b9050818103604083015261238181876120a9565b90506123906060830186611f70565b61239d60808301856122bd565b6123aa60a0830184612061565b979650505050505050565b600060e08201905081810360008301526123cf818a6120a9565b905081810360208301526123e381896120a9565b905081810360408301526123f781886120a9565b905061240660608301876122bd565b61241360808301866122bd565b81810360a08301526124258185611ff4565b905081810360c08301526124398184611ff4565b905098975050505050505050565b60006020820190508181036000830152612460816120e2565b9050919050565b6000602082019050818103600083015261248081612122565b9050919050565b600060208201905081810360008301526124a081612162565b9050919050565b600060208201905081810360008301526124c0816121a2565b9050919050565b600060208201905081810360008301526124e081612208565b9050919050565b600060208201905081810360008301526125008161226e565b9050919050565b600060208201905061251c60008301846122bd565b92915050565b600060a08201905061253760008301886122bd565b81810360208301526125498187611f7f565b9050818103604083015261255d8186611f7f565b905081810360608301526125718185611ff4565b905081810360808301526125858184611ff4565b90509695505050505050565b6000604051905081810181811067ffffffffffffffff821117156125b457600080fd5b8060405250919050565b600067ffffffffffffffff8211156125d557600080fd5b601f19601f8301169050602081019050919050565b6000819050602082019050919050565b6000819050602082019050919050565b600081519050919050565b600081519050919050565b600081519050919050565b6000602082019050919050565b6000602082019050919050565b600082825260208201905092915050565b600082825260208201905092915050565b600082825260208201905092915050565b600082825260208201905092915050565b6000612694826126ba565b9050919050565b60008115159050919050565b60008190506126b58261277f565b919050565b600073ffffffffffffffffffffffffffffffffffffffff82169050919050565b6000819050919050565b60006126ef82612708565b9050919050565b6000612701826126a7565b9050919050565b60006127138261271a565b9050919050565b6000612725826126ba565b9050919050565b82818337600083830152505050565b60005b8381101561275957808201518184015260208101905061273e565b83811115612768576000848401525b50505050565b6000601f19601f8301169050919050565b6003811061278957fe5b50565b61279581612689565b81146127a057600080fd5b50565b6127ac816126da565b81146127b757600080fd5b5056fea2646970667358221220f5965d05ecd31e6ff5c7f4dc572b60a3e88957adb72c7b6a66f0ebcc68dcfa2564736f6c634300060a0033",
  "immutableReferences": {},
  "source": "//SPDX-License-Identifier: MIT\npragma solidity >=0.6.0 <0.8.0;\npragma experimental ABIEncoderV2;\n\nimport \"./interfaces/IUsers.sol\";\n\ncontract Users is IUsers {\n    // @param _name - the name of the admin\n    // @param _twitterId - the twitter id of the admin\n    // @param _imageUrl - the google profile photo of the admin\n    // @param _forwarder - the address of the gsn trusted forwarder\n    constructor(\n        string memory _name,\n        string memory _twitterId,\n        string memory _imageUrl,\n        address _forwarder\n    ) public {\n        enroll(_name, _twitterId, _imageUrl);\n        users[userNonce].role = Role.Administrator;\n        trustedForwarder = _forwarder;\n    }\n\n    /// MUTABLE FUNCTIONS ///\n\n    function enroll(\n        string memory _name,\n        string memory _twitterId,\n        string memory _imageUrl\n    ) public override returns (uint256 _nonce) {\n        require(userID[_msgSender()] == 0, \"User is enrolled\");\n        userNonce = userNonce.add(1);\n        userID[_msgSender()] = userNonce;\n        User storage user = users[userNonce];\n        user.name = _name;\n        user.twitterId = _twitterId;\n        user.imageUrl = _imageUrl;\n        user.at = _msgSender();\n        user.role = Role.Member;\n        emit UserEnrolled(_msgSender());\n        _nonce = userNonce;\n    }\n\n    function promote(address _user) public override onlyAdmin() {\n        User storage user = users[userID[_user]];\n        require(user.role == Role.Member, \"Can only promote a Member\");\n        user.role = Role.Administrator;\n        emit UserPromoted(_user);\n    }\n\n    function setTwitterId(string memory _twitterId) public override {\n        users[userID[_msgSender()]].twitterId = _twitterId;\n        emit TwitterIDUpdated(_msgSender());\n    }\n\n    function setBounty(address _at) public override {\n        require(bountyContract == address(0));\n        bountyContract = _at;\n    }\n\n    function addItem(\n        address _user,\n        uint256 _item,\n        uint256 _value\n    ) public override {\n        require(\n            msg.sender == itemContract,\n            \"Call is restricted to item contract\"\n        );\n        User storage user = users[userID[_user]];\n        user.items.push(_item);\n        user.balance = user.balance.sub(_value);\n    }\n\n    function setItem(address _at) public override {\n        require(itemContract == address(0));\n        itemContract = _at;\n    }\n\n    function addBounty(\n        address _user,\n        uint256 _bounty,\n        uint256 _value\n    ) public override {\n        require(\n            msg.sender == bountyContract,\n            \"Call is restricted to bounty contract\"\n        );\n        User storage user = users[userID[_user]];\n        user.bounties.push(_bounty);\n        user.balance = user.balance.add(_value);\n    }\n\n    /// VIEWABLE FUNCTIONS ///\n\n    function role(address _user) public view override returns (uint256 _role) {\n        _role = uint256(users[userID[_user]].role);\n    }\n\n    function balanceOf(address _user)\n        public\n        view\n        override\n        returns (uint256 _balance)\n    {\n        _balance = users[userID[_user]].balance;\n    }\n\n    function name(address _user)\n        public\n        view\n        override\n        returns (string memory _name)\n    {\n        _name = users[userID[_user]].name;\n    }\n\n    function getUser(address _user)\n        public\n        view\n        override\n        returns (\n            string memory _name,\n            string memory _imageUrl,\n            string memory _twitterId,\n            uint256 _balance,\n            uint256 _role,\n            uint256[] memory _items,\n            uint256[] memory _bounties\n        )\n    {\n        User memory user = users[userID[_user]];\n        _name = user.name;\n        _imageUrl = user.imageUrl;\n        _twitterId = user.twitterId;\n        _balance = user.balance;\n        _role = uint256(user.role);\n        _items = user.items;\n        _bounties = user.bounties;\n    }\n\n    function getUsers()\n        public\n        view\n        override\n        returns (\n            uint256 _nonce,\n            string[] memory _names,\n            string[] memory _imageUrls,\n            uint256[] memory _balances,\n            uint256[] memory _roles\n        )\n    {\n        _nonce = userNonce;\n        _names = new string[](_nonce);\n        _imageUrls = new string[](_nonce);\n        _balances = new uint256[](_nonce);\n        _roles = new uint256[](_nonce);\n        for (uint256 i = 0; i < _nonce; i++) {\n            _names[i] = users[i.add(1)].name;\n            _imageUrls[i] = users[i.add(1)].imageUrl;\n            _balances[i] = users[i.add(1)].balance;\n            _roles[i] = uint256(users[i.add(1)].role);\n        }\n    }\n\n    function getTwitterId(address _from)\n        public\n        view\n        override\n        returns (string memory)\n    {\n        return users[userID[_from]].twitterId;\n    }\n}\n",
  "sourcePath": "/home/jpag/orgtoken/contracts/contracts/Users.sol",
  "compiler": {
    "name": "solc",
    "version": "0.6.10+commit.00c0fcaf.Emscripten.clang"
  },
  "schemaVersion": "3.3.3",
  "updatedAt": "2021-01-15T19:33:34.343Z",
  "networkType": "ethereum",
  "devdoc": {
    "methods": {}
  },
  "userdoc": {
    "methods": {
      "enroll(string,string,string)": {
        "notice": "MUTABLE FUNCTIONS ///"
      },
      "getTrustedForwarder()": {
        "notice": "GSN Forwarder Call"
      },
      "role(address)": {
        "notice": "VIEWABLE FUNCTIONS ///"
      }
    }
  }
}