{
  "contractName": "Users",
  "abi": [
    {
      "inputs": [
        {
          "internalType": "string",
          "name": "_name",
          "type": "string"
        },
        {
          "internalType": "string",
          "name": "_twitterId",
          "type": "string"
        },
        {
          "internalType": "string",
          "name": "_imageUrl",
          "type": "string"
        }
      ],
      "stateMutability": "nonpayable",
      "type": "constructor"
    },
    {
      "anonymous": false,
      "inputs": [
        {
          "indexed": false,
          "internalType": "address",
          "name": "_user",
          "type": "address"
        }
      ],
      "name": "TwitterIDUpdated",
      "type": "event"
    },
    {
      "anonymous": false,
      "inputs": [
        {
          "indexed": false,
          "internalType": "address",
          "name": "_user",
          "type": "address"
        }
      ],
      "name": "UserEnrolled",
      "type": "event"
    },
    {
      "anonymous": false,
      "inputs": [
        {
          "indexed": false,
          "internalType": "address",
          "name": "_user",
          "type": "address"
        }
      ],
      "name": "UserPromoted",
      "type": "event"
    },
    {
      "inputs": [],
      "name": "bountyContract",
      "outputs": [
        {
          "internalType": "address",
          "name": "",
          "type": "address"
        }
      ],
      "stateMutability": "view",
      "type": "function",
      "constant": true
    },
    {
      "inputs": [],
      "name": "itemContract",
      "outputs": [
        {
          "internalType": "address",
          "name": "",
          "type": "address"
        }
      ],
      "stateMutability": "view",
      "type": "function",
      "constant": true
    },
    {
      "inputs": [
        {
          "internalType": "address",
          "name": "",
          "type": "address"
        }
      ],
      "name": "userID",
      "outputs": [
        {
          "internalType": "uint256",
          "name": "",
          "type": "uint256"
        }
      ],
      "stateMutability": "view",
      "type": "function",
      "constant": true
    },
    {
      "inputs": [],
      "name": "userNonce",
      "outputs": [
        {
          "internalType": "uint256",
          "name": "",
          "type": "uint256"
        }
      ],
      "stateMutability": "view",
      "type": "function",
      "constant": true
    },
    {
      "inputs": [
        {
          "internalType": "uint256",
          "name": "",
          "type": "uint256"
        }
      ],
      "name": "users",
      "outputs": [
        {
          "internalType": "string",
          "name": "name",
          "type": "string"
        },
        {
          "internalType": "string",
          "name": "twitterId",
          "type": "string"
        },
        {
          "internalType": "string",
          "name": "imageUrl",
          "type": "string"
        },
        {
          "internalType": "address",
          "name": "at",
          "type": "address"
        },
        {
          "internalType": "uint256",
          "name": "balance",
          "type": "uint256"
        },
        {
          "internalType": "enum Role",
          "name": "role",
          "type": "uint8"
        }
      ],
      "stateMutability": "view",
      "type": "function",
      "constant": true
    },
    {
      "inputs": [
        {
          "internalType": "string",
          "name": "_name",
          "type": "string"
        },
        {
          "internalType": "string",
          "name": "_twitterId",
          "type": "string"
        },
        {
          "internalType": "string",
          "name": "_imageUrl",
          "type": "string"
        }
      ],
      "name": "enroll",
      "outputs": [
        {
          "internalType": "uint256",
          "name": "_nonce",
          "type": "uint256"
        }
      ],
      "stateMutability": "nonpayable",
      "type": "function"
    },
    {
      "inputs": [
        {
          "internalType": "address",
          "name": "_user",
          "type": "address"
        }
      ],
      "name": "promote",
      "outputs": [],
      "stateMutability": "nonpayable",
      "type": "function"
    },
    {
      "inputs": [
        {
          "internalType": "string",
          "name": "_twitterId",
          "type": "string"
        }
      ],
      "name": "setTwitterId",
      "outputs": [],
      "stateMutability": "nonpayable",
      "type": "function"
    },
    {
      "inputs": [
        {
          "internalType": "address",
          "name": "_at",
          "type": "address"
        }
      ],
      "name": "setBounty",
      "outputs": [],
      "stateMutability": "nonpayable",
      "type": "function"
    },
    {
      "inputs": [
        {
          "internalType": "address",
          "name": "_user",
          "type": "address"
        },
        {
          "internalType": "uint256",
          "name": "_item",
          "type": "uint256"
        },
        {
          "internalType": "uint256",
          "name": "_value",
          "type": "uint256"
        }
      ],
      "name": "addItem",
      "outputs": [],
      "stateMutability": "nonpayable",
      "type": "function"
    },
    {
      "inputs": [
        {
          "internalType": "address",
          "name": "_at",
          "type": "address"
        }
      ],
      "name": "setItem",
      "outputs": [],
      "stateMutability": "nonpayable",
      "type": "function"
    },
    {
      "inputs": [
        {
          "internalType": "address",
          "name": "_user",
          "type": "address"
        },
        {
          "internalType": "uint256",
          "name": "_bounty",
          "type": "uint256"
        },
        {
          "internalType": "uint256",
          "name": "_value",
          "type": "uint256"
        }
      ],
      "name": "addBounty",
      "outputs": [],
      "stateMutability": "nonpayable",
      "type": "function"
    },
    {
      "inputs": [
        {
          "internalType": "address",
          "name": "_user",
          "type": "address"
        }
      ],
      "name": "role",
      "outputs": [
        {
          "internalType": "uint256",
          "name": "_role",
          "type": "uint256"
        }
      ],
      "stateMutability": "view",
      "type": "function",
      "constant": true
    },
    {
      "inputs": [
        {
          "internalType": "address",
          "name": "_user",
          "type": "address"
        }
      ],
      "name": "balanceOf",
      "outputs": [
        {
          "internalType": "uint256",
          "name": "_balance",
          "type": "uint256"
        }
      ],
      "stateMutability": "view",
      "type": "function",
      "constant": true
    },
    {
      "inputs": [
        {
          "internalType": "address",
          "name": "_user",
          "type": "address"
        }
      ],
      "name": "name",
      "outputs": [
        {
          "internalType": "string",
          "name": "_name",
          "type": "string"
        }
      ],
      "stateMutability": "view",
      "type": "function",
      "constant": true
    },
    {
      "inputs": [
        {
          "internalType": "address",
          "name": "_user",
          "type": "address"
        }
      ],
      "name": "getUser",
      "outputs": [
        {
          "internalType": "string",
          "name": "_name",
          "type": "string"
        },
        {
          "internalType": "string",
          "name": "_imageUrl",
          "type": "string"
        },
        {
          "internalType": "string",
          "name": "_twitterId",
          "type": "string"
        },
        {
          "internalType": "uint256",
          "name": "_balance",
          "type": "uint256"
        },
        {
          "internalType": "uint256",
          "name": "_role",
          "type": "uint256"
        },
        {
          "internalType": "uint256[]",
          "name": "_items",
          "type": "uint256[]"
        },
        {
          "internalType": "uint256[]",
          "name": "_bounties",
          "type": "uint256[]"
        }
      ],
      "stateMutability": "view",
      "type": "function",
      "constant": true
    },
    {
      "inputs": [],
      "name": "getUsers",
      "outputs": [
        {
          "internalType": "uint256",
          "name": "_nonce",
          "type": "uint256"
        },
        {
          "internalType": "string[]",
          "name": "_names",
          "type": "string[]"
        },
        {
          "internalType": "string[]",
          "name": "_imageUrls",
          "type": "string[]"
        },
        {
          "internalType": "uint256[]",
          "name": "_balances",
          "type": "uint256[]"
        },
        {
          "internalType": "uint256[]",
          "name": "_roles",
          "type": "uint256[]"
        }
      ],
      "stateMutability": "view",
      "type": "function",
      "constant": true
    },
    {
      "inputs": [
        {
          "internalType": "address",
          "name": "_from",
          "type": "address"
        }
      ],
      "name": "getTwitterId",
      "outputs": [
        {
          "internalType": "string",
          "name": "",
          "type": "string"
        }
      ],
      "stateMutability": "view",
      "type": "function",
      "constant": true
    }
  ],
  "bytecode": "0x60806040523480156200001157600080fd5b50604051620029a7380380620029a78339818101604052620000379190810190620003fb565b6200004a8383836200008f60201b60201c565b50600260046000600254815260200190815260200160002060050160006101000a81548160ff021916908360028111156200008157fe5b021790555050505062000690565b600080600360003373ffffffffffffffffffffffffffffffffffffffff1673ffffffffffffffffffffffffffffffffffffffff168152602001908152602001600020541462000115576040517f08c379a00000000000000000000000000000000000000000000000000000000081526004016200010c906200054e565b60405180910390fd5b6200013260016002546200029860201b620017281790919060201c565b600281905550600254600360003373ffffffffffffffffffffffffffffffffffffffff1673ffffffffffffffffffffffffffffffffffffffff168152602001908152602001600020819055506000600460006002548152602001908152602001600020905084816000019080519060200190620001b1929190620002f0565b5083816001019080519060200190620001cc929190620002f0565b5082816002019080519060200190620001e7929190620002f0565b50338160030160006101000a81548173ffffffffffffffffffffffffffffffffffffffff021916908373ffffffffffffffffffffffffffffffffffffffff16021790555060018160050160006101000a81548160ff021916908360028111156200024d57fe5b02179055507f2f98b1c76410ce8512191c4f9392c1eec008c4254f2366b1ab7eb195702f0d583360405162000283919062000531565b60405180910390a16002549150509392505050565b600080828401905083811015620002e6576040517f08c379a0000000000000000000000000000000000000000000000000000000008152600401620002dd9062000570565b60405180910390fd5b8091505092915050565b828054600181600116156101000203166002900490600052602060002090601f016020900481019282601f106200033357805160ff191683800117855562000364565b8280016001018555821562000364579182015b828111156200036357825182559160200191906001019062000346565b5b50905062000373919062000377565b5090565b6200039c91905b80821115620003985760008160009055506001016200037e565b5090565b90565b600082601f830112620003b157600080fd5b8151620003c8620003c282620005c0565b62000592565b91508082526020830160208301858383011115620003e557600080fd5b620003f28382846200065a565b50505092915050565b6000806000606084860312156200041157600080fd5b600084015167ffffffffffffffff8111156200042c57600080fd5b6200043a868287016200039f565b935050602084015167ffffffffffffffff8111156200045857600080fd5b62000466868287016200039f565b925050604084015167ffffffffffffffff8111156200048457600080fd5b62000492868287016200039f565b9150509250925092565b620004a7816200061e565b82525050565b6000620004bc601083620005ed565b91507f5573657220697320656e726f6c6c6564000000000000000000000000000000006000830152602082019050919050565b6000620004fe601b83620005ed565b91507f536166654d6174683a206164646974696f6e206f766572666c6f7700000000006000830152602082019050919050565b60006020820190506200054860008301846200049c565b92915050565b600060208201905081810360008301526200056981620004ad565b9050919050565b600060208201905081810360008301526200058b81620004ef565b9050919050565b6000604051905081810181811067ffffffffffffffff82111715620005b657600080fd5b8060405250919050565b600067ffffffffffffffff821115620005d857600080fd5b601f19601f8301169050602081019050919050565b600082825260208201905092915050565b600073ffffffffffffffffffffffffffffffffffffffff82169050919050565b60006200062b8262000632565b9050919050565b60006200063f8262000646565b9050919050565b60006200065382620005fe565b9050919050565b60005b838110156200067a5780820151818401526020810190506200065d565b838111156200068a576000848401525b50505050565b61230780620006a06000396000f3fe608060405234801561001057600080fd5b50600436106101155760003560e01c8063c1b91dd9116100a2578063ddf9fa0911610071578063ddf9fa0914610325578063e249e4fe14610343578063e43f3e781461035f578063eda7794e1461037b578063f8609df1146103ab57610115565b8063c1b91dd91461028d578063d09a169c146102a9578063d0e0813a146102d9578063d590f8c9146102f557610115565b80636f77926b116100e95780636f77926b146101bd57806370a08231146101f35780638b1a3bb1146102235780638d76f94014610253578063bc300ed31461027157610115565b8062ce8e3e1461011a578063019848921461013c578063165ed2761461016c578063365b98b214610188575b600080fd5b6101226103c9565b60405161013395949392919061203a565b60405180910390f35b610156600480360361015191908101906119ab565b610719565b6040516101639190611e75565b60405180910390f35b610186600480360361018191908101906119ab565b610810565b005b6101a2600480360361019d9190810190611afb565b6108ad565b6040516101b496959493929190611f29565b60405180910390f35b6101d760048036036101d291908101906119ab565b610ade565b6040516101ea9796959493929190611e97565b60405180910390f35b61020d600480360361020891908101906119ab565b610ebc565b60405161021a919061201f565b60405180910390f35b61023d600480360361023891908101906119ab565b610f1b565b60405161024a9190611e75565b60405180910390f35b61025b611012565b6040516102689190611e3f565b60405180910390f35b61028b600480360361028691908101906119ab565b611037565b005b6102a760048036036102a291908101906119d4565b6110d6565b005b6102c360048036036102be9190810190611a64565b61117c565b6040516102d0919061201f565b60405180910390f35b6102f360048036036102ee91908101906119ab565b611372565b005b61030f600480360361030a91908101906119ab565b611493565b60405161031c919061201f565b60405180910390f35b61032d61150a565b60405161033a9190611e3f565b60405180910390f35b61035d60048036036103589190810190611a23565b611530565b005b610379600480360361037491908101906119d4565b6115d4565b005b610395600480360361039091908101906119ab565b61170a565b6040516103a2919061201f565b60405180910390f35b6103b3611722565b6040516103c0919061201f565b60405180910390f35b600060608060608060025494508460405190808252806020026020018201604052801561040a57816020015b60608152602001906001900390816103f55790505b5093508460405190808252806020026020018201604052801561044157816020015b606081526020019060019003908161042c5790505b509250846040519080825280602002602001820160405280156104735781602001602082028038833980820191505090505b509150846040519080825280602002602001820160405280156104a55781602001602082028038833980820191505090505b50905060008090505b8581101561071157600460006104ce60018461172890919063ffffffff16565b81526020019081526020016000206000018054600181600116156101000203166002900480601f0160208091040260200160405190810160405280929190818152602001828054600181600116156101000203166002900480156105735780601f1061054857610100808354040283529160200191610573565b820191906000526020600020905b81548152906001019060200180831161055657829003601f168201915b505050505085828151811061058457fe5b6020026020010181905250600460006105a760018461172890919063ffffffff16565b81526020019081526020016000206002018054600181600116156101000203166002900480601f01602080910402602001604051908101604052809291908181526020018280546001816001161561010002031660029004801561064c5780601f106106215761010080835404028352916020019161064c565b820191906000526020600020905b81548152906001019060200180831161062f57829003601f168201915b505050505084828151811061065d57fe5b60200260200101819052506004600061068060018461172890919063ffffffff16565b81526020019081526020016000206004015483828151811061069e57fe5b602002602001018181525050600460006106c260018461172890919063ffffffff16565b815260200190815260200160002060050160009054906101000a900460ff1660028111156106ec57fe5b8282815181106106f857fe5b60200260200101818152505080806001019150506104ae565b509091929394565b606060046000600360008573ffffffffffffffffffffffffffffffffffffffff1673ffffffffffffffffffffffffffffffffffffffff1681526020019081526020016000205481526020019081526020016000206000018054600181600116156101000203166002900480601f0160208091040260200160405190810160405280929190818152602001828054600181600116156101000203166002900480156108045780601f106107d957610100808354040283529160200191610804565b820191906000526020600020905b8154815290600101906020018083116107e757829003601f168201915b50505050509050919050565b600073ffffffffffffffffffffffffffffffffffffffff166000809054906101000a900473ffffffffffffffffffffffffffffffffffffffff1673ffffffffffffffffffffffffffffffffffffffff161461086a57600080fd5b806000806101000a81548173ffffffffffffffffffffffffffffffffffffffff021916908373ffffffffffffffffffffffffffffffffffffffff16021790555050565b6004602052806000526040600020600091509050806000018054600181600116156101000203166002900480601f0160208091040260200160405190810160405280929190818152602001828054600181600116156101000203166002900480156109595780601f1061092e57610100808354040283529160200191610959565b820191906000526020600020905b81548152906001019060200180831161093c57829003601f168201915b505050505090806001018054600181600116156101000203166002900480601f0160208091040260200160405190810160405280929190818152602001828054600181600116156101000203166002900480156109f75780601f106109cc576101008083540402835291602001916109f7565b820191906000526020600020905b8154815290600101906020018083116109da57829003601f168201915b505050505090806002018054600181600116156101000203166002900480601f016020809104026020016040519081016040528092919081815260200182805460018160011615610100020316600290048015610a955780601f10610a6a57610100808354040283529160200191610a95565b820191906000526020600020905b815481529060010190602001808311610a7857829003601f168201915b5050505050908060030160009054906101000a900473ffffffffffffffffffffffffffffffffffffffff16908060040154908060050160009054906101000a900460ff16905086565b6060806060600080606080610af1611822565b60046000600360008c73ffffffffffffffffffffffffffffffffffffffff1673ffffffffffffffffffffffffffffffffffffffff16815260200190815260200160002054815260200190815260200160002060405180610100016040529081600082018054600181600116156101000203166002900480601f016020809104026020016040519081016040528092919081815260200182805460018160011615610100020316600290048015610be85780601f10610bbd57610100808354040283529160200191610be8565b820191906000526020600020905b815481529060010190602001808311610bcb57829003601f168201915b50505050508152602001600182018054600181600116156101000203166002900480601f016020809104026020016040519081016040528092919081815260200182805460018160011615610100020316600290048015610c8a5780601f10610c5f57610100808354040283529160200191610c8a565b820191906000526020600020905b815481529060010190602001808311610c6d57829003601f168201915b50505050508152602001600282018054600181600116156101000203166002900480601f016020809104026020016040519081016040528092919081815260200182805460018160011615610100020316600290048015610d2c5780601f10610d0157610100808354040283529160200191610d2c565b820191906000526020600020905b815481529060010190602001808311610d0f57829003601f168201915b505050505081526020016003820160009054906101000a900473ffffffffffffffffffffffffffffffffffffffff1673ffffffffffffffffffffffffffffffffffffffff1673ffffffffffffffffffffffffffffffffffffffff168152602001600482015481526020016005820160009054906101000a900460ff166002811115610db357fe5b6002811115610dbe57fe5b815260200160068201805480602002602001604051908101604052809291908181526020018280548015610e1157602002820191906000526020600020905b815481526020019060010190808311610dfd575b5050505050815260200160078201805480602002602001604051908101604052809291908181526020018280548015610e6957602002820191906000526020600020905b815481526020019060010190808311610e55575b5050505050815250509050806000015197508060400151965080602001519550806080015194508060a001516002811115610ea057fe5b93508060c0015192508060e00151915050919395979092949650565b600060046000600360008573ffffffffffffffffffffffffffffffffffffffff1673ffffffffffffffffffffffffffffffffffffffff168152602001908152602001600020548152602001908152602001600020600401549050919050565b606060046000600360008573ffffffffffffffffffffffffffffffffffffffff1673ffffffffffffffffffffffffffffffffffffffff1681526020019081526020016000205481526020019081526020016000206001018054600181600116156101000203166002900480601f0160208091040260200160405190810160405280929190818152602001828054600181600116156101000203166002900480156110065780601f10610fdb57610100808354040283529160200191611006565b820191906000526020600020905b815481529060010190602001808311610fe957829003601f168201915b50505050509050919050565b6000809054906101000a900473ffffffffffffffffffffffffffffffffffffffff1681565b600073ffffffffffffffffffffffffffffffffffffffff16600160009054906101000a900473ffffffffffffffffffffffffffffffffffffffff1673ffffffffffffffffffffffffffffffffffffffff161461109257600080fd5b80600160006101000a81548173ffffffffffffffffffffffffffffffffffffffff021916908373ffffffffffffffffffffffffffffffffffffffff16021790555050565b600060046000600360008773ffffffffffffffffffffffffffffffffffffffff1673ffffffffffffffffffffffffffffffffffffffff16815260200190815260200160002054815260200190815260200160002090508060060183908060018154018082558091505060019003906000526020600020016000909190919091505561116e82826004015461177d90919063ffffffff16565b816004018190555050505050565b600080600360003373ffffffffffffffffffffffffffffffffffffffff1673ffffffffffffffffffffffffffffffffffffffff16815260200190815260200160002054146111ff576040517f08c379a00000000000000000000000000000000000000000000000000000000081526004016111f690611fbf565b60405180910390fd5b611215600160025461172890919063ffffffff16565b600281905550600254600360003373ffffffffffffffffffffffffffffffffffffffff1673ffffffffffffffffffffffffffffffffffffffff168152602001908152602001600020819055506000600460006002548152602001908152602001600020905084816000019080519060200190611292929190611888565b50838160010190805190602001906112ab929190611888565b50828160020190805190602001906112c4929190611888565b50338160030160006101000a81548173ffffffffffffffffffffffffffffffffffffffff021916908373ffffffffffffffffffffffffffffffffffffffff16021790555060018160050160006101000a81548160ff0219169083600281111561132957fe5b02179055507f2f98b1c76410ce8512191c4f9392c1eec008c4254f2366b1ab7eb195702f0d583360405161135d9190611e5a565b60405180910390a16002549150509392505050565b600060046000600360008573ffffffffffffffffffffffffffffffffffffffff1673ffffffffffffffffffffffffffffffffffffffff1681526020019081526020016000205481526020019081526020016000209050600160028111156113d557fe5b8160050160009054906101000a900460ff1660028111156113f257fe5b14611432576040517f08c379a000000000000000000000000000000000000000000000000000000000815260040161142990611f9f565b60405180910390fd5b60028160050160006101000a81548160ff0219169083600281111561145357fe5b02179055507f11434ddb2adc98734adcfc3abc944a402adef5b8ee6203e3bcc2d6d23bf23648826040516114879190611e3f565b60405180910390a15050565b600060046000600360008573ffffffffffffffffffffffffffffffffffffffff1673ffffffffffffffffffffffffffffffffffffffff16815260200190815260200160002054815260200190815260200160002060050160009054906101000a900460ff16600281111561150357fe5b9050919050565b600160009054906101000a900473ffffffffffffffffffffffffffffffffffffffff1681565b8060046000600360003373ffffffffffffffffffffffffffffffffffffffff1673ffffffffffffffffffffffffffffffffffffffff1681526020019081526020016000205481526020019081526020016000206001019080519060200190611599929190611888565b507f5c036e0fb78aa87beea16bba4b6cb9d133815a9b9b40cdfa95b9368e1e37c1c9336040516115c99190611e5a565b60405180910390a150565b600160009054906101000a900473ffffffffffffffffffffffffffffffffffffffff1673ffffffffffffffffffffffffffffffffffffffff163373ffffffffffffffffffffffffffffffffffffffff1614611664576040517f08c379a000000000000000000000000000000000000000000000000000000000815260040161165b90611fff565b60405180910390fd5b600060046000600360008773ffffffffffffffffffffffffffffffffffffffff1673ffffffffffffffffffffffffffffffffffffffff1681526020019081526020016000205481526020019081526020016000209050806007018390806001815401808255809150506001900390600052602060002001600090919091909150556116fc82826004015461172890919063ffffffff16565b816004018190555050505050565b60036020528060005260406000206000915090505481565b60025481565b600080828401905083811015611773576040517f08c379a000000000000000000000000000000000000000000000000000000000815260040161176a90611fdf565b60405180910390fd5b8091505092915050565b60006117bf83836040518060400160405280601e81526020017f536166654d6174683a207375627472616374696f6e206f766572666c6f7700008152506117c7565b905092915050565b600083831115829061180f576040517f08c379a00000000000000000000000000000000000000000000000000000000081526004016118069190611e75565b60405180910390fd5b5060008385039050809150509392505050565b604051806101000160405280606081526020016060815260200160608152602001600073ffffffffffffffffffffffffffffffffffffffff168152602001600081526020016000600281111561187457fe5b815260200160608152602001606081525090565b828054600181600116156101000203166002900490600052602060002090601f016020900481019282601f106118c957805160ff19168380011785556118f7565b828001600101855582156118f7579182015b828111156118f65782518255916020019190600101906118db565b5b5090506119049190611908565b5090565b61192a91905b8082111561192657600081600090555060010161190e565b5090565b90565b60008135905061193c816122a3565b92915050565b600082601f83011261195357600080fd5b8135611966611961826120d6565b6120a9565b9150808252602083016020830185838301111561198257600080fd5b61198d838284612243565b50505092915050565b6000813590506119a5816122ba565b92915050565b6000602082840312156119bd57600080fd5b60006119cb8482850161192d565b91505092915050565b6000806000606084860312156119e957600080fd5b60006119f78682870161192d565b9350506020611a0886828701611996565b9250506040611a1986828701611996565b9150509250925092565b600060208284031215611a3557600080fd5b600082013567ffffffffffffffff811115611a4f57600080fd5b611a5b84828501611942565b91505092915050565b600080600060608486031215611a7957600080fd5b600084013567ffffffffffffffff811115611a9357600080fd5b611a9f86828701611942565b935050602084013567ffffffffffffffff811115611abc57600080fd5b611ac886828701611942565b925050604084013567ffffffffffffffff811115611ae557600080fd5b611af186828701611942565b9150509250925092565b600060208284031215611b0d57600080fd5b6000611b1b84828501611996565b91505092915050565b6000611b308383611c89565b905092915050565b6000611b448383611e21565b60208301905092915050565b611b59816121fb565b82525050565b611b68816121ac565b82525050565b6000611b7982612122565b611b838185612168565b935083602082028501611b9585612102565b8060005b85811015611bd15784840389528151611bb28582611b24565b9450611bbd8361214e565b925060208a01995050600181019050611b99565b50829750879550505050505092915050565b6000611bee8261212d565b611bf88185612179565b9350611c0383612112565b8060005b83811015611c34578151611c1b8882611b38565b9750611c268361215b565b925050600181019050611c07565b5085935050505092915050565b611c4a8161220d565b82525050565b6000611c5b82612143565b611c65818561219b565b9350611c75818560208601612252565b611c7e81612285565b840191505092915050565b6000611c9482612138565b611c9e818561218a565b9350611cae818560208601612252565b611cb781612285565b840191505092915050565b6000611ccd82612138565b611cd7818561219b565b9350611ce7818560208601612252565b611cf081612285565b840191505092915050565b6000611d0860198361219b565b91507f43616e206f6e6c792070726f6d6f74652061204d656d626572000000000000006000830152602082019050919050565b6000611d4860108361219b565b91507f5573657220697320656e726f6c6c6564000000000000000000000000000000006000830152602082019050919050565b6000611d88601b8361219b565b91507f536166654d6174683a206164646974696f6e206f766572666c6f7700000000006000830152602082019050919050565b6000611dc860258361219b565b91507f43616c6c206973207265737472696374656420746f20626f756e747920636f6e60008301527f74726163740000000000000000000000000000000000000000000000000000006020830152604082019050919050565b611e2a816121f1565b82525050565b611e39816121f1565b82525050565b6000602082019050611e546000830184611b5f565b92915050565b6000602082019050611e6f6000830184611b50565b92915050565b60006020820190508181036000830152611e8f8184611c50565b905092915050565b600060e0820190508181036000830152611eb1818a611c50565b90508181036020830152611ec58189611c50565b90508181036040830152611ed98188611c50565b9050611ee86060830187611e30565b611ef56080830186611e30565b81810360a0830152611f078185611be3565b905081810360c0830152611f1b8184611be3565b905098975050505050505050565b600060c0820190508181036000830152611f438189611cc2565b90508181036020830152611f578188611cc2565b90508181036040830152611f6b8187611cc2565b9050611f7a6060830186611b5f565b611f876080830185611e30565b611f9460a0830184611c41565b979650505050505050565b60006020820190508181036000830152611fb881611cfb565b9050919050565b60006020820190508181036000830152611fd881611d3b565b9050919050565b60006020820190508181036000830152611ff881611d7b565b9050919050565b6000602082019050818103600083015261201881611dbb565b9050919050565b60006020820190506120346000830184611e30565b92915050565b600060a08201905061204f6000830188611e30565b81810360208301526120618187611b6e565b905081810360408301526120758186611b6e565b905081810360608301526120898185611be3565b9050818103608083015261209d8184611be3565b90509695505050505050565b6000604051905081810181811067ffffffffffffffff821117156120cc57600080fd5b8060405250919050565b600067ffffffffffffffff8211156120ed57600080fd5b601f19601f8301169050602081019050919050565b6000819050602082019050919050565b6000819050602082019050919050565b600081519050919050565b600081519050919050565b600081519050919050565b600081519050919050565b6000602082019050919050565b6000602082019050919050565b600082825260208201905092915050565b600082825260208201905092915050565b600082825260208201905092915050565b600082825260208201905092915050565b60006121b7826121d1565b9050919050565b60008190506121cc82612296565b919050565b600073ffffffffffffffffffffffffffffffffffffffff82169050919050565b6000819050919050565b60006122068261221f565b9050919050565b6000612218826121be565b9050919050565b600061222a82612231565b9050919050565b600061223c826121d1565b9050919050565b82818337600083830152505050565b60005b83811015612270578082015181840152602081019050612255565b8381111561227f576000848401525b50505050565b6000601f19601f8301169050919050565b600381106122a057fe5b50565b6122ac816121ac565b81146122b757600080fd5b50565b6122c3816121f1565b81146122ce57600080fd5b5056fea26469706673582212206b64cc923c60d1b70ef85b979c2d5678c3ff93736d0aef924a592c9933e27ade64736f6c63430006010033",
  "source": "//SPDX-License-Identifier: MIT\npragma solidity >=0.6.0 <0.8.0;\npragma experimental ABIEncoderV2;\n\nimport \"./interfaces/IUsers.sol\";\n\ncontract Users is IUsers {\n    // @param _name - the name of the admin\n    // @param _twitterId - the twitter id of the admin\n    // @param _imageUrl - the google profile photo of the admin\n    constructor(\n        string memory _name,\n        string memory _twitterId,\n        string memory _imageUrl\n    ) public {\n        enroll(_name, _twitterId, _imageUrl);\n        users[userNonce].role = Role.Administrator;\n    }\n\n    /// MUTABLE FUNCTIONS ///\n\n    function enroll(\n        string memory _name,\n        string memory _twitterId,\n        string memory _imageUrl\n    ) public override returns (uint256 _nonce) {\n        require(userID[msg.sender] == 0, \"User is enrolled\");\n        userNonce = userNonce.add(1);\n        userID[msg.sender] = userNonce;\n        User storage user = users[userNonce];\n        user.name = _name;\n        user.twitterId = _twitterId;\n        user.imageUrl = _imageUrl;\n        user.at = msg.sender;\n        user.role = Role.Member;\n        emit UserEnrolled(msg.sender);\n        _nonce = userNonce;\n    }\n\n    function promote(address _user) public override {\n        User storage user = users[userID[_user]];\n        require(user.role == Role.Member, \"Can only promote a Member\");\n        user.role = Role.Administrator;\n        emit UserPromoted(_user);\n    }\n\n    function setTwitterId(string memory _twitterId) public override {\n        users[userID[msg.sender]].twitterId = _twitterId;\n        emit TwitterIDUpdated(msg.sender);\n    }\n\n    function setBounty(address _at) public override {\n        require(bountyContract == address(0));\n        bountyContract = _at;\n    }\n\n    function addItem(\n        address _user,\n        uint256 _item,\n        uint256 _value\n    ) public override {\n        User storage user = users[userID[_user]];\n        user.items.push(_item);\n        user.balance = user.balance.sub(_value);\n    }\n\n    function setItem(address _at) public override {\n        require(itemContract == address(0));\n        itemContract = _at;\n    }\n\n    function addBounty(\n        address _user,\n        uint256 _bounty,\n        uint256 _value\n    ) public override {\n        require(\n            msg.sender == bountyContract,\n            \"Call is restricted to bounty contract\"\n        );\n        User storage user = users[userID[_user]];\n        user.bounties.push(_bounty);\n        user.balance = user.balance.add(_value);\n    }\n\n    /// VIEWABLE FUNCTIONS ///\n\n    function role(address _user) public view override returns (uint256 _role) {\n        _role = uint256(users[userID[_user]].role);\n    }\n\n    function balanceOf(address _user)\n        public\n        view\n        override\n        returns (uint256 _balance)\n    {\n        _balance = users[userID[_user]].balance;\n    }\n\n    function name(address _user)\n        public\n        view\n        override\n        returns (string memory _name)\n    {\n        _name = users[userID[_user]].name;\n    }\n\n    function getUser(address _user)\n        public\n        view\n        override\n        returns (\n            string memory _name,\n            string memory _imageUrl,\n            string memory _twitterId,\n            uint256 _balance,\n            uint256 _role,\n            uint256[] memory _items,\n            uint256[] memory _bounties\n        )\n    {\n        User memory user = users[userID[_user]];\n        _name = user.name;\n        _imageUrl = user.imageUrl;\n        _twitterId = user.twitterId;\n        _balance = user.balance;\n        _role = uint256(user.role);\n        _items = user.items;\n        _bounties = user.bounties;\n    }\n\n    function getUsers()\n        public\n        view\n        override\n        returns (\n            uint256 _nonce,\n            string[] memory _names,\n            string[] memory _imageUrls,\n            uint256[] memory _balances,\n            uint256[] memory _roles\n        )\n    {\n        _nonce = userNonce;\n        _names = new string[](_nonce);\n        _imageUrls = new string[](_nonce);\n        _balances = new uint256[](_nonce);\n        _roles = new uint256[](_nonce);\n        for (uint256 i = 0; i < _nonce; i++) {\n            _names[i] = users[i.add(1)].name;\n            _imageUrls[i] = users[i.add(1)].imageUrl;\n            _balances[i] = users[i.add(1)].balance;\n            _roles[i] = uint256(users[i.add(1)].role);\n        }\n    }\n\n    function getTwitterId(address _from)\n        public\n        view\n        override\n        returns (string memory)\n    {\n        return users[userID[_from]].twitterId;\n    }\n}\n",
  "sourcePath": "/home/kiwi/Desktop/sandbox/contracts/contracts/Users.sol",
  "compiler": {
    "name": "solc",
    "version": "0.6.1+commit.e6f7d5a4.Emscripten.clang"
  },
  "schemaVersion": "3.3.1",
  "updatedAt": "2021-01-11T22:21:52.812Z",
  "networkType": "ethereum",
  "devdoc": {
    "methods": {}
  },
  "userdoc": {
    "methods": {
      "enroll(string,string,string)": {
        "notice": "MUTABLE FUNCTIONS ///"
      },
      "role(address)": {
        "notice": "VIEWABLE FUNCTIONS ///"
      }
    }
  }
}