{
  "contractName": "Users",
  "abi": [
    {
      "inputs": [
        {
          "internalType": "string",
          "name": "_name",
          "type": "string"
        },
        {
          "internalType": "string",
          "name": "_twitterId",
          "type": "string"
        },
        {
          "internalType": "string",
          "name": "_imageUrl",
          "type": "string"
        }
      ],
      "stateMutability": "nonpayable",
      "type": "constructor"
    },
    {
      "anonymous": false,
      "inputs": [
        {
          "indexed": false,
          "internalType": "address",
          "name": "_user",
          "type": "address"
        }
      ],
      "name": "TwitterIDUpdated",
      "type": "event"
    },
    {
      "anonymous": false,
      "inputs": [
        {
          "indexed": false,
          "internalType": "address",
          "name": "_user",
          "type": "address"
        }
      ],
      "name": "UserEnrolled",
      "type": "event"
    },
    {
      "anonymous": false,
      "inputs": [
        {
          "indexed": false,
          "internalType": "address",
          "name": "_user",
          "type": "address"
        }
      ],
      "name": "UserPromoted",
      "type": "event"
    },
    {
      "inputs": [],
      "name": "bountyContract",
      "outputs": [
        {
          "internalType": "address",
          "name": "",
          "type": "address"
        }
      ],
      "stateMutability": "view",
      "type": "function",
      "constant": true
    },
    {
      "inputs": [],
      "name": "itemContract",
      "outputs": [
        {
          "internalType": "address",
          "name": "",
          "type": "address"
        }
      ],
      "stateMutability": "view",
      "type": "function",
      "constant": true
    },
    {
      "inputs": [
        {
          "internalType": "address",
          "name": "",
          "type": "address"
        }
      ],
      "name": "userID",
      "outputs": [
        {
          "internalType": "uint256",
          "name": "",
          "type": "uint256"
        }
      ],
      "stateMutability": "view",
      "type": "function",
      "constant": true
    },
    {
      "inputs": [],
      "name": "userNonce",
      "outputs": [
        {
          "internalType": "uint256",
          "name": "",
          "type": "uint256"
        }
      ],
      "stateMutability": "view",
      "type": "function",
      "constant": true
    },
    {
      "inputs": [
        {
          "internalType": "uint256",
          "name": "",
          "type": "uint256"
        }
      ],
      "name": "users",
      "outputs": [
        {
          "internalType": "string",
          "name": "name",
          "type": "string"
        },
        {
          "internalType": "string",
          "name": "twitterId",
          "type": "string"
        },
        {
          "internalType": "string",
          "name": "imageUrl",
          "type": "string"
        },
        {
          "internalType": "address",
          "name": "at",
          "type": "address"
        },
        {
          "internalType": "uint256",
          "name": "balance",
          "type": "uint256"
        },
        {
          "internalType": "enum Role",
          "name": "role",
          "type": "uint8"
        }
      ],
      "stateMutability": "view",
      "type": "function",
      "constant": true
    },
    {
      "inputs": [
        {
          "internalType": "string",
          "name": "_name",
          "type": "string"
        },
        {
          "internalType": "string",
          "name": "_twitterId",
          "type": "string"
        },
        {
          "internalType": "string",
          "name": "_imageUrl",
          "type": "string"
        }
      ],
      "name": "enroll",
      "outputs": [
        {
          "internalType": "uint256",
          "name": "_nonce",
          "type": "uint256"
        }
      ],
      "stateMutability": "nonpayable",
      "type": "function"
    },
    {
      "inputs": [
        {
          "internalType": "address",
          "name": "_user",
          "type": "address"
        }
      ],
      "name": "promote",
      "outputs": [],
      "stateMutability": "nonpayable",
      "type": "function"
    },
    {
      "inputs": [
        {
          "internalType": "string",
          "name": "_twitterId",
          "type": "string"
        }
      ],
      "name": "setTwitterId",
      "outputs": [],
      "stateMutability": "nonpayable",
      "type": "function"
    },
    {
      "inputs": [
        {
          "internalType": "address",
          "name": "_at",
          "type": "address"
        }
      ],
      "name": "setBounty",
      "outputs": [],
      "stateMutability": "nonpayable",
      "type": "function"
    },
    {
      "inputs": [
        {
          "internalType": "address",
          "name": "_user",
          "type": "address"
        },
        {
          "internalType": "uint256",
          "name": "_item",
          "type": "uint256"
        },
        {
          "internalType": "uint256",
          "name": "_value",
          "type": "uint256"
        }
      ],
      "name": "addItem",
      "outputs": [],
      "stateMutability": "nonpayable",
      "type": "function"
    },
    {
      "inputs": [
        {
          "internalType": "address",
          "name": "_at",
          "type": "address"
        }
      ],
      "name": "setItem",
      "outputs": [],
      "stateMutability": "nonpayable",
      "type": "function"
    },
    {
      "inputs": [
        {
          "internalType": "address",
          "name": "_user",
          "type": "address"
        },
        {
          "internalType": "uint256",
          "name": "_bounty",
          "type": "uint256"
        },
        {
          "internalType": "uint256",
          "name": "_value",
          "type": "uint256"
        }
      ],
      "name": "addBounty",
      "outputs": [],
      "stateMutability": "nonpayable",
      "type": "function"
    },
    {
      "inputs": [
        {
          "internalType": "address",
          "name": "_user",
          "type": "address"
        }
      ],
      "name": "role",
      "outputs": [
        {
          "internalType": "uint256",
          "name": "_role",
          "type": "uint256"
        }
      ],
      "stateMutability": "view",
      "type": "function",
      "constant": true
    },
    {
      "inputs": [
        {
          "internalType": "address",
          "name": "_user",
          "type": "address"
        }
      ],
      "name": "balanceOf",
      "outputs": [
        {
          "internalType": "uint256",
          "name": "_balance",
          "type": "uint256"
        }
      ],
      "stateMutability": "view",
      "type": "function",
      "constant": true
    },
    {
      "inputs": [
        {
          "internalType": "address",
          "name": "_user",
          "type": "address"
        }
      ],
      "name": "getUser",
      "outputs": [
        {
          "internalType": "string",
          "name": "_name",
          "type": "string"
        },
        {
          "internalType": "string",
          "name": "_imageUrl",
          "type": "string"
        },
        {
          "internalType": "string",
          "name": "_twitterId",
          "type": "string"
        },
        {
          "internalType": "uint256",
          "name": "_balance",
          "type": "uint256"
        },
        {
          "internalType": "uint256",
          "name": "_role",
          "type": "uint256"
        },
        {
          "internalType": "uint256[]",
          "name": "_items",
          "type": "uint256[]"
        },
        {
          "internalType": "uint256[]",
          "name": "_bounties",
          "type": "uint256[]"
        }
      ],
      "stateMutability": "view",
      "type": "function",
      "constant": true
    },
    {
      "inputs": [],
      "name": "getUsers",
      "outputs": [
        {
          "internalType": "uint256",
          "name": "_nonce",
          "type": "uint256"
        },
        {
          "internalType": "string[]",
          "name": "_names",
          "type": "string[]"
        },
        {
          "internalType": "string[]",
          "name": "_imageUrls",
          "type": "string[]"
        },
        {
          "internalType": "uint256[]",
          "name": "_balances",
          "type": "uint256[]"
        },
        {
          "internalType": "uint256[]",
          "name": "_roles",
          "type": "uint256[]"
        }
      ],
      "stateMutability": "view",
      "type": "function",
      "constant": true
    }
  ],
  "bytecode": "0x60806040523480156200001157600080fd5b5060405162002742380380620027428339818101604052620000379190810190620003fa565b6200004a8383836200008e60201b60201c565b506002600460006001815260200190815260200160002060050160006101000a81548160ff021916908360028111156200008057fe5b02179055505050506200068f565b600080600360003373ffffffffffffffffffffffffffffffffffffffff1673ffffffffffffffffffffffffffffffffffffffff168152602001908152602001600020541462000114576040517f08c379a00000000000000000000000000000000000000000000000000000000081526004016200010b906200054d565b60405180910390fd5b6200013160016002546200029760201b620014c41790919060201c565b600281905550600254600360003373ffffffffffffffffffffffffffffffffffffffff1673ffffffffffffffffffffffffffffffffffffffff168152602001908152602001600020819055506000600460006002548152602001908152602001600020905084816000019080519060200190620001b0929190620002ef565b5083816001019080519060200190620001cb929190620002ef565b5082816002019080519060200190620001e6929190620002ef565b50338160030160006101000a81548173ffffffffffffffffffffffffffffffffffffffff021916908373ffffffffffffffffffffffffffffffffffffffff16021790555060018160050160006101000a81548160ff021916908360028111156200024c57fe5b02179055507f2f98b1c76410ce8512191c4f9392c1eec008c4254f2366b1ab7eb195702f0d583360405162000282919062000530565b60405180910390a16002549150509392505050565b600080828401905083811015620002e5576040517f08c379a0000000000000000000000000000000000000000000000000000000008152600401620002dc906200056f565b60405180910390fd5b8091505092915050565b828054600181600116156101000203166002900490600052602060002090601f016020900481019282601f106200033257805160ff191683800117855562000363565b8280016001018555821562000363579182015b828111156200036257825182559160200191906001019062000345565b5b50905062000372919062000376565b5090565b6200039b91905b80821115620003975760008160009055506001016200037d565b5090565b90565b600082601f830112620003b057600080fd5b8151620003c7620003c182620005bf565b62000591565b91508082526020830160208301858383011115620003e457600080fd5b620003f183828462000659565b50505092915050565b6000806000606084860312156200041057600080fd5b600084015167ffffffffffffffff8111156200042b57600080fd5b62000439868287016200039e565b935050602084015167ffffffffffffffff8111156200045757600080fd5b62000465868287016200039e565b925050604084015167ffffffffffffffff8111156200048357600080fd5b62000491868287016200039e565b9150509250925092565b620004a6816200061d565b82525050565b6000620004bb601083620005ec565b91507f5573657220697320656e726f6c6c6564000000000000000000000000000000006000830152602082019050919050565b6000620004fd601b83620005ec565b91507f536166654d6174683a206164646974696f6e206f766572666c6f7700000000006000830152602082019050919050565b60006020820190506200054760008301846200049b565b92915050565b600060208201905081810360008301526200056881620004ac565b9050919050565b600060208201905081810360008301526200058a81620004ee565b9050919050565b6000604051905081810181811067ffffffffffffffff82111715620005b557600080fd5b8060405250919050565b600067ffffffffffffffff821115620005d757600080fd5b601f19601f8301169050602081019050919050565b600082825260208201905092915050565b600073ffffffffffffffffffffffffffffffffffffffff82169050919050565b60006200062a8262000631565b9050919050565b60006200063e8262000645565b9050919050565b60006200065282620005fd565b9050919050565b60005b83811015620006795780820151818401526020810190506200065c565b8381111562000689576000848401525b50505050565b6120a3806200069f6000396000f3fe608060405234801561001057600080fd5b50600436106100ff5760003560e01c8063d09a169c11610097578063e249e4fe11610066578063e249e4fe146102cd578063e43f3e78146102e9578063eda7794e14610305578063f8609df114610335576100ff565b8063d09a169c14610233578063d0e0813a14610263578063d590f8c91461027f578063ddf9fa09146102af576100ff565b806370a08231116100d357806370a08231146101ad5780638d76f940146101dd578063bc300ed3146101fb578063c1b91dd914610217576100ff565b8062ce8e3e14610104578063165ed27614610126578063365b98b2146101425780636f77926b14610177575b600080fd5b61010c610353565b60405161011d959493929190611dd6565b60405180910390f35b610140600480360361013b9190810190611747565b6106a3565b005b61015c60048036036101579190810190611897565b610740565b60405161016e96959493929190611cc5565b60405180910390f35b610191600480360361018c9190810190611747565b610971565b6040516101a49796959493929190611c33565b60405180910390f35b6101c760048036036101c29190810190611747565b610d4f565b6040516101d49190611dbb565b60405180910390f35b6101e5610dae565b6040516101f29190611bdb565b60405180910390f35b61021560048036036102109190810190611747565b610dd3565b005b610231600480360361022c9190810190611770565b610e72565b005b61024d60048036036102489190810190611800565b610f18565b60405161025a9190611dbb565b60405180910390f35b61027d60048036036102789190810190611747565b61110e565b005b61029960048036036102949190810190611747565b61122f565b6040516102a69190611dbb565b60405180910390f35b6102b76112a6565b6040516102c49190611bdb565b60405180910390f35b6102e760048036036102e291908101906117bf565b6112cc565b005b61030360048036036102fe9190810190611770565b611370565b005b61031f600480360361031a9190810190611747565b6114a6565b60405161032c9190611dbb565b60405180910390f35b61033d6114be565b60405161034a9190611dbb565b60405180910390f35b600060608060608060025494508460405190808252806020026020018201604052801561039457816020015b606081526020019060019003908161037f5790505b509350846040519080825280602002602001820160405280156103cb57816020015b60608152602001906001900390816103b65790505b509250846040519080825280602002602001820160405280156103fd5781602001602082028038833980820191505090505b5091508460405190808252806020026020018201604052801561042f5781602001602082028038833980820191505090505b50905060008090505b8581101561069b57600460006104586001846114c490919063ffffffff16565b81526020019081526020016000206000018054600181600116156101000203166002900480601f0160208091040260200160405190810160405280929190818152602001828054600181600116156101000203166002900480156104fd5780601f106104d2576101008083540402835291602001916104fd565b820191906000526020600020905b8154815290600101906020018083116104e057829003601f168201915b505050505085828151811061050e57fe5b6020026020010181905250600460006105316001846114c490919063ffffffff16565b81526020019081526020016000206002018054600181600116156101000203166002900480601f0160208091040260200160405190810160405280929190818152602001828054600181600116156101000203166002900480156105d65780601f106105ab576101008083540402835291602001916105d6565b820191906000526020600020905b8154815290600101906020018083116105b957829003601f168201915b50505050508482815181106105e757fe5b60200260200101819052506004600061060a6001846114c490919063ffffffff16565b81526020019081526020016000206004015483828151811061062857fe5b6020026020010181815250506004600061064c6001846114c490919063ffffffff16565b815260200190815260200160002060050160009054906101000a900460ff16600281111561067657fe5b82828151811061068257fe5b6020026020010181815250508080600101915050610438565b509091929394565b600073ffffffffffffffffffffffffffffffffffffffff166000809054906101000a900473ffffffffffffffffffffffffffffffffffffffff1673ffffffffffffffffffffffffffffffffffffffff16146106fd57600080fd5b806000806101000a81548173ffffffffffffffffffffffffffffffffffffffff021916908373ffffffffffffffffffffffffffffffffffffffff16021790555050565b6004602052806000526040600020600091509050806000018054600181600116156101000203166002900480601f0160208091040260200160405190810160405280929190818152602001828054600181600116156101000203166002900480156107ec5780601f106107c1576101008083540402835291602001916107ec565b820191906000526020600020905b8154815290600101906020018083116107cf57829003601f168201915b505050505090806001018054600181600116156101000203166002900480601f01602080910402602001604051908101604052809291908181526020018280546001816001161561010002031660029004801561088a5780601f1061085f5761010080835404028352916020019161088a565b820191906000526020600020905b81548152906001019060200180831161086d57829003601f168201915b505050505090806002018054600181600116156101000203166002900480601f0160208091040260200160405190810160405280929190818152602001828054600181600116156101000203166002900480156109285780601f106108fd57610100808354040283529160200191610928565b820191906000526020600020905b81548152906001019060200180831161090b57829003601f168201915b5050505050908060030160009054906101000a900473ffffffffffffffffffffffffffffffffffffffff16908060040154908060050160009054906101000a900460ff16905086565b60608060606000806060806109846115be565b60046000600360008c73ffffffffffffffffffffffffffffffffffffffff1673ffffffffffffffffffffffffffffffffffffffff16815260200190815260200160002054815260200190815260200160002060405180610100016040529081600082018054600181600116156101000203166002900480601f016020809104026020016040519081016040528092919081815260200182805460018160011615610100020316600290048015610a7b5780601f10610a5057610100808354040283529160200191610a7b565b820191906000526020600020905b815481529060010190602001808311610a5e57829003601f168201915b50505050508152602001600182018054600181600116156101000203166002900480601f016020809104026020016040519081016040528092919081815260200182805460018160011615610100020316600290048015610b1d5780601f10610af257610100808354040283529160200191610b1d565b820191906000526020600020905b815481529060010190602001808311610b0057829003601f168201915b50505050508152602001600282018054600181600116156101000203166002900480601f016020809104026020016040519081016040528092919081815260200182805460018160011615610100020316600290048015610bbf5780601f10610b9457610100808354040283529160200191610bbf565b820191906000526020600020905b815481529060010190602001808311610ba257829003601f168201915b505050505081526020016003820160009054906101000a900473ffffffffffffffffffffffffffffffffffffffff1673ffffffffffffffffffffffffffffffffffffffff1673ffffffffffffffffffffffffffffffffffffffff168152602001600482015481526020016005820160009054906101000a900460ff166002811115610c4657fe5b6002811115610c5157fe5b815260200160068201805480602002602001604051908101604052809291908181526020018280548015610ca457602002820191906000526020600020905b815481526020019060010190808311610c90575b5050505050815260200160078201805480602002602001604051908101604052809291908181526020018280548015610cfc57602002820191906000526020600020905b815481526020019060010190808311610ce8575b5050505050815250509050806000015197508060400151965080602001519550806080015194508060a001516002811115610d3357fe5b93508060c0015192508060e00151915050919395979092949650565b600060046000600360008573ffffffffffffffffffffffffffffffffffffffff1673ffffffffffffffffffffffffffffffffffffffff168152602001908152602001600020548152602001908152602001600020600401549050919050565b6000809054906101000a900473ffffffffffffffffffffffffffffffffffffffff1681565b600073ffffffffffffffffffffffffffffffffffffffff16600160009054906101000a900473ffffffffffffffffffffffffffffffffffffffff1673ffffffffffffffffffffffffffffffffffffffff1614610e2e57600080fd5b80600160006101000a81548173ffffffffffffffffffffffffffffffffffffffff021916908373ffffffffffffffffffffffffffffffffffffffff16021790555050565b600060046000600360008773ffffffffffffffffffffffffffffffffffffffff1673ffffffffffffffffffffffffffffffffffffffff168152602001908152602001600020548152602001908152602001600020905080600601839080600181540180825580915050600190039060005260206000200160009091909190915055610f0a82826004015461151990919063ffffffff16565b816004018190555050505050565b600080600360003373ffffffffffffffffffffffffffffffffffffffff1673ffffffffffffffffffffffffffffffffffffffff1681526020019081526020016000205414610f9b576040517f08c379a0000000000000000000000000000000000000000000000000000000008152600401610f9290611d5b565b60405180910390fd5b610fb160016002546114c490919063ffffffff16565b600281905550600254600360003373ffffffffffffffffffffffffffffffffffffffff1673ffffffffffffffffffffffffffffffffffffffff16815260200190815260200160002081905550600060046000600254815260200190815260200160002090508481600001908051906020019061102e929190611624565b5083816001019080519060200190611047929190611624565b5082816002019080519060200190611060929190611624565b50338160030160006101000a81548173ffffffffffffffffffffffffffffffffffffffff021916908373ffffffffffffffffffffffffffffffffffffffff16021790555060018160050160006101000a81548160ff021916908360028111156110c557fe5b02179055507f2f98b1c76410ce8512191c4f9392c1eec008c4254f2366b1ab7eb195702f0d58336040516110f99190611bf6565b60405180910390a16002549150509392505050565b600060046000600360008573ffffffffffffffffffffffffffffffffffffffff1673ffffffffffffffffffffffffffffffffffffffff16815260200190815260200160002054815260200190815260200160002090506001600281111561117157fe5b8160050160009054906101000a900460ff16600281111561118e57fe5b146111ce576040517f08c379a00000000000000000000000000000000000000000000000000000000081526004016111c590611d3b565b60405180910390fd5b60028160050160006101000a81548160ff021916908360028111156111ef57fe5b02179055507f11434ddb2adc98734adcfc3abc944a402adef5b8ee6203e3bcc2d6d23bf23648826040516112239190611bdb565b60405180910390a15050565b600060046000600360008573ffffffffffffffffffffffffffffffffffffffff1673ffffffffffffffffffffffffffffffffffffffff16815260200190815260200160002054815260200190815260200160002060050160009054906101000a900460ff16600281111561129f57fe5b9050919050565b600160009054906101000a900473ffffffffffffffffffffffffffffffffffffffff1681565b8060046000600360003373ffffffffffffffffffffffffffffffffffffffff1673ffffffffffffffffffffffffffffffffffffffff1681526020019081526020016000205481526020019081526020016000206001019080519060200190611335929190611624565b507f5c036e0fb78aa87beea16bba4b6cb9d133815a9b9b40cdfa95b9368e1e37c1c9336040516113659190611bf6565b60405180910390a150565b600160009054906101000a900473ffffffffffffffffffffffffffffffffffffffff1673ffffffffffffffffffffffffffffffffffffffff163373ffffffffffffffffffffffffffffffffffffffff1614611400576040517f08c379a00000000000000000000000000000000000000000000000000000000081526004016113f790611d9b565b60405180910390fd5b600060046000600360008773ffffffffffffffffffffffffffffffffffffffff1673ffffffffffffffffffffffffffffffffffffffff1681526020019081526020016000205481526020019081526020016000209050806007018390806001815401808255809150506001900390600052602060002001600090919091909150556114988282600401546114c490919063ffffffff16565b816004018190555050505050565b60036020528060005260406000206000915090505481565b60025481565b60008082840190508381101561150f576040517f08c379a000000000000000000000000000000000000000000000000000000000815260040161150690611d7b565b60405180910390fd5b8091505092915050565b600061155b83836040518060400160405280601e81526020017f536166654d6174683a207375627472616374696f6e206f766572666c6f770000815250611563565b905092915050565b60008383111582906115ab576040517f08c379a00000000000000000000000000000000000000000000000000000000081526004016115a29190611c11565b60405180910390fd5b5060008385039050809150509392505050565b604051806101000160405280606081526020016060815260200160608152602001600073ffffffffffffffffffffffffffffffffffffffff168152602001600081526020016000600281111561161057fe5b815260200160608152602001606081525090565b828054600181600116156101000203166002900490600052602060002090601f016020900481019282601f1061166557805160ff1916838001178555611693565b82800160010185558215611693579182015b82811115611692578251825591602001919060010190611677565b5b5090506116a091906116a4565b5090565b6116c691905b808211156116c25760008160009055506001016116aa565b5090565b90565b6000813590506116d88161203f565b92915050565b600082601f8301126116ef57600080fd5b81356117026116fd82611e72565b611e45565b9150808252602083016020830185838301111561171e57600080fd5b611729838284611fdf565b50505092915050565b60008135905061174181612056565b92915050565b60006020828403121561175957600080fd5b6000611767848285016116c9565b91505092915050565b60008060006060848603121561178557600080fd5b6000611793868287016116c9565b93505060206117a486828701611732565b92505060406117b586828701611732565b9150509250925092565b6000602082840312156117d157600080fd5b600082013567ffffffffffffffff8111156117eb57600080fd5b6117f7848285016116de565b91505092915050565b60008060006060848603121561181557600080fd5b600084013567ffffffffffffffff81111561182f57600080fd5b61183b868287016116de565b935050602084013567ffffffffffffffff81111561185857600080fd5b611864868287016116de565b925050604084013567ffffffffffffffff81111561188157600080fd5b61188d868287016116de565b9150509250925092565b6000602082840312156118a957600080fd5b60006118b784828501611732565b91505092915050565b60006118cc8383611a25565b905092915050565b60006118e08383611bbd565b60208301905092915050565b6118f581611f97565b82525050565b61190481611f48565b82525050565b600061191582611ebe565b61191f8185611f04565b93508360208202850161193185611e9e565b8060005b8581101561196d578484038952815161194e85826118c0565b945061195983611eea565b925060208a01995050600181019050611935565b50829750879550505050505092915050565b600061198a82611ec9565b6119948185611f15565b935061199f83611eae565b8060005b838110156119d05781516119b788826118d4565b97506119c283611ef7565b9250506001810190506119a3565b5085935050505092915050565b6119e681611fa9565b82525050565b60006119f782611edf565b611a018185611f37565b9350611a11818560208601611fee565b611a1a81612021565b840191505092915050565b6000611a3082611ed4565b611a3a8185611f26565b9350611a4a818560208601611fee565b611a5381612021565b840191505092915050565b6000611a6982611ed4565b611a738185611f37565b9350611a83818560208601611fee565b611a8c81612021565b840191505092915050565b6000611aa4601983611f37565b91507f43616e206f6e6c792070726f6d6f74652061204d656d626572000000000000006000830152602082019050919050565b6000611ae4601083611f37565b91507f5573657220697320656e726f6c6c6564000000000000000000000000000000006000830152602082019050919050565b6000611b24601b83611f37565b91507f536166654d6174683a206164646974696f6e206f766572666c6f7700000000006000830152602082019050919050565b6000611b64602583611f37565b91507f43616c6c206973207265737472696374656420746f20626f756e747920636f6e60008301527f74726163740000000000000000000000000000000000000000000000000000006020830152604082019050919050565b611bc681611f8d565b82525050565b611bd581611f8d565b82525050565b6000602082019050611bf060008301846118fb565b92915050565b6000602082019050611c0b60008301846118ec565b92915050565b60006020820190508181036000830152611c2b81846119ec565b905092915050565b600060e0820190508181036000830152611c4d818a6119ec565b90508181036020830152611c6181896119ec565b90508181036040830152611c7581886119ec565b9050611c846060830187611bcc565b611c916080830186611bcc565b81810360a0830152611ca3818561197f565b905081810360c0830152611cb7818461197f565b905098975050505050505050565b600060c0820190508181036000830152611cdf8189611a5e565b90508181036020830152611cf38188611a5e565b90508181036040830152611d078187611a5e565b9050611d1660608301866118fb565b611d236080830185611bcc565b611d3060a08301846119dd565b979650505050505050565b60006020820190508181036000830152611d5481611a97565b9050919050565b60006020820190508181036000830152611d7481611ad7565b9050919050565b60006020820190508181036000830152611d9481611b17565b9050919050565b60006020820190508181036000830152611db481611b57565b9050919050565b6000602082019050611dd06000830184611bcc565b92915050565b600060a082019050611deb6000830188611bcc565b8181036020830152611dfd818761190a565b90508181036040830152611e11818661190a565b90508181036060830152611e25818561197f565b90508181036080830152611e39818461197f565b90509695505050505050565b6000604051905081810181811067ffffffffffffffff82111715611e6857600080fd5b8060405250919050565b600067ffffffffffffffff821115611e8957600080fd5b601f19601f8301169050602081019050919050565b6000819050602082019050919050565b6000819050602082019050919050565b600081519050919050565b600081519050919050565b600081519050919050565b600081519050919050565b6000602082019050919050565b6000602082019050919050565b600082825260208201905092915050565b600082825260208201905092915050565b600082825260208201905092915050565b600082825260208201905092915050565b6000611f5382611f6d565b9050919050565b6000819050611f6882612032565b919050565b600073ffffffffffffffffffffffffffffffffffffffff82169050919050565b6000819050919050565b6000611fa282611fbb565b9050919050565b6000611fb482611f5a565b9050919050565b6000611fc682611fcd565b9050919050565b6000611fd882611f6d565b9050919050565b82818337600083830152505050565b60005b8381101561200c578082015181840152602081019050611ff1565b8381111561201b576000848401525b50505050565b6000601f19601f8301169050919050565b6003811061203c57fe5b50565b61204881611f48565b811461205357600080fd5b50565b61205f81611f8d565b811461206a57600080fd5b5056fea26469706673582212201926cb84cdbd73fbe41247a8ae64184ace7248cfcd6c366ed77ceb296a134c3064736f6c63430006010033",
  "source": "//SPDX-License-Identifier: MIT\npragma solidity >=0.6.0 <0.8.0;\npragma experimental ABIEncoderV2;\n\nimport \"./interfaces/IUsers.sol\";\n\ncontract Users is IUsers {\n\n    // @param _name - the name of the admin\n    // @param _twitterId - the twitter id of the admin\n    // @param _imageUrl - the google profile photo of the admin\n    constructor(\n        string memory _name,\n        string memory _twitterId,\n        string memory _imageUrl\n    ) public {\n        enroll(\n            _name,\n            _twitterId,\n            _imageUrl\n        );\n        users[1].role = Role.Administrator;\n    }\n\n    /// MUTABLE FUNCTIONS ///\n\n    function enroll(\n        string memory _name,\n        string memory _twitterId,\n        string memory _imageUrl\n    ) public override returns (uint256 _nonce) {\n        require(userID[msg.sender] == 0, \"User is enrolled\");\n        userNonce = userNonce.add(1);\n        userID[msg.sender] = userNonce;\n        User storage user = users[userNonce];\n        user.name = _name;\n        user.twitterId = _twitterId;\n        user.imageUrl = _imageUrl;\n        user.at = msg.sender;\n        user.role = Role.Member;\n        emit UserEnrolled(msg.sender);\n        _nonce = userNonce;\n    }\n\n    function promote(address _user) public override {\n        User storage user = users[userID[_user]];\n        require(user.role == Role.Member, \"Can only promote a Member\");\n        user.role = Role.Administrator;\n        emit UserPromoted(_user);\n    }\n\n    function setTwitterId(string memory _twitterId) public override {\n        users[userID[msg.sender]].twitterId = _twitterId;\n        emit TwitterIDUpdated(msg.sender);\n    }\n\n    function setBounty(address _at) public override {\n        require(bountyContract == address(0));\n        bountyContract = _at;\n    }\n\n    function addItem(\n        address _user,\n        uint256 _item,\n        uint256 _value\n    ) public override {\n        User storage user = users[userID[_user]];\n        user.items.push(_item);\n        user.balance = user.balance.sub(_value);\n    }\n\n    function setItem(address _at) public override {\n        require(itemContract == address(0));\n        itemContract = _at;\n    }\n\n    function addBounty(\n        address _user,\n        uint256 _bounty,\n        uint256 _value\n    ) public override {\n        require(\n            msg.sender == bountyContract,\n            \"Call is restricted to bounty contract\"\n        );\n        User storage user = users[userID[_user]];\n        user.bounties.push(_bounty);\n        user.balance = user.balance.add(_value);\n    }\n\n    /// VIEWABLE FUNCTIONS ///\n\n    function role(address _user) public override view returns (uint256 _role) {\n        _role = uint256(users[userID[_user]].role);\n    }\n\n    function balanceOf(address _user)\n        public\n        override\n        view\n        returns (uint256 _balance)\n    {\n        _balance = users[userID[_user]].balance;\n    }\n\n    function getUser(address _user)\n        public\n        override\n        view\n        returns (\n            string memory _name,\n            string memory _imageUrl,\n            string memory _twitterId,\n            uint256 _balance,\n            uint256 _role,\n            uint256[] memory _items,\n            uint256[] memory _bounties\n        )\n    {\n        User memory user = users[userID[_user]];\n        _name = user.name;\n        _imageUrl = user.imageUrl;\n        _twitterId = user.twitterId;\n        _balance = user.balance;\n        _role = uint256(user.role);\n        _items = user.items;\n        _bounties = user.bounties;\n    }\n\n    function getUsers()\n        public\n        override\n        view\n        returns (\n            uint256 _nonce,\n            string[] memory _names,\n            string[] memory _imageUrls,\n            uint256[] memory _balances,\n            uint256[] memory _roles\n        )\n    {\n        _nonce = userNonce;\n        _names = new string[](_nonce);\n        _imageUrls = new string[](_nonce);\n        _balances = new uint256[](_nonce);\n        _roles = new uint256[](_nonce);\n        for (uint256 i = 0; i < _nonce; i++) {\n            _names[i] = users[i.add(1)].name;\n            _imageUrls[i] = users[i.add(1)].imageUrl;\n            _balances[i] = users[i.add(1)].balance;\n            _roles[i] = uint256(users[i.add(1)].role);\n        }\n    }\n}\n",
  "sourcePath": "/home/kiwi/Desktop/sandbox/contracts/contracts/Users.sol",
  "compiler": {
    "name": "solc",
    "version": "0.6.1+commit.e6f7d5a4.Emscripten.clang"
  },
  "schemaVersion": "3.3.1",
  "updatedAt": "2021-01-10T20:09:33.940Z",
  "networkType": "ethereum",
  "devdoc": {
    "methods": {}
  },
  "userdoc": {
    "methods": {
      "enroll(string,string,string)": {
        "notice": "MUTABLE FUNCTIONS ///"
      },
      "role(address)": {
        "notice": "VIEWABLE FUNCTIONS ///"
      }
    }
  }
}